{
  "abi": [
    {
      "inputs": [
        {
          "internalType": "uint256",
          "name": "initialSupply",
          "type": "uint256"
        },
        {
          "internalType": "address",
          "name": "_airDropContractAddress",
          "type": "address"
        },
        {
          "internalType": "address",
          "name": "_burnWalletAddress",
          "type": "address"
        },
        {
          "internalType": "address",
          "name": "_liquidityWalletAddress",
          "type": "address"
        },
        {
          "internalType": "address payable",
          "name": "_realEstateWalletAddress",
          "type": "address"
        },
        {
          "internalType": "address payable",
          "name": "_marketingWalletAddress",
          "type": "address"
        },
        {
          "internalType": "address payable",
          "name": "_developerWalletAddress",
          "type": "address"
        },
        {
          "internalType": "address",
          "name": "_uniswapRouterAddress",
          "type": "address"
        }
      ],
      "stateMutability": "nonpayable",
      "type": "constructor"
    },
    {
      "anonymous": false,
      "inputs": [
        {
          "indexed": true,
          "internalType": "address",
          "name": "owner",
          "type": "address"
        },
        {
          "indexed": true,
          "internalType": "address",
          "name": "spender",
          "type": "address"
        },
        {
          "indexed": false,
          "internalType": "uint256",
          "name": "value",
          "type": "uint256"
        }
      ],
      "name": "Approval",
      "type": "event"
    },
    {
      "anonymous": false,
      "inputs": [
        {
          "indexed": true,
          "internalType": "address",
          "name": "previousOwner",
          "type": "address"
        },
        {
          "indexed": true,
          "internalType": "address",
          "name": "newOwner",
          "type": "address"
        }
      ],
      "name": "OwnershipTransferred",
      "type": "event"
    },
    {
      "anonymous": false,
      "inputs": [
        {
          "indexed": true,
          "internalType": "address",
          "name": "from",
          "type": "address"
        },
        {
          "indexed": true,
          "internalType": "address",
          "name": "to",
          "type": "address"
        },
        {
          "indexed": false,
          "internalType": "uint256",
          "name": "value",
          "type": "uint256"
        }
      ],
      "name": "Transfer",
      "type": "event"
    },
    {
      "anonymous": false,
      "inputs": [
        {
          "indexed": true,
          "internalType": "uint256",
          "name": "transactionFeeAmount",
          "type": "uint256"
        }
      ],
      "name": "developerTransactionFeeUpdated",
      "type": "event"
    },
    {
      "anonymous": false,
      "inputs": [
        {
          "indexed": true,
          "internalType": "uint256",
          "name": "transactionFeeAmount",
          "type": "uint256"
        }
      ],
      "name": "marketingTransactionFeeUpdated",
      "type": "event"
    },
    {
      "anonymous": false,
      "inputs": [
        {
          "indexed": true,
          "internalType": "uint256",
          "name": "transactionFeeAmount",
          "type": "uint256"
        }
      ],
      "name": "realEstateTransactionFeeUpdated",
      "type": "event"
    },
    {
      "inputs": [],
      "name": "airDropContractAddress",
      "outputs": [
        {
          "internalType": "address",
          "name": "",
          "type": "address"
        }
      ],
      "stateMutability": "view",
      "type": "function"
    },
    {
      "inputs": [
        {
          "internalType": "address",
          "name": "",
          "type": "address"
        }
      ],
      "name": "airDropInvestTime",
      "outputs": [
        {
          "internalType": "uint256",
          "name": "",
          "type": "uint256"
        }
      ],
      "stateMutability": "view",
      "type": "function"
    },
    {
      "inputs": [
        {
          "internalType": "address",
          "name": "owner",
          "type": "address"
        },
        {
          "internalType": "address",
          "name": "spender",
          "type": "address"
        }
      ],
      "name": "allowance",
      "outputs": [
        {
          "internalType": "uint256",
          "name": "",
          "type": "uint256"
        }
      ],
      "stateMutability": "view",
      "type": "function"
    },
    {
      "inputs": [
        {
          "internalType": "address",
          "name": "spender",
          "type": "address"
        },
        {
          "internalType": "uint256",
          "name": "amount",
          "type": "uint256"
        }
      ],
      "name": "approve",
      "outputs": [
        {
          "internalType": "bool",
          "name": "",
          "type": "bool"
        }
      ],
      "stateMutability": "nonpayable",
      "type": "function"
    },
    {
      "inputs": [
        {
          "internalType": "address",
          "name": "account",
          "type": "address"
        }
      ],
      "name": "balanceOf",
      "outputs": [
        {
          "internalType": "uint256",
          "name": "",
          "type": "uint256"
        }
      ],
      "stateMutability": "view",
      "type": "function"
    },
    {
      "inputs": [
        {
          "internalType": "address",
          "name": "",
          "type": "address"
        }
      ],
      "name": "blacklist",
      "outputs": [
        {
          "internalType": "bool",
          "name": "",
          "type": "bool"
        }
      ],
      "stateMutability": "view",
      "type": "function"
    },
    {
      "inputs": [
        {
          "internalType": "address",
          "name": "user",
          "type": "address"
        },
        {
          "internalType": "uint256",
          "name": "amount",
          "type": "uint256"
        }
      ],
      "name": "burn",
      "outputs": [],
      "stateMutability": "nonpayable",
      "type": "function"
    },
    {
      "inputs": [],
      "name": "burnWalletAddress",
      "outputs": [
        {
          "internalType": "address",
          "name": "",
          "type": "address"
        }
      ],
      "stateMutability": "view",
      "type": "function"
    },
    {
      "inputs": [],
      "name": "contractCHESDivisor",
      "outputs": [
        {
          "internalType": "uint256",
          "name": "",
          "type": "uint256"
        }
      ],
      "stateMutability": "view",
      "type": "function"
    },
    {
      "inputs": [],
      "name": "decimals",
      "outputs": [
        {
          "internalType": "uint8",
          "name": "",
          "type": "uint8"
        }
      ],
      "stateMutability": "view",
      "type": "function"
    },
    {
      "inputs": [
        {
          "internalType": "address",
          "name": "spender",
          "type": "address"
        },
        {
          "internalType": "uint256",
          "name": "subtractedValue",
          "type": "uint256"
        }
      ],
      "name": "decreaseAllowance",
      "outputs": [
        {
          "internalType": "bool",
          "name": "",
          "type": "bool"
        }
      ],
      "stateMutability": "nonpayable",
      "type": "function"
    },
    {
      "inputs": [],
      "name": "developerFeePercent",
      "outputs": [
        {
          "internalType": "uint256",
          "name": "",
          "type": "uint256"
        }
      ],
      "stateMutability": "view",
      "type": "function"
    },
    {
      "inputs": [],
      "name": "developerWalletAddress",
      "outputs": [
        {
          "internalType": "address payable",
          "name": "",
          "type": "address"
        }
      ],
      "stateMutability": "view",
      "type": "function"
    },
    {
      "inputs": [],
      "name": "disperseFeesManually",
      "outputs": [],
      "stateMutability": "nonpayable",
      "type": "function"
    },
    {
      "inputs": [
        {
          "internalType": "address",
          "name": "user",
          "type": "address"
        }
      ],
      "name": "excludeUserFromFees",
      "outputs": [],
      "stateMutability": "nonpayable",
      "type": "function"
    },
    {
      "inputs": [
        {
          "internalType": "address",
          "name": "",
          "type": "address"
        }
      ],
      "name": "excludedFromFees",
      "outputs": [
        {
          "internalType": "bool",
          "name": "",
          "type": "bool"
        }
      ],
      "stateMutability": "view",
      "type": "function"
    },
    {
      "inputs": [],
      "name": "getContractAddress",
      "outputs": [
        {
          "internalType": "address",
          "name": "",
          "type": "address"
        }
      ],
      "stateMutability": "view",
      "type": "function"
    },
    {
      "inputs": [],
      "name": "getCurrentTimestamp",
      "outputs": [
        {
          "internalType": "uint256",
          "name": "",
          "type": "uint256"
        }
      ],
      "stateMutability": "view",
      "type": "function"
    },
    {
      "inputs": [
        {
          "internalType": "address",
          "name": "user",
          "type": "address"
        }
      ],
      "name": "includeUsersInFees",
      "outputs": [],
      "stateMutability": "nonpayable",
      "type": "function"
    },
    {
      "inputs": [
        {
          "internalType": "address",
          "name": "spender",
          "type": "address"
        },
        {
          "internalType": "uint256",
          "name": "addedValue",
          "type": "uint256"
        }
      ],
      "name": "increaseAllowance",
      "outputs": [
        {
          "internalType": "bool",
          "name": "",
          "type": "bool"
        }
      ],
      "stateMutability": "nonpayable",
      "type": "function"
    },
    {
      "inputs": [],
      "name": "initialTimeStamp",
      "outputs": [
        {
          "internalType": "uint256",
          "name": "",
          "type": "uint256"
        }
      ],
      "stateMutability": "view",
      "type": "function"
    },
    {
      "inputs": [],
      "name": "liquidityWalletAddress",
      "outputs": [
        {
          "internalType": "address",
          "name": "",
          "type": "address"
        }
      ],
      "stateMutability": "view",
      "type": "function"
    },
    {
      "inputs": [],
      "name": "marketingFeePercent",
      "outputs": [
        {
          "internalType": "uint256",
          "name": "",
          "type": "uint256"
        }
      ],
      "stateMutability": "view",
      "type": "function"
    },
    {
      "inputs": [],
      "name": "marketingWalletAddress",
      "outputs": [
        {
          "internalType": "address payable",
          "name": "",
          "type": "address"
        }
      ],
      "stateMutability": "view",
      "type": "function"
    },
    {
      "inputs": [
        {
          "internalType": "address",
          "name": "user",
          "type": "address"
        },
        {
          "internalType": "uint256",
          "name": "amount",
          "type": "uint256"
        }
      ],
      "name": "mint",
      "outputs": [],
      "stateMutability": "nonpayable",
      "type": "function"
    },
    {
      "inputs": [
        {
          "internalType": "address",
          "name": "",
          "type": "address"
        }
      ],
      "name": "minters",
      "outputs": [
        {
          "internalType": "bool",
          "name": "",
          "type": "bool"
        }
      ],
      "stateMutability": "view",
      "type": "function"
    },
    {
      "inputs": [],
      "name": "name",
      "outputs": [
        {
          "internalType": "string",
          "name": "",
          "type": "string"
        }
      ],
      "stateMutability": "view",
      "type": "function"
    },
    {
      "inputs": [],
      "name": "owner",
      "outputs": [
        {
          "internalType": "address",
          "name": "",
          "type": "address"
        }
      ],
      "stateMutability": "view",
      "type": "function"
    },
    {
      "inputs": [],
      "name": "realEstateTransactionFeePercent",
      "outputs": [
        {
          "internalType": "uint256",
          "name": "",
          "type": "uint256"
        }
      ],
      "stateMutability": "view",
      "type": "function"
    },
    {
      "inputs": [],
      "name": "realEstateWalletAddress",
      "outputs": [
        {
          "internalType": "address payable",
          "name": "",
          "type": "address"
        }
      ],
      "stateMutability": "view",
      "type": "function"
    },
    {
      "inputs": [],
      "name": "renounceOwnership",
      "outputs": [],
      "stateMutability": "nonpayable",
      "type": "function"
    },
    {
      "inputs": [
        {
          "internalType": "address",
          "name": "user",
          "type": "address"
        },
        {
          "internalType": "uint256",
          "name": "airDropInvestTimeVal",
          "type": "uint256"
        }
      ],
      "name": "setAirDropInvestTime",
      "outputs": [],
      "stateMutability": "nonpayable",
      "type": "function"
    },
    {
      "inputs": [
        {
          "internalType": "uint256",
          "name": "newDivisor",
          "type": "uint256"
        }
      ],
      "name": "setContractCHESDivisor",
      "outputs": [],
      "stateMutability": "nonpayable",
      "type": "function"
    },
    {
      "inputs": [
        {
          "internalType": "address",
          "name": "tokenClaimAddress",
          "type": "address"
        }
      ],
      "name": "setTokenClaimContractAddress",
      "outputs": [],
      "stateMutability": "nonpayable",
      "type": "function"
    },
    {
      "inputs": [
        {
          "internalType": "uint256",
          "name": "amount",
          "type": "uint256"
        },
        {
          "internalType": "bool",
          "name": "useAmount",
          "type": "bool"
        }
      ],
      "name": "swapCHESForBNBManually",
      "outputs": [],
      "stateMutability": "nonpayable",
      "type": "function"
    },
    {
      "inputs": [],
      "name": "symbol",
      "outputs": [
        {
          "internalType": "string",
          "name": "",
          "type": "string"
        }
      ],
      "stateMutability": "view",
      "type": "function"
    },
    {
      "inputs": [],
      "name": "tokenClaimContractAddress",
      "outputs": [
        {
          "internalType": "address",
          "name": "",
          "type": "address"
        }
      ],
      "stateMutability": "view",
      "type": "function"
    },
    {
      "inputs": [],
      "name": "totalSupply",
      "outputs": [
        {
          "internalType": "uint256",
          "name": "",
          "type": "uint256"
        }
      ],
      "stateMutability": "view",
      "type": "function"
    },
    {
      "inputs": [
        {
          "internalType": "address",
          "name": "recipient",
          "type": "address"
        },
        {
          "internalType": "uint256",
          "name": "amount",
          "type": "uint256"
        }
      ],
      "name": "transfer",
      "outputs": [
        {
          "internalType": "bool",
          "name": "",
          "type": "bool"
        }
      ],
      "stateMutability": "nonpayable",
      "type": "function"
    },
    {
      "inputs": [
        {
          "internalType": "address",
          "name": "from",
          "type": "address"
        },
        {
          "internalType": "address",
          "name": "to",
          "type": "address"
        },
        {
          "internalType": "uint256",
          "name": "amount",
          "type": "uint256"
        }
      ],
      "name": "transferFrom",
      "outputs": [
        {
          "internalType": "bool",
          "name": "",
          "type": "bool"
        }
      ],
      "stateMutability": "nonpayable",
      "type": "function"
    },
    {
      "inputs": [
        {
          "internalType": "address",
          "name": "newOwner",
          "type": "address"
        }
      ],
      "name": "transferOwnership",
      "outputs": [],
      "stateMutability": "nonpayable",
      "type": "function"
    },
    {
      "inputs": [],
      "name": "uniswapPair",
      "outputs": [
        {
          "internalType": "address",
          "name": "",
          "type": "address"
        }
      ],
      "stateMutability": "view",
      "type": "function"
    },
    {
      "inputs": [],
      "name": "uniswapRouterAddress",
      "outputs": [
        {
          "internalType": "address",
          "name": "",
          "type": "address"
        }
      ],
      "stateMutability": "view",
      "type": "function"
    },
    {
      "inputs": [
        {
          "internalType": "address",
          "name": "user",
          "type": "address"
        },
        {
          "internalType": "bool",
          "name": "blacklisted",
          "type": "bool"
        }
      ],
      "name": "updateBlackList",
      "outputs": [],
      "stateMutability": "nonpayable",
      "type": "function"
    },
    {
      "inputs": [
        {
          "internalType": "uint256",
          "name": "newDeveloperTransactionFee",
          "type": "uint256"
        }
      ],
      "name": "updateDeveloperTransactionFee",
      "outputs": [],
      "stateMutability": "nonpayable",
      "type": "function"
    },
    {
      "inputs": [
        {
          "internalType": "uint256",
          "name": "newMarketingTransactionFee",
          "type": "uint256"
        }
      ],
      "name": "updateMarketingTransactionFee",
      "outputs": [],
      "stateMutability": "nonpayable",
      "type": "function"
    },
    {
      "inputs": [
        {
          "internalType": "address",
          "name": "user",
          "type": "address"
        },
        {
          "internalType": "bool",
          "name": "isMinter",
          "type": "bool"
        }
      ],
      "name": "updateMinter",
      "outputs": [],
      "stateMutability": "nonpayable",
      "type": "function"
    },
    {
      "inputs": [
        {
          "internalType": "uint256",
          "name": "newRealEstateTransactionFee",
          "type": "uint256"
        }
      ],
      "name": "updateRealEstateTransactionFee",
      "outputs": [],
      "stateMutability": "nonpayable",
      "type": "function"
    },
    {
      "stateMutability": "payable",
      "type": "receive"
    }
  ],
  "bytecode": "60806040526003601255600160135560016014556103e86018553480156200002657600080fd5b506040516200314e3803806200314e8339810160408190526200004991620008d1565b604080518082018252601281527121b430b4b722b9ba30ba32aa37b5b2b72b1960711b6020808301918252835180850190945260048452634348455360e01b9084015281519192916200009f9160039162000812565b508051620000b590600490602084019062000812565b505050620000d2620000cc620004e960201b60201c565b620004ed565b63621559d4601155600a80546001600160a01b03199081166001600160a01b038a8116919091178355600c80548316888316908117909155600b805484168b8416179055600d805484168a8416178155600e80548516898516178155600f805486168986161781556010805490961688861617909555600092835260066020526040808420805460ff199081166001908117909255965486168552818520805488168217905591548516845280842080548716831790559154841683528183208054861682179055855484168352912080549093161790915590546a13541c473f5f57f5bc000091620001ee9116826064620001d08d60236200099c565b620001dc9190620009be565b620001e89190620009e1565b6200053f565b600d5462000227906001600160a01b031682600a6200020f8d60036200099c565b6200021b9190620009be565b620001e89190620009fb565b600b5462000245906001600160a01b0316620001e860058c620009be565b600e5462000271906001600160a01b03166064620002658c60056200099c565b620001e89190620009be565b600f546200028f906001600160a01b0316620001e8600a8c620009be565b601054601580546001600160a01b0319166001600160a01b039092169182179055620002bd30828c62000636565b806001600160a01b031663c45a01556040518163ffffffff1660e01b815260040160206040518083038186803b158015620002f757600080fd5b505afa1580156200030c573d6000803e3d6000fd5b505050506040513d601f19601f8201168201806040525081019062000332919062000a16565b6001600160a01b031663c9c6539630836001600160a01b031663ad5c46486040518163ffffffff1660e01b815260040160206040518083038186803b1580156200037b57600080fd5b505afa15801562000390573d6000803e3d6000fd5b505050506040513d601f19601f82011682018060405250810190620003b6919062000a16565b6040516001600160e01b031960e085901b1681526001600160a01b03928316600482015291166024820152604401602060405180830381600087803b158015620003ff57600080fd5b505af115801562000414573d6000803e3d6000fd5b505050506040513d601f19601f820116820180604052508101906200043a919062000a16565b601680546001600160a01b0319166001600160a01b0392831690811790915560155460405163095ea7b360e01b81529216600483015260001960248301529063095ea7b390604401602060405180830381600087803b1580156200049d57600080fd5b505af1158015620004b2573d6000803e3d6000fd5b505050506040513d601f19601f82011682018060405250810190620004d8919062000a3d565b505050505050505050505062000a9e565b3390565b600580546001600160a01b038381166001600160a01b0319831681179093556040519116919082907f8be0079c531659141344cd1fd0a4f28419497f9722a3daafe3b4186f6b6457e090600090a35050565b6001600160a01b0382166200059b5760405162461bcd60e51b815260206004820152601f60248201527f45524332303a206d696e7420746f20746865207a65726f20616464726573730060448201526064015b60405180910390fd5b8060026000828254620005af9190620009fb565b90915550506001600160a01b03821660009081526020819052604081208054839290620005de908490620009fb565b90915550506040518181526001600160a01b038316906000907fddf252ad1be2c89b69c2b068fc378daa952ba7f163c4a11628f55a4df523b3ef9060200160405180910390a3620006326000838362000763565b5050565b6001600160a01b0383166200069a5760405162461bcd60e51b8152602060048201526024808201527f45524332303a20617070726f76652066726f6d20746865207a65726f206164646044820152637265737360e01b606482015260840162000592565b6001600160a01b038216620006fd5760405162461bcd60e51b815260206004820152602260248201527f45524332303a20617070726f766520746f20746865207a65726f206164647265604482015261737360f01b606482015260840162000592565b6001600160a01b0383811660008181526001602090815260408083209487168084529482529182902085905590518481527f8c5be1e5ebec7d5bd14f71427d1e84f3dd0314c0f7b2291e5b200ac8c7c3b925910160405180910390a3505050565b505050565b6001600160a01b0382166000818152602081905260409020549015620007f4576001600160a01b0383166000908152600760205260409020548190620007aa8483620009e1565b620007b691906200099c565b620007c242856200099c565b620007ce9190620009fb565b620007da9190620009be565b6001600160a01b0384166000908152600760205260409020555b6200080c8484846200075e60201b62000fb61760201c565b50505050565b828054620008209062000a61565b90600052602060002090601f0160209004810192826200084457600085556200088f565b82601f106200085f57805160ff19168380011785556200088f565b828001600101855582156200088f579182015b828111156200088f57825182559160200191906001019062000872565b506200089d929150620008a1565b5090565b5b808211156200089d5760008155600101620008a2565b6001600160a01b0381168114620008ce57600080fd5b50565b600080600080600080600080610100898b031215620008ef57600080fd5b8851975060208901516200090381620008b8565b60408a01519097506200091681620008b8565b60608a01519096506200092981620008b8565b60808a01519095506200093c81620008b8565b60a08a01519094506200094f81620008b8565b60c08a01519093506200096281620008b8565b60e08a01519092506200097581620008b8565b809150509295985092959890939650565b634e487b7160e01b600052601160045260246000fd5b6000816000190483118215151615620009b957620009b962000986565b500290565b600082620009dc57634e487b7160e01b600052601260045260246000fd5b500490565b600082821015620009f657620009f662000986565b500390565b6000821982111562000a115762000a1162000986565b500190565b60006020828403121562000a2957600080fd5b815162000a3681620008b8565b9392505050565b60006020828403121562000a5057600080fd5b8151801515811462000a3657600080fd5b600181811c9082168062000a7657607f821691505b6020821081141562000a9857634e487b7160e01b600052602260045260246000fd5b50919050565b6126a08062000aae6000396000f3fe6080604052600436106102975760003560e01c806378c1d2451161015a578063c816841b116100c1578063f2fde38b1161007a578063f2fde38b146107f5578063f439d93c14610815578063f46eccc414610835578063f94d733d14610865578063f9f92be41461087b578063fc2eb889146108ab57600080fd5b8063c816841b14610709578063d158272d14610729578063da6fa55c14610749578063dbe66ca01461075f578063dd62ed3e1461078f578063ecc63390146107d557600080fd5b80639dc29fac116101135780639dc29fac14610649578063a457c2d714610669578063a9059cbb14610689578063aac86d4e146106a9578063ac65c870146106c9578063bbeaa1f8146106e957600080fd5b806378c1d245146105a15780637be7b656146105c15780637c13efd4146105e15780638da5cb5b146105f65780638eb83f251461061457806395d89b411461063457600080fd5b806343620e71116101fe5780636b9c58df116101b75780636b9c58df146105035780636c9230db146105235780636e2b0e471461053657806370a082311461054c578063715018a61461056c57806372b116371461058157600080fd5b806343620e711461044d5780634fcd12851461046d578063502f91ec146104835780635b3c1da1146104a35780635b81c1a4146104c357806361eb048a146104e357600080fd5b806323b872dd1161025057806323b872dd146103a65780632fb47be4146103c6578063313ce567146103dc57806332a2c5d0146103f8578063395093511461040b57806340c10f191461042b57600080fd5b806306fdde03146102a3578063095ea7b3146102ce5780631497b01b146102fe57806318160ddd146103395780631ba7f00f1461034e57806320ca3c7f1461038657600080fd5b3661029e57005b600080fd5b3480156102af57600080fd5b506102b86108cb565b6040516102c59190612274565b60405180910390f35b3480156102da57600080fd5b506102ee6102e93660046122de565b61095d565b60405190151581526020016102c5565b34801561030a57600080fd5b5061032b61031936600461230a565b60076020526000908152604090205481565b6040519081526020016102c5565b34801561034557600080fd5b5060025461032b565b34801561035a57600080fd5b50600a5461036e906001600160a01b031681565b6040516001600160a01b0390911681526020016102c5565b34801561039257600080fd5b5060105461036e906001600160a01b031681565b3480156103b257600080fd5b506102ee6103c1366004612327565b610977565b3480156103d257600080fd5b5061032b60115481565b3480156103e857600080fd5b50604051601281526020016102c5565b34801561040457600080fd5b503061036e565b34801561041757600080fd5b506102ee6104263660046122de565b610d77565b34801561043757600080fd5b5061044b6104463660046122de565b610db6565b005b34801561045957600080fd5b5061044b61046836600461237d565b610e37565b34801561047957600080fd5b5061032b60135481565b34801561048f57600080fd5b50600c5461036e906001600160a01b031681565b3480156104af57600080fd5b50600b5461036e906001600160a01b031681565b3480156104cf57600080fd5b5061044b6104de3660046123b2565b610e8c565b3480156104ef57600080fd5b50600f5461036e906001600160a01b031681565b34801561050f57600080fd5b5061044b61051e3660046123cb565b610f56565b34801561052f57600080fd5b504261032b565b34801561054257600080fd5b5061032b60125481565b34801561055857600080fd5b5061032b61056736600461230a565b610fbb565b34801561057857600080fd5b5061044b610fd6565b34801561058d57600080fd5b5061044b61059c3660046122de565b61100c565b3480156105ad57600080fd5b5061044b6105bc36600461230a565b6110a0565b3480156105cd57600080fd5b5061044b6105dc3660046123b2565b6110ee565b3480156105ed57600080fd5b5061044b6111c2565b34801561060257600080fd5b506005546001600160a01b031661036e565b34801561062057600080fd5b50600d5461036e906001600160a01b031681565b34801561064057600080fd5b506102b86111f9565b34801561065557600080fd5b5061044b6106643660046122de565b611208565b34801561067557600080fd5b506102ee6106843660046122de565b611285565b34801561069557600080fd5b506102ee6106a43660046122de565b611322565b3480156106b557600080fd5b5061044b6106c436600461230a565b6116d3565b3480156106d557600080fd5b5060175461036e906001600160a01b031681565b3480156106f557600080fd5b5061044b61070436600461230a565b61171f565b34801561071557600080fd5b5060165461036e906001600160a01b031681565b34801561073557600080fd5b50600e5461036e906001600160a01b031681565b34801561075557600080fd5b5061032b60145481565b34801561076b57600080fd5b506102ee61077a36600461230a565b60066020526000908152604090205460ff1681565b34801561079b57600080fd5b5061032b6107aa3660046123ee565b6001600160a01b03918216600090815260016020908152604080832093909416825291909152205490565b3480156107e157600080fd5b5061044b6107f03660046123b2565b61176a565b34801561080157600080fd5b5061044b61081036600461230a565b611835565b34801561082157600080fd5b5061044b6108303660046123b2565b6118cd565b34801561084157600080fd5b506102ee61085036600461230a565b60096020526000908152604090205460ff1681565b34801561087157600080fd5b5061032b60185481565b34801561088757600080fd5b506102ee61089636600461230a565b60086020526000908152604090205460ff1681565b3480156108b757600080fd5b5061044b6108c636600461237d565b6118fc565b6060600380546108da90612427565b80601f016020809104026020016040519081016040528092919081815260200182805461090690612427565b80156109535780601f1061092857610100808354040283529160200191610953565b820191906000526020600020905b81548152906001019060200180831161093657829003601f168201915b5050505050905090565b60003361096b818585611951565b60019150505b92915050565b3360009081526008602052604081205460ff16156109b05760405162461bcd60e51b81526004016109a790612462565b60405180910390fd5b6001600160a01b03841660009081526008602052604090205460ff1615610ac85760405162461bcd60e51b81526020600482015260ad60248201527f546865206164647265737320796f7527726520747279696e6720746f2073706560448201527f6e642074686520746f6b656e732066726f6d20686173206265656e20626c616360648201527f6b6c69737465642066726f6d2074726164696e6720746865204348455320746f60848201527f6b656e2e20496620796f75207468696e6b207468697320697320616e2065727260a48201527f6f722c20706c6561736520636f6e746163742074686520436861696e2045737460c48201526c30ba32902220a7903a32b0b69760991b60e4820152610104016109a7565b6001600160a01b03831660009081526008602052604090205460ff1615610bda5760405162461bcd60e51b81526020600482015260a760248201527f546865206164647265737320796f752061726520747279696e6720746f20736560448201527f6e6420746f6b656e7320746f20686173206265656e20626c61636b6c6973746560648201527f642066726f6d2074726164696e6720746865204348455320746f6b656e2e204960848201527f6620796f75207468696e6b207468697320697320616e206572726f722c20706c60a48201527f6561736520636f6e746163742074686520436861696e2045737461746520444160c48201526627903a32b0b69760c91b60e4820152610104016109a7565b6001600160a01b03841660009081526006602052604090205460ff1680610c1957506001600160a01b03831660009081526006602052604090205460ff165b80610c3357503360009081526006602052604090205460ff165b15610c5657610c43843384611a75565b610c4e848484611b07565b506001610d70565b6000606460125484610c689190612521565b610c729190612540565b90506000606460145485610c869190612521565b610c909190612540565b90506000606460135486610ca49190612521565b610cae9190612540565b9050600081610cbd8486612562565b610cc79190612562565b9050610cd4883388611a75565b610cdf883083611b07565b6000610cea30610fbb565b6016549091506001600160a01b0316336001600160a01b031614610d4c57601854601654610d20906001600160a01b0316610fbb565b610d2a9190612540565b811115610d3a57610d3a81611cdb565b478015610d4a57610d4a47611e44565b505b6000610d58838961257a565b9050610d658a8a83611b07565b600196505050505050505b9392505050565b3360008181526001602090815260408083206001600160a01b038716845290915281205490919061096b9082908690610db1908790612562565b611951565b3360009081526009602052604090205460ff16610e295760405162461bcd60e51b815260206004820152602b60248201527f596f7520617265206e6f7420617574686f72697a656420746f206d696e74204360448201526a2422a9903a37b5b2b7399760a91b60648201526084016109a7565b610e338282611f62565b5050565b6005546001600160a01b03163314610e615760405162461bcd60e51b81526004016109a790612591565b6001600160a01b03919091166000908152600960205260409020805460ff1916911515919091179055565b6005546001600160a01b03163314610eb65760405162461bcd60e51b81526004016109a790612591565b6005811115610f245760405162461bcd60e51b815260206004820152603460248201527f546865206d61726b6574696e67207472616e73616374696f6e206665652063616044820152733713ba1031329036b7b932903a3430b7101a929760611b60648201526084016109a7565b601481905560405181907eec95f51190fc49500bf726b0c72cb5c1b132f7bfe7685a33bda07defe3a8a890600090a250565b6005546001600160a01b03163314610f805760405162461bcd60e51b81526004016109a790612591565b8015610f9457610f8f82611cdb565b610fac565b6000610f9f30610fbb565b9050610faa81611cdb565b505b47610fb681611e44565b505050565b6001600160a01b031660009081526020819052604090205490565b6005546001600160a01b031633146110005760405162461bcd60e51b81526004016109a790612591565b61100a6000612049565b565b6017546001600160a01b031633146110845760405162461bcd60e51b815260206004820152603560248201527f4f6e6c792074686520746f6b656e20636c61696d20636f6e7472616374206361604482015274371031b0b636103a3434b990333ab731ba34b7b71760591b60648201526084016109a7565b6001600160a01b03909116600090815260076020526040902055565b6005546001600160a01b031633146110ca5760405162461bcd60e51b81526004016109a790612591565b6001600160a01b03166000908152600660205260409020805460ff19166001179055565b6005546001600160a01b031633146111185760405162461bcd60e51b81526004016109a790612591565b601481111561118f5760405162461bcd60e51b815260206004820152603760248201527f546865207265616c20657374617465207472616e73616374696f6e206665652060448201527f63616e2774206265206d6f7265207468616e203230252e00000000000000000060648201526084016109a7565b601281905560405181907f5e294032e562253d1bd8479e26981cf9e5b7ab3e93218bfd57214de3418f0b1c90600090a250565b6005546001600160a01b031633146111ec5760405162461bcd60e51b81526004016109a790612591565b476111f681611e44565b50565b6060600480546108da90612427565b3360009081526009602052604090205460ff1661127b5760405162461bcd60e51b815260206004820152602b60248201527f596f7520617265206e6f7420617574686f72697a656420746f206275726e204360448201526a2422a9903a37b5b2b7399760a91b60648201526084016109a7565b610e33828261209b565b3360008181526001602090815260408083206001600160a01b03871684529091528120549091908381101561130a5760405162461bcd60e51b815260206004820152602560248201527f45524332303a2064656372656173656420616c6c6f77616e63652062656c6f77604482015264207a65726f60d81b60648201526084016109a7565b6113178286868403611951565b506001949350505050565b3360009081526008602052604081205460ff16156113525760405162461bcd60e51b81526004016109a790612462565b6001600160a01b03831660009081526008602052604090205460ff16156114625760405162461bcd60e51b81526020600482015260a560248201527f546865206164647265737320796f752061726520747279696e6720746f20736560448201527f6e64204348455320746f20686173206265656e20626c61636b6c69737465642060648201527f66726f6d2074726164696e6720746865204348455320746f6b656e2e2049662060848201527f796f75207468696e6b207468697320697320616e206572726f722c20706c656160a48201527f736520636f6e746163742074686520436861696e204573746174652044414f2060c4820152643a32b0b69760d91b60e4820152610104016109a7565b6016546001600160a01b0316336001600160a01b031614801561149557503360009081526006602052604090205460ff16155b80156114ba57506001600160a01b03831660009081526006602052604090205460ff16155b156115725760a66114ca60025490565b6114d49190612540565b826114de85610fbb565b6114e89190612562565b106115725760405162461bcd60e51b815260206004820152604e60248201527f596f752063616e27742068617665206d6f7265207468616e203225206f66207460448201527f686520746f74616c204348455320737570706c7920616674657220612050616e60648201526d31b0b5b2a9bbb0b81039bbb0b81760911b608482015260a4016109a7565b3360009081526006602052604090205460ff16806115a857506001600160a01b03831660009081526006602052604090205460ff165b156115c0576115b8338484611b07565b506001610971565b60006064601254846115d29190612521565b6115dc9190612540565b905060006064601454856115f09190612521565b6115fa9190612540565b9050600060646013548661160e9190612521565b6116189190612540565b90506000816116278486612562565b6116319190612562565b905061163e333083611b07565b600061164930610fbb565b6016549091506001600160a01b0316336001600160a01b0316146116ab5760185460165461167f906001600160a01b0316610fbb565b6116899190612540565b8111156116995761169981611cdb565b4780156116a9576116a947611e44565b505b60006116b7838961257a565b90506116c4338a83611b07565b50600198975050505050505050565b6005546001600160a01b031633146116fd5760405162461bcd60e51b81526004016109a790612591565b601780546001600160a01b0319166001600160a01b0392909216919091179055565b6005546001600160a01b031633146117495760405162461bcd60e51b81526004016109a790612591565b6001600160a01b03166000908152600660205260409020805460ff19169055565b6005546001600160a01b031633146117945760405162461bcd60e51b81526004016109a790612591565b60058111156118025760405162461bcd60e51b815260206004820152603460248201527f54686520646576656c6f706572207472616e73616374696f6e206665652063616044820152733713ba1031329036b7b932903a3430b7101a929760611b60648201526084016109a7565b601381905560405181907f4bee3c216a701857abd67fed754efdd065a8599be5476e2c4b118fb1896b9ffa90600090a250565b6005546001600160a01b0316331461185f5760405162461bcd60e51b81526004016109a790612591565b6001600160a01b0381166118c45760405162461bcd60e51b815260206004820152602660248201527f4f776e61626c653a206e6577206f776e657220697320746865207a65726f206160448201526564647265737360d01b60648201526084016109a7565b6111f681612049565b6005546001600160a01b031633146118f75760405162461bcd60e51b81526004016109a790612591565b601855565b6005546001600160a01b031633146119265760405162461bcd60e51b81526004016109a790612591565b6001600160a01b03919091166000908152600860205260409020805460ff1916911515919091179055565b6001600160a01b0383166119b35760405162461bcd60e51b8152602060048201526024808201527f45524332303a20617070726f76652066726f6d20746865207a65726f206164646044820152637265737360e01b60648201526084016109a7565b6001600160a01b038216611a145760405162461bcd60e51b815260206004820152602260248201527f45524332303a20617070726f766520746f20746865207a65726f206164647265604482015261737360f01b60648201526084016109a7565b6001600160a01b0383811660008181526001602090815260408083209487168084529482529182902085905590518481527f8c5be1e5ebec7d5bd14f71427d1e84f3dd0314c0f7b2291e5b200ac8c7c3b925910160405180910390a3505050565b6001600160a01b038381166000908152600160209081526040808320938616835292905220546000198114611b015781811015611af45760405162461bcd60e51b815260206004820152601d60248201527f45524332303a20696e73756666696369656e7420616c6c6f77616e636500000060448201526064016109a7565b611b018484848403611951565b50505050565b6001600160a01b038316611b6b5760405162461bcd60e51b815260206004820152602560248201527f45524332303a207472616e736665722066726f6d20746865207a65726f206164604482015264647265737360d81b60648201526084016109a7565b6001600160a01b038216611bcd5760405162461bcd60e51b815260206004820152602360248201527f45524332303a207472616e7366657220746f20746865207a65726f206164647260448201526265737360e81b60648201526084016109a7565b6001600160a01b03831660009081526020819052604090205481811015611c455760405162461bcd60e51b815260206004820152602660248201527f45524332303a207472616e7366657220616d6f756e7420657863656564732062604482015265616c616e636560d01b60648201526084016109a7565b6001600160a01b03808516600090815260208190526040808220858503905591851681529081208054849290611c7c908490612562565b92505081905550826001600160a01b0316846001600160a01b03167fddf252ad1be2c89b69c2b068fc378daa952ba7f163c4a11628f55a4df523b3ef84604051611cc891815260200190565b60405180910390a3611b018484846121ec565b6040805160028082526060820183526000926020830190803683370190505090503081600081518110611d1057611d106125c6565b6001600160a01b03928316602091820292909201810191909152601554604080516315ab88c960e31b81529051919093169263ad5c4648926004808301939192829003018186803b158015611d6457600080fd5b505afa158015611d78573d6000803e3d6000fd5b505050506040513d601f19601f82011682018060405250810190611d9c91906125dc565b81600181518110611daf57611daf6125c6565b6001600160a01b039283166020918202929092010152601554611dd59130911684611951565b60155460405163791ac94760e01b81526001600160a01b039091169063791ac94790611e0e9085906000908690309042906004016125f9565b600060405180830381600087803b158015611e2857600080fd5b505af1158015611e3c573d6000803e3d6000fd5b505050505050565b6000601354601454601254611e599190612562565b611e639190612562565b600c546012549192506001600160a01b0316906108fc908390611e869086612521565b611e909190612540565b6040518115909202916000818181858888f19350505050158015611eb8573d6000803e3d6000fd5b50600e546014546001600160a01b03909116906108fc908390611edb9086612521565b611ee59190612540565b6040518115909202916000818181858888f19350505050158015611f0d573d6000803e3d6000fd5b50600f546013546001600160a01b03909116906108fc908390611f309086612521565b611f3a9190612540565b6040518115909202916000818181858888f19350505050158015610fb6573d6000803e3d6000fd5b6001600160a01b038216611fb85760405162461bcd60e51b815260206004820152601f60248201527f45524332303a206d696e7420746f20746865207a65726f20616464726573730060448201526064016109a7565b8060026000828254611fca9190612562565b90915550506001600160a01b03821660009081526020819052604081208054839290611ff7908490612562565b90915550506040518181526001600160a01b038316906000907fddf252ad1be2c89b69c2b068fc378daa952ba7f163c4a11628f55a4df523b3ef9060200160405180910390a3610e33600083836121ec565b600580546001600160a01b038381166001600160a01b0319831681179093556040519116919082907f8be0079c531659141344cd1fd0a4f28419497f9722a3daafe3b4186f6b6457e090600090a35050565b6001600160a01b0382166120fb5760405162461bcd60e51b815260206004820152602160248201527f45524332303a206275726e2066726f6d20746865207a65726f206164647265736044820152607360f81b60648201526084016109a7565b6001600160a01b0382166000908152602081905260409020548181101561216f5760405162461bcd60e51b815260206004820152602260248201527f45524332303a206275726e20616d6f756e7420657863656564732062616c616e604482015261636560f01b60648201526084016109a7565b6001600160a01b038316600090815260208190526040812083830390556002805484929061219e90849061257a565b90915550506040518281526000906001600160a01b038516907fddf252ad1be2c89b69c2b068fc378daa952ba7f163c4a11628f55a4df523b3ef9060200160405180910390a3610fb6836000845b60006121f783610fbb565b90506001600160a01b0383161561226f576001600160a01b038316600090815260076020526040902054819061222d848361257a565b6122379190612521565b6122414285612521565b61224b9190612562565b6122559190612540565b6001600160a01b0384166000908152600760205260409020555b611b01565b600060208083528351808285015260005b818110156122a157858101830151858201604001528201612285565b818111156122b3576000604083870101525b50601f01601f1916929092016040019392505050565b6001600160a01b03811681146111f657600080fd5b600080604083850312156122f157600080fd5b82356122fc816122c9565b946020939093013593505050565b60006020828403121561231c57600080fd5b8135610d70816122c9565b60008060006060848603121561233c57600080fd5b8335612347816122c9565b92506020840135612357816122c9565b929592945050506040919091013590565b8035801515811461237857600080fd5b919050565b6000806040838503121561239057600080fd5b823561239b816122c9565b91506123a960208401612368565b90509250929050565b6000602082840312156123c457600080fd5b5035919050565b600080604083850312156123de57600080fd5b823591506123a960208401612368565b6000806040838503121561240157600080fd5b823561240c816122c9565b9150602083013561241c816122c9565b809150509250929050565b600181811c9082168061243b57607f821691505b6020821081141561245c57634e487b7160e01b600052602260045260246000fd5b50919050565b6020808252607f908201527f596f752068617665206265656e20626c61636b6c69737465642066726f6d207460408201527f726164696e6720746865204348455320746f6b656e2e20496620796f7520746860608201527f696e6b207468697320697320616e206572726f722c20706c6561736520636f6e60808201527f746163742074686520436861696e204573746174652044414f207465616d2e0060a082015260c00190565b634e487b7160e01b600052601160045260246000fd5b600081600019048311821515161561253b5761253b61250b565b500290565b60008261255d57634e487b7160e01b600052601260045260246000fd5b500490565b600082198211156125755761257561250b565b500190565b60008282101561258c5761258c61250b565b500390565b6020808252818101527f4f776e61626c653a2063616c6c6572206973206e6f7420746865206f776e6572604082015260600190565b634e487b7160e01b600052603260045260246000fd5b6000602082840312156125ee57600080fd5b8151610d70816122c9565b600060a082018783526020878185015260a0604085015281875180845260c086019150828901935060005b818110156126495784516001600160a01b031683529383019391830191600101612624565b50506001600160a01b0396909616606085015250505060800152939250505056fea26469706673582212208df55752d5bca78e9d973f4ee103688a35f234678d8c3115c11cbe73a3e86f3664736f6c63430008080033",
  "bytecodeSha1": "5d291b5c8d9fe2ed229b70d47250a1d430c89559",
  "compiler": {
    "evm_version": "istanbul",
    "optimizer": {
      "enabled": true,
      "runs": 200
    },
    "version": "0.8.8+commit.dddeac2f"
  },
  "contractName": "ChainEstateToken",
  "language": "Solidity",
  "natspec": {
    "details": "Main contract for Chain Estate DAO TODO - Limit how many tokens users can purchase from PancakeSwap TODO - Will possibly create the BNB to CHES token PankcakeSwap pair in the constructor.",
    "kind": "dev",
    "methods": {
      "allowance(address,address)": {
        "details": "See {IERC20-allowance}."
      },
      "approve(address,uint256)": {
        "details": "See {IERC20-approve}. NOTE: If `amount` is the maximum `uint256`, the allowance is not updated on `transferFrom`. This is semantically equivalent to an infinite approval. Requirements: - `spender` cannot be the zero address."
      },
      "balanceOf(address)": {
        "details": "See {IERC20-balanceOf}."
      },
      "burn(address,uint256)": {
        "details": "Minter only function to burn CHES tokens for bridging",
        "params": {
          "amount": "the amount of tokens to be burned",
          "user": "the address to burn the tokens from"
        }
      },
      "decimals()": {
        "details": "Returns the number of decimals used to get its user representation. For example, if `decimals` equals `2`, a balance of `505` tokens should be displayed to a user as `5.05` (`505 / 10 ** 2`). Tokens usually opt for a value of 18, imitating the relationship between Ether and Wei. This is the value {ERC20} uses, unless this function is overridden; NOTE: This information is only used for _display_ purposes: it in no way affects any of the arithmetic of the contract, including {IERC20-balanceOf} and {IERC20-transfer}."
      },
      "decreaseAllowance(address,uint256)": {
        "details": "Atomically decreases the allowance granted to `spender` by the caller. This is an alternative to {approve} that can be used as a mitigation for problems described in {IERC20-approve}. Emits an {Approval} event indicating the updated allowance. Requirements: - `spender` cannot be the zero address. - `spender` must have allowance for the caller of at least `subtractedValue`."
      },
      "disperseFeesManually()": {
        "details": "Sends BNB to transaction fee wallets manually as opposed to happening automatically after a certain level of volume"
      },
      "excludeUserFromFees(address)": {
        "details": "Adds a user to be excluded from fees.",
        "params": {
          "user": "address of the user to be excluded from fees."
        }
      },
      "getContractAddress()": {
        "details": "Returns the contract address",
        "returns": {
          "_0": "contract address"
        }
      },
      "getCurrentTimestamp()": {
        "details": "Gets the current timestamp, used for testing + verification",
        "returns": {
          "_0": "the the timestamp of the current block"
        }
      },
      "includeUsersInFees(address)": {
        "details": "Removes a user from the fee exclusion.",
        "params": {
          "user": "address of the user than will now have to pay transaction fees."
        }
      },
      "increaseAllowance(address,uint256)": {
        "details": "Atomically increases the allowance granted to `spender` by the caller. This is an alternative to {approve} that can be used as a mitigation for problems described in {IERC20-approve}. Emits an {Approval} event indicating the updated allowance. Requirements: - `spender` cannot be the zero address."
      },
      "mint(address,uint256)": {
        "details": "Minter only function to mint new CHES tokens for bridging",
        "params": {
          "amount": "the amount of tokens to be minted to the user",
          "user": "the address that the tokens will be minted to"
        }
      },
      "name()": {
        "details": "Returns the name of the token."
      },
      "owner()": {
        "details": "Returns the address of the current owner."
      },
      "renounceOwnership()": {
        "details": "Leaves the contract without owner. It will not be possible to call `onlyOwner` functions anymore. Can only be called by the current owner. NOTE: Renouncing ownership will leave the contract without an owner, thereby removing any functionality that is only available to the owner."
      },
      "setAirDropInvestTime(address,uint256)": {
        "details": "Function that only the token claim contract can call to set the airdrop invest time for a user when claiming their V2 tokens.",
        "params": {
          "airDropInvestTimeVal": "the airdrop invest time for the user",
          "user": "the address to set the airdrop invest time for"
        }
      },
      "setContractCHESDivisor(uint256)": {
        "details": "Sets the value that determines how many CHES tokens need to be in the contract before it's swapped for BNB.",
        "params": {
          "newDivisor": "the new divisor value to determine the swap threshold"
        }
      },
      "setTokenClaimContractAddress(address)": {
        "details": "Only owner function to set the token claim contract address.",
        "params": {
          "tokenClaimAddress": "the token claim contract address"
        }
      },
      "swapCHESForBNBManually(uint256,bool)": {
        "details": "Swaps all CHES tokens in the contract for BNB and then disperses those funds to the transaction fee wallets.",
        "params": {
          "amount": "the amount of CHES in the contract to swap for BNB",
          "useAmount": "boolean to determine if the amount sent in is swapped for BNB or if the entire contract balance is swapped."
        }
      },
      "symbol()": {
        "details": "Returns the symbol of the token, usually a shorter version of the name."
      },
      "totalSupply()": {
        "details": "See {IERC20-totalSupply}."
      },
      "transfer(address,uint256)": {
        "details": "Overrides the BEP20 transfer function to include transaction fees.",
        "params": {
          "amount": "the amount to be transfered",
          "recipient": "the recipient of the transfer"
        },
        "returns": {
          "_0": "bool representing if the transfer was successful"
        }
      },
      "transferFrom(address,address,uint256)": {
        "details": "Overrides the BEP20 transferFrom function to include transaction fees.",
        "params": {
          "amount": "the amount to be transfered",
          "from": "the address from where the tokens are coming from",
          "to": "the recipient of the transfer"
        },
        "returns": {
          "_0": "bool representing if the transfer was successful"
        }
      },
      "transferOwnership(address)": {
        "details": "Transfers ownership of the contract to a new account (`newOwner`). Can only be called by the current owner."
      },
      "updateBlackList(address,bool)": {
        "details": "Updates the blacklist mapping for a given address",
        "params": {
          "blacklisted": "a boolean that determines if the given address is being added or removed from the blacklist",
          "user": "the address that is being added or removed from the blacklist"
        }
      },
      "updateDeveloperTransactionFee(uint256)": {
        "details": "Function to update the developer transaction fee - can't be more than 5 percent",
        "params": {
          "newDeveloperTransactionFee": "the new developer transaction fee"
        }
      },
      "updateMarketingTransactionFee(uint256)": {
        "details": "Function to update the marketing transaction fee - can't be more than 5 percent",
        "params": {
          "newMarketingTransactionFee": "the new marketing transaction fee"
        }
      },
      "updateMinter(address,bool)": {
        "details": "Function to add or remove a CHES token minter",
        "params": {
          "isMinter": "boolean representing if the address provided will be added or removed as a minter",
          "user": "the address that will be added or removed as a minter"
        }
      },
      "updateRealEstateTransactionFee(uint256)": {
        "details": "Function to update the real estate transaction fee - can't be more than 20 percent",
        "params": {
          "newRealEstateTransactionFee": "the new real estate transaction fee"
        }
      }
    },
    "title": "Chain Estate DAO Token",
    "version": 1
  },
  "opcodes": "PUSH1 0x80 PUSH1 0x40 MSTORE PUSH1 0x4 CALLDATASIZE LT PUSH2 0x297 JUMPI PUSH1 0x0 CALLDATALOAD PUSH1 0xE0 SHR DUP1 PUSH4 0x78C1D245 GT PUSH2 0x15A JUMPI DUP1 PUSH4 0xC816841B GT PUSH2 0xC1 JUMPI DUP1 PUSH4 0xF2FDE38B GT PUSH2 0x7A JUMPI DUP1 PUSH4 0xF2FDE38B EQ PUSH2 0x7F5 JUMPI DUP1 PUSH4 0xF439D93C EQ PUSH2 0x815 JUMPI DUP1 PUSH4 0xF46ECCC4 EQ PUSH2 0x835 JUMPI DUP1 PUSH4 0xF94D733D EQ PUSH2 0x865 JUMPI DUP1 PUSH4 0xF9F92BE4 EQ PUSH2 0x87B JUMPI DUP1 PUSH4 0xFC2EB889 EQ PUSH2 0x8AB JUMPI PUSH1 0x0 DUP1 REVERT JUMPDEST DUP1 PUSH4 0xC816841B EQ PUSH2 0x709 JUMPI DUP1 PUSH4 0xD158272D EQ PUSH2 0x729 JUMPI DUP1 PUSH4 0xDA6FA55C EQ PUSH2 0x749 JUMPI DUP1 PUSH4 0xDBE66CA0 EQ PUSH2 0x75F JUMPI DUP1 PUSH4 0xDD62ED3E EQ PUSH2 0x78F JUMPI DUP1 PUSH4 0xECC63390 EQ PUSH2 0x7D5 JUMPI PUSH1 0x0 DUP1 REVERT JUMPDEST DUP1 PUSH4 0x9DC29FAC GT PUSH2 0x113 JUMPI DUP1 PUSH4 0x9DC29FAC EQ PUSH2 0x649 JUMPI DUP1 PUSH4 0xA457C2D7 EQ PUSH2 0x669 JUMPI DUP1 PUSH4 0xA9059CBB EQ PUSH2 0x689 JUMPI DUP1 PUSH4 0xAAC86D4E EQ PUSH2 0x6A9 JUMPI DUP1 PUSH4 0xAC65C870 EQ PUSH2 0x6C9 JUMPI DUP1 PUSH4 0xBBEAA1F8 EQ PUSH2 0x6E9 JUMPI PUSH1 0x0 DUP1 REVERT JUMPDEST DUP1 PUSH4 0x78C1D245 EQ PUSH2 0x5A1 JUMPI DUP1 PUSH4 0x7BE7B656 EQ PUSH2 0x5C1 JUMPI DUP1 PUSH4 0x7C13EFD4 EQ PUSH2 0x5E1 JUMPI DUP1 PUSH4 0x8DA5CB5B EQ PUSH2 0x5F6 JUMPI DUP1 PUSH4 0x8EB83F25 EQ PUSH2 0x614 JUMPI DUP1 PUSH4 0x95D89B41 EQ PUSH2 0x634 JUMPI PUSH1 0x0 DUP1 REVERT JUMPDEST DUP1 PUSH4 0x43620E71 GT PUSH2 0x1FE JUMPI DUP1 PUSH4 0x6B9C58DF GT PUSH2 0x1B7 JUMPI DUP1 PUSH4 0x6B9C58DF EQ PUSH2 0x503 JUMPI DUP1 PUSH4 0x6C9230DB EQ PUSH2 0x523 JUMPI DUP1 PUSH4 0x6E2B0E47 EQ PUSH2 0x536 JUMPI DUP1 PUSH4 0x70A08231 EQ PUSH2 0x54C JUMPI DUP1 PUSH4 0x715018A6 EQ PUSH2 0x56C JUMPI DUP1 PUSH4 0x72B11637 EQ PUSH2 0x581 JUMPI PUSH1 0x0 DUP1 REVERT JUMPDEST DUP1 PUSH4 0x43620E71 EQ PUSH2 0x44D JUMPI DUP1 PUSH4 0x4FCD1285 EQ PUSH2 0x46D JUMPI DUP1 PUSH4 0x502F91EC EQ PUSH2 0x483 JUMPI DUP1 PUSH4 0x5B3C1DA1 EQ PUSH2 0x4A3 JUMPI DUP1 PUSH4 0x5B81C1A4 EQ PUSH2 0x4C3 JUMPI DUP1 PUSH4 0x61EB048A EQ PUSH2 0x4E3 JUMPI PUSH1 0x0 DUP1 REVERT JUMPDEST DUP1 PUSH4 0x23B872DD GT PUSH2 0x250 JUMPI DUP1 PUSH4 0x23B872DD EQ PUSH2 0x3A6 JUMPI DUP1 PUSH4 0x2FB47BE4 EQ PUSH2 0x3C6 JUMPI DUP1 PUSH4 0x313CE567 EQ PUSH2 0x3DC JUMPI DUP1 PUSH4 0x32A2C5D0 EQ PUSH2 0x3F8 JUMPI DUP1 PUSH4 0x39509351 EQ PUSH2 0x40B JUMPI DUP1 PUSH4 0x40C10F19 EQ PUSH2 0x42B JUMPI PUSH1 0x0 DUP1 REVERT JUMPDEST DUP1 PUSH4 0x6FDDE03 EQ PUSH2 0x2A3 JUMPI DUP1 PUSH4 0x95EA7B3 EQ PUSH2 0x2CE JUMPI DUP1 PUSH4 0x1497B01B EQ PUSH2 0x2FE JUMPI DUP1 PUSH4 0x18160DDD EQ PUSH2 0x339 JUMPI DUP1 PUSH4 0x1BA7F00F EQ PUSH2 0x34E JUMPI DUP1 PUSH4 0x20CA3C7F EQ PUSH2 0x386 JUMPI PUSH1 0x0 DUP1 REVERT JUMPDEST CALLDATASIZE PUSH2 0x29E JUMPI STOP JUMPDEST PUSH1 0x0 DUP1 REVERT JUMPDEST CALLVALUE DUP1 ISZERO PUSH2 0x2AF JUMPI PUSH1 0x0 DUP1 REVERT JUMPDEST POP PUSH2 0x2B8 PUSH2 0x8CB JUMP JUMPDEST PUSH1 0x40 MLOAD PUSH2 0x2C5 SWAP2 SWAP1 PUSH2 0x2274 JUMP JUMPDEST PUSH1 0x40 MLOAD DUP1 SWAP2 SUB SWAP1 RETURN JUMPDEST CALLVALUE DUP1 ISZERO PUSH2 0x2DA JUMPI PUSH1 0x0 DUP1 REVERT JUMPDEST POP PUSH2 0x2EE PUSH2 0x2E9 CALLDATASIZE PUSH1 0x4 PUSH2 0x22DE JUMP JUMPDEST PUSH2 0x95D JUMP JUMPDEST PUSH1 0x40 MLOAD SWAP1 ISZERO ISZERO DUP2 MSTORE PUSH1 0x20 ADD PUSH2 0x2C5 JUMP JUMPDEST CALLVALUE DUP1 ISZERO PUSH2 0x30A JUMPI PUSH1 0x0 DUP1 REVERT JUMPDEST POP PUSH2 0x32B PUSH2 0x319 CALLDATASIZE PUSH1 0x4 PUSH2 0x230A JUMP JUMPDEST PUSH1 0x7 PUSH1 0x20 MSTORE PUSH1 0x0 SWAP1 DUP2 MSTORE PUSH1 0x40 SWAP1 KECCAK256 SLOAD DUP2 JUMP JUMPDEST PUSH1 0x40 MLOAD SWAP1 DUP2 MSTORE PUSH1 0x20 ADD PUSH2 0x2C5 JUMP JUMPDEST CALLVALUE DUP1 ISZERO PUSH2 0x345 JUMPI PUSH1 0x0 DUP1 REVERT JUMPDEST POP PUSH1 0x2 SLOAD PUSH2 0x32B JUMP JUMPDEST CALLVALUE DUP1 ISZERO PUSH2 0x35A JUMPI PUSH1 0x0 DUP1 REVERT JUMPDEST POP PUSH1 0xA SLOAD PUSH2 0x36E SWAP1 PUSH1 0x1 PUSH1 0x1 PUSH1 0xA0 SHL SUB AND DUP2 JUMP JUMPDEST PUSH1 0x40 MLOAD PUSH1 0x1 PUSH1 0x1 PUSH1 0xA0 SHL SUB SWAP1 SWAP2 AND DUP2 MSTORE PUSH1 0x20 ADD PUSH2 0x2C5 JUMP JUMPDEST CALLVALUE DUP1 ISZERO PUSH2 0x392 JUMPI PUSH1 0x0 DUP1 REVERT JUMPDEST POP PUSH1 0x10 SLOAD PUSH2 0x36E SWAP1 PUSH1 0x1 PUSH1 0x1 PUSH1 0xA0 SHL SUB AND DUP2 JUMP JUMPDEST CALLVALUE DUP1 ISZERO PUSH2 0x3B2 JUMPI PUSH1 0x0 DUP1 REVERT JUMPDEST POP PUSH2 0x2EE PUSH2 0x3C1 CALLDATASIZE PUSH1 0x4 PUSH2 0x2327 JUMP JUMPDEST PUSH2 0x977 JUMP JUMPDEST CALLVALUE DUP1 ISZERO PUSH2 0x3D2 JUMPI PUSH1 0x0 DUP1 REVERT JUMPDEST POP PUSH2 0x32B PUSH1 0x11 SLOAD DUP2 JUMP JUMPDEST CALLVALUE DUP1 ISZERO PUSH2 0x3E8 JUMPI PUSH1 0x0 DUP1 REVERT JUMPDEST POP PUSH1 0x40 MLOAD PUSH1 0x12 DUP2 MSTORE PUSH1 0x20 ADD PUSH2 0x2C5 JUMP JUMPDEST CALLVALUE DUP1 ISZERO PUSH2 0x404 JUMPI PUSH1 0x0 DUP1 REVERT JUMPDEST POP ADDRESS PUSH2 0x36E JUMP JUMPDEST CALLVALUE DUP1 ISZERO PUSH2 0x417 JUMPI PUSH1 0x0 DUP1 REVERT JUMPDEST POP PUSH2 0x2EE PUSH2 0x426 CALLDATASIZE PUSH1 0x4 PUSH2 0x22DE JUMP JUMPDEST PUSH2 0xD77 JUMP JUMPDEST CALLVALUE DUP1 ISZERO PUSH2 0x437 JUMPI PUSH1 0x0 DUP1 REVERT JUMPDEST POP PUSH2 0x44B PUSH2 0x446 CALLDATASIZE PUSH1 0x4 PUSH2 0x22DE JUMP JUMPDEST PUSH2 0xDB6 JUMP JUMPDEST STOP JUMPDEST CALLVALUE DUP1 ISZERO PUSH2 0x459 JUMPI PUSH1 0x0 DUP1 REVERT JUMPDEST POP PUSH2 0x44B PUSH2 0x468 CALLDATASIZE PUSH1 0x4 PUSH2 0x237D JUMP JUMPDEST PUSH2 0xE37 JUMP JUMPDEST CALLVALUE DUP1 ISZERO PUSH2 0x479 JUMPI PUSH1 0x0 DUP1 REVERT JUMPDEST POP PUSH2 0x32B PUSH1 0x13 SLOAD DUP2 JUMP JUMPDEST CALLVALUE DUP1 ISZERO PUSH2 0x48F JUMPI PUSH1 0x0 DUP1 REVERT JUMPDEST POP PUSH1 0xC SLOAD PUSH2 0x36E SWAP1 PUSH1 0x1 PUSH1 0x1 PUSH1 0xA0 SHL SUB AND DUP2 JUMP JUMPDEST CALLVALUE DUP1 ISZERO PUSH2 0x4AF JUMPI PUSH1 0x0 DUP1 REVERT JUMPDEST POP PUSH1 0xB SLOAD PUSH2 0x36E SWAP1 PUSH1 0x1 PUSH1 0x1 PUSH1 0xA0 SHL SUB AND DUP2 JUMP JUMPDEST CALLVALUE DUP1 ISZERO PUSH2 0x4CF JUMPI PUSH1 0x0 DUP1 REVERT JUMPDEST POP PUSH2 0x44B PUSH2 0x4DE CALLDATASIZE PUSH1 0x4 PUSH2 0x23B2 JUMP JUMPDEST PUSH2 0xE8C JUMP JUMPDEST CALLVALUE DUP1 ISZERO PUSH2 0x4EF JUMPI PUSH1 0x0 DUP1 REVERT JUMPDEST POP PUSH1 0xF SLOAD PUSH2 0x36E SWAP1 PUSH1 0x1 PUSH1 0x1 PUSH1 0xA0 SHL SUB AND DUP2 JUMP JUMPDEST CALLVALUE DUP1 ISZERO PUSH2 0x50F JUMPI PUSH1 0x0 DUP1 REVERT JUMPDEST POP PUSH2 0x44B PUSH2 0x51E CALLDATASIZE PUSH1 0x4 PUSH2 0x23CB JUMP JUMPDEST PUSH2 0xF56 JUMP JUMPDEST CALLVALUE DUP1 ISZERO PUSH2 0x52F JUMPI PUSH1 0x0 DUP1 REVERT JUMPDEST POP TIMESTAMP PUSH2 0x32B JUMP JUMPDEST CALLVALUE DUP1 ISZERO PUSH2 0x542 JUMPI PUSH1 0x0 DUP1 REVERT JUMPDEST POP PUSH2 0x32B PUSH1 0x12 SLOAD DUP2 JUMP JUMPDEST CALLVALUE DUP1 ISZERO PUSH2 0x558 JUMPI PUSH1 0x0 DUP1 REVERT JUMPDEST POP PUSH2 0x32B PUSH2 0x567 CALLDATASIZE PUSH1 0x4 PUSH2 0x230A JUMP JUMPDEST PUSH2 0xFBB JUMP JUMPDEST CALLVALUE DUP1 ISZERO PUSH2 0x578 JUMPI PUSH1 0x0 DUP1 REVERT JUMPDEST POP PUSH2 0x44B PUSH2 0xFD6 JUMP JUMPDEST CALLVALUE DUP1 ISZERO PUSH2 0x58D JUMPI PUSH1 0x0 DUP1 REVERT JUMPDEST POP PUSH2 0x44B PUSH2 0x59C CALLDATASIZE PUSH1 0x4 PUSH2 0x22DE JUMP JUMPDEST PUSH2 0x100C JUMP JUMPDEST CALLVALUE DUP1 ISZERO PUSH2 0x5AD JUMPI PUSH1 0x0 DUP1 REVERT JUMPDEST POP PUSH2 0x44B PUSH2 0x5BC CALLDATASIZE PUSH1 0x4 PUSH2 0x230A JUMP JUMPDEST PUSH2 0x10A0 JUMP JUMPDEST CALLVALUE DUP1 ISZERO PUSH2 0x5CD JUMPI PUSH1 0x0 DUP1 REVERT JUMPDEST POP PUSH2 0x44B PUSH2 0x5DC CALLDATASIZE PUSH1 0x4 PUSH2 0x23B2 JUMP JUMPDEST PUSH2 0x10EE JUMP JUMPDEST CALLVALUE DUP1 ISZERO PUSH2 0x5ED JUMPI PUSH1 0x0 DUP1 REVERT JUMPDEST POP PUSH2 0x44B PUSH2 0x11C2 JUMP JUMPDEST CALLVALUE DUP1 ISZERO PUSH2 0x602 JUMPI PUSH1 0x0 DUP1 REVERT JUMPDEST POP PUSH1 0x5 SLOAD PUSH1 0x1 PUSH1 0x1 PUSH1 0xA0 SHL SUB AND PUSH2 0x36E JUMP JUMPDEST CALLVALUE DUP1 ISZERO PUSH2 0x620 JUMPI PUSH1 0x0 DUP1 REVERT JUMPDEST POP PUSH1 0xD SLOAD PUSH2 0x36E SWAP1 PUSH1 0x1 PUSH1 0x1 PUSH1 0xA0 SHL SUB AND DUP2 JUMP JUMPDEST CALLVALUE DUP1 ISZERO PUSH2 0x640 JUMPI PUSH1 0x0 DUP1 REVERT JUMPDEST POP PUSH2 0x2B8 PUSH2 0x11F9 JUMP JUMPDEST CALLVALUE DUP1 ISZERO PUSH2 0x655 JUMPI PUSH1 0x0 DUP1 REVERT JUMPDEST POP PUSH2 0x44B PUSH2 0x664 CALLDATASIZE PUSH1 0x4 PUSH2 0x22DE JUMP JUMPDEST PUSH2 0x1208 JUMP JUMPDEST CALLVALUE DUP1 ISZERO PUSH2 0x675 JUMPI PUSH1 0x0 DUP1 REVERT JUMPDEST POP PUSH2 0x2EE PUSH2 0x684 CALLDATASIZE PUSH1 0x4 PUSH2 0x22DE JUMP JUMPDEST PUSH2 0x1285 JUMP JUMPDEST CALLVALUE DUP1 ISZERO PUSH2 0x695 JUMPI PUSH1 0x0 DUP1 REVERT JUMPDEST POP PUSH2 0x2EE PUSH2 0x6A4 CALLDATASIZE PUSH1 0x4 PUSH2 0x22DE JUMP JUMPDEST PUSH2 0x1322 JUMP JUMPDEST CALLVALUE DUP1 ISZERO PUSH2 0x6B5 JUMPI PUSH1 0x0 DUP1 REVERT JUMPDEST POP PUSH2 0x44B PUSH2 0x6C4 CALLDATASIZE PUSH1 0x4 PUSH2 0x230A JUMP JUMPDEST PUSH2 0x16D3 JUMP JUMPDEST CALLVALUE DUP1 ISZERO PUSH2 0x6D5 JUMPI PUSH1 0x0 DUP1 REVERT JUMPDEST POP PUSH1 0x17 SLOAD PUSH2 0x36E SWAP1 PUSH1 0x1 PUSH1 0x1 PUSH1 0xA0 SHL SUB AND DUP2 JUMP JUMPDEST CALLVALUE DUP1 ISZERO PUSH2 0x6F5 JUMPI PUSH1 0x0 DUP1 REVERT JUMPDEST POP PUSH2 0x44B PUSH2 0x704 CALLDATASIZE PUSH1 0x4 PUSH2 0x230A JUMP JUMPDEST PUSH2 0x171F JUMP JUMPDEST CALLVALUE DUP1 ISZERO PUSH2 0x715 JUMPI PUSH1 0x0 DUP1 REVERT JUMPDEST POP PUSH1 0x16 SLOAD PUSH2 0x36E SWAP1 PUSH1 0x1 PUSH1 0x1 PUSH1 0xA0 SHL SUB AND DUP2 JUMP JUMPDEST CALLVALUE DUP1 ISZERO PUSH2 0x735 JUMPI PUSH1 0x0 DUP1 REVERT JUMPDEST POP PUSH1 0xE SLOAD PUSH2 0x36E SWAP1 PUSH1 0x1 PUSH1 0x1 PUSH1 0xA0 SHL SUB AND DUP2 JUMP JUMPDEST CALLVALUE DUP1 ISZERO PUSH2 0x755 JUMPI PUSH1 0x0 DUP1 REVERT JUMPDEST POP PUSH2 0x32B PUSH1 0x14 SLOAD DUP2 JUMP JUMPDEST CALLVALUE DUP1 ISZERO PUSH2 0x76B JUMPI PUSH1 0x0 DUP1 REVERT JUMPDEST POP PUSH2 0x2EE PUSH2 0x77A CALLDATASIZE PUSH1 0x4 PUSH2 0x230A JUMP JUMPDEST PUSH1 0x6 PUSH1 0x20 MSTORE PUSH1 0x0 SWAP1 DUP2 MSTORE PUSH1 0x40 SWAP1 KECCAK256 SLOAD PUSH1 0xFF AND DUP2 JUMP JUMPDEST CALLVALUE DUP1 ISZERO PUSH2 0x79B JUMPI PUSH1 0x0 DUP1 REVERT JUMPDEST POP PUSH2 0x32B PUSH2 0x7AA CALLDATASIZE PUSH1 0x4 PUSH2 0x23EE JUMP JUMPDEST PUSH1 0x1 PUSH1 0x1 PUSH1 0xA0 SHL SUB SWAP2 DUP3 AND PUSH1 0x0 SWAP1 DUP2 MSTORE PUSH1 0x1 PUSH1 0x20 SWAP1 DUP2 MSTORE PUSH1 0x40 DUP1 DUP4 KECCAK256 SWAP4 SWAP1 SWAP5 AND DUP3 MSTORE SWAP2 SWAP1 SWAP2 MSTORE KECCAK256 SLOAD SWAP1 JUMP JUMPDEST CALLVALUE DUP1 ISZERO PUSH2 0x7E1 JUMPI PUSH1 0x0 DUP1 REVERT JUMPDEST POP PUSH2 0x44B PUSH2 0x7F0 CALLDATASIZE PUSH1 0x4 PUSH2 0x23B2 JUMP JUMPDEST PUSH2 0x176A JUMP JUMPDEST CALLVALUE DUP1 ISZERO PUSH2 0x801 JUMPI PUSH1 0x0 DUP1 REVERT JUMPDEST POP PUSH2 0x44B PUSH2 0x810 CALLDATASIZE PUSH1 0x4 PUSH2 0x230A JUMP JUMPDEST PUSH2 0x1835 JUMP JUMPDEST CALLVALUE DUP1 ISZERO PUSH2 0x821 JUMPI PUSH1 0x0 DUP1 REVERT JUMPDEST POP PUSH2 0x44B PUSH2 0x830 CALLDATASIZE PUSH1 0x4 PUSH2 0x23B2 JUMP JUMPDEST PUSH2 0x18CD JUMP JUMPDEST CALLVALUE DUP1 ISZERO PUSH2 0x841 JUMPI PUSH1 0x0 DUP1 REVERT JUMPDEST POP PUSH2 0x2EE PUSH2 0x850 CALLDATASIZE PUSH1 0x4 PUSH2 0x230A JUMP JUMPDEST PUSH1 0x9 PUSH1 0x20 MSTORE PUSH1 0x0 SWAP1 DUP2 MSTORE PUSH1 0x40 SWAP1 KECCAK256 SLOAD PUSH1 0xFF AND DUP2 JUMP JUMPDEST CALLVALUE DUP1 ISZERO PUSH2 0x871 JUMPI PUSH1 0x0 DUP1 REVERT JUMPDEST POP PUSH2 0x32B PUSH1 0x18 SLOAD DUP2 JUMP JUMPDEST CALLVALUE DUP1 ISZERO PUSH2 0x887 JUMPI PUSH1 0x0 DUP1 REVERT JUMPDEST POP PUSH2 0x2EE PUSH2 0x896 CALLDATASIZE PUSH1 0x4 PUSH2 0x230A JUMP JUMPDEST PUSH1 0x8 PUSH1 0x20 MSTORE PUSH1 0x0 SWAP1 DUP2 MSTORE PUSH1 0x40 SWAP1 KECCAK256 SLOAD PUSH1 0xFF AND DUP2 JUMP JUMPDEST CALLVALUE DUP1 ISZERO PUSH2 0x8B7 JUMPI PUSH1 0x0 DUP1 REVERT JUMPDEST POP PUSH2 0x44B PUSH2 0x8C6 CALLDATASIZE PUSH1 0x4 PUSH2 0x237D JUMP JUMPDEST PUSH2 0x18FC JUMP JUMPDEST PUSH1 0x60 PUSH1 0x3 DUP1 SLOAD PUSH2 0x8DA SWAP1 PUSH2 0x2427 JUMP JUMPDEST DUP1 PUSH1 0x1F ADD PUSH1 0x20 DUP1 SWAP2 DIV MUL PUSH1 0x20 ADD PUSH1 0x40 MLOAD SWAP1 DUP2 ADD PUSH1 0x40 MSTORE DUP1 SWAP3 SWAP2 SWAP1 DUP2 DUP2 MSTORE PUSH1 0x20 ADD DUP3 DUP1 SLOAD PUSH2 0x906 SWAP1 PUSH2 0x2427 JUMP JUMPDEST DUP1 ISZERO PUSH2 0x953 JUMPI DUP1 PUSH1 0x1F LT PUSH2 0x928 JUMPI PUSH2 0x100 DUP1 DUP4 SLOAD DIV MUL DUP4 MSTORE SWAP2 PUSH1 0x20 ADD SWAP2 PUSH2 0x953 JUMP JUMPDEST DUP3 ADD SWAP2 SWAP1 PUSH1 0x0 MSTORE PUSH1 0x20 PUSH1 0x0 KECCAK256 SWAP1 JUMPDEST DUP2 SLOAD DUP2 MSTORE SWAP1 PUSH1 0x1 ADD SWAP1 PUSH1 0x20 ADD DUP1 DUP4 GT PUSH2 0x936 JUMPI DUP3 SWAP1 SUB PUSH1 0x1F AND DUP3 ADD SWAP2 JUMPDEST POP POP POP POP POP SWAP1 POP SWAP1 JUMP JUMPDEST PUSH1 0x0 CALLER PUSH2 0x96B DUP2 DUP6 DUP6 PUSH2 0x1951 JUMP JUMPDEST PUSH1 0x1 SWAP2 POP POP JUMPDEST SWAP3 SWAP2 POP POP JUMP JUMPDEST CALLER PUSH1 0x0 SWAP1 DUP2 MSTORE PUSH1 0x8 PUSH1 0x20 MSTORE PUSH1 0x40 DUP2 KECCAK256 SLOAD PUSH1 0xFF AND ISZERO PUSH2 0x9B0 JUMPI PUSH1 0x40 MLOAD PUSH3 0x461BCD PUSH1 0xE5 SHL DUP2 MSTORE PUSH1 0x4 ADD PUSH2 0x9A7 SWAP1 PUSH2 0x2462 JUMP JUMPDEST PUSH1 0x40 MLOAD DUP1 SWAP2 SUB SWAP1 REVERT JUMPDEST PUSH1 0x1 PUSH1 0x1 PUSH1 0xA0 SHL SUB DUP5 AND PUSH1 0x0 SWAP1 DUP2 MSTORE PUSH1 0x8 PUSH1 0x20 MSTORE PUSH1 0x40 SWAP1 KECCAK256 SLOAD PUSH1 0xFF AND ISZERO PUSH2 0xAC8 JUMPI PUSH1 0x40 MLOAD PUSH3 0x461BCD PUSH1 0xE5 SHL DUP2 MSTORE PUSH1 0x20 PUSH1 0x4 DUP3 ADD MSTORE PUSH1 0xAD PUSH1 0x24 DUP3 ADD MSTORE PUSH32 0x546865206164647265737320796F7527726520747279696E6720746F20737065 PUSH1 0x44 DUP3 ADD MSTORE PUSH32 0x6E642074686520746F6B656E732066726F6D20686173206265656E20626C6163 PUSH1 0x64 DUP3 ADD MSTORE PUSH32 0x6B6C69737465642066726F6D2074726164696E6720746865204348455320746F PUSH1 0x84 DUP3 ADD MSTORE PUSH32 0x6B656E2E20496620796F75207468696E6B207468697320697320616E20657272 PUSH1 0xA4 DUP3 ADD MSTORE PUSH32 0x6F722C20706C6561736520636F6E746163742074686520436861696E20457374 PUSH1 0xC4 DUP3 ADD MSTORE PUSH13 0x30BA32902220A7903A32B0B697 PUSH1 0x99 SHL PUSH1 0xE4 DUP3 ADD MSTORE PUSH2 0x104 ADD PUSH2 0x9A7 JUMP JUMPDEST PUSH1 0x1 PUSH1 0x1 PUSH1 0xA0 SHL SUB DUP4 AND PUSH1 0x0 SWAP1 DUP2 MSTORE PUSH1 0x8 PUSH1 0x20 MSTORE PUSH1 0x40 SWAP1 KECCAK256 SLOAD PUSH1 0xFF AND ISZERO PUSH2 0xBDA JUMPI PUSH1 0x40 MLOAD PUSH3 0x461BCD PUSH1 0xE5 SHL DUP2 MSTORE PUSH1 0x20 PUSH1 0x4 DUP3 ADD MSTORE PUSH1 0xA7 PUSH1 0x24 DUP3 ADD MSTORE PUSH32 0x546865206164647265737320796F752061726520747279696E6720746F207365 PUSH1 0x44 DUP3 ADD MSTORE PUSH32 0x6E6420746F6B656E7320746F20686173206265656E20626C61636B6C69737465 PUSH1 0x64 DUP3 ADD MSTORE PUSH32 0x642066726F6D2074726164696E6720746865204348455320746F6B656E2E2049 PUSH1 0x84 DUP3 ADD MSTORE PUSH32 0x6620796F75207468696E6B207468697320697320616E206572726F722C20706C PUSH1 0xA4 DUP3 ADD MSTORE PUSH32 0x6561736520636F6E746163742074686520436861696E20457374617465204441 PUSH1 0xC4 DUP3 ADD MSTORE PUSH7 0x27903A32B0B697 PUSH1 0xC9 SHL PUSH1 0xE4 DUP3 ADD MSTORE PUSH2 0x104 ADD PUSH2 0x9A7 JUMP JUMPDEST PUSH1 0x1 PUSH1 0x1 PUSH1 0xA0 SHL SUB DUP5 AND PUSH1 0x0 SWAP1 DUP2 MSTORE PUSH1 0x6 PUSH1 0x20 MSTORE PUSH1 0x40 SWAP1 KECCAK256 SLOAD PUSH1 0xFF AND DUP1 PUSH2 0xC19 JUMPI POP PUSH1 0x1 PUSH1 0x1 PUSH1 0xA0 SHL SUB DUP4 AND PUSH1 0x0 SWAP1 DUP2 MSTORE PUSH1 0x6 PUSH1 0x20 MSTORE PUSH1 0x40 SWAP1 KECCAK256 SLOAD PUSH1 0xFF AND JUMPDEST DUP1 PUSH2 0xC33 JUMPI POP CALLER PUSH1 0x0 SWAP1 DUP2 MSTORE PUSH1 0x6 PUSH1 0x20 MSTORE PUSH1 0x40 SWAP1 KECCAK256 SLOAD PUSH1 0xFF AND JUMPDEST ISZERO PUSH2 0xC56 JUMPI PUSH2 0xC43 DUP5 CALLER DUP5 PUSH2 0x1A75 JUMP JUMPDEST PUSH2 0xC4E DUP5 DUP5 DUP5 PUSH2 0x1B07 JUMP JUMPDEST POP PUSH1 0x1 PUSH2 0xD70 JUMP JUMPDEST PUSH1 0x0 PUSH1 0x64 PUSH1 0x12 SLOAD DUP5 PUSH2 0xC68 SWAP2 SWAP1 PUSH2 0x2521 JUMP JUMPDEST PUSH2 0xC72 SWAP2 SWAP1 PUSH2 0x2540 JUMP JUMPDEST SWAP1 POP PUSH1 0x0 PUSH1 0x64 PUSH1 0x14 SLOAD DUP6 PUSH2 0xC86 SWAP2 SWAP1 PUSH2 0x2521 JUMP JUMPDEST PUSH2 0xC90 SWAP2 SWAP1 PUSH2 0x2540 JUMP JUMPDEST SWAP1 POP PUSH1 0x0 PUSH1 0x64 PUSH1 0x13 SLOAD DUP7 PUSH2 0xCA4 SWAP2 SWAP1 PUSH2 0x2521 JUMP JUMPDEST PUSH2 0xCAE SWAP2 SWAP1 PUSH2 0x2540 JUMP JUMPDEST SWAP1 POP PUSH1 0x0 DUP2 PUSH2 0xCBD DUP5 DUP7 PUSH2 0x2562 JUMP JUMPDEST PUSH2 0xCC7 SWAP2 SWAP1 PUSH2 0x2562 JUMP JUMPDEST SWAP1 POP PUSH2 0xCD4 DUP9 CALLER DUP9 PUSH2 0x1A75 JUMP JUMPDEST PUSH2 0xCDF DUP9 ADDRESS DUP4 PUSH2 0x1B07 JUMP JUMPDEST PUSH1 0x0 PUSH2 0xCEA ADDRESS PUSH2 0xFBB JUMP JUMPDEST PUSH1 0x16 SLOAD SWAP1 SWAP2 POP PUSH1 0x1 PUSH1 0x1 PUSH1 0xA0 SHL SUB AND CALLER PUSH1 0x1 PUSH1 0x1 PUSH1 0xA0 SHL SUB AND EQ PUSH2 0xD4C JUMPI PUSH1 0x18 SLOAD PUSH1 0x16 SLOAD PUSH2 0xD20 SWAP1 PUSH1 0x1 PUSH1 0x1 PUSH1 0xA0 SHL SUB AND PUSH2 0xFBB JUMP JUMPDEST PUSH2 0xD2A SWAP2 SWAP1 PUSH2 0x2540 JUMP JUMPDEST DUP2 GT ISZERO PUSH2 0xD3A JUMPI PUSH2 0xD3A DUP2 PUSH2 0x1CDB JUMP JUMPDEST SELFBALANCE DUP1 ISZERO PUSH2 0xD4A JUMPI PUSH2 0xD4A SELFBALANCE PUSH2 0x1E44 JUMP JUMPDEST POP JUMPDEST PUSH1 0x0 PUSH2 0xD58 DUP4 DUP10 PUSH2 0x257A JUMP JUMPDEST SWAP1 POP PUSH2 0xD65 DUP11 DUP11 DUP4 PUSH2 0x1B07 JUMP JUMPDEST PUSH1 0x1 SWAP7 POP POP POP POP POP POP POP JUMPDEST SWAP4 SWAP3 POP POP POP JUMP JUMPDEST CALLER PUSH1 0x0 DUP2 DUP2 MSTORE PUSH1 0x1 PUSH1 0x20 SWAP1 DUP2 MSTORE PUSH1 0x40 DUP1 DUP4 KECCAK256 PUSH1 0x1 PUSH1 0x1 PUSH1 0xA0 SHL SUB DUP8 AND DUP5 MSTORE SWAP1 SWAP2 MSTORE DUP2 KECCAK256 SLOAD SWAP1 SWAP2 SWAP1 PUSH2 0x96B SWAP1 DUP3 SWAP1 DUP7 SWAP1 PUSH2 0xDB1 SWAP1 DUP8 SWAP1 PUSH2 0x2562 JUMP JUMPDEST PUSH2 0x1951 JUMP JUMPDEST CALLER PUSH1 0x0 SWAP1 DUP2 MSTORE PUSH1 0x9 PUSH1 0x20 MSTORE PUSH1 0x40 SWAP1 KECCAK256 SLOAD PUSH1 0xFF AND PUSH2 0xE29 JUMPI PUSH1 0x40 MLOAD PUSH3 0x461BCD PUSH1 0xE5 SHL DUP2 MSTORE PUSH1 0x20 PUSH1 0x4 DUP3 ADD MSTORE PUSH1 0x2B PUSH1 0x24 DUP3 ADD MSTORE PUSH32 0x596F7520617265206E6F7420617574686F72697A656420746F206D696E742043 PUSH1 0x44 DUP3 ADD MSTORE PUSH11 0x2422A9903A37B5B2B73997 PUSH1 0xA9 SHL PUSH1 0x64 DUP3 ADD MSTORE PUSH1 0x84 ADD PUSH2 0x9A7 JUMP JUMPDEST PUSH2 0xE33 DUP3 DUP3 PUSH2 0x1F62 JUMP JUMPDEST POP POP JUMP JUMPDEST PUSH1 0x5 SLOAD PUSH1 0x1 PUSH1 0x1 PUSH1 0xA0 SHL SUB AND CALLER EQ PUSH2 0xE61 JUMPI PUSH1 0x40 MLOAD PUSH3 0x461BCD PUSH1 0xE5 SHL DUP2 MSTORE PUSH1 0x4 ADD PUSH2 0x9A7 SWAP1 PUSH2 0x2591 JUMP JUMPDEST PUSH1 0x1 PUSH1 0x1 PUSH1 0xA0 SHL SUB SWAP2 SWAP1 SWAP2 AND PUSH1 0x0 SWAP1 DUP2 MSTORE PUSH1 0x9 PUSH1 0x20 MSTORE PUSH1 0x40 SWAP1 KECCAK256 DUP1 SLOAD PUSH1 0xFF NOT AND SWAP2 ISZERO ISZERO SWAP2 SWAP1 SWAP2 OR SWAP1 SSTORE JUMP JUMPDEST PUSH1 0x5 SLOAD PUSH1 0x1 PUSH1 0x1 PUSH1 0xA0 SHL SUB AND CALLER EQ PUSH2 0xEB6 JUMPI PUSH1 0x40 MLOAD PUSH3 0x461BCD PUSH1 0xE5 SHL DUP2 MSTORE PUSH1 0x4 ADD PUSH2 0x9A7 SWAP1 PUSH2 0x2591 JUMP JUMPDEST PUSH1 0x5 DUP2 GT ISZERO PUSH2 0xF24 JUMPI PUSH1 0x40 MLOAD PUSH3 0x461BCD PUSH1 0xE5 SHL DUP2 MSTORE PUSH1 0x20 PUSH1 0x4 DUP3 ADD MSTORE PUSH1 0x34 PUSH1 0x24 DUP3 ADD MSTORE PUSH32 0x546865206D61726B6574696E67207472616E73616374696F6E20666565206361 PUSH1 0x44 DUP3 ADD MSTORE PUSH20 0x3713BA1031329036B7B932903A3430B7101A9297 PUSH1 0x61 SHL PUSH1 0x64 DUP3 ADD MSTORE PUSH1 0x84 ADD PUSH2 0x9A7 JUMP JUMPDEST PUSH1 0x14 DUP2 SWAP1 SSTORE PUSH1 0x40 MLOAD DUP2 SWAP1 PUSH31 0xEC95F51190FC49500BF726B0C72CB5C1B132F7BFE7685A33BDA07DEFE3A8A8 SWAP1 PUSH1 0x0 SWAP1 LOG2 POP JUMP JUMPDEST PUSH1 0x5 SLOAD PUSH1 0x1 PUSH1 0x1 PUSH1 0xA0 SHL SUB AND CALLER EQ PUSH2 0xF80 JUMPI PUSH1 0x40 MLOAD PUSH3 0x461BCD PUSH1 0xE5 SHL DUP2 MSTORE PUSH1 0x4 ADD PUSH2 0x9A7 SWAP1 PUSH2 0x2591 JUMP JUMPDEST DUP1 ISZERO PUSH2 0xF94 JUMPI PUSH2 0xF8F DUP3 PUSH2 0x1CDB JUMP JUMPDEST PUSH2 0xFAC JUMP JUMPDEST PUSH1 0x0 PUSH2 0xF9F ADDRESS PUSH2 0xFBB JUMP JUMPDEST SWAP1 POP PUSH2 0xFAA DUP2 PUSH2 0x1CDB JUMP JUMPDEST POP JUMPDEST SELFBALANCE PUSH2 0xFB6 DUP2 PUSH2 0x1E44 JUMP JUMPDEST POP POP POP JUMP JUMPDEST PUSH1 0x1 PUSH1 0x1 PUSH1 0xA0 SHL SUB AND PUSH1 0x0 SWAP1 DUP2 MSTORE PUSH1 0x20 DUP2 SWAP1 MSTORE PUSH1 0x40 SWAP1 KECCAK256 SLOAD SWAP1 JUMP JUMPDEST PUSH1 0x5 SLOAD PUSH1 0x1 PUSH1 0x1 PUSH1 0xA0 SHL SUB AND CALLER EQ PUSH2 0x1000 JUMPI PUSH1 0x40 MLOAD PUSH3 0x461BCD PUSH1 0xE5 SHL DUP2 MSTORE PUSH1 0x4 ADD PUSH2 0x9A7 SWAP1 PUSH2 0x2591 JUMP JUMPDEST PUSH2 0x100A PUSH1 0x0 PUSH2 0x2049 JUMP JUMPDEST JUMP JUMPDEST PUSH1 0x17 SLOAD PUSH1 0x1 PUSH1 0x1 PUSH1 0xA0 SHL SUB AND CALLER EQ PUSH2 0x1084 JUMPI PUSH1 0x40 MLOAD PUSH3 0x461BCD PUSH1 0xE5 SHL DUP2 MSTORE PUSH1 0x20 PUSH1 0x4 DUP3 ADD MSTORE PUSH1 0x35 PUSH1 0x24 DUP3 ADD MSTORE PUSH32 0x4F6E6C792074686520746F6B656E20636C61696D20636F6E7472616374206361 PUSH1 0x44 DUP3 ADD MSTORE PUSH21 0x371031B0B636103A3434B990333AB731BA34B7B717 PUSH1 0x59 SHL PUSH1 0x64 DUP3 ADD MSTORE PUSH1 0x84 ADD PUSH2 0x9A7 JUMP JUMPDEST PUSH1 0x1 PUSH1 0x1 PUSH1 0xA0 SHL SUB SWAP1 SWAP2 AND PUSH1 0x0 SWAP1 DUP2 MSTORE PUSH1 0x7 PUSH1 0x20 MSTORE PUSH1 0x40 SWAP1 KECCAK256 SSTORE JUMP JUMPDEST PUSH1 0x5 SLOAD PUSH1 0x1 PUSH1 0x1 PUSH1 0xA0 SHL SUB AND CALLER EQ PUSH2 0x10CA JUMPI PUSH1 0x40 MLOAD PUSH3 0x461BCD PUSH1 0xE5 SHL DUP2 MSTORE PUSH1 0x4 ADD PUSH2 0x9A7 SWAP1 PUSH2 0x2591 JUMP JUMPDEST PUSH1 0x1 PUSH1 0x1 PUSH1 0xA0 SHL SUB AND PUSH1 0x0 SWAP1 DUP2 MSTORE PUSH1 0x6 PUSH1 0x20 MSTORE PUSH1 0x40 SWAP1 KECCAK256 DUP1 SLOAD PUSH1 0xFF NOT AND PUSH1 0x1 OR SWAP1 SSTORE JUMP JUMPDEST PUSH1 0x5 SLOAD PUSH1 0x1 PUSH1 0x1 PUSH1 0xA0 SHL SUB AND CALLER EQ PUSH2 0x1118 JUMPI PUSH1 0x40 MLOAD PUSH3 0x461BCD PUSH1 0xE5 SHL DUP2 MSTORE PUSH1 0x4 ADD PUSH2 0x9A7 SWAP1 PUSH2 0x2591 JUMP JUMPDEST PUSH1 0x14 DUP2 GT ISZERO PUSH2 0x118F JUMPI PUSH1 0x40 MLOAD PUSH3 0x461BCD PUSH1 0xE5 SHL DUP2 MSTORE PUSH1 0x20 PUSH1 0x4 DUP3 ADD MSTORE PUSH1 0x37 PUSH1 0x24 DUP3 ADD MSTORE PUSH32 0x546865207265616C20657374617465207472616E73616374696F6E2066656520 PUSH1 0x44 DUP3 ADD MSTORE PUSH32 0x63616E2774206265206D6F7265207468616E203230252E000000000000000000 PUSH1 0x64 DUP3 ADD MSTORE PUSH1 0x84 ADD PUSH2 0x9A7 JUMP JUMPDEST PUSH1 0x12 DUP2 SWAP1 SSTORE PUSH1 0x40 MLOAD DUP2 SWAP1 PUSH32 0x5E294032E562253D1BD8479E26981CF9E5B7AB3E93218BFD57214DE3418F0B1C SWAP1 PUSH1 0x0 SWAP1 LOG2 POP JUMP JUMPDEST PUSH1 0x5 SLOAD PUSH1 0x1 PUSH1 0x1 PUSH1 0xA0 SHL SUB AND CALLER EQ PUSH2 0x11EC JUMPI PUSH1 0x40 MLOAD PUSH3 0x461BCD PUSH1 0xE5 SHL DUP2 MSTORE PUSH1 0x4 ADD PUSH2 0x9A7 SWAP1 PUSH2 0x2591 JUMP JUMPDEST SELFBALANCE PUSH2 0x11F6 DUP2 PUSH2 0x1E44 JUMP JUMPDEST POP JUMP JUMPDEST PUSH1 0x60 PUSH1 0x4 DUP1 SLOAD PUSH2 0x8DA SWAP1 PUSH2 0x2427 JUMP JUMPDEST CALLER PUSH1 0x0 SWAP1 DUP2 MSTORE PUSH1 0x9 PUSH1 0x20 MSTORE PUSH1 0x40 SWAP1 KECCAK256 SLOAD PUSH1 0xFF AND PUSH2 0x127B JUMPI PUSH1 0x40 MLOAD PUSH3 0x461BCD PUSH1 0xE5 SHL DUP2 MSTORE PUSH1 0x20 PUSH1 0x4 DUP3 ADD MSTORE PUSH1 0x2B PUSH1 0x24 DUP3 ADD MSTORE PUSH32 0x596F7520617265206E6F7420617574686F72697A656420746F206275726E2043 PUSH1 0x44 DUP3 ADD MSTORE PUSH11 0x2422A9903A37B5B2B73997 PUSH1 0xA9 SHL PUSH1 0x64 DUP3 ADD MSTORE PUSH1 0x84 ADD PUSH2 0x9A7 JUMP JUMPDEST PUSH2 0xE33 DUP3 DUP3 PUSH2 0x209B JUMP JUMPDEST CALLER PUSH1 0x0 DUP2 DUP2 MSTORE PUSH1 0x1 PUSH1 0x20 SWAP1 DUP2 MSTORE PUSH1 0x40 DUP1 DUP4 KECCAK256 PUSH1 0x1 PUSH1 0x1 PUSH1 0xA0 SHL SUB DUP8 AND DUP5 MSTORE SWAP1 SWAP2 MSTORE DUP2 KECCAK256 SLOAD SWAP1 SWAP2 SWAP1 DUP4 DUP2 LT ISZERO PUSH2 0x130A JUMPI PUSH1 0x40 MLOAD PUSH3 0x461BCD PUSH1 0xE5 SHL DUP2 MSTORE PUSH1 0x20 PUSH1 0x4 DUP3 ADD MSTORE PUSH1 0x25 PUSH1 0x24 DUP3 ADD MSTORE PUSH32 0x45524332303A2064656372656173656420616C6C6F77616E63652062656C6F77 PUSH1 0x44 DUP3 ADD MSTORE PUSH5 0x207A65726F PUSH1 0xD8 SHL PUSH1 0x64 DUP3 ADD MSTORE PUSH1 0x84 ADD PUSH2 0x9A7 JUMP JUMPDEST PUSH2 0x1317 DUP3 DUP7 DUP7 DUP5 SUB PUSH2 0x1951 JUMP JUMPDEST POP PUSH1 0x1 SWAP5 SWAP4 POP POP POP POP JUMP JUMPDEST CALLER PUSH1 0x0 SWAP1 DUP2 MSTORE PUSH1 0x8 PUSH1 0x20 MSTORE PUSH1 0x40 DUP2 KECCAK256 SLOAD PUSH1 0xFF AND ISZERO PUSH2 0x1352 JUMPI PUSH1 0x40 MLOAD PUSH3 0x461BCD PUSH1 0xE5 SHL DUP2 MSTORE PUSH1 0x4 ADD PUSH2 0x9A7 SWAP1 PUSH2 0x2462 JUMP JUMPDEST PUSH1 0x1 PUSH1 0x1 PUSH1 0xA0 SHL SUB DUP4 AND PUSH1 0x0 SWAP1 DUP2 MSTORE PUSH1 0x8 PUSH1 0x20 MSTORE PUSH1 0x40 SWAP1 KECCAK256 SLOAD PUSH1 0xFF AND ISZERO PUSH2 0x1462 JUMPI PUSH1 0x40 MLOAD PUSH3 0x461BCD PUSH1 0xE5 SHL DUP2 MSTORE PUSH1 0x20 PUSH1 0x4 DUP3 ADD MSTORE PUSH1 0xA5 PUSH1 0x24 DUP3 ADD MSTORE PUSH32 0x546865206164647265737320796F752061726520747279696E6720746F207365 PUSH1 0x44 DUP3 ADD MSTORE PUSH32 0x6E64204348455320746F20686173206265656E20626C61636B6C697374656420 PUSH1 0x64 DUP3 ADD MSTORE PUSH32 0x66726F6D2074726164696E6720746865204348455320746F6B656E2E20496620 PUSH1 0x84 DUP3 ADD MSTORE PUSH32 0x796F75207468696E6B207468697320697320616E206572726F722C20706C6561 PUSH1 0xA4 DUP3 ADD MSTORE PUSH32 0x736520636F6E746163742074686520436861696E204573746174652044414F20 PUSH1 0xC4 DUP3 ADD MSTORE PUSH5 0x3A32B0B697 PUSH1 0xD9 SHL PUSH1 0xE4 DUP3 ADD MSTORE PUSH2 0x104 ADD PUSH2 0x9A7 JUMP JUMPDEST PUSH1 0x16 SLOAD PUSH1 0x1 PUSH1 0x1 PUSH1 0xA0 SHL SUB AND CALLER PUSH1 0x1 PUSH1 0x1 PUSH1 0xA0 SHL SUB AND EQ DUP1 ISZERO PUSH2 0x1495 JUMPI POP CALLER PUSH1 0x0 SWAP1 DUP2 MSTORE PUSH1 0x6 PUSH1 0x20 MSTORE PUSH1 0x40 SWAP1 KECCAK256 SLOAD PUSH1 0xFF AND ISZERO JUMPDEST DUP1 ISZERO PUSH2 0x14BA JUMPI POP PUSH1 0x1 PUSH1 0x1 PUSH1 0xA0 SHL SUB DUP4 AND PUSH1 0x0 SWAP1 DUP2 MSTORE PUSH1 0x6 PUSH1 0x20 MSTORE PUSH1 0x40 SWAP1 KECCAK256 SLOAD PUSH1 0xFF AND ISZERO JUMPDEST ISZERO PUSH2 0x1572 JUMPI PUSH1 0xA6 PUSH2 0x14CA PUSH1 0x2 SLOAD SWAP1 JUMP JUMPDEST PUSH2 0x14D4 SWAP2 SWAP1 PUSH2 0x2540 JUMP JUMPDEST DUP3 PUSH2 0x14DE DUP6 PUSH2 0xFBB JUMP JUMPDEST PUSH2 0x14E8 SWAP2 SWAP1 PUSH2 0x2562 JUMP JUMPDEST LT PUSH2 0x1572 JUMPI PUSH1 0x40 MLOAD PUSH3 0x461BCD PUSH1 0xE5 SHL DUP2 MSTORE PUSH1 0x20 PUSH1 0x4 DUP3 ADD MSTORE PUSH1 0x4E PUSH1 0x24 DUP3 ADD MSTORE PUSH32 0x596F752063616E27742068617665206D6F7265207468616E203225206F662074 PUSH1 0x44 DUP3 ADD MSTORE PUSH32 0x686520746F74616C204348455320737570706C7920616674657220612050616E PUSH1 0x64 DUP3 ADD MSTORE PUSH14 0x31B0B5B2A9BBB0B81039BBB0B817 PUSH1 0x91 SHL PUSH1 0x84 DUP3 ADD MSTORE PUSH1 0xA4 ADD PUSH2 0x9A7 JUMP JUMPDEST CALLER PUSH1 0x0 SWAP1 DUP2 MSTORE PUSH1 0x6 PUSH1 0x20 MSTORE PUSH1 0x40 SWAP1 KECCAK256 SLOAD PUSH1 0xFF AND DUP1 PUSH2 0x15A8 JUMPI POP PUSH1 0x1 PUSH1 0x1 PUSH1 0xA0 SHL SUB DUP4 AND PUSH1 0x0 SWAP1 DUP2 MSTORE PUSH1 0x6 PUSH1 0x20 MSTORE PUSH1 0x40 SWAP1 KECCAK256 SLOAD PUSH1 0xFF AND JUMPDEST ISZERO PUSH2 0x15C0 JUMPI PUSH2 0x15B8 CALLER DUP5 DUP5 PUSH2 0x1B07 JUMP JUMPDEST POP PUSH1 0x1 PUSH2 0x971 JUMP JUMPDEST PUSH1 0x0 PUSH1 0x64 PUSH1 0x12 SLOAD DUP5 PUSH2 0x15D2 SWAP2 SWAP1 PUSH2 0x2521 JUMP JUMPDEST PUSH2 0x15DC SWAP2 SWAP1 PUSH2 0x2540 JUMP JUMPDEST SWAP1 POP PUSH1 0x0 PUSH1 0x64 PUSH1 0x14 SLOAD DUP6 PUSH2 0x15F0 SWAP2 SWAP1 PUSH2 0x2521 JUMP JUMPDEST PUSH2 0x15FA SWAP2 SWAP1 PUSH2 0x2540 JUMP JUMPDEST SWAP1 POP PUSH1 0x0 PUSH1 0x64 PUSH1 0x13 SLOAD DUP7 PUSH2 0x160E SWAP2 SWAP1 PUSH2 0x2521 JUMP JUMPDEST PUSH2 0x1618 SWAP2 SWAP1 PUSH2 0x2540 JUMP JUMPDEST SWAP1 POP PUSH1 0x0 DUP2 PUSH2 0x1627 DUP5 DUP7 PUSH2 0x2562 JUMP JUMPDEST PUSH2 0x1631 SWAP2 SWAP1 PUSH2 0x2562 JUMP JUMPDEST SWAP1 POP PUSH2 0x163E CALLER ADDRESS DUP4 PUSH2 0x1B07 JUMP JUMPDEST PUSH1 0x0 PUSH2 0x1649 ADDRESS PUSH2 0xFBB JUMP JUMPDEST PUSH1 0x16 SLOAD SWAP1 SWAP2 POP PUSH1 0x1 PUSH1 0x1 PUSH1 0xA0 SHL SUB AND CALLER PUSH1 0x1 PUSH1 0x1 PUSH1 0xA0 SHL SUB AND EQ PUSH2 0x16AB JUMPI PUSH1 0x18 SLOAD PUSH1 0x16 SLOAD PUSH2 0x167F SWAP1 PUSH1 0x1 PUSH1 0x1 PUSH1 0xA0 SHL SUB AND PUSH2 0xFBB JUMP JUMPDEST PUSH2 0x1689 SWAP2 SWAP1 PUSH2 0x2540 JUMP JUMPDEST DUP2 GT ISZERO PUSH2 0x1699 JUMPI PUSH2 0x1699 DUP2 PUSH2 0x1CDB JUMP JUMPDEST SELFBALANCE DUP1 ISZERO PUSH2 0x16A9 JUMPI PUSH2 0x16A9 SELFBALANCE PUSH2 0x1E44 JUMP JUMPDEST POP JUMPDEST PUSH1 0x0 PUSH2 0x16B7 DUP4 DUP10 PUSH2 0x257A JUMP JUMPDEST SWAP1 POP PUSH2 0x16C4 CALLER DUP11 DUP4 PUSH2 0x1B07 JUMP JUMPDEST POP PUSH1 0x1 SWAP9 SWAP8 POP POP POP POP POP POP POP POP JUMP JUMPDEST PUSH1 0x5 SLOAD PUSH1 0x1 PUSH1 0x1 PUSH1 0xA0 SHL SUB AND CALLER EQ PUSH2 0x16FD JUMPI PUSH1 0x40 MLOAD PUSH3 0x461BCD PUSH1 0xE5 SHL DUP2 MSTORE PUSH1 0x4 ADD PUSH2 0x9A7 SWAP1 PUSH2 0x2591 JUMP JUMPDEST PUSH1 0x17 DUP1 SLOAD PUSH1 0x1 PUSH1 0x1 PUSH1 0xA0 SHL SUB NOT AND PUSH1 0x1 PUSH1 0x1 PUSH1 0xA0 SHL SUB SWAP3 SWAP1 SWAP3 AND SWAP2 SWAP1 SWAP2 OR SWAP1 SSTORE JUMP JUMPDEST PUSH1 0x5 SLOAD PUSH1 0x1 PUSH1 0x1 PUSH1 0xA0 SHL SUB AND CALLER EQ PUSH2 0x1749 JUMPI PUSH1 0x40 MLOAD PUSH3 0x461BCD PUSH1 0xE5 SHL DUP2 MSTORE PUSH1 0x4 ADD PUSH2 0x9A7 SWAP1 PUSH2 0x2591 JUMP JUMPDEST PUSH1 0x1 PUSH1 0x1 PUSH1 0xA0 SHL SUB AND PUSH1 0x0 SWAP1 DUP2 MSTORE PUSH1 0x6 PUSH1 0x20 MSTORE PUSH1 0x40 SWAP1 KECCAK256 DUP1 SLOAD PUSH1 0xFF NOT AND SWAP1 SSTORE JUMP JUMPDEST PUSH1 0x5 SLOAD PUSH1 0x1 PUSH1 0x1 PUSH1 0xA0 SHL SUB AND CALLER EQ PUSH2 0x1794 JUMPI PUSH1 0x40 MLOAD PUSH3 0x461BCD PUSH1 0xE5 SHL DUP2 MSTORE PUSH1 0x4 ADD PUSH2 0x9A7 SWAP1 PUSH2 0x2591 JUMP JUMPDEST PUSH1 0x5 DUP2 GT ISZERO PUSH2 0x1802 JUMPI PUSH1 0x40 MLOAD PUSH3 0x461BCD PUSH1 0xE5 SHL DUP2 MSTORE PUSH1 0x20 PUSH1 0x4 DUP3 ADD MSTORE PUSH1 0x34 PUSH1 0x24 DUP3 ADD MSTORE PUSH32 0x54686520646576656C6F706572207472616E73616374696F6E20666565206361 PUSH1 0x44 DUP3 ADD MSTORE PUSH20 0x3713BA1031329036B7B932903A3430B7101A9297 PUSH1 0x61 SHL PUSH1 0x64 DUP3 ADD MSTORE PUSH1 0x84 ADD PUSH2 0x9A7 JUMP JUMPDEST PUSH1 0x13 DUP2 SWAP1 SSTORE PUSH1 0x40 MLOAD DUP2 SWAP1 PUSH32 0x4BEE3C216A701857ABD67FED754EFDD065A8599BE5476E2C4B118FB1896B9FFA SWAP1 PUSH1 0x0 SWAP1 LOG2 POP JUMP JUMPDEST PUSH1 0x5 SLOAD PUSH1 0x1 PUSH1 0x1 PUSH1 0xA0 SHL SUB AND CALLER EQ PUSH2 0x185F JUMPI PUSH1 0x40 MLOAD PUSH3 0x461BCD PUSH1 0xE5 SHL DUP2 MSTORE PUSH1 0x4 ADD PUSH2 0x9A7 SWAP1 PUSH2 0x2591 JUMP JUMPDEST PUSH1 0x1 PUSH1 0x1 PUSH1 0xA0 SHL SUB DUP2 AND PUSH2 0x18C4 JUMPI PUSH1 0x40 MLOAD PUSH3 0x461BCD PUSH1 0xE5 SHL DUP2 MSTORE PUSH1 0x20 PUSH1 0x4 DUP3 ADD MSTORE PUSH1 0x26 PUSH1 0x24 DUP3 ADD MSTORE PUSH32 0x4F776E61626C653A206E6577206F776E657220697320746865207A65726F2061 PUSH1 0x44 DUP3 ADD MSTORE PUSH6 0x646472657373 PUSH1 0xD0 SHL PUSH1 0x64 DUP3 ADD MSTORE PUSH1 0x84 ADD PUSH2 0x9A7 JUMP JUMPDEST PUSH2 0x11F6 DUP2 PUSH2 0x2049 JUMP JUMPDEST PUSH1 0x5 SLOAD PUSH1 0x1 PUSH1 0x1 PUSH1 0xA0 SHL SUB AND CALLER EQ PUSH2 0x18F7 JUMPI PUSH1 0x40 MLOAD PUSH3 0x461BCD PUSH1 0xE5 SHL DUP2 MSTORE PUSH1 0x4 ADD PUSH2 0x9A7 SWAP1 PUSH2 0x2591 JUMP JUMPDEST PUSH1 0x18 SSTORE JUMP JUMPDEST PUSH1 0x5 SLOAD PUSH1 0x1 PUSH1 0x1 PUSH1 0xA0 SHL SUB AND CALLER EQ PUSH2 0x1926 JUMPI PUSH1 0x40 MLOAD PUSH3 0x461BCD PUSH1 0xE5 SHL DUP2 MSTORE PUSH1 0x4 ADD PUSH2 0x9A7 SWAP1 PUSH2 0x2591 JUMP JUMPDEST PUSH1 0x1 PUSH1 0x1 PUSH1 0xA0 SHL SUB SWAP2 SWAP1 SWAP2 AND PUSH1 0x0 SWAP1 DUP2 MSTORE PUSH1 0x8 PUSH1 0x20 MSTORE PUSH1 0x40 SWAP1 KECCAK256 DUP1 SLOAD PUSH1 0xFF NOT AND SWAP2 ISZERO ISZERO SWAP2 SWAP1 SWAP2 OR SWAP1 SSTORE JUMP JUMPDEST PUSH1 0x1 PUSH1 0x1 PUSH1 0xA0 SHL SUB DUP4 AND PUSH2 0x19B3 JUMPI PUSH1 0x40 MLOAD PUSH3 0x461BCD PUSH1 0xE5 SHL DUP2 MSTORE PUSH1 0x20 PUSH1 0x4 DUP3 ADD MSTORE PUSH1 0x24 DUP1 DUP3 ADD MSTORE PUSH32 0x45524332303A20617070726F76652066726F6D20746865207A65726F20616464 PUSH1 0x44 DUP3 ADD MSTORE PUSH4 0x72657373 PUSH1 0xE0 SHL PUSH1 0x64 DUP3 ADD MSTORE PUSH1 0x84 ADD PUSH2 0x9A7 JUMP JUMPDEST PUSH1 0x1 PUSH1 0x1 PUSH1 0xA0 SHL SUB DUP3 AND PUSH2 0x1A14 JUMPI PUSH1 0x40 MLOAD PUSH3 0x461BCD PUSH1 0xE5 SHL DUP2 MSTORE PUSH1 0x20 PUSH1 0x4 DUP3 ADD MSTORE PUSH1 0x22 PUSH1 0x24 DUP3 ADD MSTORE PUSH32 0x45524332303A20617070726F766520746F20746865207A65726F206164647265 PUSH1 0x44 DUP3 ADD MSTORE PUSH2 0x7373 PUSH1 0xF0 SHL PUSH1 0x64 DUP3 ADD MSTORE PUSH1 0x84 ADD PUSH2 0x9A7 JUMP JUMPDEST PUSH1 0x1 PUSH1 0x1 PUSH1 0xA0 SHL SUB DUP4 DUP2 AND PUSH1 0x0 DUP2 DUP2 MSTORE PUSH1 0x1 PUSH1 0x20 SWAP1 DUP2 MSTORE PUSH1 0x40 DUP1 DUP4 KECCAK256 SWAP5 DUP8 AND DUP1 DUP5 MSTORE SWAP5 DUP3 MSTORE SWAP2 DUP3 SWAP1 KECCAK256 DUP6 SWAP1 SSTORE SWAP1 MLOAD DUP5 DUP2 MSTORE PUSH32 0x8C5BE1E5EBEC7D5BD14F71427D1E84F3DD0314C0F7B2291E5B200AC8C7C3B925 SWAP2 ADD PUSH1 0x40 MLOAD DUP1 SWAP2 SUB SWAP1 LOG3 POP POP POP JUMP JUMPDEST PUSH1 0x1 PUSH1 0x1 PUSH1 0xA0 SHL SUB DUP4 DUP2 AND PUSH1 0x0 SWAP1 DUP2 MSTORE PUSH1 0x1 PUSH1 0x20 SWAP1 DUP2 MSTORE PUSH1 0x40 DUP1 DUP4 KECCAK256 SWAP4 DUP7 AND DUP4 MSTORE SWAP3 SWAP1 MSTORE KECCAK256 SLOAD PUSH1 0x0 NOT DUP2 EQ PUSH2 0x1B01 JUMPI DUP2 DUP2 LT ISZERO PUSH2 0x1AF4 JUMPI PUSH1 0x40 MLOAD PUSH3 0x461BCD PUSH1 0xE5 SHL DUP2 MSTORE PUSH1 0x20 PUSH1 0x4 DUP3 ADD MSTORE PUSH1 0x1D PUSH1 0x24 DUP3 ADD MSTORE PUSH32 0x45524332303A20696E73756666696369656E7420616C6C6F77616E6365000000 PUSH1 0x44 DUP3 ADD MSTORE PUSH1 0x64 ADD PUSH2 0x9A7 JUMP JUMPDEST PUSH2 0x1B01 DUP5 DUP5 DUP5 DUP5 SUB PUSH2 0x1951 JUMP JUMPDEST POP POP POP POP JUMP JUMPDEST PUSH1 0x1 PUSH1 0x1 PUSH1 0xA0 SHL SUB DUP4 AND PUSH2 0x1B6B JUMPI PUSH1 0x40 MLOAD PUSH3 0x461BCD PUSH1 0xE5 SHL DUP2 MSTORE PUSH1 0x20 PUSH1 0x4 DUP3 ADD MSTORE PUSH1 0x25 PUSH1 0x24 DUP3 ADD MSTORE PUSH32 0x45524332303A207472616E736665722066726F6D20746865207A65726F206164 PUSH1 0x44 DUP3 ADD MSTORE PUSH5 0x6472657373 PUSH1 0xD8 SHL PUSH1 0x64 DUP3 ADD MSTORE PUSH1 0x84 ADD PUSH2 0x9A7 JUMP JUMPDEST PUSH1 0x1 PUSH1 0x1 PUSH1 0xA0 SHL SUB DUP3 AND PUSH2 0x1BCD JUMPI PUSH1 0x40 MLOAD PUSH3 0x461BCD PUSH1 0xE5 SHL DUP2 MSTORE PUSH1 0x20 PUSH1 0x4 DUP3 ADD MSTORE PUSH1 0x23 PUSH1 0x24 DUP3 ADD MSTORE PUSH32 0x45524332303A207472616E7366657220746F20746865207A65726F2061646472 PUSH1 0x44 DUP3 ADD MSTORE PUSH3 0x657373 PUSH1 0xE8 SHL PUSH1 0x64 DUP3 ADD MSTORE PUSH1 0x84 ADD PUSH2 0x9A7 JUMP JUMPDEST PUSH1 0x1 PUSH1 0x1 PUSH1 0xA0 SHL SUB DUP4 AND PUSH1 0x0 SWAP1 DUP2 MSTORE PUSH1 0x20 DUP2 SWAP1 MSTORE PUSH1 0x40 SWAP1 KECCAK256 SLOAD DUP2 DUP2 LT ISZERO PUSH2 0x1C45 JUMPI PUSH1 0x40 MLOAD PUSH3 0x461BCD PUSH1 0xE5 SHL DUP2 MSTORE PUSH1 0x20 PUSH1 0x4 DUP3 ADD MSTORE PUSH1 0x26 PUSH1 0x24 DUP3 ADD MSTORE PUSH32 0x45524332303A207472616E7366657220616D6F756E7420657863656564732062 PUSH1 0x44 DUP3 ADD MSTORE PUSH6 0x616C616E6365 PUSH1 0xD0 SHL PUSH1 0x64 DUP3 ADD MSTORE PUSH1 0x84 ADD PUSH2 0x9A7 JUMP JUMPDEST PUSH1 0x1 PUSH1 0x1 PUSH1 0xA0 SHL SUB DUP1 DUP6 AND PUSH1 0x0 SWAP1 DUP2 MSTORE PUSH1 0x20 DUP2 SWAP1 MSTORE PUSH1 0x40 DUP1 DUP3 KECCAK256 DUP6 DUP6 SUB SWAP1 SSTORE SWAP2 DUP6 AND DUP2 MSTORE SWAP1 DUP2 KECCAK256 DUP1 SLOAD DUP5 SWAP3 SWAP1 PUSH2 0x1C7C SWAP1 DUP5 SWAP1 PUSH2 0x2562 JUMP JUMPDEST SWAP3 POP POP DUP2 SWAP1 SSTORE POP DUP3 PUSH1 0x1 PUSH1 0x1 PUSH1 0xA0 SHL SUB AND DUP5 PUSH1 0x1 PUSH1 0x1 PUSH1 0xA0 SHL SUB AND PUSH32 0xDDF252AD1BE2C89B69C2B068FC378DAA952BA7F163C4A11628F55A4DF523B3EF DUP5 PUSH1 0x40 MLOAD PUSH2 0x1CC8 SWAP2 DUP2 MSTORE PUSH1 0x20 ADD SWAP1 JUMP JUMPDEST PUSH1 0x40 MLOAD DUP1 SWAP2 SUB SWAP1 LOG3 PUSH2 0x1B01 DUP5 DUP5 DUP5 PUSH2 0x21EC JUMP JUMPDEST PUSH1 0x40 DUP1 MLOAD PUSH1 0x2 DUP1 DUP3 MSTORE PUSH1 0x60 DUP3 ADD DUP4 MSTORE PUSH1 0x0 SWAP3 PUSH1 0x20 DUP4 ADD SWAP1 DUP1 CALLDATASIZE DUP4 CALLDATACOPY ADD SWAP1 POP POP SWAP1 POP ADDRESS DUP2 PUSH1 0x0 DUP2 MLOAD DUP2 LT PUSH2 0x1D10 JUMPI PUSH2 0x1D10 PUSH2 0x25C6 JUMP JUMPDEST PUSH1 0x1 PUSH1 0x1 PUSH1 0xA0 SHL SUB SWAP3 DUP4 AND PUSH1 0x20 SWAP2 DUP3 MUL SWAP3 SWAP1 SWAP3 ADD DUP2 ADD SWAP2 SWAP1 SWAP2 MSTORE PUSH1 0x15 SLOAD PUSH1 0x40 DUP1 MLOAD PUSH4 0x15AB88C9 PUSH1 0xE3 SHL DUP2 MSTORE SWAP1 MLOAD SWAP2 SWAP1 SWAP4 AND SWAP3 PUSH4 0xAD5C4648 SWAP3 PUSH1 0x4 DUP1 DUP4 ADD SWAP4 SWAP2 SWAP3 DUP3 SWAP1 SUB ADD DUP2 DUP7 DUP1 EXTCODESIZE ISZERO DUP1 ISZERO PUSH2 0x1D64 JUMPI PUSH1 0x0 DUP1 REVERT JUMPDEST POP GAS STATICCALL ISZERO DUP1 ISZERO PUSH2 0x1D78 JUMPI RETURNDATASIZE PUSH1 0x0 DUP1 RETURNDATACOPY RETURNDATASIZE PUSH1 0x0 REVERT JUMPDEST POP POP POP POP PUSH1 0x40 MLOAD RETURNDATASIZE PUSH1 0x1F NOT PUSH1 0x1F DUP3 ADD AND DUP3 ADD DUP1 PUSH1 0x40 MSTORE POP DUP2 ADD SWAP1 PUSH2 0x1D9C SWAP2 SWAP1 PUSH2 0x25DC JUMP JUMPDEST DUP2 PUSH1 0x1 DUP2 MLOAD DUP2 LT PUSH2 0x1DAF JUMPI PUSH2 0x1DAF PUSH2 0x25C6 JUMP JUMPDEST PUSH1 0x1 PUSH1 0x1 PUSH1 0xA0 SHL SUB SWAP3 DUP4 AND PUSH1 0x20 SWAP2 DUP3 MUL SWAP3 SWAP1 SWAP3 ADD ADD MSTORE PUSH1 0x15 SLOAD PUSH2 0x1DD5 SWAP2 ADDRESS SWAP2 AND DUP5 PUSH2 0x1951 JUMP JUMPDEST PUSH1 0x15 SLOAD PUSH1 0x40 MLOAD PUSH4 0x791AC947 PUSH1 0xE0 SHL DUP2 MSTORE PUSH1 0x1 PUSH1 0x1 PUSH1 0xA0 SHL SUB SWAP1 SWAP2 AND SWAP1 PUSH4 0x791AC947 SWAP1 PUSH2 0x1E0E SWAP1 DUP6 SWAP1 PUSH1 0x0 SWAP1 DUP7 SWAP1 ADDRESS SWAP1 TIMESTAMP SWAP1 PUSH1 0x4 ADD PUSH2 0x25F9 JUMP JUMPDEST PUSH1 0x0 PUSH1 0x40 MLOAD DUP1 DUP4 SUB DUP2 PUSH1 0x0 DUP8 DUP1 EXTCODESIZE ISZERO DUP1 ISZERO PUSH2 0x1E28 JUMPI PUSH1 0x0 DUP1 REVERT JUMPDEST POP GAS CALL ISZERO DUP1 ISZERO PUSH2 0x1E3C JUMPI RETURNDATASIZE PUSH1 0x0 DUP1 RETURNDATACOPY RETURNDATASIZE PUSH1 0x0 REVERT JUMPDEST POP POP POP POP POP POP JUMP JUMPDEST PUSH1 0x0 PUSH1 0x13 SLOAD PUSH1 0x14 SLOAD PUSH1 0x12 SLOAD PUSH2 0x1E59 SWAP2 SWAP1 PUSH2 0x2562 JUMP JUMPDEST PUSH2 0x1E63 SWAP2 SWAP1 PUSH2 0x2562 JUMP JUMPDEST PUSH1 0xC SLOAD PUSH1 0x12 SLOAD SWAP2 SWAP3 POP PUSH1 0x1 PUSH1 0x1 PUSH1 0xA0 SHL SUB AND SWAP1 PUSH2 0x8FC SWAP1 DUP4 SWAP1 PUSH2 0x1E86 SWAP1 DUP7 PUSH2 0x2521 JUMP JUMPDEST PUSH2 0x1E90 SWAP2 SWAP1 PUSH2 0x2540 JUMP JUMPDEST PUSH1 0x40 MLOAD DUP2 ISZERO SWAP1 SWAP3 MUL SWAP2 PUSH1 0x0 DUP2 DUP2 DUP2 DUP6 DUP9 DUP9 CALL SWAP4 POP POP POP POP ISZERO DUP1 ISZERO PUSH2 0x1EB8 JUMPI RETURNDATASIZE PUSH1 0x0 DUP1 RETURNDATACOPY RETURNDATASIZE PUSH1 0x0 REVERT JUMPDEST POP PUSH1 0xE SLOAD PUSH1 0x14 SLOAD PUSH1 0x1 PUSH1 0x1 PUSH1 0xA0 SHL SUB SWAP1 SWAP2 AND SWAP1 PUSH2 0x8FC SWAP1 DUP4 SWAP1 PUSH2 0x1EDB SWAP1 DUP7 PUSH2 0x2521 JUMP JUMPDEST PUSH2 0x1EE5 SWAP2 SWAP1 PUSH2 0x2540 JUMP JUMPDEST PUSH1 0x40 MLOAD DUP2 ISZERO SWAP1 SWAP3 MUL SWAP2 PUSH1 0x0 DUP2 DUP2 DUP2 DUP6 DUP9 DUP9 CALL SWAP4 POP POP POP POP ISZERO DUP1 ISZERO PUSH2 0x1F0D JUMPI RETURNDATASIZE PUSH1 0x0 DUP1 RETURNDATACOPY RETURNDATASIZE PUSH1 0x0 REVERT JUMPDEST POP PUSH1 0xF SLOAD PUSH1 0x13 SLOAD PUSH1 0x1 PUSH1 0x1 PUSH1 0xA0 SHL SUB SWAP1 SWAP2 AND SWAP1 PUSH2 0x8FC SWAP1 DUP4 SWAP1 PUSH2 0x1F30 SWAP1 DUP7 PUSH2 0x2521 JUMP JUMPDEST PUSH2 0x1F3A SWAP2 SWAP1 PUSH2 0x2540 JUMP JUMPDEST PUSH1 0x40 MLOAD DUP2 ISZERO SWAP1 SWAP3 MUL SWAP2 PUSH1 0x0 DUP2 DUP2 DUP2 DUP6 DUP9 DUP9 CALL SWAP4 POP POP POP POP ISZERO DUP1 ISZERO PUSH2 0xFB6 JUMPI RETURNDATASIZE PUSH1 0x0 DUP1 RETURNDATACOPY RETURNDATASIZE PUSH1 0x0 REVERT JUMPDEST PUSH1 0x1 PUSH1 0x1 PUSH1 0xA0 SHL SUB DUP3 AND PUSH2 0x1FB8 JUMPI PUSH1 0x40 MLOAD PUSH3 0x461BCD PUSH1 0xE5 SHL DUP2 MSTORE PUSH1 0x20 PUSH1 0x4 DUP3 ADD MSTORE PUSH1 0x1F PUSH1 0x24 DUP3 ADD MSTORE PUSH32 0x45524332303A206D696E7420746F20746865207A65726F206164647265737300 PUSH1 0x44 DUP3 ADD MSTORE PUSH1 0x64 ADD PUSH2 0x9A7 JUMP JUMPDEST DUP1 PUSH1 0x2 PUSH1 0x0 DUP3 DUP3 SLOAD PUSH2 0x1FCA SWAP2 SWAP1 PUSH2 0x2562 JUMP JUMPDEST SWAP1 SWAP2 SSTORE POP POP PUSH1 0x1 PUSH1 0x1 PUSH1 0xA0 SHL SUB DUP3 AND PUSH1 0x0 SWAP1 DUP2 MSTORE PUSH1 0x20 DUP2 SWAP1 MSTORE PUSH1 0x40 DUP2 KECCAK256 DUP1 SLOAD DUP4 SWAP3 SWAP1 PUSH2 0x1FF7 SWAP1 DUP5 SWAP1 PUSH2 0x2562 JUMP JUMPDEST SWAP1 SWAP2 SSTORE POP POP PUSH1 0x40 MLOAD DUP2 DUP2 MSTORE PUSH1 0x1 PUSH1 0x1 PUSH1 0xA0 SHL SUB DUP4 AND SWAP1 PUSH1 0x0 SWAP1 PUSH32 0xDDF252AD1BE2C89B69C2B068FC378DAA952BA7F163C4A11628F55A4DF523B3EF SWAP1 PUSH1 0x20 ADD PUSH1 0x40 MLOAD DUP1 SWAP2 SUB SWAP1 LOG3 PUSH2 0xE33 PUSH1 0x0 DUP4 DUP4 PUSH2 0x21EC JUMP JUMPDEST PUSH1 0x5 DUP1 SLOAD PUSH1 0x1 PUSH1 0x1 PUSH1 0xA0 SHL SUB DUP4 DUP2 AND PUSH1 0x1 PUSH1 0x1 PUSH1 0xA0 SHL SUB NOT DUP4 AND DUP2 OR SWAP1 SWAP4 SSTORE PUSH1 0x40 MLOAD SWAP2 AND SWAP2 SWAP1 DUP3 SWAP1 PUSH32 0x8BE0079C531659141344CD1FD0A4F28419497F9722A3DAAFE3B4186F6B6457E0 SWAP1 PUSH1 0x0 SWAP1 LOG3 POP POP JUMP JUMPDEST PUSH1 0x1 PUSH1 0x1 PUSH1 0xA0 SHL SUB DUP3 AND PUSH2 0x20FB JUMPI PUSH1 0x40 MLOAD PUSH3 0x461BCD PUSH1 0xE5 SHL DUP2 MSTORE PUSH1 0x20 PUSH1 0x4 DUP3 ADD MSTORE PUSH1 0x21 PUSH1 0x24 DUP3 ADD MSTORE PUSH32 0x45524332303A206275726E2066726F6D20746865207A65726F20616464726573 PUSH1 0x44 DUP3 ADD MSTORE PUSH1 0x73 PUSH1 0xF8 SHL PUSH1 0x64 DUP3 ADD MSTORE PUSH1 0x84 ADD PUSH2 0x9A7 JUMP JUMPDEST PUSH1 0x1 PUSH1 0x1 PUSH1 0xA0 SHL SUB DUP3 AND PUSH1 0x0 SWAP1 DUP2 MSTORE PUSH1 0x20 DUP2 SWAP1 MSTORE PUSH1 0x40 SWAP1 KECCAK256 SLOAD DUP2 DUP2 LT ISZERO PUSH2 0x216F JUMPI PUSH1 0x40 MLOAD PUSH3 0x461BCD PUSH1 0xE5 SHL DUP2 MSTORE PUSH1 0x20 PUSH1 0x4 DUP3 ADD MSTORE PUSH1 0x22 PUSH1 0x24 DUP3 ADD MSTORE PUSH32 0x45524332303A206275726E20616D6F756E7420657863656564732062616C616E PUSH1 0x44 DUP3 ADD MSTORE PUSH2 0x6365 PUSH1 0xF0 SHL PUSH1 0x64 DUP3 ADD MSTORE PUSH1 0x84 ADD PUSH2 0x9A7 JUMP JUMPDEST PUSH1 0x1 PUSH1 0x1 PUSH1 0xA0 SHL SUB DUP4 AND PUSH1 0x0 SWAP1 DUP2 MSTORE PUSH1 0x20 DUP2 SWAP1 MSTORE PUSH1 0x40 DUP2 KECCAK256 DUP4 DUP4 SUB SWAP1 SSTORE PUSH1 0x2 DUP1 SLOAD DUP5 SWAP3 SWAP1 PUSH2 0x219E SWAP1 DUP5 SWAP1 PUSH2 0x257A JUMP JUMPDEST SWAP1 SWAP2 SSTORE POP POP PUSH1 0x40 MLOAD DUP3 DUP2 MSTORE PUSH1 0x0 SWAP1 PUSH1 0x1 PUSH1 0x1 PUSH1 0xA0 SHL SUB DUP6 AND SWAP1 PUSH32 0xDDF252AD1BE2C89B69C2B068FC378DAA952BA7F163C4A11628F55A4DF523B3EF SWAP1 PUSH1 0x20 ADD PUSH1 0x40 MLOAD DUP1 SWAP2 SUB SWAP1 LOG3 PUSH2 0xFB6 DUP4 PUSH1 0x0 DUP5 JUMPDEST PUSH1 0x0 PUSH2 0x21F7 DUP4 PUSH2 0xFBB JUMP JUMPDEST SWAP1 POP PUSH1 0x1 PUSH1 0x1 PUSH1 0xA0 SHL SUB DUP4 AND ISZERO PUSH2 0x226F JUMPI PUSH1 0x1 PUSH1 0x1 PUSH1 0xA0 SHL SUB DUP4 AND PUSH1 0x0 SWAP1 DUP2 MSTORE PUSH1 0x7 PUSH1 0x20 MSTORE PUSH1 0x40 SWAP1 KECCAK256 SLOAD DUP2 SWAP1 PUSH2 0x222D DUP5 DUP4 PUSH2 0x257A JUMP JUMPDEST PUSH2 0x2237 SWAP2 SWAP1 PUSH2 0x2521 JUMP JUMPDEST PUSH2 0x2241 TIMESTAMP DUP6 PUSH2 0x2521 JUMP JUMPDEST PUSH2 0x224B SWAP2 SWAP1 PUSH2 0x2562 JUMP JUMPDEST PUSH2 0x2255 SWAP2 SWAP1 PUSH2 0x2540 JUMP JUMPDEST PUSH1 0x1 PUSH1 0x1 PUSH1 0xA0 SHL SUB DUP5 AND PUSH1 0x0 SWAP1 DUP2 MSTORE PUSH1 0x7 PUSH1 0x20 MSTORE PUSH1 0x40 SWAP1 KECCAK256 SSTORE JUMPDEST PUSH2 0x1B01 JUMP JUMPDEST PUSH1 0x0 PUSH1 0x20 DUP1 DUP4 MSTORE DUP4 MLOAD DUP1 DUP3 DUP6 ADD MSTORE PUSH1 0x0 JUMPDEST DUP2 DUP2 LT ISZERO PUSH2 0x22A1 JUMPI DUP6 DUP2 ADD DUP4 ADD MLOAD DUP6 DUP3 ADD PUSH1 0x40 ADD MSTORE DUP3 ADD PUSH2 0x2285 JUMP JUMPDEST DUP2 DUP2 GT ISZERO PUSH2 0x22B3 JUMPI PUSH1 0x0 PUSH1 0x40 DUP4 DUP8 ADD ADD MSTORE JUMPDEST POP PUSH1 0x1F ADD PUSH1 0x1F NOT AND SWAP3 SWAP1 SWAP3 ADD PUSH1 0x40 ADD SWAP4 SWAP3 POP POP POP JUMP JUMPDEST PUSH1 0x1 PUSH1 0x1 PUSH1 0xA0 SHL SUB DUP2 AND DUP2 EQ PUSH2 0x11F6 JUMPI PUSH1 0x0 DUP1 REVERT JUMPDEST PUSH1 0x0 DUP1 PUSH1 0x40 DUP4 DUP6 SUB SLT ISZERO PUSH2 0x22F1 JUMPI PUSH1 0x0 DUP1 REVERT JUMPDEST DUP3 CALLDATALOAD PUSH2 0x22FC DUP2 PUSH2 0x22C9 JUMP JUMPDEST SWAP5 PUSH1 0x20 SWAP4 SWAP1 SWAP4 ADD CALLDATALOAD SWAP4 POP POP POP JUMP JUMPDEST PUSH1 0x0 PUSH1 0x20 DUP3 DUP5 SUB SLT ISZERO PUSH2 0x231C JUMPI PUSH1 0x0 DUP1 REVERT JUMPDEST DUP2 CALLDATALOAD PUSH2 0xD70 DUP2 PUSH2 0x22C9 JUMP JUMPDEST PUSH1 0x0 DUP1 PUSH1 0x0 PUSH1 0x60 DUP5 DUP7 SUB SLT ISZERO PUSH2 0x233C JUMPI PUSH1 0x0 DUP1 REVERT JUMPDEST DUP4 CALLDATALOAD PUSH2 0x2347 DUP2 PUSH2 0x22C9 JUMP JUMPDEST SWAP3 POP PUSH1 0x20 DUP5 ADD CALLDATALOAD PUSH2 0x2357 DUP2 PUSH2 0x22C9 JUMP JUMPDEST SWAP3 SWAP6 SWAP3 SWAP5 POP POP POP PUSH1 0x40 SWAP2 SWAP1 SWAP2 ADD CALLDATALOAD SWAP1 JUMP JUMPDEST DUP1 CALLDATALOAD DUP1 ISZERO ISZERO DUP2 EQ PUSH2 0x2378 JUMPI PUSH1 0x0 DUP1 REVERT JUMPDEST SWAP2 SWAP1 POP JUMP JUMPDEST PUSH1 0x0 DUP1 PUSH1 0x40 DUP4 DUP6 SUB SLT ISZERO PUSH2 0x2390 JUMPI PUSH1 0x0 DUP1 REVERT JUMPDEST DUP3 CALLDATALOAD PUSH2 0x239B DUP2 PUSH2 0x22C9 JUMP JUMPDEST SWAP2 POP PUSH2 0x23A9 PUSH1 0x20 DUP5 ADD PUSH2 0x2368 JUMP JUMPDEST SWAP1 POP SWAP3 POP SWAP3 SWAP1 POP JUMP JUMPDEST PUSH1 0x0 PUSH1 0x20 DUP3 DUP5 SUB SLT ISZERO PUSH2 0x23C4 JUMPI PUSH1 0x0 DUP1 REVERT JUMPDEST POP CALLDATALOAD SWAP2 SWAP1 POP JUMP JUMPDEST PUSH1 0x0 DUP1 PUSH1 0x40 DUP4 DUP6 SUB SLT ISZERO PUSH2 0x23DE JUMPI PUSH1 0x0 DUP1 REVERT JUMPDEST DUP3 CALLDATALOAD SWAP2 POP PUSH2 0x23A9 PUSH1 0x20 DUP5 ADD PUSH2 0x2368 JUMP JUMPDEST PUSH1 0x0 DUP1 PUSH1 0x40 DUP4 DUP6 SUB SLT ISZERO PUSH2 0x2401 JUMPI PUSH1 0x0 DUP1 REVERT JUMPDEST DUP3 CALLDATALOAD PUSH2 0x240C DUP2 PUSH2 0x22C9 JUMP JUMPDEST SWAP2 POP PUSH1 0x20 DUP4 ADD CALLDATALOAD PUSH2 0x241C DUP2 PUSH2 0x22C9 JUMP JUMPDEST DUP1 SWAP2 POP POP SWAP3 POP SWAP3 SWAP1 POP JUMP JUMPDEST PUSH1 0x1 DUP2 DUP2 SHR SWAP1 DUP3 AND DUP1 PUSH2 0x243B JUMPI PUSH1 0x7F DUP3 AND SWAP2 POP JUMPDEST PUSH1 0x20 DUP3 LT DUP2 EQ ISZERO PUSH2 0x245C JUMPI PUSH4 0x4E487B71 PUSH1 0xE0 SHL PUSH1 0x0 MSTORE PUSH1 0x22 PUSH1 0x4 MSTORE PUSH1 0x24 PUSH1 0x0 REVERT JUMPDEST POP SWAP2 SWAP1 POP JUMP JUMPDEST PUSH1 0x20 DUP1 DUP3 MSTORE PUSH1 0x7F SWAP1 DUP3 ADD MSTORE PUSH32 0x596F752068617665206265656E20626C61636B6C69737465642066726F6D2074 PUSH1 0x40 DUP3 ADD MSTORE PUSH32 0x726164696E6720746865204348455320746F6B656E2E20496620796F75207468 PUSH1 0x60 DUP3 ADD MSTORE PUSH32 0x696E6B207468697320697320616E206572726F722C20706C6561736520636F6E PUSH1 0x80 DUP3 ADD MSTORE PUSH32 0x746163742074686520436861696E204573746174652044414F207465616D2E00 PUSH1 0xA0 DUP3 ADD MSTORE PUSH1 0xC0 ADD SWAP1 JUMP JUMPDEST PUSH4 0x4E487B71 PUSH1 0xE0 SHL PUSH1 0x0 MSTORE PUSH1 0x11 PUSH1 0x4 MSTORE PUSH1 0x24 PUSH1 0x0 REVERT JUMPDEST PUSH1 0x0 DUP2 PUSH1 0x0 NOT DIV DUP4 GT DUP3 ISZERO ISZERO AND ISZERO PUSH2 0x253B JUMPI PUSH2 0x253B PUSH2 0x250B JUMP JUMPDEST POP MUL SWAP1 JUMP JUMPDEST PUSH1 0x0 DUP3 PUSH2 0x255D JUMPI PUSH4 0x4E487B71 PUSH1 0xE0 SHL PUSH1 0x0 MSTORE PUSH1 0x12 PUSH1 0x4 MSTORE PUSH1 0x24 PUSH1 0x0 REVERT JUMPDEST POP DIV SWAP1 JUMP JUMPDEST PUSH1 0x0 DUP3 NOT DUP3 GT ISZERO PUSH2 0x2575 JUMPI PUSH2 0x2575 PUSH2 0x250B JUMP JUMPDEST POP ADD SWAP1 JUMP JUMPDEST PUSH1 0x0 DUP3 DUP3 LT ISZERO PUSH2 0x258C JUMPI PUSH2 0x258C PUSH2 0x250B JUMP JUMPDEST POP SUB SWAP1 JUMP JUMPDEST PUSH1 0x20 DUP1 DUP3 MSTORE DUP2 DUP2 ADD MSTORE PUSH32 0x4F776E61626C653A2063616C6C6572206973206E6F7420746865206F776E6572 PUSH1 0x40 DUP3 ADD MSTORE PUSH1 0x60 ADD SWAP1 JUMP JUMPDEST PUSH4 0x4E487B71 PUSH1 0xE0 SHL PUSH1 0x0 MSTORE PUSH1 0x32 PUSH1 0x4 MSTORE PUSH1 0x24 PUSH1 0x0 REVERT JUMPDEST PUSH1 0x0 PUSH1 0x20 DUP3 DUP5 SUB SLT ISZERO PUSH2 0x25EE JUMPI PUSH1 0x0 DUP1 REVERT JUMPDEST DUP2 MLOAD PUSH2 0xD70 DUP2 PUSH2 0x22C9 JUMP JUMPDEST PUSH1 0x0 PUSH1 0xA0 DUP3 ADD DUP8 DUP4 MSTORE PUSH1 0x20 DUP8 DUP2 DUP6 ADD MSTORE PUSH1 0xA0 PUSH1 0x40 DUP6 ADD MSTORE DUP2 DUP8 MLOAD DUP1 DUP5 MSTORE PUSH1 0xC0 DUP7 ADD SWAP2 POP DUP3 DUP10 ADD SWAP4 POP PUSH1 0x0 JUMPDEST DUP2 DUP2 LT ISZERO PUSH2 0x2649 JUMPI DUP5 MLOAD PUSH1 0x1 PUSH1 0x1 PUSH1 0xA0 SHL SUB AND DUP4 MSTORE SWAP4 DUP4 ADD SWAP4 SWAP2 DUP4 ADD SWAP2 PUSH1 0x1 ADD PUSH2 0x2624 JUMP JUMPDEST POP POP PUSH1 0x1 PUSH1 0x1 PUSH1 0xA0 SHL SUB SWAP7 SWAP1 SWAP7 AND PUSH1 0x60 DUP6 ADD MSTORE POP POP POP PUSH1 0x80 ADD MSTORE SWAP4 SWAP3 POP POP POP JUMP INVALID LOG2 PUSH5 0x6970667358 0x22 SLT KECCAK256 DUP14 CREATE2 JUMPI MSTORE 0xD5 0xBC 0xA7 DUP15 SWAP14 SWAP8 EXTCODEHASH 0x4E 0xE1 SUB PUSH9 0x8A35F234678D8C3115 0xC1 SHR 0xBE PUSH20 0xA3E86F3664736F6C634300080800330000000000 ",
  "sha1": "d764cbced7105cffeaa8e0dbbb47782437ca4889",
  "source": "// SPDX-License-Identifier: MIT\n \npragma solidity >=0.8.0 <0.9.0;\n \nimport \"@openzeppelin/contracts/token/ERC20/ERC20.sol\";\nimport \"@openzeppelin/contracts/access/Ownable.sol\";\nimport \"../interfaces/Uniswap.sol\";\n\n/**\n * @title Chain Estate DAO Token\n * @dev Main contract for Chain Estate DAO\n * TODO - Limit how many tokens users can purchase from PancakeSwap\n * TODO - Will possibly create the BNB to CHES token PankcakeSwap pair in the constructor.\n */\ncontract ChainEstateToken is ERC20, Ownable {\n\n    // Mapping to exclude some contracts from fees. Transfers are excluded from fees if address in this mapping is recipient or sender.\n    mapping (address => bool) public excludedFromFees;\n\n    // Mapping to determine the timestamp of each address' investment. Earlier average investment = better air drop rewards.\n    mapping (address => uint256) public airDropInvestTime;\n\n    // Blacklist mapping to prevent addresses from trading if necessary (i.e. flagged for malicious activity).\n    mapping (address => bool) public blacklist;\n\n    // Mapping to determine which addresses can mint Chain Estate tokens for bridging.\n    mapping (address => bool) public minters;\n\n    // Address of the contract responsible for the air dropping mechanism.\n    address public airDropContractAddress;\n\n    // Address of the contract for burning CHES tokens.\n    address public burnWalletAddress;\n\n    // Real estate wallet address used to collect funds to purchase real estate.\n    address payable public realEstateWalletAddress;\n\n    // Liquidity wallet address used to hold the 30% of CHES tokens for the liquidity pool.\n    // After these coins are moved to the DEX, this address will no longer be used.\n    address public liquidityWalletAddress;\n\n    // Marketing wallet address used for funding marketing.\n    address payable public marketingWalletAddress;\n\n    // Developer wallet address used for funding the team.\n    address payable public developerWalletAddress;\n\n    // The PancakeSwap router address for swapping CHES tokens for WBNB.\n    address public uniswapRouterAddress;\n\n    // The initial block timestamp of the token contract.\n    uint256 public initialTimeStamp;\n\n    // Real estate transaction fee - deployed at 3%.\n    uint256 public realEstateTransactionFeePercent = 3;\n\n    // Developer team transaction fee - deployed at 1%.\n    uint256 public developerFeePercent = 1;\n\n    // Marketing transaction fee - deployed at 1%.\n    uint256 public marketingFeePercent = 1;\n\n    // PancakeSwap router interface.\n    IUniswapV2Router02 private uniswapRouter;\n\n    // Address of the WBNB to CHES token pair on PancakeSwap.\n    address public uniswapPair;\n\n    // Address of the token claim contract.\n    address public tokenClaimContractAddress;\n\n    // Determines how many CHES tokens this contract needs before it swaps for WBNB to pay fee wallets.\n    uint256 public contractCHESDivisor = 1000;\n\n    // Events to emit when the transaction fees are updated\n    event realEstateTransactionFeeUpdated(uint256 indexed transactionFeeAmount);\n    event marketingTransactionFeeUpdated(uint256 indexed transactionFeeAmount);\n    event developerTransactionFeeUpdated(uint256 indexed transactionFeeAmount);\n\n    // Initial token distribution:\n    // 35% - Air drop contract\n    // 30% - Liquidity pool (6 month lockup period)\n    // 20% - Burn\n    // 10% - Developer coins (6 month lockup period)\n    // 5% - Marketing\n    constructor(\n        uint256 initialSupply, \n        address _airDropContractAddress, \n        address _burnWalletAddress,\n        address _liquidityWalletAddress,\n        address payable _realEstateWalletAddress,\n        address payable _marketingWalletAddress,\n        address payable _developerWalletAddress,\n        address _uniswapRouterAddress) ERC20(\"ChainEstateTokenV2\", \"CHES\") {\n            initialTimeStamp = 1645566420;  // Initial timestamp for the CHES v1 token contract\n            airDropContractAddress = _airDropContractAddress;\n            realEstateWalletAddress = _realEstateWalletAddress;\n            burnWalletAddress = _burnWalletAddress;\n            liquidityWalletAddress = _liquidityWalletAddress;\n            marketingWalletAddress = _marketingWalletAddress;\n            developerWalletAddress = _developerWalletAddress;\n            uniswapRouterAddress = _uniswapRouterAddress;\n\n            excludedFromFees[realEstateWalletAddress] = true;\n            excludedFromFees[developerWalletAddress] = true;\n            excludedFromFees[marketingWalletAddress] = true;\n            excludedFromFees[liquidityWalletAddress] = true;\n            excludedFromFees[airDropContractAddress] = true;    // No transaction fees for claiming air drop rewards\n\n            // The number of tokens claimed in the first airdrop for the v1 CHES token\n            uint256 firstAirdropClaimAmount = 23366791 * 10 ** 18;\n\n            _mint(airDropContractAddress, ((initialSupply) * 35 / 100) - firstAirdropClaimAmount);\n            _mint(liquidityWalletAddress, ((initialSupply) * 3 / 10) + firstAirdropClaimAmount);\n            _mint(burnWalletAddress, initialSupply / 5);\n            _mint(marketingWalletAddress, initialSupply * 5 / 100);\n            _mint(developerWalletAddress, initialSupply / 10);\n\n            IUniswapV2Router02 _uniswapV2Router = IUniswapV2Router02(uniswapRouterAddress);\n            uniswapRouter = _uniswapV2Router;\n            _approve(address(this), address(uniswapRouter), initialSupply);\n            uniswapPair = IUniswapV2Factory(_uniswapV2Router.factory()).createPair(address(this), _uniswapV2Router.WETH());\n            IERC20(uniswapPair).approve(address(uniswapRouter), type(uint256).max);\n    }\n\n    /**\n     * @dev Returns the contract address\n     * @return contract address\n     */\n    function getContractAddress() public view returns (address){\n        return address(this);\n    }\n\n    /**\n    * @dev Adds a user to be excluded from fees.\n    * @param user address of the user to be excluded from fees.\n     */\n    function excludeUserFromFees(address user) public onlyOwner {\n        excludedFromFees[user] = true;\n    }\n\n    /**\n    * @dev Gets the current timestamp, used for testing + verification\n    * @return the the timestamp of the current block\n     */\n    function getCurrentTimestamp() public view returns (uint256) {\n        return block.timestamp;\n    }\n\n    /**\n    * @dev Removes a user from the fee exclusion.\n    * @param user address of the user than will now have to pay transaction fees.\n     */\n    function includeUsersInFees(address user) public onlyOwner {\n        excludedFromFees[user] = false;\n    }\n\n    /**\n     * @dev Overrides the BEP20 transfer function to include transaction fees.\n     * @param recipient the recipient of the transfer\n     * @param amount the amount to be transfered\n     * @return bool representing if the transfer was successful\n     */\n    function transfer(address recipient, uint256 amount) public override returns (bool) {\n        // Ensure the sender isn't blacklisted.\n        require(!blacklist[_msgSender()], \"You have been blacklisted from trading the CHES token. If you think this is an error, please contact the Chain Estate DAO team.\");\n        // Ensure the recipient isn't blacklisted.\n        require(!blacklist[recipient], \"The address you are trying to send CHES to has been blacklisted from trading the CHES token. If you think this is an error, please contact the Chain Estate DAO team.\");\n\n        // Stops investors from owning more than 2% of the total supply from purchasing CHES from PancakeSwap.\n        if (_msgSender() == uniswapPair && !excludedFromFees[_msgSender()] && !excludedFromFees[recipient]) {\n            require((balanceOf(recipient) + amount) < (totalSupply() / 166), \"You can't have more than 2% of the total CHES supply after a PancakeSwap swap.\");\n        }\n\n        // If the sender or recipient is excluded from fees, perform the default transfer.\n        if (excludedFromFees[_msgSender()] || excludedFromFees[recipient]) {\n            _transfer(_msgSender(), recipient, amount);\n            return true;\n        }\n\n        // Real estate transaction fee.\n        uint256 realEstateFee = (amount * realEstateTransactionFeePercent) / 100;\n        // Marketing team transaction fee.\n        uint256 marketingFee = (amount * marketingFeePercent) / 100;\n        // Developer team transaction fee.\n        uint256 developerFee = (amount * developerFeePercent) / 100;\n\n        // The total fee to send to the contract address.\n        uint256 totalFee = realEstateFee + marketingFee + developerFee;\n \n        // Sends the transaction fees to the contract address\n        _transfer(_msgSender(), address(this), totalFee);\n\n        uint256 contractCHESBalance = balanceOf(address(this));\n\n        if (_msgSender() != uniswapPair) {\n            if (contractCHESBalance > balanceOf(uniswapPair) / contractCHESDivisor) {\n                swapCHESForBNB(contractCHESBalance);\n            }\n                \n            uint256 contractBNBBalance = address(this).balance;\n            if (contractBNBBalance > 0) {\n                sendFeesToWallets(address(this).balance);\n            }\n        }\n \n        // Sends [initial amount] - [fees] to the recipient\n        uint256 valueAfterFees = amount - totalFee;\n        _transfer(_msgSender(), recipient, valueAfterFees);\n        return true;\n    }\n\n    /**\n     * @dev Overrides the BEP20 transferFrom function to include transaction fees.\n     * @param from the address from where the tokens are coming from\n     * @param to the recipient of the transfer\n     * @param amount the amount to be transfered\n     * @return bool representing if the transfer was successful\n     */\n    function transferFrom(address from, address to, uint256 amount) public override returns (bool) {\n        // Ensure the sender isn't blacklisted.\n        require(!blacklist[_msgSender()], \"You have been blacklisted from trading the CHES token. If you think this is an error, please contact the Chain Estate DAO team.\");\n        // Ensure the address where the tokens are coming from isn't blacklisted.\n        require(!blacklist[from], \"The address you're trying to spend the tokens from has been blacklisted from trading the CHES token. If you think this is an error, please contact the Chain Estate DAO team.\");\n        // Ensure the recipient isn't blacklisted.\n        require(!blacklist[to], \"The address you are trying to send tokens to has been blacklisted from trading the CHES token. If you think this is an error, please contact the Chain Estate DAO team.\");\n\n        // If the from address or to address is excluded from fees, perform the default transferFrom.\n        if (excludedFromFees[from] || excludedFromFees[to] || excludedFromFees[_msgSender()]) {\n            _spendAllowance(from, _msgSender(), amount);\n            _transfer(from, to, amount);\n            return true;\n        }\n\n        // Real estate transaction fee.\n        uint256 realEstateFee = (amount * realEstateTransactionFeePercent) / 100;\n        // Marketing team transaction fee.\n        uint256 marketingFee = (amount * marketingFeePercent) / 100;\n        // Developer team transaction fee.\n        uint256 developerFee = (amount * developerFeePercent) / 100;\n\n        // The total fee to send to the contract address.\n        uint256 totalFee = realEstateFee + marketingFee + developerFee;\n \n        // Sends the transaction fees to the contract address\n        _spendAllowance(from, _msgSender(), amount);\n        _transfer(from, address(this), totalFee);\n\n        uint256 contractCHESBalance = balanceOf(address(this));\n\n        if (_msgSender() != uniswapPair) {\n            if (contractCHESBalance > balanceOf(uniswapPair) / contractCHESDivisor) {\n                swapCHESForBNB(contractCHESBalance);\n            }\n                \n            uint256 contractBNBBalance = address(this).balance;\n            if (contractBNBBalance > 0) {\n                sendFeesToWallets(address(this).balance);\n            }\n        }\n \n        // Sends [initial amount] - [fees] to the recipient\n        uint256 valueAfterFees = amount - totalFee;\n        _transfer(from, to, valueAfterFees);\n        return true;\n    }\n\n    /**\n     * @dev Swaps CHES tokens from transaction fees to BNB.\n     * @param amount the amount of CHES tokens to swap\n     */\n    function swapCHESForBNB(uint256 amount) private {\n        address[] memory path = new address[](2);\n        path[0] = address(this);\n        path[1] = uniswapRouter.WETH();\n        _approve(address(this), address(uniswapRouter), amount);\n        uniswapRouter.swapExactTokensForETHSupportingFeeOnTransferTokens(\n            amount,\n            0,\n            path,\n            address(this),\n            block.timestamp\n        );\n    }\n\n    /**\n     * @dev Sends BNB to transaction fee wallets after CHES swaps.\n     * @param amount the amount to be transfered\n     */\n    function sendFeesToWallets(uint256 amount) private {\n        uint256 totalFee = realEstateTransactionFeePercent + marketingFeePercent + developerFeePercent;\n        realEstateWalletAddress.transfer((amount * realEstateTransactionFeePercent) / totalFee);\n        marketingWalletAddress.transfer((amount * marketingFeePercent) / totalFee);\n        developerWalletAddress.transfer((amount * developerFeePercent) / totalFee);\n    }\n\n    /**\n     * @dev Sends BNB to transaction fee wallets manually as opposed to happening automatically after a certain level of volume\n     */\n    function disperseFeesManually() public onlyOwner {\n        uint256 contractBNBBalance = address(this).balance;\n        sendFeesToWallets(contractBNBBalance);\n    }\n\n    /**\n     * @dev Swaps all CHES tokens in the contract for BNB and then disperses those funds to the transaction fee wallets.\n     * @param amount the amount of CHES in the contract to swap for BNB\n     * @param useAmount boolean to determine if the amount sent in is swapped for BNB or if the entire contract balance is swapped.\n     */\n    function swapCHESForBNBManually(uint256 amount, bool useAmount) public onlyOwner {\n        if (useAmount) {\n            swapCHESForBNB(amount);\n        }\n        else {\n            uint256 contractCHESBalance = balanceOf(address(this));\n            swapCHESForBNB(contractCHESBalance);\n        }\n\n        uint256 contractBNBBalance = address(this).balance;\n        sendFeesToWallets(contractBNBBalance);\n    }\n\n    receive() external payable {}\n\n    /**\n     * @dev Sets the value that determines how many CHES tokens need to be in the contract before it's swapped for BNB.\n     * @param newDivisor the new divisor value to determine the swap threshold\n     */\n    function setContractCHESDivisor(uint256 newDivisor) public onlyOwner {\n        contractCHESDivisor = newDivisor;\n    }\n\n    /**\n     * @dev After a token transfer, update the recipient address's air drop invest time since they have a later investment now.\n     * @param from the sender's address\n     * @param to the recipient's address\n     * @param value the amount that was transferred\n     */\n    function _afterTokenTransfer(address from, address to, uint256 value) internal virtual override {\n        uint256 userBalance = balanceOf(to);\n        if (to != address(0)) {\n            airDropInvestTime[to] = (value * block.timestamp + (userBalance - value) * airDropInvestTime[to]) / userBalance;\n        }\n\n        super._afterTokenTransfer(from, to, value);\n    }\n\n    /**\n    * @dev Updates the blacklist mapping for a given address\n    * @param user the address that is being added or removed from the blacklist\n    * @param blacklisted a boolean that determines if the given address is being added or removed from the blacklist\n    */\n    function updateBlackList(address user, bool blacklisted) public onlyOwner {\n        blacklist[user] = blacklisted;\n    }\n\n    /**\n    * @dev Function to update the real estate transaction fee - can't be more than 20 percent\n    * @param newRealEstateTransactionFee the new real estate transaction fee\n    */\n    function updateRealEstateTransactionFee(uint256 newRealEstateTransactionFee) public onlyOwner {\n        require(newRealEstateTransactionFee <= 20, \"The real estate transaction fee can't be more than 20%.\");\n        realEstateTransactionFeePercent = newRealEstateTransactionFee;\n        emit realEstateTransactionFeeUpdated(newRealEstateTransactionFee);\n    }\n\n    /**\n    * @dev Function to update the marketing transaction fee - can't be more than 5 percent\n    * @param newMarketingTransactionFee the new marketing transaction fee\n    */\n    function updateMarketingTransactionFee(uint256 newMarketingTransactionFee) public onlyOwner {\n        require(newMarketingTransactionFee <= 5, \"The marketing transaction fee can't be more than 5%.\");\n        marketingFeePercent = newMarketingTransactionFee;\n        emit marketingTransactionFeeUpdated(newMarketingTransactionFee);\n    }\n\n    /**\n    * @dev Function to update the developer transaction fee - can't be more than 5 percent\n    * @param newDeveloperTransactionFee the new developer transaction fee\n    */\n    function updateDeveloperTransactionFee(uint256 newDeveloperTransactionFee) public onlyOwner {\n        require(newDeveloperTransactionFee <= 5, \"The developer transaction fee can't be more than 5%.\");\n        developerFeePercent = newDeveloperTransactionFee;\n        emit developerTransactionFeeUpdated(newDeveloperTransactionFee);\n    }\n\n    /**\n    * @dev Function to add or remove a CHES token minter\n    * @param user the address that will be added or removed as a minter\n    * @param isMinter boolean representing if the address provided will be added or removed as a minter\n    */\n    function updateMinter(address user, bool isMinter) public onlyOwner {\n        minters[user] = isMinter;\n    }\n\n    /**\n    * @dev Minter only function to mint new CHES tokens for bridging\n    * @param user the address that the tokens will be minted to\n    * @param amount the amount of tokens to be minted to the user\n    */\n    function mint(address user, uint256 amount) public {\n        require(minters[_msgSender()], \"You are not authorized to mint CHES tokens.\");\n        _mint(user, amount);\n    }\n\n    /**\n    * @dev Minter only function to burn CHES tokens for bridging\n    * @param user the address to burn the tokens from\n    * @param amount the amount of tokens to be burned\n    */\n    function burn(address user, uint256 amount) public {\n        require(minters[_msgSender()], \"You are not authorized to burn CHES tokens.\");\n        _burn(user, amount);\n    }\n\n    /**\n    * @dev Function that only the token claim contract can call to set the airdrop invest time for a user when claiming their V2 tokens.\n    * @param user the address to set the airdrop invest time for\n    * @param airDropInvestTimeVal the airdrop invest time for the user\n    */\n    function setAirDropInvestTime(address user, uint256 airDropInvestTimeVal) public {\n        require(msg.sender == tokenClaimContractAddress, \"Only the token claim contract can call this function.\");\n        airDropInvestTime[user] = airDropInvestTimeVal;\n    }\n\n    /**\n    * @dev Only owner function to set the token claim contract address.\n    * @param tokenClaimAddress the token claim contract address\n    */\n    function setTokenClaimContractAddress(address tokenClaimAddress) public onlyOwner {\n        tokenClaimContractAddress = tokenClaimAddress;\n    }\n}",
  "sourcePath": "contracts/ChainEstateToken.sol",
  "type": "contract"
}