{
  "abi": [
    {
      "inputs": [
        {
          "internalType": "address payable",
          "name": "CHESTokenAddressV1",
          "type": "address"
        },
        {
          "internalType": "address payable",
          "name": "CHESTokenAddressV2",
          "type": "address"
        }
      ],
      "stateMutability": "nonpayable",
      "type": "constructor"
    },
    {
      "anonymous": false,
      "inputs": [
        {
          "indexed": true,
          "internalType": "address",
          "name": "previousOwner",
          "type": "address"
        },
        {
          "indexed": true,
          "internalType": "address",
          "name": "newOwner",
          "type": "address"
        }
      ],
      "name": "OwnershipTransferred",
      "type": "event"
    },
    {
      "anonymous": false,
      "inputs": [
        {
          "indexed": true,
          "internalType": "address",
          "name": "user",
          "type": "address"
        },
        {
          "indexed": false,
          "internalType": "uint256",
          "name": "claimAmount",
          "type": "uint256"
        }
      ],
      "name": "TokensClaimed",
      "type": "event"
    },
    {
      "inputs": [],
      "name": "CHESV1",
      "outputs": [
        {
          "internalType": "contract ChainEstateTokenV1",
          "name": "",
          "type": "address"
        }
      ],
      "stateMutability": "view",
      "type": "function"
    },
    {
      "inputs": [],
      "name": "CHESV2",
      "outputs": [
        {
          "internalType": "contract ChainEstateToken",
          "name": "",
          "type": "address"
        }
      ],
      "stateMutability": "view",
      "type": "function"
    },
    {
      "inputs": [
        {
          "internalType": "address",
          "name": "",
          "type": "address"
        }
      ],
      "name": "balances",
      "outputs": [
        {
          "internalType": "uint256",
          "name": "",
          "type": "uint256"
        }
      ],
      "stateMutability": "view",
      "type": "function"
    },
    {
      "inputs": [],
      "name": "claimV2CHESTokens",
      "outputs": [],
      "stateMutability": "nonpayable",
      "type": "function"
    },
    {
      "inputs": [
        {
          "internalType": "address",
          "name": "",
          "type": "address"
        }
      ],
      "name": "claimed",
      "outputs": [
        {
          "internalType": "bool",
          "name": "",
          "type": "bool"
        }
      ],
      "stateMutability": "view",
      "type": "function"
    },
    {
      "inputs": [],
      "name": "owner",
      "outputs": [
        {
          "internalType": "address",
          "name": "",
          "type": "address"
        }
      ],
      "stateMutability": "view",
      "type": "function"
    },
    {
      "inputs": [],
      "name": "renounceOwnership",
      "outputs": [],
      "stateMutability": "nonpayable",
      "type": "function"
    },
    {
      "inputs": [
        {
          "internalType": "address",
          "name": "user",
          "type": "address"
        },
        {
          "internalType": "bool",
          "name": "hasClaimed",
          "type": "bool"
        }
      ],
      "name": "setUserClaimedV2CHES",
      "outputs": [],
      "stateMutability": "nonpayable",
      "type": "function"
    },
    {
      "inputs": [
        {
          "internalType": "address",
          "name": "user",
          "type": "address"
        },
        {
          "internalType": "uint256",
          "name": "balance",
          "type": "uint256"
        }
      ],
      "name": "setUserV2CHESBalance",
      "outputs": [],
      "stateMutability": "nonpayable",
      "type": "function"
    },
    {
      "inputs": [
        {
          "internalType": "address[]",
          "name": "accounts",
          "type": "address[]"
        },
        {
          "internalType": "uint256[]",
          "name": "tokenAmount",
          "type": "uint256[]"
        }
      ],
      "name": "setupTokenBalances",
      "outputs": [],
      "stateMutability": "nonpayable",
      "type": "function"
    },
    {
      "inputs": [
        {
          "internalType": "address",
          "name": "newOwner",
          "type": "address"
        }
      ],
      "name": "transferOwnership",
      "outputs": [],
      "stateMutability": "nonpayable",
      "type": "function"
    },
    {
      "inputs": [],
      "name": "withdrawV1CHESTokens",
      "outputs": [],
      "stateMutability": "nonpayable",
      "type": "function"
    },
    {
      "inputs": [
        {
          "internalType": "uint256",
          "name": "amount",
          "type": "uint256"
        }
      ],
      "name": "withdrawV2CHESTokens",
      "outputs": [],
      "stateMutability": "nonpayable",
      "type": "function"
    }
  ],
  "bytecode": "608060405234801561001057600080fd5b50604051610f8e380380610f8e83398101604081905261002f916100d5565b61003833610069565b600180546001600160a01b039384166001600160a01b03199182161790915560028054929093169116179055610108565b600080546001600160a01b038381166001600160a01b0319831681178455604051919092169283917f8be0079c531659141344cd1fd0a4f28419497f9722a3daafe3b4186f6b6457e09190a35050565b80516001600160a01b03811681146100d057600080fd5b919050565b600080604083850312156100e857600080fd5b6100f1836100b9565b91506100ff602084016100b9565b90509250929050565b610e77806101176000396000f3fe608060405234801561001057600080fd5b50600436106100cf5760003560e01c8063715018a61161008c578063bfbf9e0811610066578063bfbf9e0814610196578063c884ef83146101a9578063e0948da5146101dc578063f2fde38b146101ef57600080fd5b8063715018a6146101755780638da5cb5b1461017d578063b94db38f1461018e57600080fd5b80630ce8d2c9146100d45780630f0ace8a146100e95780632183c820146100f157806327e235e31461010457806330881a43146101375780634e42173314610162575b600080fd5b6100e76100e2366004610c43565b610202565b005b6100e7610260565b6100e76100ff366004610c7a565b61082b565b610124610112366004610ca4565b60036020526000908152604090205481565b6040519081526020015b60405180910390f35b60025461014a906001600160a01b031681565b6040516001600160a01b03909116815260200161012e565b6100e7610170366004610cc6565b610871565b6100e7610923565b6000546001600160a01b031661014a565b6100e7610959565b6100e76101a4366004610d2b565b610a89565b6101cc6101b7366004610ca4565b60046020526000908152604090205460ff1681565b604051901515815260200161012e565b60015461014a906001600160a01b031681565b6100e76101fd366004610ca4565b610b35565b6000546001600160a01b031633146102355760405162461bcd60e51b815260040161022c90610d97565b60405180910390fd5b6001600160a01b03919091166000908152600460205260409020805460ff1916911515919091179055565b3360009081526004602052604090205460ff16156102e65760405162461bcd60e51b815260206004820152603a60248201527f596f7520616c726561647920636c61696d656420796f7572204348455320746f60448201527f6b656e7320666f7220746865207632206d6967726174696f6e2e000000000000606482015260840161022c565b6001546040516370a0823160e01b81523360048201526000916001600160a01b0316906370a082319060240160206040518083038186803b15801561032a57600080fd5b505afa15801561033e573d6000803e3d6000fd5b505050506040513d601f19601f820116820180604052508101906103629190610dcc565b336000908152600360205260409020549091508061042d5760405162461bcd60e51b815260206004820152607660248201527f596f7520646f6e2774206861766520616e79205632204348455320746f6b656e60448201527f7320746f20636c61696d2e20496620796f752062656c6965766520746869732060648201527f697320616e206572726f722c20706c6561736520636f6e74616374207468652060848201527521b430b4b71022b9ba30ba32902220a7903a32b0b69760511b60a482015260c40161022c565b818111156104d95760405162461bcd60e51b815260206004820152606760248201527f596f7520736f6c64206174206c6561737420736f6d65206f6620796f7572205660448201527f31204348455320746f6b656e7320647572696e6720746865206d69677261746960648201527f6f6e2070726f6365737320736f20796f752063616e6e6f74206d696772617465608482015266103a37902b191760c91b60a482015260c40161022c565b600154604051636eb1769f60e11b815233600482015230602482015282916001600160a01b03169063dd62ed3e9060440160206040518083038186803b15801561052257600080fd5b505afa158015610536573d6000803e3d6000fd5b505050506040513d601f19601f8201168201806040525081019061055a9190610dcc565b10156106115760405162461bcd60e51b815260206004820152607460248201527f596f75206d75737420666972737420616c6c6f772074686520746f6b656e206360448201527f6c61696d20636f6e747261637420746f207370656e6420796f7572205631204360648201527f48455320746f6b656e73206265666f726520796f752063616e20636c61696d206084820152733cb7bab9102b191021a422a9903a37b5b2b7399760611b60a482015260c40161022c565b33600081815260046020819052604091829020805460ff191660019081179091555491516323b872dd60e01b815290810192909252306024830152604482018390526001600160a01b0316906323b872dd90606401602060405180830381600087803b15801561068057600080fd5b505af1158015610694573d6000803e3d6000fd5b505050506040513d601f19601f820116820180604052508101906106b89190610de5565b5060025460405163a9059cbb60e01b8152336004820152602481018390526001600160a01b039091169063a9059cbb90604401602060405180830381600087803b15801561070557600080fd5b505af1158015610719573d6000803e3d6000fd5b505050506040513d601f19601f8201168201806040525081019061073d9190610de5565b50600254600154604051631497b01b60e01b815233600482018190526001600160a01b03938416936372b11637939192911690631497b01b9060240160206040518083038186803b15801561079157600080fd5b505afa1580156107a5573d6000803e3d6000fd5b505050506040513d601f19601f820116820180604052508101906107c99190610dcc565b6040516001600160e01b031960e085901b1681526001600160a01b0390921660048301526024820152604401600060405180830381600087803b15801561080f57600080fd5b505af1158015610823573d6000803e3d6000fd5b505050505050565b6000546001600160a01b031633146108555760405162461bcd60e51b815260040161022c90610d97565b6001600160a01b03909116600090815260036020526040902055565b6000546001600160a01b0316331461089b5760405162461bcd60e51b815260040161022c90610d97565b60025460405163a9059cbb60e01b8152336004820152602481018390526001600160a01b039091169063a9059cbb90604401602060405180830381600087803b1580156108e757600080fd5b505af11580156108fb573d6000803e3d6000fd5b505050506040513d601f19601f8201168201806040525081019061091f9190610de5565b5050565b6000546001600160a01b0316331461094d5760405162461bcd60e51b815260040161022c90610d97565b6109576000610bc9565b565b6000546001600160a01b031633146109835760405162461bcd60e51b815260040161022c90610d97565b6001546040516370a0823160e01b81523060048201526001600160a01b039091169063a9059cbb90339083906370a082319060240160206040518083038186803b1580156109d057600080fd5b505afa1580156109e4573d6000803e3d6000fd5b505050506040513d601f19601f82011682018060405250810190610a089190610dcc565b6040516001600160e01b031960e085901b1681526001600160a01b0390921660048301526024820152604401602060405180830381600087803b158015610a4e57600080fd5b505af1158015610a62573d6000803e3d6000fd5b505050506040513d601f19601f82011682018060405250810190610a869190610de5565b50565b6000546001600160a01b03163314610ab35760405162461bcd60e51b815260040161022c90610d97565b60005b83811015610b2e57828282818110610ad057610ad0610e02565b9050602002013560036000878785818110610aed57610aed610e02565b9050602002016020810190610b029190610ca4565b6001600160a01b0316815260208101919091526040016000205580610b2681610e18565b915050610ab6565b5050505050565b6000546001600160a01b03163314610b5f5760405162461bcd60e51b815260040161022c90610d97565b6001600160a01b038116610bc45760405162461bcd60e51b815260206004820152602660248201527f4f776e61626c653a206e6577206f776e657220697320746865207a65726f206160448201526564647265737360d01b606482015260840161022c565b610a86815b600080546001600160a01b038381166001600160a01b0319831681178455604051919092169283917f8be0079c531659141344cd1fd0a4f28419497f9722a3daafe3b4186f6b6457e09190a35050565b80356001600160a01b0381168114610c3057600080fd5b919050565b8015158114610a8657600080fd5b60008060408385031215610c5657600080fd5b610c5f83610c19565b91506020830135610c6f81610c35565b809150509250929050565b60008060408385031215610c8d57600080fd5b610c9683610c19565b946020939093013593505050565b600060208284031215610cb657600080fd5b610cbf82610c19565b9392505050565b600060208284031215610cd857600080fd5b5035919050565b60008083601f840112610cf157600080fd5b50813567ffffffffffffffff811115610d0957600080fd5b6020830191508360208260051b8501011115610d2457600080fd5b9250929050565b60008060008060408587031215610d4157600080fd5b843567ffffffffffffffff80821115610d5957600080fd5b610d6588838901610cdf565b90965094506020870135915080821115610d7e57600080fd5b50610d8b87828801610cdf565b95989497509550505050565b6020808252818101527f4f776e61626c653a2063616c6c6572206973206e6f7420746865206f776e6572604082015260600190565b600060208284031215610dde57600080fd5b5051919050565b600060208284031215610df757600080fd5b8151610cbf81610c35565b634e487b7160e01b600052603260045260246000fd5b6000600019821415610e3a57634e487b7160e01b600052601160045260246000fd5b506001019056fea2646970667358221220853acf4dce7b36a2f9c9111925d6d452fbced4f59678ee48452b631083a40b1764736f6c63430008080033",
  "bytecodeSha1": "7554ccaf011a8e4836c2b16c7db64ff011b463a5",
  "compiler": {
    "evm_version": "istanbul",
    "optimizer": {
      "enabled": true,
      "runs": 200
    },
    "version": "0.8.8+commit.dddeac2f"
  },
  "contractName": "ChainEstateTokenClaim",
  "language": "Solidity",
  "natspec": {
    "details": "Contract for users to claim their v2 tokens 1 for 1 based on their v1 balance at the time of migration.",
    "kind": "dev",
    "methods": {
      "claimV2CHESTokens()": {
        "details": "Function to migrate V1 CHES tokens to V2 CHES."
      },
      "owner()": {
        "details": "Returns the address of the current owner."
      },
      "renounceOwnership()": {
        "details": "Leaves the contract without owner. It will not be possible to call `onlyOwner` functions anymore. Can only be called by the current owner. NOTE: Renouncing ownership will leave the contract without an owner, thereby removing any functionality that is only available to the owner."
      },
      "setupTokenBalances(address[],uint256[])": {
        "details": "Only owner function to set the V1 CHES balance of each investor for the V2 CHES token claims.",
        "params": {
          "accounts": "the list of addresses that held the V1 CHES token.",
          "tokenAmount": "list of token amounts for each of the V1 CHES holders."
        }
      },
      "transferOwnership(address)": {
        "details": "Transfers ownership of the contract to a new account (`newOwner`). Can only be called by the current owner."
      },
      "withdrawV1CHESTokens()": {
        "details": "Only owner function to withdraw the V1 CHES tokens after users have sent them in the claim their V2 tokens."
      },
      "withdrawV2CHESTokens(uint256)": {
        "details": "Only owner function to withdraw V2 CHES tokens if absolutely necessary.",
        "params": {
          "amount": "the amount of V2 CHES tokens to withdraw from the token claim contract"
        }
      }
    },
    "title": "Chain Estate Token Claim Contract for V2 Migration",
    "version": 1
  },
  "opcodes": "PUSH1 0x80 PUSH1 0x40 MSTORE CALLVALUE DUP1 ISZERO PUSH2 0x10 JUMPI PUSH1 0x0 DUP1 REVERT JUMPDEST POP PUSH1 0x4 CALLDATASIZE LT PUSH2 0xCF JUMPI PUSH1 0x0 CALLDATALOAD PUSH1 0xE0 SHR DUP1 PUSH4 0x715018A6 GT PUSH2 0x8C JUMPI DUP1 PUSH4 0xBFBF9E08 GT PUSH2 0x66 JUMPI DUP1 PUSH4 0xBFBF9E08 EQ PUSH2 0x196 JUMPI DUP1 PUSH4 0xC884EF83 EQ PUSH2 0x1A9 JUMPI DUP1 PUSH4 0xE0948DA5 EQ PUSH2 0x1DC JUMPI DUP1 PUSH4 0xF2FDE38B EQ PUSH2 0x1EF JUMPI PUSH1 0x0 DUP1 REVERT JUMPDEST DUP1 PUSH4 0x715018A6 EQ PUSH2 0x175 JUMPI DUP1 PUSH4 0x8DA5CB5B EQ PUSH2 0x17D JUMPI DUP1 PUSH4 0xB94DB38F EQ PUSH2 0x18E JUMPI PUSH1 0x0 DUP1 REVERT JUMPDEST DUP1 PUSH4 0xCE8D2C9 EQ PUSH2 0xD4 JUMPI DUP1 PUSH4 0xF0ACE8A EQ PUSH2 0xE9 JUMPI DUP1 PUSH4 0x2183C820 EQ PUSH2 0xF1 JUMPI DUP1 PUSH4 0x27E235E3 EQ PUSH2 0x104 JUMPI DUP1 PUSH4 0x30881A43 EQ PUSH2 0x137 JUMPI DUP1 PUSH4 0x4E421733 EQ PUSH2 0x162 JUMPI JUMPDEST PUSH1 0x0 DUP1 REVERT JUMPDEST PUSH2 0xE7 PUSH2 0xE2 CALLDATASIZE PUSH1 0x4 PUSH2 0xC43 JUMP JUMPDEST PUSH2 0x202 JUMP JUMPDEST STOP JUMPDEST PUSH2 0xE7 PUSH2 0x260 JUMP JUMPDEST PUSH2 0xE7 PUSH2 0xFF CALLDATASIZE PUSH1 0x4 PUSH2 0xC7A JUMP JUMPDEST PUSH2 0x82B JUMP JUMPDEST PUSH2 0x124 PUSH2 0x112 CALLDATASIZE PUSH1 0x4 PUSH2 0xCA4 JUMP JUMPDEST PUSH1 0x3 PUSH1 0x20 MSTORE PUSH1 0x0 SWAP1 DUP2 MSTORE PUSH1 0x40 SWAP1 KECCAK256 SLOAD DUP2 JUMP JUMPDEST PUSH1 0x40 MLOAD SWAP1 DUP2 MSTORE PUSH1 0x20 ADD JUMPDEST PUSH1 0x40 MLOAD DUP1 SWAP2 SUB SWAP1 RETURN JUMPDEST PUSH1 0x2 SLOAD PUSH2 0x14A SWAP1 PUSH1 0x1 PUSH1 0x1 PUSH1 0xA0 SHL SUB AND DUP2 JUMP JUMPDEST PUSH1 0x40 MLOAD PUSH1 0x1 PUSH1 0x1 PUSH1 0xA0 SHL SUB SWAP1 SWAP2 AND DUP2 MSTORE PUSH1 0x20 ADD PUSH2 0x12E JUMP JUMPDEST PUSH2 0xE7 PUSH2 0x170 CALLDATASIZE PUSH1 0x4 PUSH2 0xCC6 JUMP JUMPDEST PUSH2 0x871 JUMP JUMPDEST PUSH2 0xE7 PUSH2 0x923 JUMP JUMPDEST PUSH1 0x0 SLOAD PUSH1 0x1 PUSH1 0x1 PUSH1 0xA0 SHL SUB AND PUSH2 0x14A JUMP JUMPDEST PUSH2 0xE7 PUSH2 0x959 JUMP JUMPDEST PUSH2 0xE7 PUSH2 0x1A4 CALLDATASIZE PUSH1 0x4 PUSH2 0xD2B JUMP JUMPDEST PUSH2 0xA89 JUMP JUMPDEST PUSH2 0x1CC PUSH2 0x1B7 CALLDATASIZE PUSH1 0x4 PUSH2 0xCA4 JUMP JUMPDEST PUSH1 0x4 PUSH1 0x20 MSTORE PUSH1 0x0 SWAP1 DUP2 MSTORE PUSH1 0x40 SWAP1 KECCAK256 SLOAD PUSH1 0xFF AND DUP2 JUMP JUMPDEST PUSH1 0x40 MLOAD SWAP1 ISZERO ISZERO DUP2 MSTORE PUSH1 0x20 ADD PUSH2 0x12E JUMP JUMPDEST PUSH1 0x1 SLOAD PUSH2 0x14A SWAP1 PUSH1 0x1 PUSH1 0x1 PUSH1 0xA0 SHL SUB AND DUP2 JUMP JUMPDEST PUSH2 0xE7 PUSH2 0x1FD CALLDATASIZE PUSH1 0x4 PUSH2 0xCA4 JUMP JUMPDEST PUSH2 0xB35 JUMP JUMPDEST PUSH1 0x0 SLOAD PUSH1 0x1 PUSH1 0x1 PUSH1 0xA0 SHL SUB AND CALLER EQ PUSH2 0x235 JUMPI PUSH1 0x40 MLOAD PUSH3 0x461BCD PUSH1 0xE5 SHL DUP2 MSTORE PUSH1 0x4 ADD PUSH2 0x22C SWAP1 PUSH2 0xD97 JUMP JUMPDEST PUSH1 0x40 MLOAD DUP1 SWAP2 SUB SWAP1 REVERT JUMPDEST PUSH1 0x1 PUSH1 0x1 PUSH1 0xA0 SHL SUB SWAP2 SWAP1 SWAP2 AND PUSH1 0x0 SWAP1 DUP2 MSTORE PUSH1 0x4 PUSH1 0x20 MSTORE PUSH1 0x40 SWAP1 KECCAK256 DUP1 SLOAD PUSH1 0xFF NOT AND SWAP2 ISZERO ISZERO SWAP2 SWAP1 SWAP2 OR SWAP1 SSTORE JUMP JUMPDEST CALLER PUSH1 0x0 SWAP1 DUP2 MSTORE PUSH1 0x4 PUSH1 0x20 MSTORE PUSH1 0x40 SWAP1 KECCAK256 SLOAD PUSH1 0xFF AND ISZERO PUSH2 0x2E6 JUMPI PUSH1 0x40 MLOAD PUSH3 0x461BCD PUSH1 0xE5 SHL DUP2 MSTORE PUSH1 0x20 PUSH1 0x4 DUP3 ADD MSTORE PUSH1 0x3A PUSH1 0x24 DUP3 ADD MSTORE PUSH32 0x596F7520616C726561647920636C61696D656420796F7572204348455320746F PUSH1 0x44 DUP3 ADD MSTORE PUSH32 0x6B656E7320666F7220746865207632206D6967726174696F6E2E000000000000 PUSH1 0x64 DUP3 ADD MSTORE PUSH1 0x84 ADD PUSH2 0x22C JUMP JUMPDEST PUSH1 0x1 SLOAD PUSH1 0x40 MLOAD PUSH4 0x70A08231 PUSH1 0xE0 SHL DUP2 MSTORE CALLER PUSH1 0x4 DUP3 ADD MSTORE PUSH1 0x0 SWAP2 PUSH1 0x1 PUSH1 0x1 PUSH1 0xA0 SHL SUB AND SWAP1 PUSH4 0x70A08231 SWAP1 PUSH1 0x24 ADD PUSH1 0x20 PUSH1 0x40 MLOAD DUP1 DUP4 SUB DUP2 DUP7 DUP1 EXTCODESIZE ISZERO DUP1 ISZERO PUSH2 0x32A JUMPI PUSH1 0x0 DUP1 REVERT JUMPDEST POP GAS STATICCALL ISZERO DUP1 ISZERO PUSH2 0x33E JUMPI RETURNDATASIZE PUSH1 0x0 DUP1 RETURNDATACOPY RETURNDATASIZE PUSH1 0x0 REVERT JUMPDEST POP POP POP POP PUSH1 0x40 MLOAD RETURNDATASIZE PUSH1 0x1F NOT PUSH1 0x1F DUP3 ADD AND DUP3 ADD DUP1 PUSH1 0x40 MSTORE POP DUP2 ADD SWAP1 PUSH2 0x362 SWAP2 SWAP1 PUSH2 0xDCC JUMP JUMPDEST CALLER PUSH1 0x0 SWAP1 DUP2 MSTORE PUSH1 0x3 PUSH1 0x20 MSTORE PUSH1 0x40 SWAP1 KECCAK256 SLOAD SWAP1 SWAP2 POP DUP1 PUSH2 0x42D JUMPI PUSH1 0x40 MLOAD PUSH3 0x461BCD PUSH1 0xE5 SHL DUP2 MSTORE PUSH1 0x20 PUSH1 0x4 DUP3 ADD MSTORE PUSH1 0x76 PUSH1 0x24 DUP3 ADD MSTORE PUSH32 0x596F7520646F6E2774206861766520616E79205632204348455320746F6B656E PUSH1 0x44 DUP3 ADD MSTORE PUSH32 0x7320746F20636C61696D2E20496620796F752062656C69657665207468697320 PUSH1 0x64 DUP3 ADD MSTORE PUSH32 0x697320616E206572726F722C20706C6561736520636F6E746163742074686520 PUSH1 0x84 DUP3 ADD MSTORE PUSH22 0x21B430B4B71022B9BA30BA32902220A7903A32B0B697 PUSH1 0x51 SHL PUSH1 0xA4 DUP3 ADD MSTORE PUSH1 0xC4 ADD PUSH2 0x22C JUMP JUMPDEST DUP2 DUP2 GT ISZERO PUSH2 0x4D9 JUMPI PUSH1 0x40 MLOAD PUSH3 0x461BCD PUSH1 0xE5 SHL DUP2 MSTORE PUSH1 0x20 PUSH1 0x4 DUP3 ADD MSTORE PUSH1 0x67 PUSH1 0x24 DUP3 ADD MSTORE PUSH32 0x596F7520736F6C64206174206C6561737420736F6D65206F6620796F75722056 PUSH1 0x44 DUP3 ADD MSTORE PUSH32 0x31204348455320746F6B656E7320647572696E6720746865206D696772617469 PUSH1 0x64 DUP3 ADD MSTORE PUSH32 0x6F6E2070726F6365737320736F20796F752063616E6E6F74206D696772617465 PUSH1 0x84 DUP3 ADD MSTORE PUSH7 0x103A37902B1917 PUSH1 0xC9 SHL PUSH1 0xA4 DUP3 ADD MSTORE PUSH1 0xC4 ADD PUSH2 0x22C JUMP JUMPDEST PUSH1 0x1 SLOAD PUSH1 0x40 MLOAD PUSH4 0x6EB1769F PUSH1 0xE1 SHL DUP2 MSTORE CALLER PUSH1 0x4 DUP3 ADD MSTORE ADDRESS PUSH1 0x24 DUP3 ADD MSTORE DUP3 SWAP2 PUSH1 0x1 PUSH1 0x1 PUSH1 0xA0 SHL SUB AND SWAP1 PUSH4 0xDD62ED3E SWAP1 PUSH1 0x44 ADD PUSH1 0x20 PUSH1 0x40 MLOAD DUP1 DUP4 SUB DUP2 DUP7 DUP1 EXTCODESIZE ISZERO DUP1 ISZERO PUSH2 0x522 JUMPI PUSH1 0x0 DUP1 REVERT JUMPDEST POP GAS STATICCALL ISZERO DUP1 ISZERO PUSH2 0x536 JUMPI RETURNDATASIZE PUSH1 0x0 DUP1 RETURNDATACOPY RETURNDATASIZE PUSH1 0x0 REVERT JUMPDEST POP POP POP POP PUSH1 0x40 MLOAD RETURNDATASIZE PUSH1 0x1F NOT PUSH1 0x1F DUP3 ADD AND DUP3 ADD DUP1 PUSH1 0x40 MSTORE POP DUP2 ADD SWAP1 PUSH2 0x55A SWAP2 SWAP1 PUSH2 0xDCC JUMP JUMPDEST LT ISZERO PUSH2 0x611 JUMPI PUSH1 0x40 MLOAD PUSH3 0x461BCD PUSH1 0xE5 SHL DUP2 MSTORE PUSH1 0x20 PUSH1 0x4 DUP3 ADD MSTORE PUSH1 0x74 PUSH1 0x24 DUP3 ADD MSTORE PUSH32 0x596F75206D75737420666972737420616C6C6F772074686520746F6B656E2063 PUSH1 0x44 DUP3 ADD MSTORE PUSH32 0x6C61696D20636F6E747261637420746F207370656E6420796F75722056312043 PUSH1 0x64 DUP3 ADD MSTORE PUSH32 0x48455320746F6B656E73206265666F726520796F752063616E20636C61696D20 PUSH1 0x84 DUP3 ADD MSTORE PUSH20 0x3CB7BAB9102B191021A422A9903A37B5B2B73997 PUSH1 0x61 SHL PUSH1 0xA4 DUP3 ADD MSTORE PUSH1 0xC4 ADD PUSH2 0x22C JUMP JUMPDEST CALLER PUSH1 0x0 DUP2 DUP2 MSTORE PUSH1 0x4 PUSH1 0x20 DUP2 SWAP1 MSTORE PUSH1 0x40 SWAP2 DUP3 SWAP1 KECCAK256 DUP1 SLOAD PUSH1 0xFF NOT AND PUSH1 0x1 SWAP1 DUP2 OR SWAP1 SWAP2 SSTORE SLOAD SWAP2 MLOAD PUSH4 0x23B872DD PUSH1 0xE0 SHL DUP2 MSTORE SWAP1 DUP2 ADD SWAP3 SWAP1 SWAP3 MSTORE ADDRESS PUSH1 0x24 DUP4 ADD MSTORE PUSH1 0x44 DUP3 ADD DUP4 SWAP1 MSTORE PUSH1 0x1 PUSH1 0x1 PUSH1 0xA0 SHL SUB AND SWAP1 PUSH4 0x23B872DD SWAP1 PUSH1 0x64 ADD PUSH1 0x20 PUSH1 0x40 MLOAD DUP1 DUP4 SUB DUP2 PUSH1 0x0 DUP8 DUP1 EXTCODESIZE ISZERO DUP1 ISZERO PUSH2 0x680 JUMPI PUSH1 0x0 DUP1 REVERT JUMPDEST POP GAS CALL ISZERO DUP1 ISZERO PUSH2 0x694 JUMPI RETURNDATASIZE PUSH1 0x0 DUP1 RETURNDATACOPY RETURNDATASIZE PUSH1 0x0 REVERT JUMPDEST POP POP POP POP PUSH1 0x40 MLOAD RETURNDATASIZE PUSH1 0x1F NOT PUSH1 0x1F DUP3 ADD AND DUP3 ADD DUP1 PUSH1 0x40 MSTORE POP DUP2 ADD SWAP1 PUSH2 0x6B8 SWAP2 SWAP1 PUSH2 0xDE5 JUMP JUMPDEST POP PUSH1 0x2 SLOAD PUSH1 0x40 MLOAD PUSH4 0xA9059CBB PUSH1 0xE0 SHL DUP2 MSTORE CALLER PUSH1 0x4 DUP3 ADD MSTORE PUSH1 0x24 DUP2 ADD DUP4 SWAP1 MSTORE PUSH1 0x1 PUSH1 0x1 PUSH1 0xA0 SHL SUB SWAP1 SWAP2 AND SWAP1 PUSH4 0xA9059CBB SWAP1 PUSH1 0x44 ADD PUSH1 0x20 PUSH1 0x40 MLOAD DUP1 DUP4 SUB DUP2 PUSH1 0x0 DUP8 DUP1 EXTCODESIZE ISZERO DUP1 ISZERO PUSH2 0x705 JUMPI PUSH1 0x0 DUP1 REVERT JUMPDEST POP GAS CALL ISZERO DUP1 ISZERO PUSH2 0x719 JUMPI RETURNDATASIZE PUSH1 0x0 DUP1 RETURNDATACOPY RETURNDATASIZE PUSH1 0x0 REVERT JUMPDEST POP POP POP POP PUSH1 0x40 MLOAD RETURNDATASIZE PUSH1 0x1F NOT PUSH1 0x1F DUP3 ADD AND DUP3 ADD DUP1 PUSH1 0x40 MSTORE POP DUP2 ADD SWAP1 PUSH2 0x73D SWAP2 SWAP1 PUSH2 0xDE5 JUMP JUMPDEST POP PUSH1 0x2 SLOAD PUSH1 0x1 SLOAD PUSH1 0x40 MLOAD PUSH4 0x1497B01B PUSH1 0xE0 SHL DUP2 MSTORE CALLER PUSH1 0x4 DUP3 ADD DUP2 SWAP1 MSTORE PUSH1 0x1 PUSH1 0x1 PUSH1 0xA0 SHL SUB SWAP4 DUP5 AND SWAP4 PUSH4 0x72B11637 SWAP4 SWAP2 SWAP3 SWAP2 AND SWAP1 PUSH4 0x1497B01B SWAP1 PUSH1 0x24 ADD PUSH1 0x20 PUSH1 0x40 MLOAD DUP1 DUP4 SUB DUP2 DUP7 DUP1 EXTCODESIZE ISZERO DUP1 ISZERO PUSH2 0x791 JUMPI PUSH1 0x0 DUP1 REVERT JUMPDEST POP GAS STATICCALL ISZERO DUP1 ISZERO PUSH2 0x7A5 JUMPI RETURNDATASIZE PUSH1 0x0 DUP1 RETURNDATACOPY RETURNDATASIZE PUSH1 0x0 REVERT JUMPDEST POP POP POP POP PUSH1 0x40 MLOAD RETURNDATASIZE PUSH1 0x1F NOT PUSH1 0x1F DUP3 ADD AND DUP3 ADD DUP1 PUSH1 0x40 MSTORE POP DUP2 ADD SWAP1 PUSH2 0x7C9 SWAP2 SWAP1 PUSH2 0xDCC JUMP JUMPDEST PUSH1 0x40 MLOAD PUSH1 0x1 PUSH1 0x1 PUSH1 0xE0 SHL SUB NOT PUSH1 0xE0 DUP6 SWAP1 SHL AND DUP2 MSTORE PUSH1 0x1 PUSH1 0x1 PUSH1 0xA0 SHL SUB SWAP1 SWAP3 AND PUSH1 0x4 DUP4 ADD MSTORE PUSH1 0x24 DUP3 ADD MSTORE PUSH1 0x44 ADD PUSH1 0x0 PUSH1 0x40 MLOAD DUP1 DUP4 SUB DUP2 PUSH1 0x0 DUP8 DUP1 EXTCODESIZE ISZERO DUP1 ISZERO PUSH2 0x80F JUMPI PUSH1 0x0 DUP1 REVERT JUMPDEST POP GAS CALL ISZERO DUP1 ISZERO PUSH2 0x823 JUMPI RETURNDATASIZE PUSH1 0x0 DUP1 RETURNDATACOPY RETURNDATASIZE PUSH1 0x0 REVERT JUMPDEST POP POP POP POP POP POP JUMP JUMPDEST PUSH1 0x0 SLOAD PUSH1 0x1 PUSH1 0x1 PUSH1 0xA0 SHL SUB AND CALLER EQ PUSH2 0x855 JUMPI PUSH1 0x40 MLOAD PUSH3 0x461BCD PUSH1 0xE5 SHL DUP2 MSTORE PUSH1 0x4 ADD PUSH2 0x22C SWAP1 PUSH2 0xD97 JUMP JUMPDEST PUSH1 0x1 PUSH1 0x1 PUSH1 0xA0 SHL SUB SWAP1 SWAP2 AND PUSH1 0x0 SWAP1 DUP2 MSTORE PUSH1 0x3 PUSH1 0x20 MSTORE PUSH1 0x40 SWAP1 KECCAK256 SSTORE JUMP JUMPDEST PUSH1 0x0 SLOAD PUSH1 0x1 PUSH1 0x1 PUSH1 0xA0 SHL SUB AND CALLER EQ PUSH2 0x89B JUMPI PUSH1 0x40 MLOAD PUSH3 0x461BCD PUSH1 0xE5 SHL DUP2 MSTORE PUSH1 0x4 ADD PUSH2 0x22C SWAP1 PUSH2 0xD97 JUMP JUMPDEST PUSH1 0x2 SLOAD PUSH1 0x40 MLOAD PUSH4 0xA9059CBB PUSH1 0xE0 SHL DUP2 MSTORE CALLER PUSH1 0x4 DUP3 ADD MSTORE PUSH1 0x24 DUP2 ADD DUP4 SWAP1 MSTORE PUSH1 0x1 PUSH1 0x1 PUSH1 0xA0 SHL SUB SWAP1 SWAP2 AND SWAP1 PUSH4 0xA9059CBB SWAP1 PUSH1 0x44 ADD PUSH1 0x20 PUSH1 0x40 MLOAD DUP1 DUP4 SUB DUP2 PUSH1 0x0 DUP8 DUP1 EXTCODESIZE ISZERO DUP1 ISZERO PUSH2 0x8E7 JUMPI PUSH1 0x0 DUP1 REVERT JUMPDEST POP GAS CALL ISZERO DUP1 ISZERO PUSH2 0x8FB JUMPI RETURNDATASIZE PUSH1 0x0 DUP1 RETURNDATACOPY RETURNDATASIZE PUSH1 0x0 REVERT JUMPDEST POP POP POP POP PUSH1 0x40 MLOAD RETURNDATASIZE PUSH1 0x1F NOT PUSH1 0x1F DUP3 ADD AND DUP3 ADD DUP1 PUSH1 0x40 MSTORE POP DUP2 ADD SWAP1 PUSH2 0x91F SWAP2 SWAP1 PUSH2 0xDE5 JUMP JUMPDEST POP POP JUMP JUMPDEST PUSH1 0x0 SLOAD PUSH1 0x1 PUSH1 0x1 PUSH1 0xA0 SHL SUB AND CALLER EQ PUSH2 0x94D JUMPI PUSH1 0x40 MLOAD PUSH3 0x461BCD PUSH1 0xE5 SHL DUP2 MSTORE PUSH1 0x4 ADD PUSH2 0x22C SWAP1 PUSH2 0xD97 JUMP JUMPDEST PUSH2 0x957 PUSH1 0x0 PUSH2 0xBC9 JUMP JUMPDEST JUMP JUMPDEST PUSH1 0x0 SLOAD PUSH1 0x1 PUSH1 0x1 PUSH1 0xA0 SHL SUB AND CALLER EQ PUSH2 0x983 JUMPI PUSH1 0x40 MLOAD PUSH3 0x461BCD PUSH1 0xE5 SHL DUP2 MSTORE PUSH1 0x4 ADD PUSH2 0x22C SWAP1 PUSH2 0xD97 JUMP JUMPDEST PUSH1 0x1 SLOAD PUSH1 0x40 MLOAD PUSH4 0x70A08231 PUSH1 0xE0 SHL DUP2 MSTORE ADDRESS PUSH1 0x4 DUP3 ADD MSTORE PUSH1 0x1 PUSH1 0x1 PUSH1 0xA0 SHL SUB SWAP1 SWAP2 AND SWAP1 PUSH4 0xA9059CBB SWAP1 CALLER SWAP1 DUP4 SWAP1 PUSH4 0x70A08231 SWAP1 PUSH1 0x24 ADD PUSH1 0x20 PUSH1 0x40 MLOAD DUP1 DUP4 SUB DUP2 DUP7 DUP1 EXTCODESIZE ISZERO DUP1 ISZERO PUSH2 0x9D0 JUMPI PUSH1 0x0 DUP1 REVERT JUMPDEST POP GAS STATICCALL ISZERO DUP1 ISZERO PUSH2 0x9E4 JUMPI RETURNDATASIZE PUSH1 0x0 DUP1 RETURNDATACOPY RETURNDATASIZE PUSH1 0x0 REVERT JUMPDEST POP POP POP POP PUSH1 0x40 MLOAD RETURNDATASIZE PUSH1 0x1F NOT PUSH1 0x1F DUP3 ADD AND DUP3 ADD DUP1 PUSH1 0x40 MSTORE POP DUP2 ADD SWAP1 PUSH2 0xA08 SWAP2 SWAP1 PUSH2 0xDCC JUMP JUMPDEST PUSH1 0x40 MLOAD PUSH1 0x1 PUSH1 0x1 PUSH1 0xE0 SHL SUB NOT PUSH1 0xE0 DUP6 SWAP1 SHL AND DUP2 MSTORE PUSH1 0x1 PUSH1 0x1 PUSH1 0xA0 SHL SUB SWAP1 SWAP3 AND PUSH1 0x4 DUP4 ADD MSTORE PUSH1 0x24 DUP3 ADD MSTORE PUSH1 0x44 ADD PUSH1 0x20 PUSH1 0x40 MLOAD DUP1 DUP4 SUB DUP2 PUSH1 0x0 DUP8 DUP1 EXTCODESIZE ISZERO DUP1 ISZERO PUSH2 0xA4E JUMPI PUSH1 0x0 DUP1 REVERT JUMPDEST POP GAS CALL ISZERO DUP1 ISZERO PUSH2 0xA62 JUMPI RETURNDATASIZE PUSH1 0x0 DUP1 RETURNDATACOPY RETURNDATASIZE PUSH1 0x0 REVERT JUMPDEST POP POP POP POP PUSH1 0x40 MLOAD RETURNDATASIZE PUSH1 0x1F NOT PUSH1 0x1F DUP3 ADD AND DUP3 ADD DUP1 PUSH1 0x40 MSTORE POP DUP2 ADD SWAP1 PUSH2 0xA86 SWAP2 SWAP1 PUSH2 0xDE5 JUMP JUMPDEST POP JUMP JUMPDEST PUSH1 0x0 SLOAD PUSH1 0x1 PUSH1 0x1 PUSH1 0xA0 SHL SUB AND CALLER EQ PUSH2 0xAB3 JUMPI PUSH1 0x40 MLOAD PUSH3 0x461BCD PUSH1 0xE5 SHL DUP2 MSTORE PUSH1 0x4 ADD PUSH2 0x22C SWAP1 PUSH2 0xD97 JUMP JUMPDEST PUSH1 0x0 JUMPDEST DUP4 DUP2 LT ISZERO PUSH2 0xB2E JUMPI DUP3 DUP3 DUP3 DUP2 DUP2 LT PUSH2 0xAD0 JUMPI PUSH2 0xAD0 PUSH2 0xE02 JUMP JUMPDEST SWAP1 POP PUSH1 0x20 MUL ADD CALLDATALOAD PUSH1 0x3 PUSH1 0x0 DUP8 DUP8 DUP6 DUP2 DUP2 LT PUSH2 0xAED JUMPI PUSH2 0xAED PUSH2 0xE02 JUMP JUMPDEST SWAP1 POP PUSH1 0x20 MUL ADD PUSH1 0x20 DUP2 ADD SWAP1 PUSH2 0xB02 SWAP2 SWAP1 PUSH2 0xCA4 JUMP JUMPDEST PUSH1 0x1 PUSH1 0x1 PUSH1 0xA0 SHL SUB AND DUP2 MSTORE PUSH1 0x20 DUP2 ADD SWAP2 SWAP1 SWAP2 MSTORE PUSH1 0x40 ADD PUSH1 0x0 KECCAK256 SSTORE DUP1 PUSH2 0xB26 DUP2 PUSH2 0xE18 JUMP JUMPDEST SWAP2 POP POP PUSH2 0xAB6 JUMP JUMPDEST POP POP POP POP POP JUMP JUMPDEST PUSH1 0x0 SLOAD PUSH1 0x1 PUSH1 0x1 PUSH1 0xA0 SHL SUB AND CALLER EQ PUSH2 0xB5F JUMPI PUSH1 0x40 MLOAD PUSH3 0x461BCD PUSH1 0xE5 SHL DUP2 MSTORE PUSH1 0x4 ADD PUSH2 0x22C SWAP1 PUSH2 0xD97 JUMP JUMPDEST PUSH1 0x1 PUSH1 0x1 PUSH1 0xA0 SHL SUB DUP2 AND PUSH2 0xBC4 JUMPI PUSH1 0x40 MLOAD PUSH3 0x461BCD PUSH1 0xE5 SHL DUP2 MSTORE PUSH1 0x20 PUSH1 0x4 DUP3 ADD MSTORE PUSH1 0x26 PUSH1 0x24 DUP3 ADD MSTORE PUSH32 0x4F776E61626C653A206E6577206F776E657220697320746865207A65726F2061 PUSH1 0x44 DUP3 ADD MSTORE PUSH6 0x646472657373 PUSH1 0xD0 SHL PUSH1 0x64 DUP3 ADD MSTORE PUSH1 0x84 ADD PUSH2 0x22C JUMP JUMPDEST PUSH2 0xA86 DUP2 JUMPDEST PUSH1 0x0 DUP1 SLOAD PUSH1 0x1 PUSH1 0x1 PUSH1 0xA0 SHL SUB DUP4 DUP2 AND PUSH1 0x1 PUSH1 0x1 PUSH1 0xA0 SHL SUB NOT DUP4 AND DUP2 OR DUP5 SSTORE PUSH1 0x40 MLOAD SWAP2 SWAP1 SWAP3 AND SWAP3 DUP4 SWAP2 PUSH32 0x8BE0079C531659141344CD1FD0A4F28419497F9722A3DAAFE3B4186F6B6457E0 SWAP2 SWAP1 LOG3 POP POP JUMP JUMPDEST DUP1 CALLDATALOAD PUSH1 0x1 PUSH1 0x1 PUSH1 0xA0 SHL SUB DUP2 AND DUP2 EQ PUSH2 0xC30 JUMPI PUSH1 0x0 DUP1 REVERT JUMPDEST SWAP2 SWAP1 POP JUMP JUMPDEST DUP1 ISZERO ISZERO DUP2 EQ PUSH2 0xA86 JUMPI PUSH1 0x0 DUP1 REVERT JUMPDEST PUSH1 0x0 DUP1 PUSH1 0x40 DUP4 DUP6 SUB SLT ISZERO PUSH2 0xC56 JUMPI PUSH1 0x0 DUP1 REVERT JUMPDEST PUSH2 0xC5F DUP4 PUSH2 0xC19 JUMP JUMPDEST SWAP2 POP PUSH1 0x20 DUP4 ADD CALLDATALOAD PUSH2 0xC6F DUP2 PUSH2 0xC35 JUMP JUMPDEST DUP1 SWAP2 POP POP SWAP3 POP SWAP3 SWAP1 POP JUMP JUMPDEST PUSH1 0x0 DUP1 PUSH1 0x40 DUP4 DUP6 SUB SLT ISZERO PUSH2 0xC8D JUMPI PUSH1 0x0 DUP1 REVERT JUMPDEST PUSH2 0xC96 DUP4 PUSH2 0xC19 JUMP JUMPDEST SWAP5 PUSH1 0x20 SWAP4 SWAP1 SWAP4 ADD CALLDATALOAD SWAP4 POP POP POP JUMP JUMPDEST PUSH1 0x0 PUSH1 0x20 DUP3 DUP5 SUB SLT ISZERO PUSH2 0xCB6 JUMPI PUSH1 0x0 DUP1 REVERT JUMPDEST PUSH2 0xCBF DUP3 PUSH2 0xC19 JUMP JUMPDEST SWAP4 SWAP3 POP POP POP JUMP JUMPDEST PUSH1 0x0 PUSH1 0x20 DUP3 DUP5 SUB SLT ISZERO PUSH2 0xCD8 JUMPI PUSH1 0x0 DUP1 REVERT JUMPDEST POP CALLDATALOAD SWAP2 SWAP1 POP JUMP JUMPDEST PUSH1 0x0 DUP1 DUP4 PUSH1 0x1F DUP5 ADD SLT PUSH2 0xCF1 JUMPI PUSH1 0x0 DUP1 REVERT JUMPDEST POP DUP2 CALLDATALOAD PUSH8 0xFFFFFFFFFFFFFFFF DUP2 GT ISZERO PUSH2 0xD09 JUMPI PUSH1 0x0 DUP1 REVERT JUMPDEST PUSH1 0x20 DUP4 ADD SWAP2 POP DUP4 PUSH1 0x20 DUP3 PUSH1 0x5 SHL DUP6 ADD ADD GT ISZERO PUSH2 0xD24 JUMPI PUSH1 0x0 DUP1 REVERT JUMPDEST SWAP3 POP SWAP3 SWAP1 POP JUMP JUMPDEST PUSH1 0x0 DUP1 PUSH1 0x0 DUP1 PUSH1 0x40 DUP6 DUP8 SUB SLT ISZERO PUSH2 0xD41 JUMPI PUSH1 0x0 DUP1 REVERT JUMPDEST DUP5 CALLDATALOAD PUSH8 0xFFFFFFFFFFFFFFFF DUP1 DUP3 GT ISZERO PUSH2 0xD59 JUMPI PUSH1 0x0 DUP1 REVERT JUMPDEST PUSH2 0xD65 DUP9 DUP4 DUP10 ADD PUSH2 0xCDF JUMP JUMPDEST SWAP1 SWAP7 POP SWAP5 POP PUSH1 0x20 DUP8 ADD CALLDATALOAD SWAP2 POP DUP1 DUP3 GT ISZERO PUSH2 0xD7E JUMPI PUSH1 0x0 DUP1 REVERT JUMPDEST POP PUSH2 0xD8B DUP8 DUP3 DUP9 ADD PUSH2 0xCDF JUMP JUMPDEST SWAP6 SWAP9 SWAP5 SWAP8 POP SWAP6 POP POP POP POP JUMP JUMPDEST PUSH1 0x20 DUP1 DUP3 MSTORE DUP2 DUP2 ADD MSTORE PUSH32 0x4F776E61626C653A2063616C6C6572206973206E6F7420746865206F776E6572 PUSH1 0x40 DUP3 ADD MSTORE PUSH1 0x60 ADD SWAP1 JUMP JUMPDEST PUSH1 0x0 PUSH1 0x20 DUP3 DUP5 SUB SLT ISZERO PUSH2 0xDDE JUMPI PUSH1 0x0 DUP1 REVERT JUMPDEST POP MLOAD SWAP2 SWAP1 POP JUMP JUMPDEST PUSH1 0x0 PUSH1 0x20 DUP3 DUP5 SUB SLT ISZERO PUSH2 0xDF7 JUMPI PUSH1 0x0 DUP1 REVERT JUMPDEST DUP2 MLOAD PUSH2 0xCBF DUP2 PUSH2 0xC35 JUMP JUMPDEST PUSH4 0x4E487B71 PUSH1 0xE0 SHL PUSH1 0x0 MSTORE PUSH1 0x32 PUSH1 0x4 MSTORE PUSH1 0x24 PUSH1 0x0 REVERT JUMPDEST PUSH1 0x0 PUSH1 0x0 NOT DUP3 EQ ISZERO PUSH2 0xE3A JUMPI PUSH4 0x4E487B71 PUSH1 0xE0 SHL PUSH1 0x0 MSTORE PUSH1 0x11 PUSH1 0x4 MSTORE PUSH1 0x24 PUSH1 0x0 REVERT JUMPDEST POP PUSH1 0x1 ADD SWAP1 JUMP INVALID LOG2 PUSH5 0x6970667358 0x22 SLT KECCAK256 DUP6 GASPRICE 0xCF 0x4D 0xCE PUSH28 0x36A2F9C9111925D6D452FBCED4F59678EE48452B631083A40B176473 PUSH16 0x6C634300080800330000000000000000 ",
  "sha1": "31b43add016f044fc877d7daff95cba70d09219c",
  "source": "// SPDX-License-Identifier: MIT\n \npragma solidity >=0.8.0 <0.9.0;\n\nimport \"@openzeppelin/contracts/access/Ownable.sol\";\nimport './ChainEstateToken.sol';\nimport './ChainEstateTokenV1.sol';\n\n/**\n * @title Chain Estate Token Claim Contract for V2 Migration\n * @dev Contract for users to claim their v2 tokens 1 for 1 based on their v1 balance at the time of migration.\n */\ncontract ChainEstateTokenClaim is Ownable {\n\n    // References the deployed v1 Chain Estate token.\n    ChainEstateTokenV1 public CHESV1;\n\n    // References the deployed v2 Chain Estate token.\n    ChainEstateToken public CHESV2;\n\n    // Mapping to determine the V1 CHES balance of any address.\n    mapping (address => uint256) public balances;\n\n    // Mapping to determine if an address has claimed their v2 CHES tokens yet.\n    mapping (address => bool) public claimed;\n\n    // Events for the claim smart contract.\n    event TokensClaimed(address indexed user, uint256 claimAmount);\n \n    // Sets the reference to the contract addresses for the v1 and v2 Chain Estate DAO token when the token claim contract is deployed.\n    constructor(address payable CHESTokenAddressV1, address payable CHESTokenAddressV2) {\n        CHESV1 = ChainEstateTokenV1(CHESTokenAddressV1);\n        CHESV2 = ChainEstateToken(CHESTokenAddressV2);\n    }\n\n    /**\n     * @dev Only owner function to set the V1 CHES balance of each investor for the V2 CHES token claims.\n     * @param accounts the list of addresses that held the V1 CHES token.\n     * @param tokenAmount list of token amounts for each of the V1 CHES holders.\n    */\n    function setupTokenBalances(address[] calldata accounts, uint256[] calldata tokenAmount) public onlyOwner {\n        for(uint256 i = 0; i < accounts.length; i++){\n            balances[accounts[i]] = tokenAmount[i];\n        }\n    }\n\n    /**\n     * @dev Function to migrate V1 CHES tokens to V2 CHES.\n    */\n    function claimV2CHESTokens() public {\n        require(claimed[msg.sender] == false, \"You already claimed your CHES tokens for the v2 migration.\");\n\n        uint256 v1CHESBalance = CHESV1.balanceOf(msg.sender);\n        uint256 userClaimAmount = balances[msg.sender];\n        require(userClaimAmount > 0, \"You don't have any V2 CHES tokens to claim. If you believe this is an error, please contact the Chain Estate DAO team.\");\n        require(userClaimAmount <= v1CHESBalance, \"You sold at least some of your V1 CHES tokens during the migration process so you cannot migrate to V2.\");\n\n        require(CHESV1.allowance(msg.sender, address(this)) >= userClaimAmount, \"You must first allow the token claim contract to spend your V1 CHES tokens before you can claim your V2 CHES tokens.\");\n\n        claimed[msg.sender] = true;\n        CHESV1.transferFrom(msg.sender, address(this), userClaimAmount);\n        CHESV2.transfer(msg.sender, userClaimAmount);\n        CHESV2.setAirDropInvestTime(msg.sender, CHESV1.airDropInvestTime(msg.sender));\n    }\n\n    function setUserClaimedV2CHES(address user, bool hasClaimed) public onlyOwner {\n        claimed[user] = hasClaimed;\n    }\n\n    function setUserV2CHESBalance(address user, uint256 balance) public onlyOwner {\n        balances[user] = balance;\n    }\n\n    /**\n     * @dev Only owner function to withdraw the V1 CHES tokens after users have sent them in the claim their V2 tokens.\n    */\n    function withdrawV1CHESTokens() public onlyOwner {    \n        CHESV1.transfer(msg.sender, CHESV1.balanceOf(address(this)));\n    }\n\n    /**\n     * @dev Only owner function to withdraw V2 CHES tokens if absolutely necessary.\n     * @param amount the amount of V2 CHES tokens to withdraw from the token claim contract\n    */\n    function withdrawV2CHESTokens(uint256 amount) public onlyOwner {    \n        CHESV2.transfer(msg.sender, amount);\n    }\n}",
  "sourcePath": "contracts/ChainEstateTokenClaim.sol",
  "type": "contract"
}