{
  "abi": [
    {
      "anonymous": false,
      "inputs": [
        {
          "indexed": true,
          "internalType": "address",
          "name": "previousOwner",
          "type": "address"
        },
        {
          "indexed": true,
          "internalType": "address",
          "name": "newOwner",
          "type": "address"
        }
      ],
      "name": "OwnershipTransferred",
      "type": "event"
    },
    {
      "inputs": [],
      "name": "BNBToCHESRate",
      "outputs": [
        {
          "internalType": "uint256",
          "name": "",
          "type": "uint256"
        }
      ],
      "stateMutability": "view",
      "type": "function"
    },
    {
      "inputs": [],
      "name": "CHES",
      "outputs": [
        {
          "internalType": "contract ChainEstateToken",
          "name": "",
          "type": "address"
        }
      ],
      "stateMutability": "view",
      "type": "function"
    },
    {
      "inputs": [
        {
          "internalType": "address",
          "name": "",
          "type": "address"
        }
      ],
      "name": "addressToAmountPurchased",
      "outputs": [
        {
          "internalType": "uint256",
          "name": "",
          "type": "uint256"
        }
      ],
      "stateMutability": "view",
      "type": "function"
    },
    {
      "inputs": [
        {
          "internalType": "uint256",
          "name": "newConversionRate",
          "type": "uint256"
        }
      ],
      "name": "changeBNBToCHESRate",
      "outputs": [],
      "stateMutability": "nonpayable",
      "type": "function"
    },
    {
      "inputs": [
        {
          "internalType": "uint256",
          "name": "newPurchaseCap",
          "type": "uint256"
        }
      ],
      "name": "changeCHESPurchaseCap",
      "outputs": [],
      "stateMutability": "nonpayable",
      "type": "function"
    },
    {
      "inputs": [],
      "name": "getContractAddress",
      "outputs": [
        {
          "internalType": "address",
          "name": "",
          "type": "address"
        }
      ],
      "stateMutability": "view",
      "type": "function"
    },
    {
      "inputs": [],
      "name": "getContractBNB",
      "outputs": [
        {
          "internalType": "uint256",
          "name": "",
          "type": "uint256"
        }
      ],
      "stateMutability": "view",
      "type": "function"
    },
    {
      "inputs": [],
      "name": "getContractTokens",
      "outputs": [
        {
          "internalType": "uint256",
          "name": "",
          "type": "uint256"
        }
      ],
      "stateMutability": "view",
      "type": "function"
    },
    {
      "inputs": [],
      "name": "getTokenAddress",
      "outputs": [
        {
          "internalType": "address",
          "name": "",
          "type": "address"
        }
      ],
      "stateMutability": "view",
      "type": "function"
    },
    {
      "inputs": [],
      "name": "getUserBalance",
      "outputs": [
        {
          "internalType": "uint256",
          "name": "",
          "type": "uint256"
        }
      ],
      "stateMutability": "view",
      "type": "function"
    },
    {
      "inputs": [],
      "name": "owner",
      "outputs": [
        {
          "internalType": "address",
          "name": "",
          "type": "address"
        }
      ],
      "stateMutability": "view",
      "type": "function"
    },
    {
      "inputs": [],
      "name": "purchaseCHESTokens",
      "outputs": [],
      "stateMutability": "payable",
      "type": "function"
    },
    {
      "inputs": [],
      "name": "purchaseCap",
      "outputs": [
        {
          "internalType": "uint256",
          "name": "",
          "type": "uint256"
        }
      ],
      "stateMutability": "view",
      "type": "function"
    },
    {
      "inputs": [],
      "name": "renounceOwnership",
      "outputs": [],
      "stateMutability": "nonpayable",
      "type": "function"
    },
    {
      "inputs": [
        {
          "internalType": "address",
          "name": "CHESTokenAddress",
          "type": "address"
        }
      ],
      "name": "setToken",
      "outputs": [],
      "stateMutability": "nonpayable",
      "type": "function"
    },
    {
      "inputs": [
        {
          "internalType": "address",
          "name": "newOwner",
          "type": "address"
        }
      ],
      "name": "transferOwnership",
      "outputs": [],
      "stateMutability": "nonpayable",
      "type": "function"
    },
    {
      "inputs": [
        {
          "internalType": "uint256",
          "name": "amount",
          "type": "uint256"
        }
      ],
      "name": "withdrawBNB",
      "outputs": [],
      "stateMutability": "nonpayable",
      "type": "function"
    }
  ],
  "bytecode": "60806040526a0c685fa11e01ec6f00000060035561cd1460045534801561002557600080fd5b5061002f33610034565b610084565b600080546001600160a01b038381166001600160a01b0319831681178455604051919092169283917f8be0079c531659141344cd1fd0a4f28419497f9722a3daafe3b4186f6b6457e09190a35050565b61094c806100936000396000f3fe6080604052600436106100fe5760003560e01c80637a61632a11610095578063c3ffb88411610064578063c3ffb8841461026c578063d4e3bdc714610281578063dd75edf714610289578063f2fde38b146102a9578063feddc909146102c957600080fd5b80637a61632a146102105780638da5cb5b14610223578063ab0fe87414610241578063b7013dc11461025757600080fd5b80633716c36c116100d15780633716c36c1461018a57806357e66409146101aa5780635a6f362e146101e5578063715018a6146101fb57600080fd5b806310fe9ae814610103578063127f4b2e14610135578063144fa6d71461015757806332a2c5d014610177575b600080fd5b34801561010f57600080fd5b506101186102e9565b6040516001600160a01b0390911681526020015b60405180910390f35b34801561014157600080fd5b506101556101503660046107ea565b61035c565b005b34801561016357600080fd5b50610155610172366004610818565b610420565b34801561018357600080fd5b5030610118565b34801561019657600080fd5b506101556101a53660046107ea565b61046c565b3480156101b657600080fd5b506101d76101c5366004610818565b60026020526000908152604090205481565b60405190815260200161012c565b3480156101f157600080fd5b506101d760045481565b34801561020757600080fd5b5061015561049b565b34801561021c57600080fd5b50476101d7565b34801561022f57600080fd5b506000546001600160a01b0316610118565b34801561024d57600080fd5b506101d760035481565b34801561026357600080fd5b506101d76104d1565b34801561027857600080fd5b506101d761053f565b610155610570565b34801561029557600080fd5b50600154610118906001600160a01b031681565b3480156102b557600080fd5b506101556102c4366004610818565b6106d0565b3480156102d557600080fd5b506101556102e43660046107ea565b61076b565b6001546040805163032a2c5d60e41b815290516000926001600160a01b0316916332a2c5d09160048083019260209291908290030181865afa158015610333573d6000803e3d6000fd5b505050506040513d601f19601f82011682018060405250810190610357919061083c565b905090565b6000546001600160a01b0316331461038f5760405162461bcd60e51b815260040161038690610859565b60405180910390fd5b604051600090339083908381818185875af1925050503d80600081146103d1576040519150601f19603f3d011682016040523d82523d6000602084013e6103d6565b606091505b505090508061041c5760405162461bcd60e51b81526020600482015260126024820152712330b4b632b2103a379039b2b7321021272160711b6044820152606401610386565b5050565b6000546001600160a01b0316331461044a5760405162461bcd60e51b815260040161038690610859565b600180546001600160a01b0319166001600160a01b0392909216919091179055565b6000546001600160a01b031633146104965760405162461bcd60e51b815260040161038690610859565b600355565b6000546001600160a01b031633146104c55760405162461bcd60e51b815260040161038690610859565b6104cf600061079a565b565b6001546040516370a0823160e01b81523360048201526000916001600160a01b0316906370a08231906024015b602060405180830381865afa15801561051b573d6000803e3d6000fd5b505050506040513d601f19601f82011682018060405250810190610357919061088e565b6001546040516370a0823160e01b81523060048201526000916001600160a01b0316906370a08231906024016104fe565b60006004543461058091906108bd565b60035433600090815260026020526040902054919250906105a29083906108dc565b11156106335760405162461bcd60e51b815260206004820152605460248201527f596f752063616e6e6f742070757263686173652074686973206d616e7920434860448201527f455320746f6b656e732c207468617420776f756c642070757420796f7520706160648201527339ba103cb7bab910383932b9b0b6329031b0b81760611b608482015260a401610386565b60015460405163a9059cbb60e01b8152336004820152602481018390526001600160a01b039091169063a9059cbb906044016020604051808303816000875af1158015610684573d6000803e3d6000fd5b505050506040513d601f19601f820116820180604052508101906106a891906108f4565b5033600090815260026020526040812080548392906106c89084906108dc565b909155505050565b6000546001600160a01b031633146106fa5760405162461bcd60e51b815260040161038690610859565b6001600160a01b03811661075f5760405162461bcd60e51b815260206004820152602660248201527f4f776e61626c653a206e6577206f776e657220697320746865207a65726f206160448201526564647265737360d01b6064820152608401610386565b6107688161079a565b50565b6000546001600160a01b031633146107955760405162461bcd60e51b815260040161038690610859565b600455565b600080546001600160a01b038381166001600160a01b0319831681178455604051919092169283917f8be0079c531659141344cd1fd0a4f28419497f9722a3daafe3b4186f6b6457e09190a35050565b6000602082840312156107fc57600080fd5b5035919050565b6001600160a01b038116811461076857600080fd5b60006020828403121561082a57600080fd5b813561083581610803565b9392505050565b60006020828403121561084e57600080fd5b815161083581610803565b6020808252818101527f4f776e61626c653a2063616c6c6572206973206e6f7420746865206f776e6572604082015260600190565b6000602082840312156108a057600080fd5b5051919050565b634e487b7160e01b600052601160045260246000fd5b60008160001904831182151516156108d7576108d76108a7565b500290565b600082198211156108ef576108ef6108a7565b500190565b60006020828403121561090657600080fd5b8151801515811461083557600080fdfea264697066735822122051f5dd6a642394757dee3986c0eb77d4092daa7039a8235516161b2020cd0fbf64736f6c634300080b0033",
  "bytecodeSha1": "f2444fa058c90d943ea147d972ee4b9770bc13a0",
  "compiler": {
    "evm_version": "istanbul",
    "optimizer": {
      "enabled": true,
      "runs": 200
    },
    "version": "0.8.11+commit.d7f03943"
  },
  "contractName": "ChainEstatePreSale",
  "language": "Solidity",
  "natspec": {
    "details": "Contract responsible for the Chain Estate presale mechanism",
    "kind": "dev",
    "methods": {
      "changeBNBToCHESRate(uint256)": {
        "details": "Only owner function to change the conversion rate for BNB to CHES.",
        "params": {
          "newConversionRate": "the new BNB to CHES conversion rate."
        }
      },
      "changeCHESPurchaseCap(uint256)": {
        "details": "Only owner function to change the presale CHES token purchase cap per user.",
        "params": {
          "newPurchaseCap": "the new CHES token purchase cap in CHES (NOT BNB). Use the conversion rate to figure out how many CHES to set here."
        }
      },
      "getContractAddress()": {
        "details": "Returns the contract address",
        "returns": {
          "_0": "contract address"
        }
      },
      "getContractBNB()": {
        "details": "Gets the amount of BNB that the contract has.",
        "returns": {
          "_0": "the amount of BNB the contract has."
        }
      },
      "getContractTokens()": {
        "details": "Gets the CHES token balance of the contract.",
        "returns": {
          "_0": "the amount of CHES tokens the contract has."
        }
      },
      "getTokenAddress()": {
        "details": "Returns the CHES token address",
        "returns": {
          "_0": "CHES token contract address"
        }
      },
      "getUserBalance()": {
        "details": "Gets the amount of CHES the sender owns.",
        "returns": {
          "_0": "the CHES balance of the sender"
        }
      },
      "owner()": {
        "details": "Returns the address of the current owner."
      },
      "purchaseCHESTokens()": {
        "details": "Allows a user to pay BNB for CHES tokens. Conversion rate is 1 BNB to BNBToCHESRate CHES where BNBToCHESRate is the variable defined in the contract."
      },
      "renounceOwnership()": {
        "details": "Leaves the contract without owner. It will not be possible to call `onlyOwner` functions anymore. Can only be called by the current owner. NOTE: Renouncing ownership will leave the contract without an owner, thereby removing any functionality that is only available to the owner."
      },
      "setToken(address)": {
        "details": "Once the CHES token contract is deployed, this function is used to set a reference to that token in this contract.",
        "params": {
          "CHESTokenAddress": "address of the ChainEstate token."
        }
      },
      "transferOwnership(address)": {
        "details": "Transfers ownership of the contract to a new account (`newOwner`). Can only be called by the current owner."
      },
      "withdrawBNB(uint256)": {
        "details": "Only owner function to withdraw the BNB from this contract.",
        "params": {
          "amount": "the amount of BNB to withdraw from the pre-sale contract."
        }
      }
    },
    "title": "Chain Estate Presale",
    "version": 1
  },
  "opcodes": "PUSH1 0x80 PUSH1 0x40 MSTORE PUSH1 0x4 CALLDATASIZE LT PUSH2 0xFE JUMPI PUSH1 0x0 CALLDATALOAD PUSH1 0xE0 SHR DUP1 PUSH4 0x7A61632A GT PUSH2 0x95 JUMPI DUP1 PUSH4 0xC3FFB884 GT PUSH2 0x64 JUMPI DUP1 PUSH4 0xC3FFB884 EQ PUSH2 0x26C JUMPI DUP1 PUSH4 0xD4E3BDC7 EQ PUSH2 0x281 JUMPI DUP1 PUSH4 0xDD75EDF7 EQ PUSH2 0x289 JUMPI DUP1 PUSH4 0xF2FDE38B EQ PUSH2 0x2A9 JUMPI DUP1 PUSH4 0xFEDDC909 EQ PUSH2 0x2C9 JUMPI PUSH1 0x0 DUP1 REVERT JUMPDEST DUP1 PUSH4 0x7A61632A EQ PUSH2 0x210 JUMPI DUP1 PUSH4 0x8DA5CB5B EQ PUSH2 0x223 JUMPI DUP1 PUSH4 0xAB0FE874 EQ PUSH2 0x241 JUMPI DUP1 PUSH4 0xB7013DC1 EQ PUSH2 0x257 JUMPI PUSH1 0x0 DUP1 REVERT JUMPDEST DUP1 PUSH4 0x3716C36C GT PUSH2 0xD1 JUMPI DUP1 PUSH4 0x3716C36C EQ PUSH2 0x18A JUMPI DUP1 PUSH4 0x57E66409 EQ PUSH2 0x1AA JUMPI DUP1 PUSH4 0x5A6F362E EQ PUSH2 0x1E5 JUMPI DUP1 PUSH4 0x715018A6 EQ PUSH2 0x1FB JUMPI PUSH1 0x0 DUP1 REVERT JUMPDEST DUP1 PUSH4 0x10FE9AE8 EQ PUSH2 0x103 JUMPI DUP1 PUSH4 0x127F4B2E EQ PUSH2 0x135 JUMPI DUP1 PUSH4 0x144FA6D7 EQ PUSH2 0x157 JUMPI DUP1 PUSH4 0x32A2C5D0 EQ PUSH2 0x177 JUMPI JUMPDEST PUSH1 0x0 DUP1 REVERT JUMPDEST CALLVALUE DUP1 ISZERO PUSH2 0x10F JUMPI PUSH1 0x0 DUP1 REVERT JUMPDEST POP PUSH2 0x118 PUSH2 0x2E9 JUMP JUMPDEST PUSH1 0x40 MLOAD PUSH1 0x1 PUSH1 0x1 PUSH1 0xA0 SHL SUB SWAP1 SWAP2 AND DUP2 MSTORE PUSH1 0x20 ADD JUMPDEST PUSH1 0x40 MLOAD DUP1 SWAP2 SUB SWAP1 RETURN JUMPDEST CALLVALUE DUP1 ISZERO PUSH2 0x141 JUMPI PUSH1 0x0 DUP1 REVERT JUMPDEST POP PUSH2 0x155 PUSH2 0x150 CALLDATASIZE PUSH1 0x4 PUSH2 0x7EA JUMP JUMPDEST PUSH2 0x35C JUMP JUMPDEST STOP JUMPDEST CALLVALUE DUP1 ISZERO PUSH2 0x163 JUMPI PUSH1 0x0 DUP1 REVERT JUMPDEST POP PUSH2 0x155 PUSH2 0x172 CALLDATASIZE PUSH1 0x4 PUSH2 0x818 JUMP JUMPDEST PUSH2 0x420 JUMP JUMPDEST CALLVALUE DUP1 ISZERO PUSH2 0x183 JUMPI PUSH1 0x0 DUP1 REVERT JUMPDEST POP ADDRESS PUSH2 0x118 JUMP JUMPDEST CALLVALUE DUP1 ISZERO PUSH2 0x196 JUMPI PUSH1 0x0 DUP1 REVERT JUMPDEST POP PUSH2 0x155 PUSH2 0x1A5 CALLDATASIZE PUSH1 0x4 PUSH2 0x7EA JUMP JUMPDEST PUSH2 0x46C JUMP JUMPDEST CALLVALUE DUP1 ISZERO PUSH2 0x1B6 JUMPI PUSH1 0x0 DUP1 REVERT JUMPDEST POP PUSH2 0x1D7 PUSH2 0x1C5 CALLDATASIZE PUSH1 0x4 PUSH2 0x818 JUMP JUMPDEST PUSH1 0x2 PUSH1 0x20 MSTORE PUSH1 0x0 SWAP1 DUP2 MSTORE PUSH1 0x40 SWAP1 KECCAK256 SLOAD DUP2 JUMP JUMPDEST PUSH1 0x40 MLOAD SWAP1 DUP2 MSTORE PUSH1 0x20 ADD PUSH2 0x12C JUMP JUMPDEST CALLVALUE DUP1 ISZERO PUSH2 0x1F1 JUMPI PUSH1 0x0 DUP1 REVERT JUMPDEST POP PUSH2 0x1D7 PUSH1 0x4 SLOAD DUP2 JUMP JUMPDEST CALLVALUE DUP1 ISZERO PUSH2 0x207 JUMPI PUSH1 0x0 DUP1 REVERT JUMPDEST POP PUSH2 0x155 PUSH2 0x49B JUMP JUMPDEST CALLVALUE DUP1 ISZERO PUSH2 0x21C JUMPI PUSH1 0x0 DUP1 REVERT JUMPDEST POP SELFBALANCE PUSH2 0x1D7 JUMP JUMPDEST CALLVALUE DUP1 ISZERO PUSH2 0x22F JUMPI PUSH1 0x0 DUP1 REVERT JUMPDEST POP PUSH1 0x0 SLOAD PUSH1 0x1 PUSH1 0x1 PUSH1 0xA0 SHL SUB AND PUSH2 0x118 JUMP JUMPDEST CALLVALUE DUP1 ISZERO PUSH2 0x24D JUMPI PUSH1 0x0 DUP1 REVERT JUMPDEST POP PUSH2 0x1D7 PUSH1 0x3 SLOAD DUP2 JUMP JUMPDEST CALLVALUE DUP1 ISZERO PUSH2 0x263 JUMPI PUSH1 0x0 DUP1 REVERT JUMPDEST POP PUSH2 0x1D7 PUSH2 0x4D1 JUMP JUMPDEST CALLVALUE DUP1 ISZERO PUSH2 0x278 JUMPI PUSH1 0x0 DUP1 REVERT JUMPDEST POP PUSH2 0x1D7 PUSH2 0x53F JUMP JUMPDEST PUSH2 0x155 PUSH2 0x570 JUMP JUMPDEST CALLVALUE DUP1 ISZERO PUSH2 0x295 JUMPI PUSH1 0x0 DUP1 REVERT JUMPDEST POP PUSH1 0x1 SLOAD PUSH2 0x118 SWAP1 PUSH1 0x1 PUSH1 0x1 PUSH1 0xA0 SHL SUB AND DUP2 JUMP JUMPDEST CALLVALUE DUP1 ISZERO PUSH2 0x2B5 JUMPI PUSH1 0x0 DUP1 REVERT JUMPDEST POP PUSH2 0x155 PUSH2 0x2C4 CALLDATASIZE PUSH1 0x4 PUSH2 0x818 JUMP JUMPDEST PUSH2 0x6D0 JUMP JUMPDEST CALLVALUE DUP1 ISZERO PUSH2 0x2D5 JUMPI PUSH1 0x0 DUP1 REVERT JUMPDEST POP PUSH2 0x155 PUSH2 0x2E4 CALLDATASIZE PUSH1 0x4 PUSH2 0x7EA JUMP JUMPDEST PUSH2 0x76B JUMP JUMPDEST PUSH1 0x1 SLOAD PUSH1 0x40 DUP1 MLOAD PUSH4 0x32A2C5D PUSH1 0xE4 SHL DUP2 MSTORE SWAP1 MLOAD PUSH1 0x0 SWAP3 PUSH1 0x1 PUSH1 0x1 PUSH1 0xA0 SHL SUB AND SWAP2 PUSH4 0x32A2C5D0 SWAP2 PUSH1 0x4 DUP1 DUP4 ADD SWAP3 PUSH1 0x20 SWAP3 SWAP2 SWAP1 DUP3 SWAP1 SUB ADD DUP2 DUP7 GAS STATICCALL ISZERO DUP1 ISZERO PUSH2 0x333 JUMPI RETURNDATASIZE PUSH1 0x0 DUP1 RETURNDATACOPY RETURNDATASIZE PUSH1 0x0 REVERT JUMPDEST POP POP POP POP PUSH1 0x40 MLOAD RETURNDATASIZE PUSH1 0x1F NOT PUSH1 0x1F DUP3 ADD AND DUP3 ADD DUP1 PUSH1 0x40 MSTORE POP DUP2 ADD SWAP1 PUSH2 0x357 SWAP2 SWAP1 PUSH2 0x83C JUMP JUMPDEST SWAP1 POP SWAP1 JUMP JUMPDEST PUSH1 0x0 SLOAD PUSH1 0x1 PUSH1 0x1 PUSH1 0xA0 SHL SUB AND CALLER EQ PUSH2 0x38F JUMPI PUSH1 0x40 MLOAD PUSH3 0x461BCD PUSH1 0xE5 SHL DUP2 MSTORE PUSH1 0x4 ADD PUSH2 0x386 SWAP1 PUSH2 0x859 JUMP JUMPDEST PUSH1 0x40 MLOAD DUP1 SWAP2 SUB SWAP1 REVERT JUMPDEST PUSH1 0x40 MLOAD PUSH1 0x0 SWAP1 CALLER SWAP1 DUP4 SWAP1 DUP4 DUP2 DUP2 DUP2 DUP6 DUP8 GAS CALL SWAP3 POP POP POP RETURNDATASIZE DUP1 PUSH1 0x0 DUP2 EQ PUSH2 0x3D1 JUMPI PUSH1 0x40 MLOAD SWAP2 POP PUSH1 0x1F NOT PUSH1 0x3F RETURNDATASIZE ADD AND DUP3 ADD PUSH1 0x40 MSTORE RETURNDATASIZE DUP3 MSTORE RETURNDATASIZE PUSH1 0x0 PUSH1 0x20 DUP5 ADD RETURNDATACOPY PUSH2 0x3D6 JUMP JUMPDEST PUSH1 0x60 SWAP2 POP JUMPDEST POP POP SWAP1 POP DUP1 PUSH2 0x41C JUMPI PUSH1 0x40 MLOAD PUSH3 0x461BCD PUSH1 0xE5 SHL DUP2 MSTORE PUSH1 0x20 PUSH1 0x4 DUP3 ADD MSTORE PUSH1 0x12 PUSH1 0x24 DUP3 ADD MSTORE PUSH18 0x2330B4B632B2103A379039B2B73210212721 PUSH1 0x71 SHL PUSH1 0x44 DUP3 ADD MSTORE PUSH1 0x64 ADD PUSH2 0x386 JUMP JUMPDEST POP POP JUMP JUMPDEST PUSH1 0x0 SLOAD PUSH1 0x1 PUSH1 0x1 PUSH1 0xA0 SHL SUB AND CALLER EQ PUSH2 0x44A JUMPI PUSH1 0x40 MLOAD PUSH3 0x461BCD PUSH1 0xE5 SHL DUP2 MSTORE PUSH1 0x4 ADD PUSH2 0x386 SWAP1 PUSH2 0x859 JUMP JUMPDEST PUSH1 0x1 DUP1 SLOAD PUSH1 0x1 PUSH1 0x1 PUSH1 0xA0 SHL SUB NOT AND PUSH1 0x1 PUSH1 0x1 PUSH1 0xA0 SHL SUB SWAP3 SWAP1 SWAP3 AND SWAP2 SWAP1 SWAP2 OR SWAP1 SSTORE JUMP JUMPDEST PUSH1 0x0 SLOAD PUSH1 0x1 PUSH1 0x1 PUSH1 0xA0 SHL SUB AND CALLER EQ PUSH2 0x496 JUMPI PUSH1 0x40 MLOAD PUSH3 0x461BCD PUSH1 0xE5 SHL DUP2 MSTORE PUSH1 0x4 ADD PUSH2 0x386 SWAP1 PUSH2 0x859 JUMP JUMPDEST PUSH1 0x3 SSTORE JUMP JUMPDEST PUSH1 0x0 SLOAD PUSH1 0x1 PUSH1 0x1 PUSH1 0xA0 SHL SUB AND CALLER EQ PUSH2 0x4C5 JUMPI PUSH1 0x40 MLOAD PUSH3 0x461BCD PUSH1 0xE5 SHL DUP2 MSTORE PUSH1 0x4 ADD PUSH2 0x386 SWAP1 PUSH2 0x859 JUMP JUMPDEST PUSH2 0x4CF PUSH1 0x0 PUSH2 0x79A JUMP JUMPDEST JUMP JUMPDEST PUSH1 0x1 SLOAD PUSH1 0x40 MLOAD PUSH4 0x70A08231 PUSH1 0xE0 SHL DUP2 MSTORE CALLER PUSH1 0x4 DUP3 ADD MSTORE PUSH1 0x0 SWAP2 PUSH1 0x1 PUSH1 0x1 PUSH1 0xA0 SHL SUB AND SWAP1 PUSH4 0x70A08231 SWAP1 PUSH1 0x24 ADD JUMPDEST PUSH1 0x20 PUSH1 0x40 MLOAD DUP1 DUP4 SUB DUP2 DUP7 GAS STATICCALL ISZERO DUP1 ISZERO PUSH2 0x51B JUMPI RETURNDATASIZE PUSH1 0x0 DUP1 RETURNDATACOPY RETURNDATASIZE PUSH1 0x0 REVERT JUMPDEST POP POP POP POP PUSH1 0x40 MLOAD RETURNDATASIZE PUSH1 0x1F NOT PUSH1 0x1F DUP3 ADD AND DUP3 ADD DUP1 PUSH1 0x40 MSTORE POP DUP2 ADD SWAP1 PUSH2 0x357 SWAP2 SWAP1 PUSH2 0x88E JUMP JUMPDEST PUSH1 0x1 SLOAD PUSH1 0x40 MLOAD PUSH4 0x70A08231 PUSH1 0xE0 SHL DUP2 MSTORE ADDRESS PUSH1 0x4 DUP3 ADD MSTORE PUSH1 0x0 SWAP2 PUSH1 0x1 PUSH1 0x1 PUSH1 0xA0 SHL SUB AND SWAP1 PUSH4 0x70A08231 SWAP1 PUSH1 0x24 ADD PUSH2 0x4FE JUMP JUMPDEST PUSH1 0x0 PUSH1 0x4 SLOAD CALLVALUE PUSH2 0x580 SWAP2 SWAP1 PUSH2 0x8BD JUMP JUMPDEST PUSH1 0x3 SLOAD CALLER PUSH1 0x0 SWAP1 DUP2 MSTORE PUSH1 0x2 PUSH1 0x20 MSTORE PUSH1 0x40 SWAP1 KECCAK256 SLOAD SWAP2 SWAP3 POP SWAP1 PUSH2 0x5A2 SWAP1 DUP4 SWAP1 PUSH2 0x8DC JUMP JUMPDEST GT ISZERO PUSH2 0x633 JUMPI PUSH1 0x40 MLOAD PUSH3 0x461BCD PUSH1 0xE5 SHL DUP2 MSTORE PUSH1 0x20 PUSH1 0x4 DUP3 ADD MSTORE PUSH1 0x54 PUSH1 0x24 DUP3 ADD MSTORE PUSH32 0x596F752063616E6E6F742070757263686173652074686973206D616E79204348 PUSH1 0x44 DUP3 ADD MSTORE PUSH32 0x455320746F6B656E732C207468617420776F756C642070757420796F75207061 PUSH1 0x64 DUP3 ADD MSTORE PUSH20 0x39BA103CB7BAB910383932B9B0B6329031B0B817 PUSH1 0x61 SHL PUSH1 0x84 DUP3 ADD MSTORE PUSH1 0xA4 ADD PUSH2 0x386 JUMP JUMPDEST PUSH1 0x1 SLOAD PUSH1 0x40 MLOAD PUSH4 0xA9059CBB PUSH1 0xE0 SHL DUP2 MSTORE CALLER PUSH1 0x4 DUP3 ADD MSTORE PUSH1 0x24 DUP2 ADD DUP4 SWAP1 MSTORE PUSH1 0x1 PUSH1 0x1 PUSH1 0xA0 SHL SUB SWAP1 SWAP2 AND SWAP1 PUSH4 0xA9059CBB SWAP1 PUSH1 0x44 ADD PUSH1 0x20 PUSH1 0x40 MLOAD DUP1 DUP4 SUB DUP2 PUSH1 0x0 DUP8 GAS CALL ISZERO DUP1 ISZERO PUSH2 0x684 JUMPI RETURNDATASIZE PUSH1 0x0 DUP1 RETURNDATACOPY RETURNDATASIZE PUSH1 0x0 REVERT JUMPDEST POP POP POP POP PUSH1 0x40 MLOAD RETURNDATASIZE PUSH1 0x1F NOT PUSH1 0x1F DUP3 ADD AND DUP3 ADD DUP1 PUSH1 0x40 MSTORE POP DUP2 ADD SWAP1 PUSH2 0x6A8 SWAP2 SWAP1 PUSH2 0x8F4 JUMP JUMPDEST POP CALLER PUSH1 0x0 SWAP1 DUP2 MSTORE PUSH1 0x2 PUSH1 0x20 MSTORE PUSH1 0x40 DUP2 KECCAK256 DUP1 SLOAD DUP4 SWAP3 SWAP1 PUSH2 0x6C8 SWAP1 DUP5 SWAP1 PUSH2 0x8DC JUMP JUMPDEST SWAP1 SWAP2 SSTORE POP POP POP JUMP JUMPDEST PUSH1 0x0 SLOAD PUSH1 0x1 PUSH1 0x1 PUSH1 0xA0 SHL SUB AND CALLER EQ PUSH2 0x6FA JUMPI PUSH1 0x40 MLOAD PUSH3 0x461BCD PUSH1 0xE5 SHL DUP2 MSTORE PUSH1 0x4 ADD PUSH2 0x386 SWAP1 PUSH2 0x859 JUMP JUMPDEST PUSH1 0x1 PUSH1 0x1 PUSH1 0xA0 SHL SUB DUP2 AND PUSH2 0x75F JUMPI PUSH1 0x40 MLOAD PUSH3 0x461BCD PUSH1 0xE5 SHL DUP2 MSTORE PUSH1 0x20 PUSH1 0x4 DUP3 ADD MSTORE PUSH1 0x26 PUSH1 0x24 DUP3 ADD MSTORE PUSH32 0x4F776E61626C653A206E6577206F776E657220697320746865207A65726F2061 PUSH1 0x44 DUP3 ADD MSTORE PUSH6 0x646472657373 PUSH1 0xD0 SHL PUSH1 0x64 DUP3 ADD MSTORE PUSH1 0x84 ADD PUSH2 0x386 JUMP JUMPDEST PUSH2 0x768 DUP2 PUSH2 0x79A JUMP JUMPDEST POP JUMP JUMPDEST PUSH1 0x0 SLOAD PUSH1 0x1 PUSH1 0x1 PUSH1 0xA0 SHL SUB AND CALLER EQ PUSH2 0x795 JUMPI PUSH1 0x40 MLOAD PUSH3 0x461BCD PUSH1 0xE5 SHL DUP2 MSTORE PUSH1 0x4 ADD PUSH2 0x386 SWAP1 PUSH2 0x859 JUMP JUMPDEST PUSH1 0x4 SSTORE JUMP JUMPDEST PUSH1 0x0 DUP1 SLOAD PUSH1 0x1 PUSH1 0x1 PUSH1 0xA0 SHL SUB DUP4 DUP2 AND PUSH1 0x1 PUSH1 0x1 PUSH1 0xA0 SHL SUB NOT DUP4 AND DUP2 OR DUP5 SSTORE PUSH1 0x40 MLOAD SWAP2 SWAP1 SWAP3 AND SWAP3 DUP4 SWAP2 PUSH32 0x8BE0079C531659141344CD1FD0A4F28419497F9722A3DAAFE3B4186F6B6457E0 SWAP2 SWAP1 LOG3 POP POP JUMP JUMPDEST PUSH1 0x0 PUSH1 0x20 DUP3 DUP5 SUB SLT ISZERO PUSH2 0x7FC JUMPI PUSH1 0x0 DUP1 REVERT JUMPDEST POP CALLDATALOAD SWAP2 SWAP1 POP JUMP JUMPDEST PUSH1 0x1 PUSH1 0x1 PUSH1 0xA0 SHL SUB DUP2 AND DUP2 EQ PUSH2 0x768 JUMPI PUSH1 0x0 DUP1 REVERT JUMPDEST PUSH1 0x0 PUSH1 0x20 DUP3 DUP5 SUB SLT ISZERO PUSH2 0x82A JUMPI PUSH1 0x0 DUP1 REVERT JUMPDEST DUP2 CALLDATALOAD PUSH2 0x835 DUP2 PUSH2 0x803 JUMP JUMPDEST SWAP4 SWAP3 POP POP POP JUMP JUMPDEST PUSH1 0x0 PUSH1 0x20 DUP3 DUP5 SUB SLT ISZERO PUSH2 0x84E JUMPI PUSH1 0x0 DUP1 REVERT JUMPDEST DUP2 MLOAD PUSH2 0x835 DUP2 PUSH2 0x803 JUMP JUMPDEST PUSH1 0x20 DUP1 DUP3 MSTORE DUP2 DUP2 ADD MSTORE PUSH32 0x4F776E61626C653A2063616C6C6572206973206E6F7420746865206F776E6572 PUSH1 0x40 DUP3 ADD MSTORE PUSH1 0x60 ADD SWAP1 JUMP JUMPDEST PUSH1 0x0 PUSH1 0x20 DUP3 DUP5 SUB SLT ISZERO PUSH2 0x8A0 JUMPI PUSH1 0x0 DUP1 REVERT JUMPDEST POP MLOAD SWAP2 SWAP1 POP JUMP JUMPDEST PUSH4 0x4E487B71 PUSH1 0xE0 SHL PUSH1 0x0 MSTORE PUSH1 0x11 PUSH1 0x4 MSTORE PUSH1 0x24 PUSH1 0x0 REVERT JUMPDEST PUSH1 0x0 DUP2 PUSH1 0x0 NOT DIV DUP4 GT DUP3 ISZERO ISZERO AND ISZERO PUSH2 0x8D7 JUMPI PUSH2 0x8D7 PUSH2 0x8A7 JUMP JUMPDEST POP MUL SWAP1 JUMP JUMPDEST PUSH1 0x0 DUP3 NOT DUP3 GT ISZERO PUSH2 0x8EF JUMPI PUSH2 0x8EF PUSH2 0x8A7 JUMP JUMPDEST POP ADD SWAP1 JUMP JUMPDEST PUSH1 0x0 PUSH1 0x20 DUP3 DUP5 SUB SLT ISZERO PUSH2 0x906 JUMPI PUSH1 0x0 DUP1 REVERT JUMPDEST DUP2 MLOAD DUP1 ISZERO ISZERO DUP2 EQ PUSH2 0x835 JUMPI PUSH1 0x0 DUP1 REVERT INVALID LOG2 PUSH5 0x6970667358 0x22 SLT KECCAK256 MLOAD CREATE2 0xDD PUSH11 0x642394757DEE3986C0EB77 0xD4 MULMOD 0x2D 0xAA PUSH17 0x39A8235516161B2020CD0FBF64736F6C63 NUMBER STOP ADDMOD SIGNEXTEND STOP CALLER ",
  "sha1": "806b75bce87279288ffc634dc76063a143fea044",
  "source": "// SPDX-License-Identifier: MIT\n \npragma solidity >=0.8.0 <0.9.0;\n \nimport \"@openzeppelin/contracts/access/Ownable.sol\";\nimport \"@openzeppelin/contracts/utils/Strings.sol\";\nimport './ChainEstateToken.sol';\n\n/**\n * @title Chain Estate Presale\n * @dev Contract responsible for the Chain Estate presale mechanism\n */\ncontract ChainEstatePreSale is Ownable {\n\n    // References the deployed Chain Estate token.\n    ChainEstateToken public CHES;\n\n    // Mapping to determine how much CHES each address has purchased in the presale.\n    mapping(address => uint256) public addressToAmountPurchased;\n\n    // The limit for how many CHES tokens each user can purchase during the presale.\n    uint256 public purchaseCap = 15000000 * 10 ** 18;\n\n    // 1 BNB can be used to buy this many ChainEstate tokens.\n    uint256 public BNBToCHESRate = 52500;\n \n    /**\n    * @dev Once the CHES token contract is deployed, this function is used to set a reference to that token in this contract.\n    * @param CHESTokenAddress address of the ChainEstate token.\n     */\n    function setToken(address CHESTokenAddress) public onlyOwner {\n        CHES = ChainEstateToken(CHESTokenAddress);\n    }\n\n    /**\n    * @dev Gets the amount of CHES the sender owns.\n    * @return the CHES balance of the sender\n    */\n    function getUserBalance() public view returns (uint256) {\n        return CHES.balanceOf(msg.sender);\n    }\n \n     /**\n     * @dev Returns the contract address\n     * @return contract address\n     */\n    function getContractAddress() public view returns (address) {\n        return address(this);\n    }\n \n     /**\n     * @dev Returns the CHES token address\n     * @return CHES token contract address\n     */\n    function getTokenAddress() public view returns (address) {\n        return CHES.getContractAddress();\n    }\n \n    /**\n    * @dev Allows a user to pay BNB for CHES tokens. Conversion rate is 1 BNB to BNBToCHESRate CHES where BNBToCHESRate is the variable defined in the contract.\n     */\n    function purchaseCHESTokens() public payable {\n        // 1 BNB = [BNBToCHESRate] CHES to transfer to msg sender\n        uint256 CHESAmount = msg.value * BNBToCHESRate;\n        require(addressToAmountPurchased[msg.sender] + CHESAmount <= purchaseCap,  \"You cannot purchase this many CHES tokens, that would put you past your presale cap.\");\n \n        CHES.transfer(msg.sender, CHESAmount);\n        addressToAmountPurchased[msg.sender] += CHESAmount;\n    }\n\n    /**\n    * @dev Only owner function to change the presale CHES token purchase cap per user.\n    * @param newPurchaseCap the new CHES token purchase cap in CHES (NOT BNB). Use the conversion rate to figure out how many CHES to set here.\n     */\n    function changeCHESPurchaseCap(uint256 newPurchaseCap) public onlyOwner {\n        purchaseCap = newPurchaseCap;\n    }\n\n    /**\n    * @dev Only owner function to change the conversion rate for BNB to CHES.\n    * @param newConversionRate the new BNB to CHES conversion rate.\n     */\n    function changeBNBToCHESRate(uint256 newConversionRate) public onlyOwner {\n        BNBToCHESRate = newConversionRate;\n    }\n \n    /**\n    * @dev Only owner function to withdraw the BNB from this contract.\n    * @param amount the amount of BNB to withdraw from the pre-sale contract.\n     */\n    function withdrawBNB(uint256 amount) public onlyOwner {\n        (bool success, ) = msg.sender.call{value: amount}(\"\");\n        require(success, \"Failed to send BNB\");\n    }\n \n    /**\n    * @dev Gets the amount of BNB that the contract has.\n    * @return the amount of BNB the contract has.\n     */\n    function getContractBNB() public view returns(uint256) {\n        return address(this).balance;\n    }\n \n    /**\n    * @dev Gets the CHES token balance of the contract.\n    * @return the amount of CHES tokens the contract has.\n     */\n    function getContractTokens() public view returns(uint256) {\n        return CHES.balanceOf(address(this));\n    }\n}",
  "sourcePath": "contracts/ChainEstatePreSale.sol",
  "type": "contract"
}