{
  "abi": [
    {
      "inputs": [
        {
          "internalType": "uint256",
          "name": "initialSupply",
          "type": "uint256"
        },
        {
          "internalType": "address",
          "name": "_airDropContractAddress",
          "type": "address"
        },
        {
          "internalType": "address",
          "name": "_burnWalletAddress",
          "type": "address"
        },
        {
          "internalType": "address",
          "name": "_liquidityWalletAddress",
          "type": "address"
        },
        {
          "internalType": "address payable",
          "name": "_realEstateWalletAddress",
          "type": "address"
        },
        {
          "internalType": "address payable",
          "name": "_marketingWalletAddress",
          "type": "address"
        },
        {
          "internalType": "address payable",
          "name": "_developerWalletAddress",
          "type": "address"
        },
        {
          "internalType": "address",
          "name": "_uniswapRouterAddress",
          "type": "address"
        }
      ],
      "stateMutability": "nonpayable",
      "type": "constructor"
    },
    {
      "anonymous": false,
      "inputs": [
        {
          "indexed": true,
          "internalType": "address",
          "name": "owner",
          "type": "address"
        },
        {
          "indexed": true,
          "internalType": "address",
          "name": "spender",
          "type": "address"
        },
        {
          "indexed": false,
          "internalType": "uint256",
          "name": "value",
          "type": "uint256"
        }
      ],
      "name": "Approval",
      "type": "event"
    },
    {
      "anonymous": false,
      "inputs": [
        {
          "indexed": true,
          "internalType": "address",
          "name": "previousOwner",
          "type": "address"
        },
        {
          "indexed": true,
          "internalType": "address",
          "name": "newOwner",
          "type": "address"
        }
      ],
      "name": "OwnershipTransferred",
      "type": "event"
    },
    {
      "anonymous": false,
      "inputs": [
        {
          "indexed": true,
          "internalType": "address",
          "name": "from",
          "type": "address"
        },
        {
          "indexed": true,
          "internalType": "address",
          "name": "to",
          "type": "address"
        },
        {
          "indexed": false,
          "internalType": "uint256",
          "name": "value",
          "type": "uint256"
        }
      ],
      "name": "Transfer",
      "type": "event"
    },
    {
      "inputs": [],
      "name": "airDropContractAddress",
      "outputs": [
        {
          "internalType": "address",
          "name": "",
          "type": "address"
        }
      ],
      "stateMutability": "view",
      "type": "function"
    },
    {
      "inputs": [
        {
          "internalType": "address",
          "name": "",
          "type": "address"
        }
      ],
      "name": "airDropInvestTime",
      "outputs": [
        {
          "internalType": "uint256",
          "name": "",
          "type": "uint256"
        }
      ],
      "stateMutability": "view",
      "type": "function"
    },
    {
      "inputs": [
        {
          "internalType": "address",
          "name": "owner",
          "type": "address"
        },
        {
          "internalType": "address",
          "name": "spender",
          "type": "address"
        }
      ],
      "name": "allowance",
      "outputs": [
        {
          "internalType": "uint256",
          "name": "",
          "type": "uint256"
        }
      ],
      "stateMutability": "view",
      "type": "function"
    },
    {
      "inputs": [
        {
          "internalType": "address",
          "name": "spender",
          "type": "address"
        },
        {
          "internalType": "uint256",
          "name": "amount",
          "type": "uint256"
        }
      ],
      "name": "approve",
      "outputs": [
        {
          "internalType": "bool",
          "name": "",
          "type": "bool"
        }
      ],
      "stateMutability": "nonpayable",
      "type": "function"
    },
    {
      "inputs": [
        {
          "internalType": "address",
          "name": "account",
          "type": "address"
        }
      ],
      "name": "balanceOf",
      "outputs": [
        {
          "internalType": "uint256",
          "name": "",
          "type": "uint256"
        }
      ],
      "stateMutability": "view",
      "type": "function"
    },
    {
      "inputs": [],
      "name": "burnWalletAddress",
      "outputs": [
        {
          "internalType": "address",
          "name": "",
          "type": "address"
        }
      ],
      "stateMutability": "view",
      "type": "function"
    },
    {
      "inputs": [],
      "name": "contractCHESDivisor",
      "outputs": [
        {
          "internalType": "uint256",
          "name": "",
          "type": "uint256"
        }
      ],
      "stateMutability": "view",
      "type": "function"
    },
    {
      "inputs": [],
      "name": "decimals",
      "outputs": [
        {
          "internalType": "uint8",
          "name": "",
          "type": "uint8"
        }
      ],
      "stateMutability": "view",
      "type": "function"
    },
    {
      "inputs": [
        {
          "internalType": "address",
          "name": "spender",
          "type": "address"
        },
        {
          "internalType": "uint256",
          "name": "subtractedValue",
          "type": "uint256"
        }
      ],
      "name": "decreaseAllowance",
      "outputs": [
        {
          "internalType": "bool",
          "name": "",
          "type": "bool"
        }
      ],
      "stateMutability": "nonpayable",
      "type": "function"
    },
    {
      "inputs": [],
      "name": "developerFeePercent",
      "outputs": [
        {
          "internalType": "uint256",
          "name": "",
          "type": "uint256"
        }
      ],
      "stateMutability": "view",
      "type": "function"
    },
    {
      "inputs": [],
      "name": "developerWalletAddress",
      "outputs": [
        {
          "internalType": "address payable",
          "name": "",
          "type": "address"
        }
      ],
      "stateMutability": "view",
      "type": "function"
    },
    {
      "inputs": [],
      "name": "disperseFeesManually",
      "outputs": [],
      "stateMutability": "nonpayable",
      "type": "function"
    },
    {
      "inputs": [
        {
          "internalType": "address",
          "name": "user",
          "type": "address"
        }
      ],
      "name": "excludeUserFromFees",
      "outputs": [],
      "stateMutability": "nonpayable",
      "type": "function"
    },
    {
      "inputs": [
        {
          "internalType": "address",
          "name": "",
          "type": "address"
        }
      ],
      "name": "excludedFromFees",
      "outputs": [
        {
          "internalType": "bool",
          "name": "",
          "type": "bool"
        }
      ],
      "stateMutability": "view",
      "type": "function"
    },
    {
      "inputs": [],
      "name": "getContractAddress",
      "outputs": [
        {
          "internalType": "address",
          "name": "",
          "type": "address"
        }
      ],
      "stateMutability": "view",
      "type": "function"
    },
    {
      "inputs": [],
      "name": "getCurrentTimestamp",
      "outputs": [
        {
          "internalType": "uint256",
          "name": "",
          "type": "uint256"
        }
      ],
      "stateMutability": "view",
      "type": "function"
    },
    {
      "inputs": [
        {
          "internalType": "address",
          "name": "user",
          "type": "address"
        }
      ],
      "name": "includeUsersInFees",
      "outputs": [],
      "stateMutability": "nonpayable",
      "type": "function"
    },
    {
      "inputs": [
        {
          "internalType": "address",
          "name": "spender",
          "type": "address"
        },
        {
          "internalType": "uint256",
          "name": "addedValue",
          "type": "uint256"
        }
      ],
      "name": "increaseAllowance",
      "outputs": [
        {
          "internalType": "bool",
          "name": "",
          "type": "bool"
        }
      ],
      "stateMutability": "nonpayable",
      "type": "function"
    },
    {
      "inputs": [],
      "name": "initialTimeStamp",
      "outputs": [
        {
          "internalType": "uint256",
          "name": "",
          "type": "uint256"
        }
      ],
      "stateMutability": "view",
      "type": "function"
    },
    {
      "inputs": [],
      "name": "liquidityWalletAddress",
      "outputs": [
        {
          "internalType": "address",
          "name": "",
          "type": "address"
        }
      ],
      "stateMutability": "view",
      "type": "function"
    },
    {
      "inputs": [],
      "name": "marketingFeePercent",
      "outputs": [
        {
          "internalType": "uint256",
          "name": "",
          "type": "uint256"
        }
      ],
      "stateMutability": "view",
      "type": "function"
    },
    {
      "inputs": [],
      "name": "marketingWalletAddress",
      "outputs": [
        {
          "internalType": "address payable",
          "name": "",
          "type": "address"
        }
      ],
      "stateMutability": "view",
      "type": "function"
    },
    {
      "inputs": [],
      "name": "name",
      "outputs": [
        {
          "internalType": "string",
          "name": "",
          "type": "string"
        }
      ],
      "stateMutability": "view",
      "type": "function"
    },
    {
      "inputs": [],
      "name": "owner",
      "outputs": [
        {
          "internalType": "address",
          "name": "",
          "type": "address"
        }
      ],
      "stateMutability": "view",
      "type": "function"
    },
    {
      "inputs": [],
      "name": "realEstateTransactionFeePercent",
      "outputs": [
        {
          "internalType": "uint256",
          "name": "",
          "type": "uint256"
        }
      ],
      "stateMutability": "view",
      "type": "function"
    },
    {
      "inputs": [],
      "name": "realEstateWalletAddress",
      "outputs": [
        {
          "internalType": "address payable",
          "name": "",
          "type": "address"
        }
      ],
      "stateMutability": "view",
      "type": "function"
    },
    {
      "inputs": [],
      "name": "renounceOwnership",
      "outputs": [],
      "stateMutability": "nonpayable",
      "type": "function"
    },
    {
      "inputs": [
        {
          "internalType": "uint256",
          "name": "newDivisor",
          "type": "uint256"
        }
      ],
      "name": "setContractCHESDivisor",
      "outputs": [],
      "stateMutability": "nonpayable",
      "type": "function"
    },
    {
      "inputs": [],
      "name": "symbol",
      "outputs": [
        {
          "internalType": "string",
          "name": "",
          "type": "string"
        }
      ],
      "stateMutability": "view",
      "type": "function"
    },
    {
      "inputs": [],
      "name": "totalSupply",
      "outputs": [
        {
          "internalType": "uint256",
          "name": "",
          "type": "uint256"
        }
      ],
      "stateMutability": "view",
      "type": "function"
    },
    {
      "inputs": [
        {
          "internalType": "address",
          "name": "recipient",
          "type": "address"
        },
        {
          "internalType": "uint256",
          "name": "amount",
          "type": "uint256"
        }
      ],
      "name": "transfer",
      "outputs": [
        {
          "internalType": "bool",
          "name": "",
          "type": "bool"
        }
      ],
      "stateMutability": "nonpayable",
      "type": "function"
    },
    {
      "inputs": [
        {
          "internalType": "address",
          "name": "from",
          "type": "address"
        },
        {
          "internalType": "address",
          "name": "to",
          "type": "address"
        },
        {
          "internalType": "uint256",
          "name": "amount",
          "type": "uint256"
        }
      ],
      "name": "transferFrom",
      "outputs": [
        {
          "internalType": "bool",
          "name": "",
          "type": "bool"
        }
      ],
      "stateMutability": "nonpayable",
      "type": "function"
    },
    {
      "inputs": [
        {
          "internalType": "address",
          "name": "newOwner",
          "type": "address"
        }
      ],
      "name": "transferOwnership",
      "outputs": [],
      "stateMutability": "nonpayable",
      "type": "function"
    },
    {
      "inputs": [],
      "name": "uniswapPair",
      "outputs": [
        {
          "internalType": "address",
          "name": "",
          "type": "address"
        }
      ],
      "stateMutability": "view",
      "type": "function"
    },
    {
      "inputs": [],
      "name": "uniswapRouterAddress",
      "outputs": [
        {
          "internalType": "address",
          "name": "",
          "type": "address"
        }
      ],
      "stateMutability": "view",
      "type": "function"
    },
    {
      "stateMutability": "payable",
      "type": "receive"
    }
  ],
  "bytecode": "60806040526003601055600160115560016012556103e86015553480156200002657600080fd5b506040516200211038038062002110833981016040819052620000499162000884565b604080518082018252601081526f21b430b4b722b9ba30ba32aa37b5b2b760811b6020808301918252835180850190945260048452634348455360e01b9084015281519192916200009d91600391620007c5565b508051620000b3906004906020840190620007c5565b505050620000d0620000ca620004a360201b60201c565b620004a7565b42600f55600880546001600160a01b03199081166001600160a01b038a8116919091178355600a805483168883169081179091556009805484168b8416179055600b805484168a8416178155600c80548516898516178155600d80548616898616178155600e805490961688861617909555600092835260066020526040808420805460ff19908116600190811790925596548616855281852080548816821790559154851684528084208054871683179055915484168352818320805486168217905585548416835291208054909316179091559054620001ce91166064620001bc8b60236200094f565b620001c8919062000971565b620004f9565b600b54620001ee906001600160a01b0316600a620001bc8b60036200094f565b6009546200020c906001600160a01b0316620001c860058b62000971565b600c546200022c906001600160a01b03166064620001bc8b60056200094f565b600d546200024a906001600160a01b0316620001c8600a8b62000971565b600e54601380546001600160a01b0319166001600160a01b0390921691821790556200027830828b620005f0565b806001600160a01b031663c45a01556040518163ffffffff1660e01b815260040160206040518083038186803b158015620002b257600080fd5b505afa158015620002c7573d6000803e3d6000fd5b505050506040513d601f19601f82011682018060405250810190620002ed919062000994565b6001600160a01b031663c9c6539630836001600160a01b031663ad5c46486040518163ffffffff1660e01b815260040160206040518083038186803b1580156200033657600080fd5b505afa1580156200034b573d6000803e3d6000fd5b505050506040513d601f19601f8201168201806040525081019062000371919062000994565b6040516001600160e01b031960e085901b1681526001600160a01b03928316600482015291166024820152604401602060405180830381600087803b158015620003ba57600080fd5b505af1158015620003cf573d6000803e3d6000fd5b505050506040513d601f19601f82011682018060405250810190620003f5919062000994565b601480546001600160a01b0319166001600160a01b0392831690811790915560135460405163095ea7b360e01b81529216600483015260001960248301529063095ea7b390604401602060405180830381600087803b1580156200045857600080fd5b505af11580156200046d573d6000803e3d6000fd5b505050506040513d601f19601f82011682018060405250810190620004939190620009bb565b5050505050505050505062000a51565b3390565b600580546001600160a01b038381166001600160a01b0319831681179093556040519116919082907f8be0079c531659141344cd1fd0a4f28419497f9722a3daafe3b4186f6b6457e090600090a35050565b6001600160a01b038216620005555760405162461bcd60e51b815260206004820152601f60248201527f45524332303a206d696e7420746f20746865207a65726f20616464726573730060448201526064015b60405180910390fd5b8060026000828254620005699190620009df565b90915550506001600160a01b0382166000908152602081905260408120805483929062000598908490620009df565b90915550506040518181526001600160a01b038316906000907fddf252ad1be2c89b69c2b068fc378daa952ba7f163c4a11628f55a4df523b3ef9060200160405180910390a3620005ec600083836200071d565b5050565b6001600160a01b038316620006545760405162461bcd60e51b8152602060048201526024808201527f45524332303a20617070726f76652066726f6d20746865207a65726f206164646044820152637265737360e01b60648201526084016200054c565b6001600160a01b038216620006b75760405162461bcd60e51b815260206004820152602260248201527f45524332303a20617070726f766520746f20746865207a65726f206164647265604482015261737360f01b60648201526084016200054c565b6001600160a01b0383811660008181526001602090815260408083209487168084529482529182902085905590518481527f8c5be1e5ebec7d5bd14f71427d1e84f3dd0314c0f7b2291e5b200ac8c7c3b925910160405180910390a3505050565b505050565b6001600160a01b0382166000908152602081815260408083205460079092529091205481906200074e8483620009fa565b6200075a91906200094f565b6200076642856200094f565b620007729190620009df565b6200077e919062000971565b60076000856001600160a01b03166001600160a01b0316815260200190815260200160002081905550620007bf8484846200071860201b62000cb51760201c565b50505050565b828054620007d39062000a14565b90600052602060002090601f016020900481019282620007f7576000855562000842565b82601f106200081257805160ff191683800117855562000842565b8280016001018555821562000842579182015b828111156200084257825182559160200191906001019062000825565b506200085092915062000854565b5090565b5b8082111562000850576000815560010162000855565b6001600160a01b03811681146200088157600080fd5b50565b600080600080600080600080610100898b031215620008a257600080fd5b885197506020890151620008b6816200086b565b60408a0151909750620008c9816200086b565b60608a0151909650620008dc816200086b565b60808a0151909550620008ef816200086b565b60a08a015190945062000902816200086b565b60c08a015190935062000915816200086b565b60e08a015190925062000928816200086b565b809150509295985092959890939650565b634e487b7160e01b600052601160045260246000fd5b60008160001904831182151516156200096c576200096c62000939565b500290565b6000826200098f57634e487b7160e01b600052601260045260246000fd5b500490565b600060208284031215620009a757600080fd5b8151620009b4816200086b565b9392505050565b600060208284031215620009ce57600080fd5b81518015158114620009b457600080fd5b60008219821115620009f557620009f562000939565b500190565b60008282101562000a0f5762000a0f62000939565b500390565b600181811c9082168062000a2957607f821691505b6020821081141562000a4b57634e487b7160e01b600052602260045260246000fd5b50919050565b6116af8062000a616000396000f3fe6080604052600436106102085760003560e01c806370a0823111610118578063bbeaa1f8116100a0578063dbe66ca01161006f578063dbe66ca0146105c6578063dd62ed3e146105f6578063f2fde38b1461063c578063f439d93c1461065c578063f94d733d1461067c57600080fd5b8063bbeaa1f814610550578063c816841b14610570578063d158272d14610590578063da6fa55c146105b057600080fd5b80638da5cb5b116100e75780638da5cb5b146104bd5780638eb83f25146104db57806395d89b41146104fb578063a457c2d714610510578063a9059cbb1461053057600080fd5b806370a082311461043b578063715018a61461047157806378c1d245146104885780637c13efd4146104a857600080fd5b8063313ce5671161019b578063502f91ec1161016a578063502f91ec146103b25780635b3c1da1146103d257806361eb048a146103f25780636c9230db146104125780636e2b0e471461042557600080fd5b8063313ce5671461034d57806332a2c5d014610369578063395093511461037c5780634fcd12851461039c57600080fd5b80631ba7f00f116101d75780631ba7f00f146102bf57806320ca3c7f146102f757806323b872dd146103175780632fb47be41461033757600080fd5b806306fdde0314610214578063095ea7b31461023f5780631497b01b1461026f57806318160ddd146102aa57600080fd5b3661020f57005b600080fd5b34801561022057600080fd5b50610229610692565b6040516102369190611392565b60405180910390f35b34801561024b57600080fd5b5061025f61025a3660046113fc565b610724565b6040519015158152602001610236565b34801561027b57600080fd5b5061029c61028a366004611428565b60076020526000908152604090205481565b604051908152602001610236565b3480156102b657600080fd5b5060025461029c565b3480156102cb57600080fd5b506008546102df906001600160a01b031681565b6040516001600160a01b039091168152602001610236565b34801561030357600080fd5b50600e546102df906001600160a01b031681565b34801561032357600080fd5b5061025f61033236600461144c565b61073e565b34801561034357600080fd5b5061029c600f5481565b34801561035957600080fd5b5060405160128152602001610236565b34801561037557600080fd5b50306102df565b34801561038857600080fd5b5061025f6103973660046113fc565b610762565b3480156103a857600080fd5b5061029c60115481565b3480156103be57600080fd5b50600a546102df906001600160a01b031681565b3480156103de57600080fd5b506009546102df906001600160a01b031681565b3480156103fe57600080fd5b50600d546102df906001600160a01b031681565b34801561041e57600080fd5b504261029c565b34801561043157600080fd5b5061029c60105481565b34801561044757600080fd5b5061029c610456366004611428565b6001600160a01b031660009081526020819052604090205490565b34801561047d57600080fd5b506104866107a1565b005b34801561049457600080fd5b506104866104a3366004611428565b6107e0565b3480156104b457600080fd5b5061048661082e565b3480156104c957600080fd5b506005546001600160a01b03166102df565b3480156104e757600080fd5b50600b546102df906001600160a01b031681565b34801561050757600080fd5b50610229610865565b34801561051c57600080fd5b5061025f61052b3660046113fc565b610874565b34801561053c57600080fd5b5061025f61054b3660046113fc565b610906565b34801561055c57600080fd5b5061048661056b366004611428565b610ba3565b34801561057c57600080fd5b506014546102df906001600160a01b031681565b34801561059c57600080fd5b50600c546102df906001600160a01b031681565b3480156105bc57600080fd5b5061029c60125481565b3480156105d257600080fd5b5061025f6105e1366004611428565b60066020526000908152604090205460ff1681565b34801561060257600080fd5b5061029c61061136600461148d565b6001600160a01b03918216600090815260016020908152604080832093909416825291909152205490565b34801561064857600080fd5b50610486610657366004611428565b610bee565b34801561066857600080fd5b506104866106773660046114c6565b610c86565b34801561068857600080fd5b5061029c60155481565b6060600380546106a1906114df565b80601f01602080910402602001604051908101604052809291908181526020018280546106cd906114df565b801561071a5780601f106106ef5761010080835404028352916020019161071a565b820191906000526020600020905b8154815290600101906020018083116106fd57829003601f168201915b5050505050905090565b600033610732818585610cba565b60019150505b92915050565b60003361074c858285610dde565b610757858585610e70565b506001949350505050565b3360008181526001602090815260408083206001600160a01b0387168452909152812054909190610732908290869061079c908790611530565b610cba565b6005546001600160a01b031633146107d45760405162461bcd60e51b81526004016107cb90611548565b60405180910390fd5b6107de6000611044565b565b6005546001600160a01b0316331461080a5760405162461bcd60e51b81526004016107cb90611548565b6001600160a01b03166000908152600660205260409020805460ff19166001179055565b6005546001600160a01b031633146108585760405162461bcd60e51b81526004016107cb90611548565b4761086281611096565b50565b6060600480546106a1906114df565b3360008181526001602090815260408083206001600160a01b0387168452909152812054909190838110156108f95760405162461bcd60e51b815260206004820152602560248201527f45524332303a2064656372656173656420616c6c6f77616e63652062656c6f77604482015264207a65726f60d81b60648201526084016107cb565b6107578286868403610cba565b6014546000906001600160a01b0316336001600160a01b031614801561093c57503360009081526006602052604090205460ff16155b801561096157506001600160a01b03831660009081526006602052604090205460ff16155b15610a2f5760a661097160025490565b61097b919061157d565b8261099b856001600160a01b031660009081526020819052604090205490565b6109a59190611530565b10610a2f5760405162461bcd60e51b815260206004820152604e60248201527f596f752063616e27742068617665206d6f7265207468616e203225206f66207460448201527f686520746f74616c204348455320737570706c7920616674657220612050616e60648201526d31b0b5b2a9bbb0b81039bbb0b81760911b608482015260a4016107cb565b3360009081526006602052604090205460ff1680610a6557506001600160a01b03831660009081526006602052604090205460ff165b15610a7d57610a75338484610e70565b506001610738565b6000606460105484610a8f919061159f565b610a99919061157d565b90506000606460125485610aad919061159f565b610ab7919061157d565b90506000606460115486610acb919061159f565b610ad5919061157d565b9050600081610ae48486611530565b610aee9190611530565b9050610afb333083610e70565b306000908152602081905260409020546014546001600160a01b03163314801590610b265750600081115b15610b7b578015610b69576015546014546001600160a01b0316600090815260208190526040902054610b59919061157d565b811115610b6957610b69816111b4565b478015610b7957610b7947611096565b505b6000610b8783896115be565b9050610b94338a83610e70565b50600198975050505050505050565b6005546001600160a01b03163314610bcd5760405162461bcd60e51b81526004016107cb90611548565b6001600160a01b03166000908152600660205260409020805460ff19169055565b6005546001600160a01b03163314610c185760405162461bcd60e51b81526004016107cb90611548565b6001600160a01b038116610c7d5760405162461bcd60e51b815260206004820152602660248201527f4f776e61626c653a206e6577206f776e657220697320746865207a65726f206160448201526564647265737360d01b60648201526084016107cb565b61086281611044565b6005546001600160a01b03163314610cb05760405162461bcd60e51b81526004016107cb90611548565b601555565b505050565b6001600160a01b038316610d1c5760405162461bcd60e51b8152602060048201526024808201527f45524332303a20617070726f76652066726f6d20746865207a65726f206164646044820152637265737360e01b60648201526084016107cb565b6001600160a01b038216610d7d5760405162461bcd60e51b815260206004820152602260248201527f45524332303a20617070726f766520746f20746865207a65726f206164647265604482015261737360f01b60648201526084016107cb565b6001600160a01b0383811660008181526001602090815260408083209487168084529482529182902085905590518481527f8c5be1e5ebec7d5bd14f71427d1e84f3dd0314c0f7b2291e5b200ac8c7c3b925910160405180910390a3505050565b6001600160a01b038381166000908152600160209081526040808320938616835292905220546000198114610e6a5781811015610e5d5760405162461bcd60e51b815260206004820152601d60248201527f45524332303a20696e73756666696369656e7420616c6c6f77616e636500000060448201526064016107cb565b610e6a8484848403610cba565b50505050565b6001600160a01b038316610ed45760405162461bcd60e51b815260206004820152602560248201527f45524332303a207472616e736665722066726f6d20746865207a65726f206164604482015264647265737360d81b60648201526084016107cb565b6001600160a01b038216610f365760405162461bcd60e51b815260206004820152602360248201527f45524332303a207472616e7366657220746f20746865207a65726f206164647260448201526265737360e81b60648201526084016107cb565b6001600160a01b03831660009081526020819052604090205481811015610fae5760405162461bcd60e51b815260206004820152602660248201527f45524332303a207472616e7366657220616d6f756e7420657863656564732062604482015265616c616e636560d01b60648201526084016107cb565b6001600160a01b03808516600090815260208190526040808220858503905591851681529081208054849290610fe5908490611530565b92505081905550826001600160a01b0316846001600160a01b03167fddf252ad1be2c89b69c2b068fc378daa952ba7f163c4a11628f55a4df523b3ef8460405161103191815260200190565b60405180910390a3610e6a84848461131d565b600580546001600160a01b038381166001600160a01b0319831681179093556040519116919082907f8be0079c531659141344cd1fd0a4f28419497f9722a3daafe3b4186f6b6457e090600090a35050565b60006011546012546010546110ab9190611530565b6110b59190611530565b600a546010549192506001600160a01b0316906108fc9083906110d8908661159f565b6110e2919061157d565b6040518115909202916000818181858888f1935050505015801561110a573d6000803e3d6000fd5b50600c546012546001600160a01b03909116906108fc90839061112d908661159f565b611137919061157d565b6040518115909202916000818181858888f1935050505015801561115f573d6000803e3d6000fd5b50600d546011546001600160a01b03909116906108fc908390611182908661159f565b61118c919061157d565b6040518115909202916000818181858888f19350505050158015610cb5573d6000803e3d6000fd5b60408051600280825260608201835260009260208301908036833701905050905030816000815181106111e9576111e96115d5565b6001600160a01b03928316602091820292909201810191909152601354604080516315ab88c960e31b81529051919093169263ad5c4648926004808301939192829003018186803b15801561123d57600080fd5b505afa158015611251573d6000803e3d6000fd5b505050506040513d601f19601f8201168201806040525081019061127591906115eb565b81600181518110611288576112886115d5565b6001600160a01b0392831660209182029290920101526013546112ae9130911684610cba565b60135460405163791ac94760e01b81526001600160a01b039091169063791ac947906112e7908590600090869030904290600401611608565b600060405180830381600087803b15801561130157600080fd5b505af1158015611315573d6000803e3d6000fd5b505050505050565b6001600160a01b03821660009081526020818152604080832054600790925290912054819061134c84836115be565b611356919061159f565b611360428561159f565b61136a9190611530565b611374919061157d565b6001600160a01b038416600090815260076020526040902055610e6a565b600060208083528351808285015260005b818110156113bf578581018301518582016040015282016113a3565b818111156113d1576000604083870101525b50601f01601f1916929092016040019392505050565b6001600160a01b038116811461086257600080fd5b6000806040838503121561140f57600080fd5b823561141a816113e7565b946020939093013593505050565b60006020828403121561143a57600080fd5b8135611445816113e7565b9392505050565b60008060006060848603121561146157600080fd5b833561146c816113e7565b9250602084013561147c816113e7565b929592945050506040919091013590565b600080604083850312156114a057600080fd5b82356114ab816113e7565b915060208301356114bb816113e7565b809150509250929050565b6000602082840312156114d857600080fd5b5035919050565b600181811c908216806114f357607f821691505b6020821081141561151457634e487b7160e01b600052602260045260246000fd5b50919050565b634e487b7160e01b600052601160045260246000fd5b600082198211156115435761154361151a565b500190565b6020808252818101527f4f776e61626c653a2063616c6c6572206973206e6f7420746865206f776e6572604082015260600190565b60008261159a57634e487b7160e01b600052601260045260246000fd5b500490565b60008160001904831182151516156115b9576115b961151a565b500290565b6000828210156115d0576115d061151a565b500390565b634e487b7160e01b600052603260045260246000fd5b6000602082840312156115fd57600080fd5b8151611445816113e7565b600060a082018783526020878185015260a0604085015281875180845260c086019150828901935060005b818110156116585784516001600160a01b031683529383019391830191600101611633565b50506001600160a01b0396909616606085015250505060800152939250505056fea264697066735822122001d4fc25440a88bfe0e7188062eb6efb85b581d3c2401665fb12863e95d8a64b64736f6c63430008080033",
  "bytecodeSha1": "9ccce7be3b25bc08c1dbb04f5b1f591d9e3a42e6",
  "compiler": {
    "evm_version": "istanbul",
    "optimizer": {
      "enabled": true,
      "runs": 200
    },
    "version": "0.8.8+commit.dddeac2f"
  },
  "contractName": "ChainEstateTokenV1",
  "language": "Solidity",
  "natspec": {
    "details": "Main contract for Chain Estate DAO TODO - Limit how many tokens users can purchase from PancakeSwap TODO - Will possibly create the BNB to CHES token PankcakeSwap pair in the constructor.",
    "kind": "dev",
    "methods": {
      "allowance(address,address)": {
        "details": "See {IERC20-allowance}."
      },
      "approve(address,uint256)": {
        "details": "See {IERC20-approve}. NOTE: If `amount` is the maximum `uint256`, the allowance is not updated on `transferFrom`. This is semantically equivalent to an infinite approval. Requirements: - `spender` cannot be the zero address."
      },
      "balanceOf(address)": {
        "details": "See {IERC20-balanceOf}."
      },
      "decimals()": {
        "details": "Returns the number of decimals used to get its user representation. For example, if `decimals` equals `2`, a balance of `505` tokens should be displayed to a user as `5.05` (`505 / 10 ** 2`). Tokens usually opt for a value of 18, imitating the relationship between Ether and Wei. This is the value {ERC20} uses, unless this function is overridden; NOTE: This information is only used for _display_ purposes: it in no way affects any of the arithmetic of the contract, including {IERC20-balanceOf} and {IERC20-transfer}."
      },
      "decreaseAllowance(address,uint256)": {
        "details": "Atomically decreases the allowance granted to `spender` by the caller. This is an alternative to {approve} that can be used as a mitigation for problems described in {IERC20-approve}. Emits an {Approval} event indicating the updated allowance. Requirements: - `spender` cannot be the zero address. - `spender` must have allowance for the caller of at least `subtractedValue`."
      },
      "disperseFeesManually()": {
        "details": "Sends BNB to transaction fee wallets manually as opposed to happening automatically after a certain level of volume"
      },
      "excludeUserFromFees(address)": {
        "details": "Adds a user to be excluded from fees.",
        "params": {
          "user": "address of the user to be excluded from fees."
        }
      },
      "getContractAddress()": {
        "details": "Returns the contract address",
        "returns": {
          "_0": "contract address"
        }
      },
      "getCurrentTimestamp()": {
        "details": "Gets the current timestamp, used for testing + verification",
        "returns": {
          "_0": "the the timestamp of the current block"
        }
      },
      "includeUsersInFees(address)": {
        "details": "Removes a user from the fee exclusion.",
        "params": {
          "user": "address of the user than will now have to pay transaction fees."
        }
      },
      "increaseAllowance(address,uint256)": {
        "details": "Atomically increases the allowance granted to `spender` by the caller. This is an alternative to {approve} that can be used as a mitigation for problems described in {IERC20-approve}. Emits an {Approval} event indicating the updated allowance. Requirements: - `spender` cannot be the zero address."
      },
      "name()": {
        "details": "Returns the name of the token."
      },
      "owner()": {
        "details": "Returns the address of the current owner."
      },
      "renounceOwnership()": {
        "details": "Leaves the contract without owner. It will not be possible to call `onlyOwner` functions anymore. Can only be called by the current owner. NOTE: Renouncing ownership will leave the contract without an owner, thereby removing any functionality that is only available to the owner."
      },
      "setContractCHESDivisor(uint256)": {
        "details": "Sets the value that determines how many CHES tokens need to be in the contract before it's swapped for BNB.",
        "params": {
          "newDivisor": "the new divisor value to determine the swap threshold"
        }
      },
      "symbol()": {
        "details": "Returns the symbol of the token, usually a shorter version of the name."
      },
      "totalSupply()": {
        "details": "See {IERC20-totalSupply}."
      },
      "transfer(address,uint256)": {
        "details": "Overrides the BEP20 transfer function to include transaction fees.",
        "params": {
          "amount": "the amount to be transfered",
          "recipient": "the recipient of the transfer"
        },
        "returns": {
          "_0": "bool representing if the transfer was successful"
        }
      },
      "transferFrom(address,address,uint256)": {
        "details": "See {IERC20-transferFrom}. Emits an {Approval} event indicating the updated allowance. This is not required by the EIP. See the note at the beginning of {ERC20}. NOTE: Does not update the allowance if the current allowance is the maximum `uint256`. Requirements: - `from` and `to` cannot be the zero address. - `from` must have a balance of at least `amount`. - the caller must have allowance for ``from``'s tokens of at least `amount`."
      },
      "transferOwnership(address)": {
        "details": "Transfers ownership of the contract to a new account (`newOwner`). Can only be called by the current owner."
      }
    },
    "title": "Chain Estate DAO Token (V1)",
    "version": 1
  },
  "opcodes": "PUSH1 0x80 PUSH1 0x40 MSTORE PUSH1 0x4 CALLDATASIZE LT PUSH2 0x208 JUMPI PUSH1 0x0 CALLDATALOAD PUSH1 0xE0 SHR DUP1 PUSH4 0x70A08231 GT PUSH2 0x118 JUMPI DUP1 PUSH4 0xBBEAA1F8 GT PUSH2 0xA0 JUMPI DUP1 PUSH4 0xDBE66CA0 GT PUSH2 0x6F JUMPI DUP1 PUSH4 0xDBE66CA0 EQ PUSH2 0x5C6 JUMPI DUP1 PUSH4 0xDD62ED3E EQ PUSH2 0x5F6 JUMPI DUP1 PUSH4 0xF2FDE38B EQ PUSH2 0x63C JUMPI DUP1 PUSH4 0xF439D93C EQ PUSH2 0x65C JUMPI DUP1 PUSH4 0xF94D733D EQ PUSH2 0x67C JUMPI PUSH1 0x0 DUP1 REVERT JUMPDEST DUP1 PUSH4 0xBBEAA1F8 EQ PUSH2 0x550 JUMPI DUP1 PUSH4 0xC816841B EQ PUSH2 0x570 JUMPI DUP1 PUSH4 0xD158272D EQ PUSH2 0x590 JUMPI DUP1 PUSH4 0xDA6FA55C EQ PUSH2 0x5B0 JUMPI PUSH1 0x0 DUP1 REVERT JUMPDEST DUP1 PUSH4 0x8DA5CB5B GT PUSH2 0xE7 JUMPI DUP1 PUSH4 0x8DA5CB5B EQ PUSH2 0x4BD JUMPI DUP1 PUSH4 0x8EB83F25 EQ PUSH2 0x4DB JUMPI DUP1 PUSH4 0x95D89B41 EQ PUSH2 0x4FB JUMPI DUP1 PUSH4 0xA457C2D7 EQ PUSH2 0x510 JUMPI DUP1 PUSH4 0xA9059CBB EQ PUSH2 0x530 JUMPI PUSH1 0x0 DUP1 REVERT JUMPDEST DUP1 PUSH4 0x70A08231 EQ PUSH2 0x43B JUMPI DUP1 PUSH4 0x715018A6 EQ PUSH2 0x471 JUMPI DUP1 PUSH4 0x78C1D245 EQ PUSH2 0x488 JUMPI DUP1 PUSH4 0x7C13EFD4 EQ PUSH2 0x4A8 JUMPI PUSH1 0x0 DUP1 REVERT JUMPDEST DUP1 PUSH4 0x313CE567 GT PUSH2 0x19B JUMPI DUP1 PUSH4 0x502F91EC GT PUSH2 0x16A JUMPI DUP1 PUSH4 0x502F91EC EQ PUSH2 0x3B2 JUMPI DUP1 PUSH4 0x5B3C1DA1 EQ PUSH2 0x3D2 JUMPI DUP1 PUSH4 0x61EB048A EQ PUSH2 0x3F2 JUMPI DUP1 PUSH4 0x6C9230DB EQ PUSH2 0x412 JUMPI DUP1 PUSH4 0x6E2B0E47 EQ PUSH2 0x425 JUMPI PUSH1 0x0 DUP1 REVERT JUMPDEST DUP1 PUSH4 0x313CE567 EQ PUSH2 0x34D JUMPI DUP1 PUSH4 0x32A2C5D0 EQ PUSH2 0x369 JUMPI DUP1 PUSH4 0x39509351 EQ PUSH2 0x37C JUMPI DUP1 PUSH4 0x4FCD1285 EQ PUSH2 0x39C JUMPI PUSH1 0x0 DUP1 REVERT JUMPDEST DUP1 PUSH4 0x1BA7F00F GT PUSH2 0x1D7 JUMPI DUP1 PUSH4 0x1BA7F00F EQ PUSH2 0x2BF JUMPI DUP1 PUSH4 0x20CA3C7F EQ PUSH2 0x2F7 JUMPI DUP1 PUSH4 0x23B872DD EQ PUSH2 0x317 JUMPI DUP1 PUSH4 0x2FB47BE4 EQ PUSH2 0x337 JUMPI PUSH1 0x0 DUP1 REVERT JUMPDEST DUP1 PUSH4 0x6FDDE03 EQ PUSH2 0x214 JUMPI DUP1 PUSH4 0x95EA7B3 EQ PUSH2 0x23F JUMPI DUP1 PUSH4 0x1497B01B EQ PUSH2 0x26F JUMPI DUP1 PUSH4 0x18160DDD EQ PUSH2 0x2AA JUMPI PUSH1 0x0 DUP1 REVERT JUMPDEST CALLDATASIZE PUSH2 0x20F JUMPI STOP JUMPDEST PUSH1 0x0 DUP1 REVERT JUMPDEST CALLVALUE DUP1 ISZERO PUSH2 0x220 JUMPI PUSH1 0x0 DUP1 REVERT JUMPDEST POP PUSH2 0x229 PUSH2 0x692 JUMP JUMPDEST PUSH1 0x40 MLOAD PUSH2 0x236 SWAP2 SWAP1 PUSH2 0x1392 JUMP JUMPDEST PUSH1 0x40 MLOAD DUP1 SWAP2 SUB SWAP1 RETURN JUMPDEST CALLVALUE DUP1 ISZERO PUSH2 0x24B JUMPI PUSH1 0x0 DUP1 REVERT JUMPDEST POP PUSH2 0x25F PUSH2 0x25A CALLDATASIZE PUSH1 0x4 PUSH2 0x13FC JUMP JUMPDEST PUSH2 0x724 JUMP JUMPDEST PUSH1 0x40 MLOAD SWAP1 ISZERO ISZERO DUP2 MSTORE PUSH1 0x20 ADD PUSH2 0x236 JUMP JUMPDEST CALLVALUE DUP1 ISZERO PUSH2 0x27B JUMPI PUSH1 0x0 DUP1 REVERT JUMPDEST POP PUSH2 0x29C PUSH2 0x28A CALLDATASIZE PUSH1 0x4 PUSH2 0x1428 JUMP JUMPDEST PUSH1 0x7 PUSH1 0x20 MSTORE PUSH1 0x0 SWAP1 DUP2 MSTORE PUSH1 0x40 SWAP1 KECCAK256 SLOAD DUP2 JUMP JUMPDEST PUSH1 0x40 MLOAD SWAP1 DUP2 MSTORE PUSH1 0x20 ADD PUSH2 0x236 JUMP JUMPDEST CALLVALUE DUP1 ISZERO PUSH2 0x2B6 JUMPI PUSH1 0x0 DUP1 REVERT JUMPDEST POP PUSH1 0x2 SLOAD PUSH2 0x29C JUMP JUMPDEST CALLVALUE DUP1 ISZERO PUSH2 0x2CB JUMPI PUSH1 0x0 DUP1 REVERT JUMPDEST POP PUSH1 0x8 SLOAD PUSH2 0x2DF SWAP1 PUSH1 0x1 PUSH1 0x1 PUSH1 0xA0 SHL SUB AND DUP2 JUMP JUMPDEST PUSH1 0x40 MLOAD PUSH1 0x1 PUSH1 0x1 PUSH1 0xA0 SHL SUB SWAP1 SWAP2 AND DUP2 MSTORE PUSH1 0x20 ADD PUSH2 0x236 JUMP JUMPDEST CALLVALUE DUP1 ISZERO PUSH2 0x303 JUMPI PUSH1 0x0 DUP1 REVERT JUMPDEST POP PUSH1 0xE SLOAD PUSH2 0x2DF SWAP1 PUSH1 0x1 PUSH1 0x1 PUSH1 0xA0 SHL SUB AND DUP2 JUMP JUMPDEST CALLVALUE DUP1 ISZERO PUSH2 0x323 JUMPI PUSH1 0x0 DUP1 REVERT JUMPDEST POP PUSH2 0x25F PUSH2 0x332 CALLDATASIZE PUSH1 0x4 PUSH2 0x144C JUMP JUMPDEST PUSH2 0x73E JUMP JUMPDEST CALLVALUE DUP1 ISZERO PUSH2 0x343 JUMPI PUSH1 0x0 DUP1 REVERT JUMPDEST POP PUSH2 0x29C PUSH1 0xF SLOAD DUP2 JUMP JUMPDEST CALLVALUE DUP1 ISZERO PUSH2 0x359 JUMPI PUSH1 0x0 DUP1 REVERT JUMPDEST POP PUSH1 0x40 MLOAD PUSH1 0x12 DUP2 MSTORE PUSH1 0x20 ADD PUSH2 0x236 JUMP JUMPDEST CALLVALUE DUP1 ISZERO PUSH2 0x375 JUMPI PUSH1 0x0 DUP1 REVERT JUMPDEST POP ADDRESS PUSH2 0x2DF JUMP JUMPDEST CALLVALUE DUP1 ISZERO PUSH2 0x388 JUMPI PUSH1 0x0 DUP1 REVERT JUMPDEST POP PUSH2 0x25F PUSH2 0x397 CALLDATASIZE PUSH1 0x4 PUSH2 0x13FC JUMP JUMPDEST PUSH2 0x762 JUMP JUMPDEST CALLVALUE DUP1 ISZERO PUSH2 0x3A8 JUMPI PUSH1 0x0 DUP1 REVERT JUMPDEST POP PUSH2 0x29C PUSH1 0x11 SLOAD DUP2 JUMP JUMPDEST CALLVALUE DUP1 ISZERO PUSH2 0x3BE JUMPI PUSH1 0x0 DUP1 REVERT JUMPDEST POP PUSH1 0xA SLOAD PUSH2 0x2DF SWAP1 PUSH1 0x1 PUSH1 0x1 PUSH1 0xA0 SHL SUB AND DUP2 JUMP JUMPDEST CALLVALUE DUP1 ISZERO PUSH2 0x3DE JUMPI PUSH1 0x0 DUP1 REVERT JUMPDEST POP PUSH1 0x9 SLOAD PUSH2 0x2DF SWAP1 PUSH1 0x1 PUSH1 0x1 PUSH1 0xA0 SHL SUB AND DUP2 JUMP JUMPDEST CALLVALUE DUP1 ISZERO PUSH2 0x3FE JUMPI PUSH1 0x0 DUP1 REVERT JUMPDEST POP PUSH1 0xD SLOAD PUSH2 0x2DF SWAP1 PUSH1 0x1 PUSH1 0x1 PUSH1 0xA0 SHL SUB AND DUP2 JUMP JUMPDEST CALLVALUE DUP1 ISZERO PUSH2 0x41E JUMPI PUSH1 0x0 DUP1 REVERT JUMPDEST POP TIMESTAMP PUSH2 0x29C JUMP JUMPDEST CALLVALUE DUP1 ISZERO PUSH2 0x431 JUMPI PUSH1 0x0 DUP1 REVERT JUMPDEST POP PUSH2 0x29C PUSH1 0x10 SLOAD DUP2 JUMP JUMPDEST CALLVALUE DUP1 ISZERO PUSH2 0x447 JUMPI PUSH1 0x0 DUP1 REVERT JUMPDEST POP PUSH2 0x29C PUSH2 0x456 CALLDATASIZE PUSH1 0x4 PUSH2 0x1428 JUMP JUMPDEST PUSH1 0x1 PUSH1 0x1 PUSH1 0xA0 SHL SUB AND PUSH1 0x0 SWAP1 DUP2 MSTORE PUSH1 0x20 DUP2 SWAP1 MSTORE PUSH1 0x40 SWAP1 KECCAK256 SLOAD SWAP1 JUMP JUMPDEST CALLVALUE DUP1 ISZERO PUSH2 0x47D JUMPI PUSH1 0x0 DUP1 REVERT JUMPDEST POP PUSH2 0x486 PUSH2 0x7A1 JUMP JUMPDEST STOP JUMPDEST CALLVALUE DUP1 ISZERO PUSH2 0x494 JUMPI PUSH1 0x0 DUP1 REVERT JUMPDEST POP PUSH2 0x486 PUSH2 0x4A3 CALLDATASIZE PUSH1 0x4 PUSH2 0x1428 JUMP JUMPDEST PUSH2 0x7E0 JUMP JUMPDEST CALLVALUE DUP1 ISZERO PUSH2 0x4B4 JUMPI PUSH1 0x0 DUP1 REVERT JUMPDEST POP PUSH2 0x486 PUSH2 0x82E JUMP JUMPDEST CALLVALUE DUP1 ISZERO PUSH2 0x4C9 JUMPI PUSH1 0x0 DUP1 REVERT JUMPDEST POP PUSH1 0x5 SLOAD PUSH1 0x1 PUSH1 0x1 PUSH1 0xA0 SHL SUB AND PUSH2 0x2DF JUMP JUMPDEST CALLVALUE DUP1 ISZERO PUSH2 0x4E7 JUMPI PUSH1 0x0 DUP1 REVERT JUMPDEST POP PUSH1 0xB SLOAD PUSH2 0x2DF SWAP1 PUSH1 0x1 PUSH1 0x1 PUSH1 0xA0 SHL SUB AND DUP2 JUMP JUMPDEST CALLVALUE DUP1 ISZERO PUSH2 0x507 JUMPI PUSH1 0x0 DUP1 REVERT JUMPDEST POP PUSH2 0x229 PUSH2 0x865 JUMP JUMPDEST CALLVALUE DUP1 ISZERO PUSH2 0x51C JUMPI PUSH1 0x0 DUP1 REVERT JUMPDEST POP PUSH2 0x25F PUSH2 0x52B CALLDATASIZE PUSH1 0x4 PUSH2 0x13FC JUMP JUMPDEST PUSH2 0x874 JUMP JUMPDEST CALLVALUE DUP1 ISZERO PUSH2 0x53C JUMPI PUSH1 0x0 DUP1 REVERT JUMPDEST POP PUSH2 0x25F PUSH2 0x54B CALLDATASIZE PUSH1 0x4 PUSH2 0x13FC JUMP JUMPDEST PUSH2 0x906 JUMP JUMPDEST CALLVALUE DUP1 ISZERO PUSH2 0x55C JUMPI PUSH1 0x0 DUP1 REVERT JUMPDEST POP PUSH2 0x486 PUSH2 0x56B CALLDATASIZE PUSH1 0x4 PUSH2 0x1428 JUMP JUMPDEST PUSH2 0xBA3 JUMP JUMPDEST CALLVALUE DUP1 ISZERO PUSH2 0x57C JUMPI PUSH1 0x0 DUP1 REVERT JUMPDEST POP PUSH1 0x14 SLOAD PUSH2 0x2DF SWAP1 PUSH1 0x1 PUSH1 0x1 PUSH1 0xA0 SHL SUB AND DUP2 JUMP JUMPDEST CALLVALUE DUP1 ISZERO PUSH2 0x59C JUMPI PUSH1 0x0 DUP1 REVERT JUMPDEST POP PUSH1 0xC SLOAD PUSH2 0x2DF SWAP1 PUSH1 0x1 PUSH1 0x1 PUSH1 0xA0 SHL SUB AND DUP2 JUMP JUMPDEST CALLVALUE DUP1 ISZERO PUSH2 0x5BC JUMPI PUSH1 0x0 DUP1 REVERT JUMPDEST POP PUSH2 0x29C PUSH1 0x12 SLOAD DUP2 JUMP JUMPDEST CALLVALUE DUP1 ISZERO PUSH2 0x5D2 JUMPI PUSH1 0x0 DUP1 REVERT JUMPDEST POP PUSH2 0x25F PUSH2 0x5E1 CALLDATASIZE PUSH1 0x4 PUSH2 0x1428 JUMP JUMPDEST PUSH1 0x6 PUSH1 0x20 MSTORE PUSH1 0x0 SWAP1 DUP2 MSTORE PUSH1 0x40 SWAP1 KECCAK256 SLOAD PUSH1 0xFF AND DUP2 JUMP JUMPDEST CALLVALUE DUP1 ISZERO PUSH2 0x602 JUMPI PUSH1 0x0 DUP1 REVERT JUMPDEST POP PUSH2 0x29C PUSH2 0x611 CALLDATASIZE PUSH1 0x4 PUSH2 0x148D JUMP JUMPDEST PUSH1 0x1 PUSH1 0x1 PUSH1 0xA0 SHL SUB SWAP2 DUP3 AND PUSH1 0x0 SWAP1 DUP2 MSTORE PUSH1 0x1 PUSH1 0x20 SWAP1 DUP2 MSTORE PUSH1 0x40 DUP1 DUP4 KECCAK256 SWAP4 SWAP1 SWAP5 AND DUP3 MSTORE SWAP2 SWAP1 SWAP2 MSTORE KECCAK256 SLOAD SWAP1 JUMP JUMPDEST CALLVALUE DUP1 ISZERO PUSH2 0x648 JUMPI PUSH1 0x0 DUP1 REVERT JUMPDEST POP PUSH2 0x486 PUSH2 0x657 CALLDATASIZE PUSH1 0x4 PUSH2 0x1428 JUMP JUMPDEST PUSH2 0xBEE JUMP JUMPDEST CALLVALUE DUP1 ISZERO PUSH2 0x668 JUMPI PUSH1 0x0 DUP1 REVERT JUMPDEST POP PUSH2 0x486 PUSH2 0x677 CALLDATASIZE PUSH1 0x4 PUSH2 0x14C6 JUMP JUMPDEST PUSH2 0xC86 JUMP JUMPDEST CALLVALUE DUP1 ISZERO PUSH2 0x688 JUMPI PUSH1 0x0 DUP1 REVERT JUMPDEST POP PUSH2 0x29C PUSH1 0x15 SLOAD DUP2 JUMP JUMPDEST PUSH1 0x60 PUSH1 0x3 DUP1 SLOAD PUSH2 0x6A1 SWAP1 PUSH2 0x14DF JUMP JUMPDEST DUP1 PUSH1 0x1F ADD PUSH1 0x20 DUP1 SWAP2 DIV MUL PUSH1 0x20 ADD PUSH1 0x40 MLOAD SWAP1 DUP2 ADD PUSH1 0x40 MSTORE DUP1 SWAP3 SWAP2 SWAP1 DUP2 DUP2 MSTORE PUSH1 0x20 ADD DUP3 DUP1 SLOAD PUSH2 0x6CD SWAP1 PUSH2 0x14DF JUMP JUMPDEST DUP1 ISZERO PUSH2 0x71A JUMPI DUP1 PUSH1 0x1F LT PUSH2 0x6EF JUMPI PUSH2 0x100 DUP1 DUP4 SLOAD DIV MUL DUP4 MSTORE SWAP2 PUSH1 0x20 ADD SWAP2 PUSH2 0x71A JUMP JUMPDEST DUP3 ADD SWAP2 SWAP1 PUSH1 0x0 MSTORE PUSH1 0x20 PUSH1 0x0 KECCAK256 SWAP1 JUMPDEST DUP2 SLOAD DUP2 MSTORE SWAP1 PUSH1 0x1 ADD SWAP1 PUSH1 0x20 ADD DUP1 DUP4 GT PUSH2 0x6FD JUMPI DUP3 SWAP1 SUB PUSH1 0x1F AND DUP3 ADD SWAP2 JUMPDEST POP POP POP POP POP SWAP1 POP SWAP1 JUMP JUMPDEST PUSH1 0x0 CALLER PUSH2 0x732 DUP2 DUP6 DUP6 PUSH2 0xCBA JUMP JUMPDEST PUSH1 0x1 SWAP2 POP POP JUMPDEST SWAP3 SWAP2 POP POP JUMP JUMPDEST PUSH1 0x0 CALLER PUSH2 0x74C DUP6 DUP3 DUP6 PUSH2 0xDDE JUMP JUMPDEST PUSH2 0x757 DUP6 DUP6 DUP6 PUSH2 0xE70 JUMP JUMPDEST POP PUSH1 0x1 SWAP5 SWAP4 POP POP POP POP JUMP JUMPDEST CALLER PUSH1 0x0 DUP2 DUP2 MSTORE PUSH1 0x1 PUSH1 0x20 SWAP1 DUP2 MSTORE PUSH1 0x40 DUP1 DUP4 KECCAK256 PUSH1 0x1 PUSH1 0x1 PUSH1 0xA0 SHL SUB DUP8 AND DUP5 MSTORE SWAP1 SWAP2 MSTORE DUP2 KECCAK256 SLOAD SWAP1 SWAP2 SWAP1 PUSH2 0x732 SWAP1 DUP3 SWAP1 DUP7 SWAP1 PUSH2 0x79C SWAP1 DUP8 SWAP1 PUSH2 0x1530 JUMP JUMPDEST PUSH2 0xCBA JUMP JUMPDEST PUSH1 0x5 SLOAD PUSH1 0x1 PUSH1 0x1 PUSH1 0xA0 SHL SUB AND CALLER EQ PUSH2 0x7D4 JUMPI PUSH1 0x40 MLOAD PUSH3 0x461BCD PUSH1 0xE5 SHL DUP2 MSTORE PUSH1 0x4 ADD PUSH2 0x7CB SWAP1 PUSH2 0x1548 JUMP JUMPDEST PUSH1 0x40 MLOAD DUP1 SWAP2 SUB SWAP1 REVERT JUMPDEST PUSH2 0x7DE PUSH1 0x0 PUSH2 0x1044 JUMP JUMPDEST JUMP JUMPDEST PUSH1 0x5 SLOAD PUSH1 0x1 PUSH1 0x1 PUSH1 0xA0 SHL SUB AND CALLER EQ PUSH2 0x80A JUMPI PUSH1 0x40 MLOAD PUSH3 0x461BCD PUSH1 0xE5 SHL DUP2 MSTORE PUSH1 0x4 ADD PUSH2 0x7CB SWAP1 PUSH2 0x1548 JUMP JUMPDEST PUSH1 0x1 PUSH1 0x1 PUSH1 0xA0 SHL SUB AND PUSH1 0x0 SWAP1 DUP2 MSTORE PUSH1 0x6 PUSH1 0x20 MSTORE PUSH1 0x40 SWAP1 KECCAK256 DUP1 SLOAD PUSH1 0xFF NOT AND PUSH1 0x1 OR SWAP1 SSTORE JUMP JUMPDEST PUSH1 0x5 SLOAD PUSH1 0x1 PUSH1 0x1 PUSH1 0xA0 SHL SUB AND CALLER EQ PUSH2 0x858 JUMPI PUSH1 0x40 MLOAD PUSH3 0x461BCD PUSH1 0xE5 SHL DUP2 MSTORE PUSH1 0x4 ADD PUSH2 0x7CB SWAP1 PUSH2 0x1548 JUMP JUMPDEST SELFBALANCE PUSH2 0x862 DUP2 PUSH2 0x1096 JUMP JUMPDEST POP JUMP JUMPDEST PUSH1 0x60 PUSH1 0x4 DUP1 SLOAD PUSH2 0x6A1 SWAP1 PUSH2 0x14DF JUMP JUMPDEST CALLER PUSH1 0x0 DUP2 DUP2 MSTORE PUSH1 0x1 PUSH1 0x20 SWAP1 DUP2 MSTORE PUSH1 0x40 DUP1 DUP4 KECCAK256 PUSH1 0x1 PUSH1 0x1 PUSH1 0xA0 SHL SUB DUP8 AND DUP5 MSTORE SWAP1 SWAP2 MSTORE DUP2 KECCAK256 SLOAD SWAP1 SWAP2 SWAP1 DUP4 DUP2 LT ISZERO PUSH2 0x8F9 JUMPI PUSH1 0x40 MLOAD PUSH3 0x461BCD PUSH1 0xE5 SHL DUP2 MSTORE PUSH1 0x20 PUSH1 0x4 DUP3 ADD MSTORE PUSH1 0x25 PUSH1 0x24 DUP3 ADD MSTORE PUSH32 0x45524332303A2064656372656173656420616C6C6F77616E63652062656C6F77 PUSH1 0x44 DUP3 ADD MSTORE PUSH5 0x207A65726F PUSH1 0xD8 SHL PUSH1 0x64 DUP3 ADD MSTORE PUSH1 0x84 ADD PUSH2 0x7CB JUMP JUMPDEST PUSH2 0x757 DUP3 DUP7 DUP7 DUP5 SUB PUSH2 0xCBA JUMP JUMPDEST PUSH1 0x14 SLOAD PUSH1 0x0 SWAP1 PUSH1 0x1 PUSH1 0x1 PUSH1 0xA0 SHL SUB AND CALLER PUSH1 0x1 PUSH1 0x1 PUSH1 0xA0 SHL SUB AND EQ DUP1 ISZERO PUSH2 0x93C JUMPI POP CALLER PUSH1 0x0 SWAP1 DUP2 MSTORE PUSH1 0x6 PUSH1 0x20 MSTORE PUSH1 0x40 SWAP1 KECCAK256 SLOAD PUSH1 0xFF AND ISZERO JUMPDEST DUP1 ISZERO PUSH2 0x961 JUMPI POP PUSH1 0x1 PUSH1 0x1 PUSH1 0xA0 SHL SUB DUP4 AND PUSH1 0x0 SWAP1 DUP2 MSTORE PUSH1 0x6 PUSH1 0x20 MSTORE PUSH1 0x40 SWAP1 KECCAK256 SLOAD PUSH1 0xFF AND ISZERO JUMPDEST ISZERO PUSH2 0xA2F JUMPI PUSH1 0xA6 PUSH2 0x971 PUSH1 0x2 SLOAD SWAP1 JUMP JUMPDEST PUSH2 0x97B SWAP2 SWAP1 PUSH2 0x157D JUMP JUMPDEST DUP3 PUSH2 0x99B DUP6 PUSH1 0x1 PUSH1 0x1 PUSH1 0xA0 SHL SUB AND PUSH1 0x0 SWAP1 DUP2 MSTORE PUSH1 0x20 DUP2 SWAP1 MSTORE PUSH1 0x40 SWAP1 KECCAK256 SLOAD SWAP1 JUMP JUMPDEST PUSH2 0x9A5 SWAP2 SWAP1 PUSH2 0x1530 JUMP JUMPDEST LT PUSH2 0xA2F JUMPI PUSH1 0x40 MLOAD PUSH3 0x461BCD PUSH1 0xE5 SHL DUP2 MSTORE PUSH1 0x20 PUSH1 0x4 DUP3 ADD MSTORE PUSH1 0x4E PUSH1 0x24 DUP3 ADD MSTORE PUSH32 0x596F752063616E27742068617665206D6F7265207468616E203225206F662074 PUSH1 0x44 DUP3 ADD MSTORE PUSH32 0x686520746F74616C204348455320737570706C7920616674657220612050616E PUSH1 0x64 DUP3 ADD MSTORE PUSH14 0x31B0B5B2A9BBB0B81039BBB0B817 PUSH1 0x91 SHL PUSH1 0x84 DUP3 ADD MSTORE PUSH1 0xA4 ADD PUSH2 0x7CB JUMP JUMPDEST CALLER PUSH1 0x0 SWAP1 DUP2 MSTORE PUSH1 0x6 PUSH1 0x20 MSTORE PUSH1 0x40 SWAP1 KECCAK256 SLOAD PUSH1 0xFF AND DUP1 PUSH2 0xA65 JUMPI POP PUSH1 0x1 PUSH1 0x1 PUSH1 0xA0 SHL SUB DUP4 AND PUSH1 0x0 SWAP1 DUP2 MSTORE PUSH1 0x6 PUSH1 0x20 MSTORE PUSH1 0x40 SWAP1 KECCAK256 SLOAD PUSH1 0xFF AND JUMPDEST ISZERO PUSH2 0xA7D JUMPI PUSH2 0xA75 CALLER DUP5 DUP5 PUSH2 0xE70 JUMP JUMPDEST POP PUSH1 0x1 PUSH2 0x738 JUMP JUMPDEST PUSH1 0x0 PUSH1 0x64 PUSH1 0x10 SLOAD DUP5 PUSH2 0xA8F SWAP2 SWAP1 PUSH2 0x159F JUMP JUMPDEST PUSH2 0xA99 SWAP2 SWAP1 PUSH2 0x157D JUMP JUMPDEST SWAP1 POP PUSH1 0x0 PUSH1 0x64 PUSH1 0x12 SLOAD DUP6 PUSH2 0xAAD SWAP2 SWAP1 PUSH2 0x159F JUMP JUMPDEST PUSH2 0xAB7 SWAP2 SWAP1 PUSH2 0x157D JUMP JUMPDEST SWAP1 POP PUSH1 0x0 PUSH1 0x64 PUSH1 0x11 SLOAD DUP7 PUSH2 0xACB SWAP2 SWAP1 PUSH2 0x159F JUMP JUMPDEST PUSH2 0xAD5 SWAP2 SWAP1 PUSH2 0x157D JUMP JUMPDEST SWAP1 POP PUSH1 0x0 DUP2 PUSH2 0xAE4 DUP5 DUP7 PUSH2 0x1530 JUMP JUMPDEST PUSH2 0xAEE SWAP2 SWAP1 PUSH2 0x1530 JUMP JUMPDEST SWAP1 POP PUSH2 0xAFB CALLER ADDRESS DUP4 PUSH2 0xE70 JUMP JUMPDEST ADDRESS PUSH1 0x0 SWAP1 DUP2 MSTORE PUSH1 0x20 DUP2 SWAP1 MSTORE PUSH1 0x40 SWAP1 KECCAK256 SLOAD PUSH1 0x14 SLOAD PUSH1 0x1 PUSH1 0x1 PUSH1 0xA0 SHL SUB AND CALLER EQ DUP1 ISZERO SWAP1 PUSH2 0xB26 JUMPI POP PUSH1 0x0 DUP2 GT JUMPDEST ISZERO PUSH2 0xB7B JUMPI DUP1 ISZERO PUSH2 0xB69 JUMPI PUSH1 0x15 SLOAD PUSH1 0x14 SLOAD PUSH1 0x1 PUSH1 0x1 PUSH1 0xA0 SHL SUB AND PUSH1 0x0 SWAP1 DUP2 MSTORE PUSH1 0x20 DUP2 SWAP1 MSTORE PUSH1 0x40 SWAP1 KECCAK256 SLOAD PUSH2 0xB59 SWAP2 SWAP1 PUSH2 0x157D JUMP JUMPDEST DUP2 GT ISZERO PUSH2 0xB69 JUMPI PUSH2 0xB69 DUP2 PUSH2 0x11B4 JUMP JUMPDEST SELFBALANCE DUP1 ISZERO PUSH2 0xB79 JUMPI PUSH2 0xB79 SELFBALANCE PUSH2 0x1096 JUMP JUMPDEST POP JUMPDEST PUSH1 0x0 PUSH2 0xB87 DUP4 DUP10 PUSH2 0x15BE JUMP JUMPDEST SWAP1 POP PUSH2 0xB94 CALLER DUP11 DUP4 PUSH2 0xE70 JUMP JUMPDEST POP PUSH1 0x1 SWAP9 SWAP8 POP POP POP POP POP POP POP POP JUMP JUMPDEST PUSH1 0x5 SLOAD PUSH1 0x1 PUSH1 0x1 PUSH1 0xA0 SHL SUB AND CALLER EQ PUSH2 0xBCD JUMPI PUSH1 0x40 MLOAD PUSH3 0x461BCD PUSH1 0xE5 SHL DUP2 MSTORE PUSH1 0x4 ADD PUSH2 0x7CB SWAP1 PUSH2 0x1548 JUMP JUMPDEST PUSH1 0x1 PUSH1 0x1 PUSH1 0xA0 SHL SUB AND PUSH1 0x0 SWAP1 DUP2 MSTORE PUSH1 0x6 PUSH1 0x20 MSTORE PUSH1 0x40 SWAP1 KECCAK256 DUP1 SLOAD PUSH1 0xFF NOT AND SWAP1 SSTORE JUMP JUMPDEST PUSH1 0x5 SLOAD PUSH1 0x1 PUSH1 0x1 PUSH1 0xA0 SHL SUB AND CALLER EQ PUSH2 0xC18 JUMPI PUSH1 0x40 MLOAD PUSH3 0x461BCD PUSH1 0xE5 SHL DUP2 MSTORE PUSH1 0x4 ADD PUSH2 0x7CB SWAP1 PUSH2 0x1548 JUMP JUMPDEST PUSH1 0x1 PUSH1 0x1 PUSH1 0xA0 SHL SUB DUP2 AND PUSH2 0xC7D JUMPI PUSH1 0x40 MLOAD PUSH3 0x461BCD PUSH1 0xE5 SHL DUP2 MSTORE PUSH1 0x20 PUSH1 0x4 DUP3 ADD MSTORE PUSH1 0x26 PUSH1 0x24 DUP3 ADD MSTORE PUSH32 0x4F776E61626C653A206E6577206F776E657220697320746865207A65726F2061 PUSH1 0x44 DUP3 ADD MSTORE PUSH6 0x646472657373 PUSH1 0xD0 SHL PUSH1 0x64 DUP3 ADD MSTORE PUSH1 0x84 ADD PUSH2 0x7CB JUMP JUMPDEST PUSH2 0x862 DUP2 PUSH2 0x1044 JUMP JUMPDEST PUSH1 0x5 SLOAD PUSH1 0x1 PUSH1 0x1 PUSH1 0xA0 SHL SUB AND CALLER EQ PUSH2 0xCB0 JUMPI PUSH1 0x40 MLOAD PUSH3 0x461BCD PUSH1 0xE5 SHL DUP2 MSTORE PUSH1 0x4 ADD PUSH2 0x7CB SWAP1 PUSH2 0x1548 JUMP JUMPDEST PUSH1 0x15 SSTORE JUMP JUMPDEST POP POP POP JUMP JUMPDEST PUSH1 0x1 PUSH1 0x1 PUSH1 0xA0 SHL SUB DUP4 AND PUSH2 0xD1C JUMPI PUSH1 0x40 MLOAD PUSH3 0x461BCD PUSH1 0xE5 SHL DUP2 MSTORE PUSH1 0x20 PUSH1 0x4 DUP3 ADD MSTORE PUSH1 0x24 DUP1 DUP3 ADD MSTORE PUSH32 0x45524332303A20617070726F76652066726F6D20746865207A65726F20616464 PUSH1 0x44 DUP3 ADD MSTORE PUSH4 0x72657373 PUSH1 0xE0 SHL PUSH1 0x64 DUP3 ADD MSTORE PUSH1 0x84 ADD PUSH2 0x7CB JUMP JUMPDEST PUSH1 0x1 PUSH1 0x1 PUSH1 0xA0 SHL SUB DUP3 AND PUSH2 0xD7D JUMPI PUSH1 0x40 MLOAD PUSH3 0x461BCD PUSH1 0xE5 SHL DUP2 MSTORE PUSH1 0x20 PUSH1 0x4 DUP3 ADD MSTORE PUSH1 0x22 PUSH1 0x24 DUP3 ADD MSTORE PUSH32 0x45524332303A20617070726F766520746F20746865207A65726F206164647265 PUSH1 0x44 DUP3 ADD MSTORE PUSH2 0x7373 PUSH1 0xF0 SHL PUSH1 0x64 DUP3 ADD MSTORE PUSH1 0x84 ADD PUSH2 0x7CB JUMP JUMPDEST PUSH1 0x1 PUSH1 0x1 PUSH1 0xA0 SHL SUB DUP4 DUP2 AND PUSH1 0x0 DUP2 DUP2 MSTORE PUSH1 0x1 PUSH1 0x20 SWAP1 DUP2 MSTORE PUSH1 0x40 DUP1 DUP4 KECCAK256 SWAP5 DUP8 AND DUP1 DUP5 MSTORE SWAP5 DUP3 MSTORE SWAP2 DUP3 SWAP1 KECCAK256 DUP6 SWAP1 SSTORE SWAP1 MLOAD DUP5 DUP2 MSTORE PUSH32 0x8C5BE1E5EBEC7D5BD14F71427D1E84F3DD0314C0F7B2291E5B200AC8C7C3B925 SWAP2 ADD PUSH1 0x40 MLOAD DUP1 SWAP2 SUB SWAP1 LOG3 POP POP POP JUMP JUMPDEST PUSH1 0x1 PUSH1 0x1 PUSH1 0xA0 SHL SUB DUP4 DUP2 AND PUSH1 0x0 SWAP1 DUP2 MSTORE PUSH1 0x1 PUSH1 0x20 SWAP1 DUP2 MSTORE PUSH1 0x40 DUP1 DUP4 KECCAK256 SWAP4 DUP7 AND DUP4 MSTORE SWAP3 SWAP1 MSTORE KECCAK256 SLOAD PUSH1 0x0 NOT DUP2 EQ PUSH2 0xE6A JUMPI DUP2 DUP2 LT ISZERO PUSH2 0xE5D JUMPI PUSH1 0x40 MLOAD PUSH3 0x461BCD PUSH1 0xE5 SHL DUP2 MSTORE PUSH1 0x20 PUSH1 0x4 DUP3 ADD MSTORE PUSH1 0x1D PUSH1 0x24 DUP3 ADD MSTORE PUSH32 0x45524332303A20696E73756666696369656E7420616C6C6F77616E6365000000 PUSH1 0x44 DUP3 ADD MSTORE PUSH1 0x64 ADD PUSH2 0x7CB JUMP JUMPDEST PUSH2 0xE6A DUP5 DUP5 DUP5 DUP5 SUB PUSH2 0xCBA JUMP JUMPDEST POP POP POP POP JUMP JUMPDEST PUSH1 0x1 PUSH1 0x1 PUSH1 0xA0 SHL SUB DUP4 AND PUSH2 0xED4 JUMPI PUSH1 0x40 MLOAD PUSH3 0x461BCD PUSH1 0xE5 SHL DUP2 MSTORE PUSH1 0x20 PUSH1 0x4 DUP3 ADD MSTORE PUSH1 0x25 PUSH1 0x24 DUP3 ADD MSTORE PUSH32 0x45524332303A207472616E736665722066726F6D20746865207A65726F206164 PUSH1 0x44 DUP3 ADD MSTORE PUSH5 0x6472657373 PUSH1 0xD8 SHL PUSH1 0x64 DUP3 ADD MSTORE PUSH1 0x84 ADD PUSH2 0x7CB JUMP JUMPDEST PUSH1 0x1 PUSH1 0x1 PUSH1 0xA0 SHL SUB DUP3 AND PUSH2 0xF36 JUMPI PUSH1 0x40 MLOAD PUSH3 0x461BCD PUSH1 0xE5 SHL DUP2 MSTORE PUSH1 0x20 PUSH1 0x4 DUP3 ADD MSTORE PUSH1 0x23 PUSH1 0x24 DUP3 ADD MSTORE PUSH32 0x45524332303A207472616E7366657220746F20746865207A65726F2061646472 PUSH1 0x44 DUP3 ADD MSTORE PUSH3 0x657373 PUSH1 0xE8 SHL PUSH1 0x64 DUP3 ADD MSTORE PUSH1 0x84 ADD PUSH2 0x7CB JUMP JUMPDEST PUSH1 0x1 PUSH1 0x1 PUSH1 0xA0 SHL SUB DUP4 AND PUSH1 0x0 SWAP1 DUP2 MSTORE PUSH1 0x20 DUP2 SWAP1 MSTORE PUSH1 0x40 SWAP1 KECCAK256 SLOAD DUP2 DUP2 LT ISZERO PUSH2 0xFAE JUMPI PUSH1 0x40 MLOAD PUSH3 0x461BCD PUSH1 0xE5 SHL DUP2 MSTORE PUSH1 0x20 PUSH1 0x4 DUP3 ADD MSTORE PUSH1 0x26 PUSH1 0x24 DUP3 ADD MSTORE PUSH32 0x45524332303A207472616E7366657220616D6F756E7420657863656564732062 PUSH1 0x44 DUP3 ADD MSTORE PUSH6 0x616C616E6365 PUSH1 0xD0 SHL PUSH1 0x64 DUP3 ADD MSTORE PUSH1 0x84 ADD PUSH2 0x7CB JUMP JUMPDEST PUSH1 0x1 PUSH1 0x1 PUSH1 0xA0 SHL SUB DUP1 DUP6 AND PUSH1 0x0 SWAP1 DUP2 MSTORE PUSH1 0x20 DUP2 SWAP1 MSTORE PUSH1 0x40 DUP1 DUP3 KECCAK256 DUP6 DUP6 SUB SWAP1 SSTORE SWAP2 DUP6 AND DUP2 MSTORE SWAP1 DUP2 KECCAK256 DUP1 SLOAD DUP5 SWAP3 SWAP1 PUSH2 0xFE5 SWAP1 DUP5 SWAP1 PUSH2 0x1530 JUMP JUMPDEST SWAP3 POP POP DUP2 SWAP1 SSTORE POP DUP3 PUSH1 0x1 PUSH1 0x1 PUSH1 0xA0 SHL SUB AND DUP5 PUSH1 0x1 PUSH1 0x1 PUSH1 0xA0 SHL SUB AND PUSH32 0xDDF252AD1BE2C89B69C2B068FC378DAA952BA7F163C4A11628F55A4DF523B3EF DUP5 PUSH1 0x40 MLOAD PUSH2 0x1031 SWAP2 DUP2 MSTORE PUSH1 0x20 ADD SWAP1 JUMP JUMPDEST PUSH1 0x40 MLOAD DUP1 SWAP2 SUB SWAP1 LOG3 PUSH2 0xE6A DUP5 DUP5 DUP5 PUSH2 0x131D JUMP JUMPDEST PUSH1 0x5 DUP1 SLOAD PUSH1 0x1 PUSH1 0x1 PUSH1 0xA0 SHL SUB DUP4 DUP2 AND PUSH1 0x1 PUSH1 0x1 PUSH1 0xA0 SHL SUB NOT DUP4 AND DUP2 OR SWAP1 SWAP4 SSTORE PUSH1 0x40 MLOAD SWAP2 AND SWAP2 SWAP1 DUP3 SWAP1 PUSH32 0x8BE0079C531659141344CD1FD0A4F28419497F9722A3DAAFE3B4186F6B6457E0 SWAP1 PUSH1 0x0 SWAP1 LOG3 POP POP JUMP JUMPDEST PUSH1 0x0 PUSH1 0x11 SLOAD PUSH1 0x12 SLOAD PUSH1 0x10 SLOAD PUSH2 0x10AB SWAP2 SWAP1 PUSH2 0x1530 JUMP JUMPDEST PUSH2 0x10B5 SWAP2 SWAP1 PUSH2 0x1530 JUMP JUMPDEST PUSH1 0xA SLOAD PUSH1 0x10 SLOAD SWAP2 SWAP3 POP PUSH1 0x1 PUSH1 0x1 PUSH1 0xA0 SHL SUB AND SWAP1 PUSH2 0x8FC SWAP1 DUP4 SWAP1 PUSH2 0x10D8 SWAP1 DUP7 PUSH2 0x159F JUMP JUMPDEST PUSH2 0x10E2 SWAP2 SWAP1 PUSH2 0x157D JUMP JUMPDEST PUSH1 0x40 MLOAD DUP2 ISZERO SWAP1 SWAP3 MUL SWAP2 PUSH1 0x0 DUP2 DUP2 DUP2 DUP6 DUP9 DUP9 CALL SWAP4 POP POP POP POP ISZERO DUP1 ISZERO PUSH2 0x110A JUMPI RETURNDATASIZE PUSH1 0x0 DUP1 RETURNDATACOPY RETURNDATASIZE PUSH1 0x0 REVERT JUMPDEST POP PUSH1 0xC SLOAD PUSH1 0x12 SLOAD PUSH1 0x1 PUSH1 0x1 PUSH1 0xA0 SHL SUB SWAP1 SWAP2 AND SWAP1 PUSH2 0x8FC SWAP1 DUP4 SWAP1 PUSH2 0x112D SWAP1 DUP7 PUSH2 0x159F JUMP JUMPDEST PUSH2 0x1137 SWAP2 SWAP1 PUSH2 0x157D JUMP JUMPDEST PUSH1 0x40 MLOAD DUP2 ISZERO SWAP1 SWAP3 MUL SWAP2 PUSH1 0x0 DUP2 DUP2 DUP2 DUP6 DUP9 DUP9 CALL SWAP4 POP POP POP POP ISZERO DUP1 ISZERO PUSH2 0x115F JUMPI RETURNDATASIZE PUSH1 0x0 DUP1 RETURNDATACOPY RETURNDATASIZE PUSH1 0x0 REVERT JUMPDEST POP PUSH1 0xD SLOAD PUSH1 0x11 SLOAD PUSH1 0x1 PUSH1 0x1 PUSH1 0xA0 SHL SUB SWAP1 SWAP2 AND SWAP1 PUSH2 0x8FC SWAP1 DUP4 SWAP1 PUSH2 0x1182 SWAP1 DUP7 PUSH2 0x159F JUMP JUMPDEST PUSH2 0x118C SWAP2 SWAP1 PUSH2 0x157D JUMP JUMPDEST PUSH1 0x40 MLOAD DUP2 ISZERO SWAP1 SWAP3 MUL SWAP2 PUSH1 0x0 DUP2 DUP2 DUP2 DUP6 DUP9 DUP9 CALL SWAP4 POP POP POP POP ISZERO DUP1 ISZERO PUSH2 0xCB5 JUMPI RETURNDATASIZE PUSH1 0x0 DUP1 RETURNDATACOPY RETURNDATASIZE PUSH1 0x0 REVERT JUMPDEST PUSH1 0x40 DUP1 MLOAD PUSH1 0x2 DUP1 DUP3 MSTORE PUSH1 0x60 DUP3 ADD DUP4 MSTORE PUSH1 0x0 SWAP3 PUSH1 0x20 DUP4 ADD SWAP1 DUP1 CALLDATASIZE DUP4 CALLDATACOPY ADD SWAP1 POP POP SWAP1 POP ADDRESS DUP2 PUSH1 0x0 DUP2 MLOAD DUP2 LT PUSH2 0x11E9 JUMPI PUSH2 0x11E9 PUSH2 0x15D5 JUMP JUMPDEST PUSH1 0x1 PUSH1 0x1 PUSH1 0xA0 SHL SUB SWAP3 DUP4 AND PUSH1 0x20 SWAP2 DUP3 MUL SWAP3 SWAP1 SWAP3 ADD DUP2 ADD SWAP2 SWAP1 SWAP2 MSTORE PUSH1 0x13 SLOAD PUSH1 0x40 DUP1 MLOAD PUSH4 0x15AB88C9 PUSH1 0xE3 SHL DUP2 MSTORE SWAP1 MLOAD SWAP2 SWAP1 SWAP4 AND SWAP3 PUSH4 0xAD5C4648 SWAP3 PUSH1 0x4 DUP1 DUP4 ADD SWAP4 SWAP2 SWAP3 DUP3 SWAP1 SUB ADD DUP2 DUP7 DUP1 EXTCODESIZE ISZERO DUP1 ISZERO PUSH2 0x123D JUMPI PUSH1 0x0 DUP1 REVERT JUMPDEST POP GAS STATICCALL ISZERO DUP1 ISZERO PUSH2 0x1251 JUMPI RETURNDATASIZE PUSH1 0x0 DUP1 RETURNDATACOPY RETURNDATASIZE PUSH1 0x0 REVERT JUMPDEST POP POP POP POP PUSH1 0x40 MLOAD RETURNDATASIZE PUSH1 0x1F NOT PUSH1 0x1F DUP3 ADD AND DUP3 ADD DUP1 PUSH1 0x40 MSTORE POP DUP2 ADD SWAP1 PUSH2 0x1275 SWAP2 SWAP1 PUSH2 0x15EB JUMP JUMPDEST DUP2 PUSH1 0x1 DUP2 MLOAD DUP2 LT PUSH2 0x1288 JUMPI PUSH2 0x1288 PUSH2 0x15D5 JUMP JUMPDEST PUSH1 0x1 PUSH1 0x1 PUSH1 0xA0 SHL SUB SWAP3 DUP4 AND PUSH1 0x20 SWAP2 DUP3 MUL SWAP3 SWAP1 SWAP3 ADD ADD MSTORE PUSH1 0x13 SLOAD PUSH2 0x12AE SWAP2 ADDRESS SWAP2 AND DUP5 PUSH2 0xCBA JUMP JUMPDEST PUSH1 0x13 SLOAD PUSH1 0x40 MLOAD PUSH4 0x791AC947 PUSH1 0xE0 SHL DUP2 MSTORE PUSH1 0x1 PUSH1 0x1 PUSH1 0xA0 SHL SUB SWAP1 SWAP2 AND SWAP1 PUSH4 0x791AC947 SWAP1 PUSH2 0x12E7 SWAP1 DUP6 SWAP1 PUSH1 0x0 SWAP1 DUP7 SWAP1 ADDRESS SWAP1 TIMESTAMP SWAP1 PUSH1 0x4 ADD PUSH2 0x1608 JUMP JUMPDEST PUSH1 0x0 PUSH1 0x40 MLOAD DUP1 DUP4 SUB DUP2 PUSH1 0x0 DUP8 DUP1 EXTCODESIZE ISZERO DUP1 ISZERO PUSH2 0x1301 JUMPI PUSH1 0x0 DUP1 REVERT JUMPDEST POP GAS CALL ISZERO DUP1 ISZERO PUSH2 0x1315 JUMPI RETURNDATASIZE PUSH1 0x0 DUP1 RETURNDATACOPY RETURNDATASIZE PUSH1 0x0 REVERT JUMPDEST POP POP POP POP POP POP JUMP JUMPDEST PUSH1 0x1 PUSH1 0x1 PUSH1 0xA0 SHL SUB DUP3 AND PUSH1 0x0 SWAP1 DUP2 MSTORE PUSH1 0x20 DUP2 DUP2 MSTORE PUSH1 0x40 DUP1 DUP4 KECCAK256 SLOAD PUSH1 0x7 SWAP1 SWAP3 MSTORE SWAP1 SWAP2 KECCAK256 SLOAD DUP2 SWAP1 PUSH2 0x134C DUP5 DUP4 PUSH2 0x15BE JUMP JUMPDEST PUSH2 0x1356 SWAP2 SWAP1 PUSH2 0x159F JUMP JUMPDEST PUSH2 0x1360 TIMESTAMP DUP6 PUSH2 0x159F JUMP JUMPDEST PUSH2 0x136A SWAP2 SWAP1 PUSH2 0x1530 JUMP JUMPDEST PUSH2 0x1374 SWAP2 SWAP1 PUSH2 0x157D JUMP JUMPDEST PUSH1 0x1 PUSH1 0x1 PUSH1 0xA0 SHL SUB DUP5 AND PUSH1 0x0 SWAP1 DUP2 MSTORE PUSH1 0x7 PUSH1 0x20 MSTORE PUSH1 0x40 SWAP1 KECCAK256 SSTORE PUSH2 0xE6A JUMP JUMPDEST PUSH1 0x0 PUSH1 0x20 DUP1 DUP4 MSTORE DUP4 MLOAD DUP1 DUP3 DUP6 ADD MSTORE PUSH1 0x0 JUMPDEST DUP2 DUP2 LT ISZERO PUSH2 0x13BF JUMPI DUP6 DUP2 ADD DUP4 ADD MLOAD DUP6 DUP3 ADD PUSH1 0x40 ADD MSTORE DUP3 ADD PUSH2 0x13A3 JUMP JUMPDEST DUP2 DUP2 GT ISZERO PUSH2 0x13D1 JUMPI PUSH1 0x0 PUSH1 0x40 DUP4 DUP8 ADD ADD MSTORE JUMPDEST POP PUSH1 0x1F ADD PUSH1 0x1F NOT AND SWAP3 SWAP1 SWAP3 ADD PUSH1 0x40 ADD SWAP4 SWAP3 POP POP POP JUMP JUMPDEST PUSH1 0x1 PUSH1 0x1 PUSH1 0xA0 SHL SUB DUP2 AND DUP2 EQ PUSH2 0x862 JUMPI PUSH1 0x0 DUP1 REVERT JUMPDEST PUSH1 0x0 DUP1 PUSH1 0x40 DUP4 DUP6 SUB SLT ISZERO PUSH2 0x140F JUMPI PUSH1 0x0 DUP1 REVERT JUMPDEST DUP3 CALLDATALOAD PUSH2 0x141A DUP2 PUSH2 0x13E7 JUMP JUMPDEST SWAP5 PUSH1 0x20 SWAP4 SWAP1 SWAP4 ADD CALLDATALOAD SWAP4 POP POP POP JUMP JUMPDEST PUSH1 0x0 PUSH1 0x20 DUP3 DUP5 SUB SLT ISZERO PUSH2 0x143A JUMPI PUSH1 0x0 DUP1 REVERT JUMPDEST DUP2 CALLDATALOAD PUSH2 0x1445 DUP2 PUSH2 0x13E7 JUMP JUMPDEST SWAP4 SWAP3 POP POP POP JUMP JUMPDEST PUSH1 0x0 DUP1 PUSH1 0x0 PUSH1 0x60 DUP5 DUP7 SUB SLT ISZERO PUSH2 0x1461 JUMPI PUSH1 0x0 DUP1 REVERT JUMPDEST DUP4 CALLDATALOAD PUSH2 0x146C DUP2 PUSH2 0x13E7 JUMP JUMPDEST SWAP3 POP PUSH1 0x20 DUP5 ADD CALLDATALOAD PUSH2 0x147C DUP2 PUSH2 0x13E7 JUMP JUMPDEST SWAP3 SWAP6 SWAP3 SWAP5 POP POP POP PUSH1 0x40 SWAP2 SWAP1 SWAP2 ADD CALLDATALOAD SWAP1 JUMP JUMPDEST PUSH1 0x0 DUP1 PUSH1 0x40 DUP4 DUP6 SUB SLT ISZERO PUSH2 0x14A0 JUMPI PUSH1 0x0 DUP1 REVERT JUMPDEST DUP3 CALLDATALOAD PUSH2 0x14AB DUP2 PUSH2 0x13E7 JUMP JUMPDEST SWAP2 POP PUSH1 0x20 DUP4 ADD CALLDATALOAD PUSH2 0x14BB DUP2 PUSH2 0x13E7 JUMP JUMPDEST DUP1 SWAP2 POP POP SWAP3 POP SWAP3 SWAP1 POP JUMP JUMPDEST PUSH1 0x0 PUSH1 0x20 DUP3 DUP5 SUB SLT ISZERO PUSH2 0x14D8 JUMPI PUSH1 0x0 DUP1 REVERT JUMPDEST POP CALLDATALOAD SWAP2 SWAP1 POP JUMP JUMPDEST PUSH1 0x1 DUP2 DUP2 SHR SWAP1 DUP3 AND DUP1 PUSH2 0x14F3 JUMPI PUSH1 0x7F DUP3 AND SWAP2 POP JUMPDEST PUSH1 0x20 DUP3 LT DUP2 EQ ISZERO PUSH2 0x1514 JUMPI PUSH4 0x4E487B71 PUSH1 0xE0 SHL PUSH1 0x0 MSTORE PUSH1 0x22 PUSH1 0x4 MSTORE PUSH1 0x24 PUSH1 0x0 REVERT JUMPDEST POP SWAP2 SWAP1 POP JUMP JUMPDEST PUSH4 0x4E487B71 PUSH1 0xE0 SHL PUSH1 0x0 MSTORE PUSH1 0x11 PUSH1 0x4 MSTORE PUSH1 0x24 PUSH1 0x0 REVERT JUMPDEST PUSH1 0x0 DUP3 NOT DUP3 GT ISZERO PUSH2 0x1543 JUMPI PUSH2 0x1543 PUSH2 0x151A JUMP JUMPDEST POP ADD SWAP1 JUMP JUMPDEST PUSH1 0x20 DUP1 DUP3 MSTORE DUP2 DUP2 ADD MSTORE PUSH32 0x4F776E61626C653A2063616C6C6572206973206E6F7420746865206F776E6572 PUSH1 0x40 DUP3 ADD MSTORE PUSH1 0x60 ADD SWAP1 JUMP JUMPDEST PUSH1 0x0 DUP3 PUSH2 0x159A JUMPI PUSH4 0x4E487B71 PUSH1 0xE0 SHL PUSH1 0x0 MSTORE PUSH1 0x12 PUSH1 0x4 MSTORE PUSH1 0x24 PUSH1 0x0 REVERT JUMPDEST POP DIV SWAP1 JUMP JUMPDEST PUSH1 0x0 DUP2 PUSH1 0x0 NOT DIV DUP4 GT DUP3 ISZERO ISZERO AND ISZERO PUSH2 0x15B9 JUMPI PUSH2 0x15B9 PUSH2 0x151A JUMP JUMPDEST POP MUL SWAP1 JUMP JUMPDEST PUSH1 0x0 DUP3 DUP3 LT ISZERO PUSH2 0x15D0 JUMPI PUSH2 0x15D0 PUSH2 0x151A JUMP JUMPDEST POP SUB SWAP1 JUMP JUMPDEST PUSH4 0x4E487B71 PUSH1 0xE0 SHL PUSH1 0x0 MSTORE PUSH1 0x32 PUSH1 0x4 MSTORE PUSH1 0x24 PUSH1 0x0 REVERT JUMPDEST PUSH1 0x0 PUSH1 0x20 DUP3 DUP5 SUB SLT ISZERO PUSH2 0x15FD JUMPI PUSH1 0x0 DUP1 REVERT JUMPDEST DUP2 MLOAD PUSH2 0x1445 DUP2 PUSH2 0x13E7 JUMP JUMPDEST PUSH1 0x0 PUSH1 0xA0 DUP3 ADD DUP8 DUP4 MSTORE PUSH1 0x20 DUP8 DUP2 DUP6 ADD MSTORE PUSH1 0xA0 PUSH1 0x40 DUP6 ADD MSTORE DUP2 DUP8 MLOAD DUP1 DUP5 MSTORE PUSH1 0xC0 DUP7 ADD SWAP2 POP DUP3 DUP10 ADD SWAP4 POP PUSH1 0x0 JUMPDEST DUP2 DUP2 LT ISZERO PUSH2 0x1658 JUMPI DUP5 MLOAD PUSH1 0x1 PUSH1 0x1 PUSH1 0xA0 SHL SUB AND DUP4 MSTORE SWAP4 DUP4 ADD SWAP4 SWAP2 DUP4 ADD SWAP2 PUSH1 0x1 ADD PUSH2 0x1633 JUMP JUMPDEST POP POP PUSH1 0x1 PUSH1 0x1 PUSH1 0xA0 SHL SUB SWAP7 SWAP1 SWAP7 AND PUSH1 0x60 DUP6 ADD MSTORE POP POP POP PUSH1 0x80 ADD MSTORE SWAP4 SWAP3 POP POP POP JUMP INVALID LOG2 PUSH5 0x6970667358 0x22 SLT KECCAK256 ADD 0xD4 0xFC 0x25 DIFFICULTY EXP DUP9 0xBF 0xE0 0xE7 XOR DUP1 PUSH3 0xEB6EFB DUP6 0xB5 DUP2 0xD3 0xC2 BLOCKHASH AND PUSH6 0xFB12863E95D8 0xA6 0x4B PUSH5 0x736F6C6343 STOP ADDMOD ADDMOD STOP CALLER ",
  "sha1": "6fff9447dcf8f18c79044353a690c92b93cb3bd0",
  "source": "// SPDX-License-Identifier: MIT\n \npragma solidity >=0.8.0 <0.9.0;\n \nimport \"@openzeppelin/contracts/token/ERC20/ERC20.sol\";\nimport \"@openzeppelin/contracts/access/Ownable.sol\";\nimport \"../interfaces/Uniswap.sol\";\n\n/**\n * @title Chain Estate DAO Token (V1)\n * @dev Main contract for Chain Estate DAO\n * TODO - Limit how many tokens users can purchase from PancakeSwap\n * TODO - Will possibly create the BNB to CHES token PankcakeSwap pair in the constructor.\n */\ncontract ChainEstateTokenV1 is ERC20, Ownable {\n\n    // Mapping to exclude some contracts from fees. Transfers are excluded from fees if address in this mapping is recipient or sender.\n    mapping (address => bool) public excludedFromFees;\n\n    // Mapping to determine the timestamp of each address' investment. Earlier average investment = better air drop rewards.\n    mapping (address => uint256) public airDropInvestTime;\n\n    // Address of the contract responsible for the air dropping mechanism.\n    address public airDropContractAddress;\n\n    // Address of the contract for burning CHES tokens.\n    address public burnWalletAddress;\n\n    // Real estate wallet address used to collect funds to purchase real estate.\n    address payable public realEstateWalletAddress;\n\n    // Liquidity wallet address used to hold the 30% of CHES tokens for the liquidity pool.\n    // After these coins are moved to the DEX, this address will no longer be used.\n    address public liquidityWalletAddress;\n\n    // Marketing wallet address used for funding marketing.\n    address payable public marketingWalletAddress;\n\n    // Developer wallet address used for funding the team.\n    address payable public developerWalletAddress;\n\n    // The PancakeSwap router address for swapping CHES tokens for WBNB.\n    address public uniswapRouterAddress;\n\n    // The initial block timestamp of the token contract.\n    uint256 public initialTimeStamp;\n\n    // Real estate transaction fee - deployed at 3%.\n    uint256 public realEstateTransactionFeePercent = 3;\n\n    // Developer team transaction fee - deployed at 1%.\n    uint256 public developerFeePercent = 1;\n\n    // Marketing transaction fee - deployed at 1%.\n    uint256 public marketingFeePercent = 1;\n\n    // PancakeSwap router interface.\n    IUniswapV2Router02 private uniswapRouter;\n\n    // Address of the WBNB to CHES token pair on PancakeSwap.\n    address public uniswapPair;\n\n    // Determines how many CHES tokens this contract needs before it swaps for WBNB to pay fee wallets.\n    uint256 public contractCHESDivisor = 1000;\n\n    // Initial token distribution:\n    // 35% - Air drop contract\n    // 30% - Liquidity pool (6 month lockup period)\n    // 20% - Burn\n    // 10% - Developer coins (6 month lockup period)\n    // 5% - Marketing\n    constructor(\n        uint256 initialSupply, \n        address _airDropContractAddress, \n        address _burnWalletAddress,\n        address _liquidityWalletAddress,\n        address payable _realEstateWalletAddress,\n        address payable _marketingWalletAddress,\n        address payable _developerWalletAddress,\n        address _uniswapRouterAddress) ERC20(\"ChainEstateToken\", \"CHES\") {\n            initialTimeStamp = block.timestamp;\n            airDropContractAddress = _airDropContractAddress;\n            realEstateWalletAddress = _realEstateWalletAddress;\n            burnWalletAddress = _burnWalletAddress;\n            liquidityWalletAddress = _liquidityWalletAddress;\n            marketingWalletAddress = _marketingWalletAddress;\n            developerWalletAddress = _developerWalletAddress;\n            uniswapRouterAddress = _uniswapRouterAddress;\n\n            excludedFromFees[realEstateWalletAddress] = true;\n            excludedFromFees[developerWalletAddress] = true;\n            excludedFromFees[marketingWalletAddress] = true;\n            excludedFromFees[liquidityWalletAddress] = true;\n            excludedFromFees[airDropContractAddress] = true;    // No transaction fees for claiming air drop rewards\n\n            _mint(airDropContractAddress, (initialSupply) * 35 / 100);\n            _mint(liquidityWalletAddress, (initialSupply) * 3 / 10);\n            _mint(burnWalletAddress, initialSupply / 5);\n            _mint(marketingWalletAddress, initialSupply * 5 / 100);\n            _mint(developerWalletAddress, initialSupply / 10);\n\n            IUniswapV2Router02 _uniswapV2Router = IUniswapV2Router02(uniswapRouterAddress);\n            uniswapRouter = _uniswapV2Router;\n            _approve(address(this), address(uniswapRouter), initialSupply);\n            uniswapPair = IUniswapV2Factory(_uniswapV2Router.factory()).createPair(address(this), _uniswapV2Router.WETH());\n            IERC20(uniswapPair).approve(address(uniswapRouter), type(uint256).max);\n    }\n\n    /**\n     * @dev Returns the contract address\n     * @return contract address\n     */\n    function getContractAddress() public view returns (address){\n        return address(this);\n    }\n\n    /**\n    * @dev Adds a user to be excluded from fees.\n    * @param user address of the user to be excluded from fees.\n     */\n    function excludeUserFromFees(address user) public onlyOwner {\n        excludedFromFees[user] = true;\n    }\n\n    /**\n    * @dev Gets the current timestamp, used for testing + verification\n    * @return the the timestamp of the current block\n     */\n    function getCurrentTimestamp() public view returns (uint256) {\n        return block.timestamp;\n    }\n\n    /**\n    * @dev Removes a user from the fee exclusion.\n    * @param user address of the user than will now have to pay transaction fees.\n     */\n    function includeUsersInFees(address user) public onlyOwner {\n        excludedFromFees[user] = false;\n    }\n\n    /**\n     * @dev Overrides the BEP20 transfer function to include transaction fees.\n     * @param recipient the recipient of the transfer\n     * @param amount the amount to be transfered\n     * @return bool representing if the transfer was successful\n     */\n    function transfer(address recipient, uint256 amount) public override returns (bool) {\n        // Stops investors from owning more than 2% of the total supply from purchasing CHES from PancakeSwap.\n        if (_msgSender() == uniswapPair && !excludedFromFees[_msgSender()] && !excludedFromFees[recipient]) {\n            require((balanceOf(recipient) + amount) < (totalSupply() / 166), \"You can't have more than 2% of the total CHES supply after a PancakeSwap swap.\");\n        }\n\n        // If the sender or recipient is excluded from fees, perform the default transfer.\n        if (excludedFromFees[_msgSender()] || excludedFromFees[recipient]) {\n            _transfer(_msgSender(), recipient, amount);\n            return true;\n        }\n\n        // Real estate transaction fee.\n        uint256 realEstateFee = (amount * realEstateTransactionFeePercent) / 100;\n        // Marketing team transaction fee.\n        uint256 marketingFee = (amount * marketingFeePercent) / 100;\n        // Developer team transaction fee.\n        uint256 developerFee = (amount * developerFeePercent) / 100;\n\n        // The total fee to send to the contract address.\n        uint256 totalFee = realEstateFee + marketingFee + developerFee;\n \n        // Sends the transaction fees to the contract address\n        _transfer(_msgSender(), address(this), totalFee);\n\n        uint256 contractCHESBalance = balanceOf(address(this));\n\n        if (_msgSender() != uniswapPair && contractCHESBalance > 0) {\n            if (contractCHESBalance > 0) {\n                if (contractCHESBalance > balanceOf(uniswapPair) / contractCHESDivisor) {\n                    swapCHESForBNB(contractCHESBalance);\n                }\n                \n            }\n            uint256 contractBNBBalance = address(this).balance;\n            if (contractBNBBalance > 0) {\n                sendFeesToWallets(address(this).balance);\n            }\n        }\n \n        // Sends [initial amount] - [fees] to the recipient\n        uint256 valueAfterFees = amount - totalFee;\n        _transfer(_msgSender(), recipient, valueAfterFees);\n        return true;\n    }\n\n    /**\n     * @dev Swaps CHES tokens from transaction fees to BNB.\n     * @param amount the amount of CHES tokens to swap\n     */\n    function swapCHESForBNB(uint256 amount) private {\n        address[] memory path = new address[](2);\n        path[0] = address(this);\n        path[1] = uniswapRouter.WETH();\n        _approve(address(this), address(uniswapRouter), amount);\n        uniswapRouter.swapExactTokensForETHSupportingFeeOnTransferTokens(\n            amount,\n            0,\n            path,\n            address(this),\n            block.timestamp\n        );\n    }\n\n    /**\n     * @dev Sends BNB to transaction fee wallets after CHES swaps.\n     * @param amount the amount to be transfered\n     */\n    function sendFeesToWallets(uint256 amount) private {\n        uint256 totalFee = realEstateTransactionFeePercent + marketingFeePercent + developerFeePercent;\n        realEstateWalletAddress.transfer((amount * realEstateTransactionFeePercent) / totalFee);\n        marketingWalletAddress.transfer((amount * marketingFeePercent) / totalFee);\n        developerWalletAddress.transfer((amount * developerFeePercent) / totalFee);\n    }\n\n    /**\n     * @dev Sends BNB to transaction fee wallets manually as opposed to happening automatically after a certain level of volume\n     */\n    function disperseFeesManually() public onlyOwner {\n        uint256 contractETHBalance = address(this).balance;\n        sendFeesToWallets(contractETHBalance);\n    }\n\n    receive() external payable {}\n\n    /**\n     * @dev Sets the value that determines how many CHES tokens need to be in the contract before it's swapped for BNB.\n     * @param newDivisor the new divisor value to determine the swap threshold\n     */\n    function setContractCHESDivisor(uint256 newDivisor) public onlyOwner {\n        contractCHESDivisor = newDivisor;\n    }\n\n    /**\n     * @dev After a token transfer, update the recipient address's air drop invest time since they have a later investment now.\n     * @param from the sender's address\n     * @param to the recipient's address\n     * @param value the amount that was transferred\n     */\n    function _afterTokenTransfer(address from, address to, uint256 value) internal virtual override {\n        uint256 userBalance = balanceOf(to);\n        airDropInvestTime[to] = (value * block.timestamp + (userBalance - value) * airDropInvestTime[to]) / userBalance;\n        super._afterTokenTransfer(from, to, value);\n    }\n}",
  "sourcePath": "contracts/ChainEstateTokenV1.sol",
  "type": "contract"
}