{
  "abi": [
    {
      "anonymous": false,
      "inputs": [
        {
          "indexed": true,
          "internalType": "address",
          "name": "previousOwner",
          "type": "address"
        },
        {
          "indexed": true,
          "internalType": "address",
          "name": "newOwner",
          "type": "address"
        }
      ],
      "name": "OwnershipTransferred",
      "type": "event"
    },
    {
      "inputs": [],
      "name": "CHES",
      "outputs": [
        {
          "internalType": "contract ChainEstateToken",
          "name": "",
          "type": "address"
        }
      ],
      "stateMutability": "view",
      "type": "function"
    },
    {
      "inputs": [],
      "name": "airDropActive",
      "outputs": [
        {
          "internalType": "bool",
          "name": "",
          "type": "bool"
        }
      ],
      "stateMutability": "view",
      "type": "function"
    },
    {
      "inputs": [],
      "name": "airDropInitialPercent",
      "outputs": [
        {
          "internalType": "uint256",
          "name": "",
          "type": "uint256"
        }
      ],
      "stateMutability": "view",
      "type": "function"
    },
    {
      "inputs": [],
      "name": "airDropMinimumToInvest",
      "outputs": [
        {
          "internalType": "uint256",
          "name": "",
          "type": "uint256"
        }
      ],
      "stateMutability": "view",
      "type": "function"
    },
    {
      "inputs": [
        {
          "internalType": "uint256",
          "name": "",
          "type": "uint256"
        }
      ],
      "name": "airDropUsers",
      "outputs": [
        {
          "internalType": "address",
          "name": "",
          "type": "address"
        }
      ],
      "stateMutability": "view",
      "type": "function"
    },
    {
      "inputs": [
        {
          "internalType": "uint256",
          "name": "amount",
          "type": "uint256"
        }
      ],
      "name": "changeAirDropInitialPercent",
      "outputs": [],
      "stateMutability": "nonpayable",
      "type": "function"
    },
    {
      "inputs": [
        {
          "internalType": "uint256",
          "name": "newMinimum",
          "type": "uint256"
        }
      ],
      "name": "changeAirDropMinimumToInvest",
      "outputs": [],
      "stateMutability": "nonpayable",
      "type": "function"
    },
    {
      "inputs": [
        {
          "internalType": "uint256",
          "name": "newMinimumTime",
          "type": "uint256"
        },
        {
          "internalType": "bool",
          "name": "convertToDays",
          "type": "bool"
        }
      ],
      "name": "changeMinimumInvestTime",
      "outputs": [],
      "stateMutability": "nonpayable",
      "type": "function"
    },
    {
      "inputs": [],
      "name": "claimAirDrop",
      "outputs": [],
      "stateMutability": "nonpayable",
      "type": "function"
    },
    {
      "inputs": [],
      "name": "closeAirDrop",
      "outputs": [],
      "stateMutability": "nonpayable",
      "type": "function"
    },
    {
      "inputs": [],
      "name": "getContractAddress",
      "outputs": [
        {
          "internalType": "address",
          "name": "",
          "type": "address"
        }
      ],
      "stateMutability": "view",
      "type": "function"
    },
    {
      "inputs": [],
      "name": "getTokenAddress",
      "outputs": [
        {
          "internalType": "address",
          "name": "",
          "type": "address"
        }
      ],
      "stateMutability": "view",
      "type": "function"
    },
    {
      "inputs": [],
      "name": "getUserBalance",
      "outputs": [
        {
          "internalType": "uint256",
          "name": "",
          "type": "uint256"
        }
      ],
      "stateMutability": "view",
      "type": "function"
    },
    {
      "inputs": [],
      "name": "minimumInvestTime",
      "outputs": [
        {
          "internalType": "uint256",
          "name": "",
          "type": "uint256"
        }
      ],
      "stateMutability": "view",
      "type": "function"
    },
    {
      "inputs": [],
      "name": "openAirDrop",
      "outputs": [],
      "stateMutability": "nonpayable",
      "type": "function"
    },
    {
      "inputs": [],
      "name": "owner",
      "outputs": [
        {
          "internalType": "address",
          "name": "",
          "type": "address"
        }
      ],
      "stateMutability": "view",
      "type": "function"
    },
    {
      "inputs": [],
      "name": "renounceOwnership",
      "outputs": [],
      "stateMutability": "nonpayable",
      "type": "function"
    },
    {
      "inputs": [
        {
          "internalType": "address",
          "name": "CHESTokenAddress",
          "type": "address"
        }
      ],
      "name": "setToken",
      "outputs": [],
      "stateMutability": "nonpayable",
      "type": "function"
    },
    {
      "inputs": [
        {
          "internalType": "address",
          "name": "newOwner",
          "type": "address"
        }
      ],
      "name": "transferOwnership",
      "outputs": [],
      "stateMutability": "nonpayable",
      "type": "function"
    },
    {
      "inputs": [
        {
          "internalType": "address",
          "name": "",
          "type": "address"
        }
      ],
      "name": "userClaimedAirDrop",
      "outputs": [
        {
          "internalType": "bool",
          "name": "",
          "type": "bool"
        }
      ],
      "stateMutability": "view",
      "type": "function"
    }
  ],
  "bytecode": "60806040526001805460ff60a01b1916905569021e19e0c9bab2400000600255600a60035562278d0060045534801561003757600080fd5b5061004133610046565b610096565b600080546001600160a01b038381166001600160a01b0319831681178455604051919092169283917f8be0079c531659141344cd1fd0a4f28419497f9722a3daafe3b4186f6b6457e09190a35050565b6114ef806100a56000396000f3fe608060405234801561001057600080fd5b506004361061012c5760003560e01c806368f04bbb116100ad578063dd75edf711610071578063dd75edf714610242578063de36f6a914610255578063e63b5c111461025e578063e65877a114610271578063f2fde38b1461027957600080fd5b806368f04bbb14610211578063715018a6146102195780638da5cb5b14610221578063a2976ae414610232578063b7013dc11461023a57600080fd5b806334f860cc116100f457806334f860cc146101a8578063431fe5ec146101bb5780634dccf2a2146101d257806353dc7e1b146101db5780635caafa49146101fe57600080fd5b806310fe9ae814610131578063144fa6d7146101565780633197d1371461016b57806332a2c5d01461017e578063342fdb5214610184575b600080fd5b61013961028c565b6040516001600160a01b0390911681526020015b60405180910390f35b610169610164366004611187565b6102ff565b005b6101696101793660046111ab565b610354565b30610139565b60015461019890600160a01b900460ff1681565b604051901515815260200161014d565b6101696101b63660046111d2565b610383565b6101c460025481565b60405190815260200161014d565b6101c460035481565b6101986101e9366004611187565b60056020526000908152604090205460ff1681565b61016961020c3660046111ab565b6103e1565b610169610410565b6101696104c8565b6000546001600160a01b0316610139565b6101696104fc565b6101c46105a2565b600154610139906001600160a01b031681565b6101c460045481565b61013961026c3660046111ab565b61060f565b610169610639565b610169610287366004611187565b610f4f565b6001546040805163032a2c5d60e41b815290516000926001600160a01b0316916332a2c5d09160048083019260209291908290030181865afa1580156102d6573d6000803e3d6000fd5b505050506040513d601f19601f820116820180604052508101906102fa9190611202565b905090565b6000546001600160a01b031633146103325760405162461bcd60e51b81526004016103299061121f565b60405180910390fd5b600180546001600160a01b0319166001600160a01b0392909216919091179055565b6000546001600160a01b0316331461037e5760405162461bcd60e51b81526004016103299061121f565b600255565b6000546001600160a01b031633146103ad5760405162461bcd60e51b81526004016103299061121f565b80156103db576103be82601861126a565b6103c990603c61126a565b6103d490603c61126a565b6004555050565b50600455565b6000546001600160a01b0316331461040b5760405162461bcd60e51b81526004016103299061121f565b600355565b6000546001600160a01b0316331461043a5760405162461bcd60e51b81526004016103299061121f565b6001805460ff60a01b1916600160a01b17905560005b6006548110156104b9576000600560006006848154811061047357610473611289565b6000918252602080832091909101546001600160a01b031683528201929092526040019020805460ff1916911515919091179055806104b18161129f565b915050610450565b506104c660066000611140565b565b6000546001600160a01b031633146104f25760405162461bcd60e51b81526004016103299061121f565b6104c66000610fea565b6000546001600160a01b031633146105265760405162461bcd60e51b81526004016103299061121f565b600154600160a01b900460ff166105935760405162461bcd60e51b815260206004820152602b60248201527f54686572652063757272656e746c792069736e277420616e206169722064726f60448201526a38103a379031b637b9b29760a91b6064820152608401610329565b6001805460ff60a01b19169055565b6001546040516370a0823160e01b81523360048201526000916001600160a01b0316906370a0823190602401602060405180830381865afa1580156105eb573d6000803e3d6000fd5b505050506040513d601f19601f820116820180604052508101906102fa91906112ba565b6006818154811061061f57600080fd5b6000918252602090912001546001600160a01b0316905081565b6002546001546040516370a0823160e01b8152336004820181905292916001600160a01b0316906370a0823190602401602060405180830381865afa158015610686573d6000803e3d6000fd5b505050506040513d601f19601f820116820180604052508101906106aa91906112ba565b10156107285760405162461bcd60e51b815260206004820152604160248201527f596f75206e65656420746f2068617665206d6f726520696e766573746564207460448201527f6f207265636569766520726577617264732066726f6d206169722064726f70736064820152602160f81b608482015260a401610329565b600154600160a01b900460ff166107dc5760405162461bcd60e51b815260206004820152606660248201527f546865206169722064726f70206973206e6f742063757272656e746c7920616360448201527f746976652e20596f752063616e20636c61696d20796f7572206169722064726f60648201527f702072657761726473207768656e20616e206169722064726f70206973206f6e60848201526533b7b4b7339760d11b60a482015260c401610329565b6001600160a01b03811660009081526005602052604090205460ff161561086b5760405162461bcd60e51b815260206004820152603760248201527f596f7527766520616c726561647920636c61696d656420796f7572207265776160448201527f7264732066726f6d2074686973206169722064726f70210000000000000000006064820152608401610329565b600154604051631497b01b60e01b81526001600160a01b0383811660048301526000921690631497b01b90602401602060405180830381865afa1580156108b6573d6000803e3d6000fd5b505050506040513d601f19601f820116820180604052508101906108da91906112ba565b1161093f5760405162461bcd60e51b815260206004820152602f60248201527f596f757220696e76657374696e672074696d65206e6565647320746f2062652060448201526e33b932b0ba32b9103a3430b710181760891b6064820152608401610329565b600160009054906101000a90046001600160a01b03166001600160a01b0316632fb47be46040518163ffffffff1660e01b8152600401602060405180830381865afa158015610992573d6000803e3d6000fd5b505050506040513d601f19601f820116820180604052508101906109b691906112ba565b600154604051631497b01b60e01b81526001600160a01b03848116600483015290911690631497b01b90602401602060405180830381865afa158015610a00573d6000803e3d6000fd5b505050506040513d601f19601f82011682018060405250810190610a2491906112ba565b11610ab65760405162461bcd60e51b815260206004820152605660248201527f596f757220696e76657374696e672074696d65206e6565647320746f2062652060448201527f67726561746572207468616e207468652074696d657374616d70206f66207468606482015275329031b7b73a3930b1ba103232b83637bcb6b2b73a1760511b608482015260a401610329565b600154604051631497b01b60e01b81526001600160a01b0383811660048301524292600092911690631497b01b90602401602060405180830381865afa158015610b04573d6000803e3d6000fd5b505050506040513d601f19601f82011682018060405250810190610b2891906112ba565b6040805180820190915260018152603160f81b6020820152600454919250908390610b5390846112d3565b10158015610b9c575060006018603c808660045487610b7291906112d3565b610b7c91906112eb565b610b869190611318565b610b909190611318565b610b9a9190611318565b115b15610be857610be56018603c808660045487610bb891906112d3565b610bc291906112eb565b610bcc9190611318565b610bd69190611318565b610be09190611318565b61103a565b90505b600454610bf590846112eb565b82111581604051602001610c09919061135c565b60405160208183030381529060405290610c365760405162461bcd60e51b8152600401610329919061143f565b506003546001546040516370a0823160e01b81526001600160a01b038781166004830152600093926064929116906370a0823190602401602060405180830381865afa158015610c8a573d6000803e3d6000fd5b505050506040513d601f19601f82011682018060405250810190610cae91906112ba565b610cb89190611318565b610cc2919061126a565b9050600084600160009054906101000a90046001600160a01b03166001600160a01b0316632fb47be46040518163ffffffff1660e01b8152600401602060405180830381865afa158015610d1a573d6000803e3d6000fd5b505050506040513d601f19601f82011682018060405250810190610d3e91906112ba565b610d4890876112eb565b86610d5387826112eb565b610d5d919061126a565b610d679190611318565b610d729060016112d3565b610d7c908461126a565b610d869190611318565b610d9090836112d3565b6001546040516370a0823160e01b815230600482015291925082916001600160a01b03909116906370a0823190602401602060405180830381865afa158015610ddd573d6000803e3d6000fd5b505050506040513d601f19601f82011682018060405250810190610e0191906112ba565b1015610e755760405162461bcd60e51b815260206004820152603b60248201527f4169722064726f7020646f65736e2774206861766520656e6f7567682066756e60448201527f647320666f722074686973206169722064726f7020636c61696d2e00000000006064820152608401610329565b6006805460018082019092557ff652222313e28459528d920b65115c16c04f3efc82aaedc97be59f3f377c0d3f0180546001600160a01b0319166001600160a01b0389811691821790925560008181526005602052604090819020805460ff1916851790559254925163a9059cbb60e01b815260048101919091526024810184905291169063a9059cbb906044016020604051808303816000875af1158015610f22573d6000803e3d6000fd5b505050506040513d601f19601f82011682018060405250810190610f469190611472565b50505050505050565b6000546001600160a01b03163314610f795760405162461bcd60e51b81526004016103299061121f565b6001600160a01b038116610fde5760405162461bcd60e51b815260206004820152602660248201527f4f776e61626c653a206e6577206f776e657220697320746865207a65726f206160448201526564647265737360d01b6064820152608401610329565b610fe781610fea565b50565b600080546001600160a01b038381166001600160a01b0319831681178455604051919092169283917f8be0079c531659141344cd1fd0a4f28419497f9722a3daafe3b4186f6b6457e09190a35050565b60608161105e5750506040805180820190915260018152600360fc1b602082015290565b8160005b811561108857806110728161129f565b91506110819050600a83611318565b9150611062565b60008167ffffffffffffffff8111156110a3576110a361148f565b6040519080825280601f01601f1916602001820160405280156110cd576020820181803683370190505b5090505b8415611138576110e26001836112eb565b91506110ef600a866114a5565b6110fa9060306112d3565b60f81b81838151811061110f5761110f611289565b60200101906001600160f81b031916908160001a905350611131600a86611318565b94506110d1565b949350505050565b5080546000825590600052602060002090810190610fe791905b8082111561116e576000815560010161115a565b5090565b6001600160a01b0381168114610fe757600080fd5b60006020828403121561119957600080fd5b81356111a481611172565b9392505050565b6000602082840312156111bd57600080fd5b5035919050565b8015158114610fe757600080fd5b600080604083850312156111e557600080fd5b8235915060208301356111f7816111c4565b809150509250929050565b60006020828403121561121457600080fd5b81516111a481611172565b6020808252818101527f4f776e61626c653a2063616c6c6572206973206e6f7420746865206f776e6572604082015260600190565b634e487b7160e01b600052601160045260246000fd5b600081600019048311821515161561128457611284611254565b500290565b634e487b7160e01b600052603260045260246000fd5b60006000198214156112b3576112b3611254565b5060010190565b6000602082840312156112cc57600080fd5b5051919050565b600082198211156112e6576112e6611254565b500190565b6000828210156112fd576112fd611254565b500390565b634e487b7160e01b600052601260045260246000fd5b60008261132757611327611302565b500490565b60005b8381101561134757818101518382015260200161132f565b83811115611356576000848401525b50505050565b7f546f6f206d616e79206f6620796f757220726563656e7420696e766573746d6581527f6e74732077657265206d61646520746f20636c6f736520746f2074686520616960208201527f722064726f702074696d652e20596f752063616e20636c61696d20796f75722060408201526a03932bbb0b932399034b7160ad1b6060820152600082516113f481606b85016020870161132c565b7f206461792873292e20546865206169722064726f702077696c6c207374696c6c606b9390910192830152506d1031329037b832b7103a3432b71760911b608b820152609901919050565b602081526000825180602084015261145e81604085016020870161132c565b601f01601f19169190910160400192915050565b60006020828403121561148457600080fd5b81516111a4816111c4565b634e487b7160e01b600052604160045260246000fd5b6000826114b4576114b4611302565b50069056fea2646970667358221220127caa553b904ca76c4a8d7f1ac60f73c3eface50d058ec53c9484a67e1d1c8264736f6c634300080b0033",
  "bytecodeSha1": "d7d067b5fb98a8f77326da25051ba01e7a261d24",
  "compiler": {
    "evm_version": "istanbul",
    "optimizer": {
      "enabled": true,
      "runs": 200
    },
    "version": "0.8.11+commit.d7f03943"
  },
  "contractName": "ChainEstateAirDrop",
  "language": "Solidity",
  "natspec": {
    "details": "Contract responsible for the Chain Estate air drop mechanism",
    "kind": "dev",
    "methods": {
      "changeAirDropInitialPercent(uint256)": {
        "details": "Only owner function to change the initial percentage gained from air drop rewards before invest time calculation.",
        "params": {
          "amount": "the new air drop initial percent reward (percent of user's current holdings)."
        }
      },
      "changeAirDropMinimumToInvest(uint256)": {
        "details": "Only owner function to change the minimum amount of CHES a user needs to have to participate in air drops.",
        "params": {
          "newMinimum": "the new minimum amount of CHES"
        }
      },
      "changeMinimumInvestTime(uint256,bool)": {
        "details": "Only owner function to change how long users need to hold their CHES tokens before being able to claim airdrop rewards.",
        "params": {
          "convertToDays": "boolean to determine if the number provided should be treated as a number of days (true) or seconds (false).",
          "newMinimumTime": "the new minimum amount of time users need to have held their CHES tokens for."
        }
      },
      "claimAirDrop()": {
        "details": "Allows a user to claim their air drop rewards. Sends 10% of user's current balance + more depending how long they have been holding their CHES."
      },
      "closeAirDrop()": {
        "details": "Only owner function to close the current airdrop. Airdrops by default are never closed, this is just here in case it's needed at some point."
      },
      "getContractAddress()": {
        "details": "Returns the contract address",
        "returns": {
          "_0": "contract address"
        }
      },
      "getTokenAddress()": {
        "details": "Returns the CHES token address",
        "returns": {
          "_0": "CHES token contract address"
        }
      },
      "getUserBalance()": {
        "details": "Gets the amount of CHES the sender owns.",
        "returns": {
          "_0": "the CHES balance of the sender"
        }
      },
      "openAirDrop()": {
        "details": "Only owner function to open the air drop so users can claim their rewards."
      },
      "owner()": {
        "details": "Returns the address of the current owner."
      },
      "renounceOwnership()": {
        "details": "Leaves the contract without owner. It will not be possible to call `onlyOwner` functions anymore. Can only be called by the current owner. NOTE: Renouncing ownership will leave the contract without an owner, thereby removing any functionality that is only available to the owner."
      },
      "setToken(address)": {
        "details": "Once the CHES token contract is deployed, this function is used to set a reference to that token in this contract.",
        "params": {
          "CHESTokenAddress": "address of the ChainEstate token."
        }
      },
      "transferOwnership(address)": {
        "details": "Transfers ownership of the contract to a new account (`newOwner`). Can only be called by the current owner."
      }
    },
    "title": "Chain Estate Air Drop",
    "version": 1
  },
  "opcodes": "PUSH1 0x80 PUSH1 0x40 MSTORE CALLVALUE DUP1 ISZERO PUSH2 0x10 JUMPI PUSH1 0x0 DUP1 REVERT JUMPDEST POP PUSH1 0x4 CALLDATASIZE LT PUSH2 0x12C JUMPI PUSH1 0x0 CALLDATALOAD PUSH1 0xE0 SHR DUP1 PUSH4 0x68F04BBB GT PUSH2 0xAD JUMPI DUP1 PUSH4 0xDD75EDF7 GT PUSH2 0x71 JUMPI DUP1 PUSH4 0xDD75EDF7 EQ PUSH2 0x242 JUMPI DUP1 PUSH4 0xDE36F6A9 EQ PUSH2 0x255 JUMPI DUP1 PUSH4 0xE63B5C11 EQ PUSH2 0x25E JUMPI DUP1 PUSH4 0xE65877A1 EQ PUSH2 0x271 JUMPI DUP1 PUSH4 0xF2FDE38B EQ PUSH2 0x279 JUMPI PUSH1 0x0 DUP1 REVERT JUMPDEST DUP1 PUSH4 0x68F04BBB EQ PUSH2 0x211 JUMPI DUP1 PUSH4 0x715018A6 EQ PUSH2 0x219 JUMPI DUP1 PUSH4 0x8DA5CB5B EQ PUSH2 0x221 JUMPI DUP1 PUSH4 0xA2976AE4 EQ PUSH2 0x232 JUMPI DUP1 PUSH4 0xB7013DC1 EQ PUSH2 0x23A JUMPI PUSH1 0x0 DUP1 REVERT JUMPDEST DUP1 PUSH4 0x34F860CC GT PUSH2 0xF4 JUMPI DUP1 PUSH4 0x34F860CC EQ PUSH2 0x1A8 JUMPI DUP1 PUSH4 0x431FE5EC EQ PUSH2 0x1BB JUMPI DUP1 PUSH4 0x4DCCF2A2 EQ PUSH2 0x1D2 JUMPI DUP1 PUSH4 0x53DC7E1B EQ PUSH2 0x1DB JUMPI DUP1 PUSH4 0x5CAAFA49 EQ PUSH2 0x1FE JUMPI PUSH1 0x0 DUP1 REVERT JUMPDEST DUP1 PUSH4 0x10FE9AE8 EQ PUSH2 0x131 JUMPI DUP1 PUSH4 0x144FA6D7 EQ PUSH2 0x156 JUMPI DUP1 PUSH4 0x3197D137 EQ PUSH2 0x16B JUMPI DUP1 PUSH4 0x32A2C5D0 EQ PUSH2 0x17E JUMPI DUP1 PUSH4 0x342FDB52 EQ PUSH2 0x184 JUMPI JUMPDEST PUSH1 0x0 DUP1 REVERT JUMPDEST PUSH2 0x139 PUSH2 0x28C JUMP JUMPDEST PUSH1 0x40 MLOAD PUSH1 0x1 PUSH1 0x1 PUSH1 0xA0 SHL SUB SWAP1 SWAP2 AND DUP2 MSTORE PUSH1 0x20 ADD JUMPDEST PUSH1 0x40 MLOAD DUP1 SWAP2 SUB SWAP1 RETURN JUMPDEST PUSH2 0x169 PUSH2 0x164 CALLDATASIZE PUSH1 0x4 PUSH2 0x1187 JUMP JUMPDEST PUSH2 0x2FF JUMP JUMPDEST STOP JUMPDEST PUSH2 0x169 PUSH2 0x179 CALLDATASIZE PUSH1 0x4 PUSH2 0x11AB JUMP JUMPDEST PUSH2 0x354 JUMP JUMPDEST ADDRESS PUSH2 0x139 JUMP JUMPDEST PUSH1 0x1 SLOAD PUSH2 0x198 SWAP1 PUSH1 0x1 PUSH1 0xA0 SHL SWAP1 DIV PUSH1 0xFF AND DUP2 JUMP JUMPDEST PUSH1 0x40 MLOAD SWAP1 ISZERO ISZERO DUP2 MSTORE PUSH1 0x20 ADD PUSH2 0x14D JUMP JUMPDEST PUSH2 0x169 PUSH2 0x1B6 CALLDATASIZE PUSH1 0x4 PUSH2 0x11D2 JUMP JUMPDEST PUSH2 0x383 JUMP JUMPDEST PUSH2 0x1C4 PUSH1 0x2 SLOAD DUP2 JUMP JUMPDEST PUSH1 0x40 MLOAD SWAP1 DUP2 MSTORE PUSH1 0x20 ADD PUSH2 0x14D JUMP JUMPDEST PUSH2 0x1C4 PUSH1 0x3 SLOAD DUP2 JUMP JUMPDEST PUSH2 0x198 PUSH2 0x1E9 CALLDATASIZE PUSH1 0x4 PUSH2 0x1187 JUMP JUMPDEST PUSH1 0x5 PUSH1 0x20 MSTORE PUSH1 0x0 SWAP1 DUP2 MSTORE PUSH1 0x40 SWAP1 KECCAK256 SLOAD PUSH1 0xFF AND DUP2 JUMP JUMPDEST PUSH2 0x169 PUSH2 0x20C CALLDATASIZE PUSH1 0x4 PUSH2 0x11AB JUMP JUMPDEST PUSH2 0x3E1 JUMP JUMPDEST PUSH2 0x169 PUSH2 0x410 JUMP JUMPDEST PUSH2 0x169 PUSH2 0x4C8 JUMP JUMPDEST PUSH1 0x0 SLOAD PUSH1 0x1 PUSH1 0x1 PUSH1 0xA0 SHL SUB AND PUSH2 0x139 JUMP JUMPDEST PUSH2 0x169 PUSH2 0x4FC JUMP JUMPDEST PUSH2 0x1C4 PUSH2 0x5A2 JUMP JUMPDEST PUSH1 0x1 SLOAD PUSH2 0x139 SWAP1 PUSH1 0x1 PUSH1 0x1 PUSH1 0xA0 SHL SUB AND DUP2 JUMP JUMPDEST PUSH2 0x1C4 PUSH1 0x4 SLOAD DUP2 JUMP JUMPDEST PUSH2 0x139 PUSH2 0x26C CALLDATASIZE PUSH1 0x4 PUSH2 0x11AB JUMP JUMPDEST PUSH2 0x60F JUMP JUMPDEST PUSH2 0x169 PUSH2 0x639 JUMP JUMPDEST PUSH2 0x169 PUSH2 0x287 CALLDATASIZE PUSH1 0x4 PUSH2 0x1187 JUMP JUMPDEST PUSH2 0xF4F JUMP JUMPDEST PUSH1 0x1 SLOAD PUSH1 0x40 DUP1 MLOAD PUSH4 0x32A2C5D PUSH1 0xE4 SHL DUP2 MSTORE SWAP1 MLOAD PUSH1 0x0 SWAP3 PUSH1 0x1 PUSH1 0x1 PUSH1 0xA0 SHL SUB AND SWAP2 PUSH4 0x32A2C5D0 SWAP2 PUSH1 0x4 DUP1 DUP4 ADD SWAP3 PUSH1 0x20 SWAP3 SWAP2 SWAP1 DUP3 SWAP1 SUB ADD DUP2 DUP7 GAS STATICCALL ISZERO DUP1 ISZERO PUSH2 0x2D6 JUMPI RETURNDATASIZE PUSH1 0x0 DUP1 RETURNDATACOPY RETURNDATASIZE PUSH1 0x0 REVERT JUMPDEST POP POP POP POP PUSH1 0x40 MLOAD RETURNDATASIZE PUSH1 0x1F NOT PUSH1 0x1F DUP3 ADD AND DUP3 ADD DUP1 PUSH1 0x40 MSTORE POP DUP2 ADD SWAP1 PUSH2 0x2FA SWAP2 SWAP1 PUSH2 0x1202 JUMP JUMPDEST SWAP1 POP SWAP1 JUMP JUMPDEST PUSH1 0x0 SLOAD PUSH1 0x1 PUSH1 0x1 PUSH1 0xA0 SHL SUB AND CALLER EQ PUSH2 0x332 JUMPI PUSH1 0x40 MLOAD PUSH3 0x461BCD PUSH1 0xE5 SHL DUP2 MSTORE PUSH1 0x4 ADD PUSH2 0x329 SWAP1 PUSH2 0x121F JUMP JUMPDEST PUSH1 0x40 MLOAD DUP1 SWAP2 SUB SWAP1 REVERT JUMPDEST PUSH1 0x1 DUP1 SLOAD PUSH1 0x1 PUSH1 0x1 PUSH1 0xA0 SHL SUB NOT AND PUSH1 0x1 PUSH1 0x1 PUSH1 0xA0 SHL SUB SWAP3 SWAP1 SWAP3 AND SWAP2 SWAP1 SWAP2 OR SWAP1 SSTORE JUMP JUMPDEST PUSH1 0x0 SLOAD PUSH1 0x1 PUSH1 0x1 PUSH1 0xA0 SHL SUB AND CALLER EQ PUSH2 0x37E JUMPI PUSH1 0x40 MLOAD PUSH3 0x461BCD PUSH1 0xE5 SHL DUP2 MSTORE PUSH1 0x4 ADD PUSH2 0x329 SWAP1 PUSH2 0x121F JUMP JUMPDEST PUSH1 0x2 SSTORE JUMP JUMPDEST PUSH1 0x0 SLOAD PUSH1 0x1 PUSH1 0x1 PUSH1 0xA0 SHL SUB AND CALLER EQ PUSH2 0x3AD JUMPI PUSH1 0x40 MLOAD PUSH3 0x461BCD PUSH1 0xE5 SHL DUP2 MSTORE PUSH1 0x4 ADD PUSH2 0x329 SWAP1 PUSH2 0x121F JUMP JUMPDEST DUP1 ISZERO PUSH2 0x3DB JUMPI PUSH2 0x3BE DUP3 PUSH1 0x18 PUSH2 0x126A JUMP JUMPDEST PUSH2 0x3C9 SWAP1 PUSH1 0x3C PUSH2 0x126A JUMP JUMPDEST PUSH2 0x3D4 SWAP1 PUSH1 0x3C PUSH2 0x126A JUMP JUMPDEST PUSH1 0x4 SSTORE POP POP JUMP JUMPDEST POP PUSH1 0x4 SSTORE JUMP JUMPDEST PUSH1 0x0 SLOAD PUSH1 0x1 PUSH1 0x1 PUSH1 0xA0 SHL SUB AND CALLER EQ PUSH2 0x40B JUMPI PUSH1 0x40 MLOAD PUSH3 0x461BCD PUSH1 0xE5 SHL DUP2 MSTORE PUSH1 0x4 ADD PUSH2 0x329 SWAP1 PUSH2 0x121F JUMP JUMPDEST PUSH1 0x3 SSTORE JUMP JUMPDEST PUSH1 0x0 SLOAD PUSH1 0x1 PUSH1 0x1 PUSH1 0xA0 SHL SUB AND CALLER EQ PUSH2 0x43A JUMPI PUSH1 0x40 MLOAD PUSH3 0x461BCD PUSH1 0xE5 SHL DUP2 MSTORE PUSH1 0x4 ADD PUSH2 0x329 SWAP1 PUSH2 0x121F JUMP JUMPDEST PUSH1 0x1 DUP1 SLOAD PUSH1 0xFF PUSH1 0xA0 SHL NOT AND PUSH1 0x1 PUSH1 0xA0 SHL OR SWAP1 SSTORE PUSH1 0x0 JUMPDEST PUSH1 0x6 SLOAD DUP2 LT ISZERO PUSH2 0x4B9 JUMPI PUSH1 0x0 PUSH1 0x5 PUSH1 0x0 PUSH1 0x6 DUP5 DUP2 SLOAD DUP2 LT PUSH2 0x473 JUMPI PUSH2 0x473 PUSH2 0x1289 JUMP JUMPDEST PUSH1 0x0 SWAP2 DUP3 MSTORE PUSH1 0x20 DUP1 DUP4 KECCAK256 SWAP2 SWAP1 SWAP2 ADD SLOAD PUSH1 0x1 PUSH1 0x1 PUSH1 0xA0 SHL SUB AND DUP4 MSTORE DUP3 ADD SWAP3 SWAP1 SWAP3 MSTORE PUSH1 0x40 ADD SWAP1 KECCAK256 DUP1 SLOAD PUSH1 0xFF NOT AND SWAP2 ISZERO ISZERO SWAP2 SWAP1 SWAP2 OR SWAP1 SSTORE DUP1 PUSH2 0x4B1 DUP2 PUSH2 0x129F JUMP JUMPDEST SWAP2 POP POP PUSH2 0x450 JUMP JUMPDEST POP PUSH2 0x4C6 PUSH1 0x6 PUSH1 0x0 PUSH2 0x1140 JUMP JUMPDEST JUMP JUMPDEST PUSH1 0x0 SLOAD PUSH1 0x1 PUSH1 0x1 PUSH1 0xA0 SHL SUB AND CALLER EQ PUSH2 0x4F2 JUMPI PUSH1 0x40 MLOAD PUSH3 0x461BCD PUSH1 0xE5 SHL DUP2 MSTORE PUSH1 0x4 ADD PUSH2 0x329 SWAP1 PUSH2 0x121F JUMP JUMPDEST PUSH2 0x4C6 PUSH1 0x0 PUSH2 0xFEA JUMP JUMPDEST PUSH1 0x0 SLOAD PUSH1 0x1 PUSH1 0x1 PUSH1 0xA0 SHL SUB AND CALLER EQ PUSH2 0x526 JUMPI PUSH1 0x40 MLOAD PUSH3 0x461BCD PUSH1 0xE5 SHL DUP2 MSTORE PUSH1 0x4 ADD PUSH2 0x329 SWAP1 PUSH2 0x121F JUMP JUMPDEST PUSH1 0x1 SLOAD PUSH1 0x1 PUSH1 0xA0 SHL SWAP1 DIV PUSH1 0xFF AND PUSH2 0x593 JUMPI PUSH1 0x40 MLOAD PUSH3 0x461BCD PUSH1 0xE5 SHL DUP2 MSTORE PUSH1 0x20 PUSH1 0x4 DUP3 ADD MSTORE PUSH1 0x2B PUSH1 0x24 DUP3 ADD MSTORE PUSH32 0x54686572652063757272656E746C792069736E277420616E206169722064726F PUSH1 0x44 DUP3 ADD MSTORE PUSH11 0x38103A379031B637B9B297 PUSH1 0xA9 SHL PUSH1 0x64 DUP3 ADD MSTORE PUSH1 0x84 ADD PUSH2 0x329 JUMP JUMPDEST PUSH1 0x1 DUP1 SLOAD PUSH1 0xFF PUSH1 0xA0 SHL NOT AND SWAP1 SSTORE JUMP JUMPDEST PUSH1 0x1 SLOAD PUSH1 0x40 MLOAD PUSH4 0x70A08231 PUSH1 0xE0 SHL DUP2 MSTORE CALLER PUSH1 0x4 DUP3 ADD MSTORE PUSH1 0x0 SWAP2 PUSH1 0x1 PUSH1 0x1 PUSH1 0xA0 SHL SUB AND SWAP1 PUSH4 0x70A08231 SWAP1 PUSH1 0x24 ADD PUSH1 0x20 PUSH1 0x40 MLOAD DUP1 DUP4 SUB DUP2 DUP7 GAS STATICCALL ISZERO DUP1 ISZERO PUSH2 0x5EB JUMPI RETURNDATASIZE PUSH1 0x0 DUP1 RETURNDATACOPY RETURNDATASIZE PUSH1 0x0 REVERT JUMPDEST POP POP POP POP PUSH1 0x40 MLOAD RETURNDATASIZE PUSH1 0x1F NOT PUSH1 0x1F DUP3 ADD AND DUP3 ADD DUP1 PUSH1 0x40 MSTORE POP DUP2 ADD SWAP1 PUSH2 0x2FA SWAP2 SWAP1 PUSH2 0x12BA JUMP JUMPDEST PUSH1 0x6 DUP2 DUP2 SLOAD DUP2 LT PUSH2 0x61F JUMPI PUSH1 0x0 DUP1 REVERT JUMPDEST PUSH1 0x0 SWAP2 DUP3 MSTORE PUSH1 0x20 SWAP1 SWAP2 KECCAK256 ADD SLOAD PUSH1 0x1 PUSH1 0x1 PUSH1 0xA0 SHL SUB AND SWAP1 POP DUP2 JUMP JUMPDEST PUSH1 0x2 SLOAD PUSH1 0x1 SLOAD PUSH1 0x40 MLOAD PUSH4 0x70A08231 PUSH1 0xE0 SHL DUP2 MSTORE CALLER PUSH1 0x4 DUP3 ADD DUP2 SWAP1 MSTORE SWAP3 SWAP2 PUSH1 0x1 PUSH1 0x1 PUSH1 0xA0 SHL SUB AND SWAP1 PUSH4 0x70A08231 SWAP1 PUSH1 0x24 ADD PUSH1 0x20 PUSH1 0x40 MLOAD DUP1 DUP4 SUB DUP2 DUP7 GAS STATICCALL ISZERO DUP1 ISZERO PUSH2 0x686 JUMPI RETURNDATASIZE PUSH1 0x0 DUP1 RETURNDATACOPY RETURNDATASIZE PUSH1 0x0 REVERT JUMPDEST POP POP POP POP PUSH1 0x40 MLOAD RETURNDATASIZE PUSH1 0x1F NOT PUSH1 0x1F DUP3 ADD AND DUP3 ADD DUP1 PUSH1 0x40 MSTORE POP DUP2 ADD SWAP1 PUSH2 0x6AA SWAP2 SWAP1 PUSH2 0x12BA JUMP JUMPDEST LT ISZERO PUSH2 0x728 JUMPI PUSH1 0x40 MLOAD PUSH3 0x461BCD PUSH1 0xE5 SHL DUP2 MSTORE PUSH1 0x20 PUSH1 0x4 DUP3 ADD MSTORE PUSH1 0x41 PUSH1 0x24 DUP3 ADD MSTORE PUSH32 0x596F75206E65656420746F2068617665206D6F726520696E7665737465642074 PUSH1 0x44 DUP3 ADD MSTORE PUSH32 0x6F207265636569766520726577617264732066726F6D206169722064726F7073 PUSH1 0x64 DUP3 ADD MSTORE PUSH1 0x21 PUSH1 0xF8 SHL PUSH1 0x84 DUP3 ADD MSTORE PUSH1 0xA4 ADD PUSH2 0x329 JUMP JUMPDEST PUSH1 0x1 SLOAD PUSH1 0x1 PUSH1 0xA0 SHL SWAP1 DIV PUSH1 0xFF AND PUSH2 0x7DC JUMPI PUSH1 0x40 MLOAD PUSH3 0x461BCD PUSH1 0xE5 SHL DUP2 MSTORE PUSH1 0x20 PUSH1 0x4 DUP3 ADD MSTORE PUSH1 0x66 PUSH1 0x24 DUP3 ADD MSTORE PUSH32 0x546865206169722064726F70206973206E6F742063757272656E746C79206163 PUSH1 0x44 DUP3 ADD MSTORE PUSH32 0x746976652E20596F752063616E20636C61696D20796F7572206169722064726F PUSH1 0x64 DUP3 ADD MSTORE PUSH32 0x702072657761726473207768656E20616E206169722064726F70206973206F6E PUSH1 0x84 DUP3 ADD MSTORE PUSH6 0x33B7B4B73397 PUSH1 0xD1 SHL PUSH1 0xA4 DUP3 ADD MSTORE PUSH1 0xC4 ADD PUSH2 0x329 JUMP JUMPDEST PUSH1 0x1 PUSH1 0x1 PUSH1 0xA0 SHL SUB DUP2 AND PUSH1 0x0 SWAP1 DUP2 MSTORE PUSH1 0x5 PUSH1 0x20 MSTORE PUSH1 0x40 SWAP1 KECCAK256 SLOAD PUSH1 0xFF AND ISZERO PUSH2 0x86B JUMPI PUSH1 0x40 MLOAD PUSH3 0x461BCD PUSH1 0xE5 SHL DUP2 MSTORE PUSH1 0x20 PUSH1 0x4 DUP3 ADD MSTORE PUSH1 0x37 PUSH1 0x24 DUP3 ADD MSTORE PUSH32 0x596F7527766520616C726561647920636C61696D656420796F75722072657761 PUSH1 0x44 DUP3 ADD MSTORE PUSH32 0x7264732066726F6D2074686973206169722064726F7021000000000000000000 PUSH1 0x64 DUP3 ADD MSTORE PUSH1 0x84 ADD PUSH2 0x329 JUMP JUMPDEST PUSH1 0x1 SLOAD PUSH1 0x40 MLOAD PUSH4 0x1497B01B PUSH1 0xE0 SHL DUP2 MSTORE PUSH1 0x1 PUSH1 0x1 PUSH1 0xA0 SHL SUB DUP4 DUP2 AND PUSH1 0x4 DUP4 ADD MSTORE PUSH1 0x0 SWAP3 AND SWAP1 PUSH4 0x1497B01B SWAP1 PUSH1 0x24 ADD PUSH1 0x20 PUSH1 0x40 MLOAD DUP1 DUP4 SUB DUP2 DUP7 GAS STATICCALL ISZERO DUP1 ISZERO PUSH2 0x8B6 JUMPI RETURNDATASIZE PUSH1 0x0 DUP1 RETURNDATACOPY RETURNDATASIZE PUSH1 0x0 REVERT JUMPDEST POP POP POP POP PUSH1 0x40 MLOAD RETURNDATASIZE PUSH1 0x1F NOT PUSH1 0x1F DUP3 ADD AND DUP3 ADD DUP1 PUSH1 0x40 MSTORE POP DUP2 ADD SWAP1 PUSH2 0x8DA SWAP2 SWAP1 PUSH2 0x12BA JUMP JUMPDEST GT PUSH2 0x93F JUMPI PUSH1 0x40 MLOAD PUSH3 0x461BCD PUSH1 0xE5 SHL DUP2 MSTORE PUSH1 0x20 PUSH1 0x4 DUP3 ADD MSTORE PUSH1 0x2F PUSH1 0x24 DUP3 ADD MSTORE PUSH32 0x596F757220696E76657374696E672074696D65206E6565647320746F20626520 PUSH1 0x44 DUP3 ADD MSTORE PUSH15 0x33B932B0BA32B9103A3430B7101817 PUSH1 0x89 SHL PUSH1 0x64 DUP3 ADD MSTORE PUSH1 0x84 ADD PUSH2 0x329 JUMP JUMPDEST PUSH1 0x1 PUSH1 0x0 SWAP1 SLOAD SWAP1 PUSH2 0x100 EXP SWAP1 DIV PUSH1 0x1 PUSH1 0x1 PUSH1 0xA0 SHL SUB AND PUSH1 0x1 PUSH1 0x1 PUSH1 0xA0 SHL SUB AND PUSH4 0x2FB47BE4 PUSH1 0x40 MLOAD DUP2 PUSH4 0xFFFFFFFF AND PUSH1 0xE0 SHL DUP2 MSTORE PUSH1 0x4 ADD PUSH1 0x20 PUSH1 0x40 MLOAD DUP1 DUP4 SUB DUP2 DUP7 GAS STATICCALL ISZERO DUP1 ISZERO PUSH2 0x992 JUMPI RETURNDATASIZE PUSH1 0x0 DUP1 RETURNDATACOPY RETURNDATASIZE PUSH1 0x0 REVERT JUMPDEST POP POP POP POP PUSH1 0x40 MLOAD RETURNDATASIZE PUSH1 0x1F NOT PUSH1 0x1F DUP3 ADD AND DUP3 ADD DUP1 PUSH1 0x40 MSTORE POP DUP2 ADD SWAP1 PUSH2 0x9B6 SWAP2 SWAP1 PUSH2 0x12BA JUMP JUMPDEST PUSH1 0x1 SLOAD PUSH1 0x40 MLOAD PUSH4 0x1497B01B PUSH1 0xE0 SHL DUP2 MSTORE PUSH1 0x1 PUSH1 0x1 PUSH1 0xA0 SHL SUB DUP5 DUP2 AND PUSH1 0x4 DUP4 ADD MSTORE SWAP1 SWAP2 AND SWAP1 PUSH4 0x1497B01B SWAP1 PUSH1 0x24 ADD PUSH1 0x20 PUSH1 0x40 MLOAD DUP1 DUP4 SUB DUP2 DUP7 GAS STATICCALL ISZERO DUP1 ISZERO PUSH2 0xA00 JUMPI RETURNDATASIZE PUSH1 0x0 DUP1 RETURNDATACOPY RETURNDATASIZE PUSH1 0x0 REVERT JUMPDEST POP POP POP POP PUSH1 0x40 MLOAD RETURNDATASIZE PUSH1 0x1F NOT PUSH1 0x1F DUP3 ADD AND DUP3 ADD DUP1 PUSH1 0x40 MSTORE POP DUP2 ADD SWAP1 PUSH2 0xA24 SWAP2 SWAP1 PUSH2 0x12BA JUMP JUMPDEST GT PUSH2 0xAB6 JUMPI PUSH1 0x40 MLOAD PUSH3 0x461BCD PUSH1 0xE5 SHL DUP2 MSTORE PUSH1 0x20 PUSH1 0x4 DUP3 ADD MSTORE PUSH1 0x56 PUSH1 0x24 DUP3 ADD MSTORE PUSH32 0x596F757220696E76657374696E672074696D65206E6565647320746F20626520 PUSH1 0x44 DUP3 ADD MSTORE PUSH32 0x67726561746572207468616E207468652074696D657374616D70206F66207468 PUSH1 0x64 DUP3 ADD MSTORE PUSH22 0x329031B7B73A3930B1BA103232B83637BCB6B2B73A17 PUSH1 0x51 SHL PUSH1 0x84 DUP3 ADD MSTORE PUSH1 0xA4 ADD PUSH2 0x329 JUMP JUMPDEST PUSH1 0x1 SLOAD PUSH1 0x40 MLOAD PUSH4 0x1497B01B PUSH1 0xE0 SHL DUP2 MSTORE PUSH1 0x1 PUSH1 0x1 PUSH1 0xA0 SHL SUB DUP4 DUP2 AND PUSH1 0x4 DUP4 ADD MSTORE TIMESTAMP SWAP3 PUSH1 0x0 SWAP3 SWAP2 AND SWAP1 PUSH4 0x1497B01B SWAP1 PUSH1 0x24 ADD PUSH1 0x20 PUSH1 0x40 MLOAD DUP1 DUP4 SUB DUP2 DUP7 GAS STATICCALL ISZERO DUP1 ISZERO PUSH2 0xB04 JUMPI RETURNDATASIZE PUSH1 0x0 DUP1 RETURNDATACOPY RETURNDATASIZE PUSH1 0x0 REVERT JUMPDEST POP POP POP POP PUSH1 0x40 MLOAD RETURNDATASIZE PUSH1 0x1F NOT PUSH1 0x1F DUP3 ADD AND DUP3 ADD DUP1 PUSH1 0x40 MSTORE POP DUP2 ADD SWAP1 PUSH2 0xB28 SWAP2 SWAP1 PUSH2 0x12BA JUMP JUMPDEST PUSH1 0x40 DUP1 MLOAD DUP1 DUP3 ADD SWAP1 SWAP2 MSTORE PUSH1 0x1 DUP2 MSTORE PUSH1 0x31 PUSH1 0xF8 SHL PUSH1 0x20 DUP3 ADD MSTORE PUSH1 0x4 SLOAD SWAP2 SWAP3 POP SWAP1 DUP4 SWAP1 PUSH2 0xB53 SWAP1 DUP5 PUSH2 0x12D3 JUMP JUMPDEST LT ISZERO DUP1 ISZERO PUSH2 0xB9C JUMPI POP PUSH1 0x0 PUSH1 0x18 PUSH1 0x3C DUP1 DUP7 PUSH1 0x4 SLOAD DUP8 PUSH2 0xB72 SWAP2 SWAP1 PUSH2 0x12D3 JUMP JUMPDEST PUSH2 0xB7C SWAP2 SWAP1 PUSH2 0x12EB JUMP JUMPDEST PUSH2 0xB86 SWAP2 SWAP1 PUSH2 0x1318 JUMP JUMPDEST PUSH2 0xB90 SWAP2 SWAP1 PUSH2 0x1318 JUMP JUMPDEST PUSH2 0xB9A SWAP2 SWAP1 PUSH2 0x1318 JUMP JUMPDEST GT JUMPDEST ISZERO PUSH2 0xBE8 JUMPI PUSH2 0xBE5 PUSH1 0x18 PUSH1 0x3C DUP1 DUP7 PUSH1 0x4 SLOAD DUP8 PUSH2 0xBB8 SWAP2 SWAP1 PUSH2 0x12D3 JUMP JUMPDEST PUSH2 0xBC2 SWAP2 SWAP1 PUSH2 0x12EB JUMP JUMPDEST PUSH2 0xBCC SWAP2 SWAP1 PUSH2 0x1318 JUMP JUMPDEST PUSH2 0xBD6 SWAP2 SWAP1 PUSH2 0x1318 JUMP JUMPDEST PUSH2 0xBE0 SWAP2 SWAP1 PUSH2 0x1318 JUMP JUMPDEST PUSH2 0x103A JUMP JUMPDEST SWAP1 POP JUMPDEST PUSH1 0x4 SLOAD PUSH2 0xBF5 SWAP1 DUP5 PUSH2 0x12EB JUMP JUMPDEST DUP3 GT ISZERO DUP2 PUSH1 0x40 MLOAD PUSH1 0x20 ADD PUSH2 0xC09 SWAP2 SWAP1 PUSH2 0x135C JUMP JUMPDEST PUSH1 0x40 MLOAD PUSH1 0x20 DUP2 DUP4 SUB SUB DUP2 MSTORE SWAP1 PUSH1 0x40 MSTORE SWAP1 PUSH2 0xC36 JUMPI PUSH1 0x40 MLOAD PUSH3 0x461BCD PUSH1 0xE5 SHL DUP2 MSTORE PUSH1 0x4 ADD PUSH2 0x329 SWAP2 SWAP1 PUSH2 0x143F JUMP JUMPDEST POP PUSH1 0x3 SLOAD PUSH1 0x1 SLOAD PUSH1 0x40 MLOAD PUSH4 0x70A08231 PUSH1 0xE0 SHL DUP2 MSTORE PUSH1 0x1 PUSH1 0x1 PUSH1 0xA0 SHL SUB DUP8 DUP2 AND PUSH1 0x4 DUP4 ADD MSTORE PUSH1 0x0 SWAP4 SWAP3 PUSH1 0x64 SWAP3 SWAP2 AND SWAP1 PUSH4 0x70A08231 SWAP1 PUSH1 0x24 ADD PUSH1 0x20 PUSH1 0x40 MLOAD DUP1 DUP4 SUB DUP2 DUP7 GAS STATICCALL ISZERO DUP1 ISZERO PUSH2 0xC8A JUMPI RETURNDATASIZE PUSH1 0x0 DUP1 RETURNDATACOPY RETURNDATASIZE PUSH1 0x0 REVERT JUMPDEST POP POP POP POP PUSH1 0x40 MLOAD RETURNDATASIZE PUSH1 0x1F NOT PUSH1 0x1F DUP3 ADD AND DUP3 ADD DUP1 PUSH1 0x40 MSTORE POP DUP2 ADD SWAP1 PUSH2 0xCAE SWAP2 SWAP1 PUSH2 0x12BA JUMP JUMPDEST PUSH2 0xCB8 SWAP2 SWAP1 PUSH2 0x1318 JUMP JUMPDEST PUSH2 0xCC2 SWAP2 SWAP1 PUSH2 0x126A JUMP JUMPDEST SWAP1 POP PUSH1 0x0 DUP5 PUSH1 0x1 PUSH1 0x0 SWAP1 SLOAD SWAP1 PUSH2 0x100 EXP SWAP1 DIV PUSH1 0x1 PUSH1 0x1 PUSH1 0xA0 SHL SUB AND PUSH1 0x1 PUSH1 0x1 PUSH1 0xA0 SHL SUB AND PUSH4 0x2FB47BE4 PUSH1 0x40 MLOAD DUP2 PUSH4 0xFFFFFFFF AND PUSH1 0xE0 SHL DUP2 MSTORE PUSH1 0x4 ADD PUSH1 0x20 PUSH1 0x40 MLOAD DUP1 DUP4 SUB DUP2 DUP7 GAS STATICCALL ISZERO DUP1 ISZERO PUSH2 0xD1A JUMPI RETURNDATASIZE PUSH1 0x0 DUP1 RETURNDATACOPY RETURNDATASIZE PUSH1 0x0 REVERT JUMPDEST POP POP POP POP PUSH1 0x40 MLOAD RETURNDATASIZE PUSH1 0x1F NOT PUSH1 0x1F DUP3 ADD AND DUP3 ADD DUP1 PUSH1 0x40 MSTORE POP DUP2 ADD SWAP1 PUSH2 0xD3E SWAP2 SWAP1 PUSH2 0x12BA JUMP JUMPDEST PUSH2 0xD48 SWAP1 DUP8 PUSH2 0x12EB JUMP JUMPDEST DUP7 PUSH2 0xD53 DUP8 DUP3 PUSH2 0x12EB JUMP JUMPDEST PUSH2 0xD5D SWAP2 SWAP1 PUSH2 0x126A JUMP JUMPDEST PUSH2 0xD67 SWAP2 SWAP1 PUSH2 0x1318 JUMP JUMPDEST PUSH2 0xD72 SWAP1 PUSH1 0x1 PUSH2 0x12D3 JUMP JUMPDEST PUSH2 0xD7C SWAP1 DUP5 PUSH2 0x126A JUMP JUMPDEST PUSH2 0xD86 SWAP2 SWAP1 PUSH2 0x1318 JUMP JUMPDEST PUSH2 0xD90 SWAP1 DUP4 PUSH2 0x12D3 JUMP JUMPDEST PUSH1 0x1 SLOAD PUSH1 0x40 MLOAD PUSH4 0x70A08231 PUSH1 0xE0 SHL DUP2 MSTORE ADDRESS PUSH1 0x4 DUP3 ADD MSTORE SWAP2 SWAP3 POP DUP3 SWAP2 PUSH1 0x1 PUSH1 0x1 PUSH1 0xA0 SHL SUB SWAP1 SWAP2 AND SWAP1 PUSH4 0x70A08231 SWAP1 PUSH1 0x24 ADD PUSH1 0x20 PUSH1 0x40 MLOAD DUP1 DUP4 SUB DUP2 DUP7 GAS STATICCALL ISZERO DUP1 ISZERO PUSH2 0xDDD JUMPI RETURNDATASIZE PUSH1 0x0 DUP1 RETURNDATACOPY RETURNDATASIZE PUSH1 0x0 REVERT JUMPDEST POP POP POP POP PUSH1 0x40 MLOAD RETURNDATASIZE PUSH1 0x1F NOT PUSH1 0x1F DUP3 ADD AND DUP3 ADD DUP1 PUSH1 0x40 MSTORE POP DUP2 ADD SWAP1 PUSH2 0xE01 SWAP2 SWAP1 PUSH2 0x12BA JUMP JUMPDEST LT ISZERO PUSH2 0xE75 JUMPI PUSH1 0x40 MLOAD PUSH3 0x461BCD PUSH1 0xE5 SHL DUP2 MSTORE PUSH1 0x20 PUSH1 0x4 DUP3 ADD MSTORE PUSH1 0x3B PUSH1 0x24 DUP3 ADD MSTORE PUSH32 0x4169722064726F7020646F65736E2774206861766520656E6F7567682066756E PUSH1 0x44 DUP3 ADD MSTORE PUSH32 0x647320666F722074686973206169722064726F7020636C61696D2E0000000000 PUSH1 0x64 DUP3 ADD MSTORE PUSH1 0x84 ADD PUSH2 0x329 JUMP JUMPDEST PUSH1 0x6 DUP1 SLOAD PUSH1 0x1 DUP1 DUP3 ADD SWAP1 SWAP3 SSTORE PUSH32 0xF652222313E28459528D920B65115C16C04F3EFC82AAEDC97BE59F3F377C0D3F ADD DUP1 SLOAD PUSH1 0x1 PUSH1 0x1 PUSH1 0xA0 SHL SUB NOT AND PUSH1 0x1 PUSH1 0x1 PUSH1 0xA0 SHL SUB DUP10 DUP2 AND SWAP2 DUP3 OR SWAP1 SWAP3 SSTORE PUSH1 0x0 DUP2 DUP2 MSTORE PUSH1 0x5 PUSH1 0x20 MSTORE PUSH1 0x40 SWAP1 DUP2 SWAP1 KECCAK256 DUP1 SLOAD PUSH1 0xFF NOT AND DUP6 OR SWAP1 SSTORE SWAP3 SLOAD SWAP3 MLOAD PUSH4 0xA9059CBB PUSH1 0xE0 SHL DUP2 MSTORE PUSH1 0x4 DUP2 ADD SWAP2 SWAP1 SWAP2 MSTORE PUSH1 0x24 DUP2 ADD DUP5 SWAP1 MSTORE SWAP2 AND SWAP1 PUSH4 0xA9059CBB SWAP1 PUSH1 0x44 ADD PUSH1 0x20 PUSH1 0x40 MLOAD DUP1 DUP4 SUB DUP2 PUSH1 0x0 DUP8 GAS CALL ISZERO DUP1 ISZERO PUSH2 0xF22 JUMPI RETURNDATASIZE PUSH1 0x0 DUP1 RETURNDATACOPY RETURNDATASIZE PUSH1 0x0 REVERT JUMPDEST POP POP POP POP PUSH1 0x40 MLOAD RETURNDATASIZE PUSH1 0x1F NOT PUSH1 0x1F DUP3 ADD AND DUP3 ADD DUP1 PUSH1 0x40 MSTORE POP DUP2 ADD SWAP1 PUSH2 0xF46 SWAP2 SWAP1 PUSH2 0x1472 JUMP JUMPDEST POP POP POP POP POP POP POP JUMP JUMPDEST PUSH1 0x0 SLOAD PUSH1 0x1 PUSH1 0x1 PUSH1 0xA0 SHL SUB AND CALLER EQ PUSH2 0xF79 JUMPI PUSH1 0x40 MLOAD PUSH3 0x461BCD PUSH1 0xE5 SHL DUP2 MSTORE PUSH1 0x4 ADD PUSH2 0x329 SWAP1 PUSH2 0x121F JUMP JUMPDEST PUSH1 0x1 PUSH1 0x1 PUSH1 0xA0 SHL SUB DUP2 AND PUSH2 0xFDE JUMPI PUSH1 0x40 MLOAD PUSH3 0x461BCD PUSH1 0xE5 SHL DUP2 MSTORE PUSH1 0x20 PUSH1 0x4 DUP3 ADD MSTORE PUSH1 0x26 PUSH1 0x24 DUP3 ADD MSTORE PUSH32 0x4F776E61626C653A206E6577206F776E657220697320746865207A65726F2061 PUSH1 0x44 DUP3 ADD MSTORE PUSH6 0x646472657373 PUSH1 0xD0 SHL PUSH1 0x64 DUP3 ADD MSTORE PUSH1 0x84 ADD PUSH2 0x329 JUMP JUMPDEST PUSH2 0xFE7 DUP2 PUSH2 0xFEA JUMP JUMPDEST POP JUMP JUMPDEST PUSH1 0x0 DUP1 SLOAD PUSH1 0x1 PUSH1 0x1 PUSH1 0xA0 SHL SUB DUP4 DUP2 AND PUSH1 0x1 PUSH1 0x1 PUSH1 0xA0 SHL SUB NOT DUP4 AND DUP2 OR DUP5 SSTORE PUSH1 0x40 MLOAD SWAP2 SWAP1 SWAP3 AND SWAP3 DUP4 SWAP2 PUSH32 0x8BE0079C531659141344CD1FD0A4F28419497F9722A3DAAFE3B4186F6B6457E0 SWAP2 SWAP1 LOG3 POP POP JUMP JUMPDEST PUSH1 0x60 DUP2 PUSH2 0x105E JUMPI POP POP PUSH1 0x40 DUP1 MLOAD DUP1 DUP3 ADD SWAP1 SWAP2 MSTORE PUSH1 0x1 DUP2 MSTORE PUSH1 0x3 PUSH1 0xFC SHL PUSH1 0x20 DUP3 ADD MSTORE SWAP1 JUMP JUMPDEST DUP2 PUSH1 0x0 JUMPDEST DUP2 ISZERO PUSH2 0x1088 JUMPI DUP1 PUSH2 0x1072 DUP2 PUSH2 0x129F JUMP JUMPDEST SWAP2 POP PUSH2 0x1081 SWAP1 POP PUSH1 0xA DUP4 PUSH2 0x1318 JUMP JUMPDEST SWAP2 POP PUSH2 0x1062 JUMP JUMPDEST PUSH1 0x0 DUP2 PUSH8 0xFFFFFFFFFFFFFFFF DUP2 GT ISZERO PUSH2 0x10A3 JUMPI PUSH2 0x10A3 PUSH2 0x148F JUMP JUMPDEST PUSH1 0x40 MLOAD SWAP1 DUP1 DUP3 MSTORE DUP1 PUSH1 0x1F ADD PUSH1 0x1F NOT AND PUSH1 0x20 ADD DUP3 ADD PUSH1 0x40 MSTORE DUP1 ISZERO PUSH2 0x10CD JUMPI PUSH1 0x20 DUP3 ADD DUP2 DUP1 CALLDATASIZE DUP4 CALLDATACOPY ADD SWAP1 POP JUMPDEST POP SWAP1 POP JUMPDEST DUP5 ISZERO PUSH2 0x1138 JUMPI PUSH2 0x10E2 PUSH1 0x1 DUP4 PUSH2 0x12EB JUMP JUMPDEST SWAP2 POP PUSH2 0x10EF PUSH1 0xA DUP7 PUSH2 0x14A5 JUMP JUMPDEST PUSH2 0x10FA SWAP1 PUSH1 0x30 PUSH2 0x12D3 JUMP JUMPDEST PUSH1 0xF8 SHL DUP2 DUP4 DUP2 MLOAD DUP2 LT PUSH2 0x110F JUMPI PUSH2 0x110F PUSH2 0x1289 JUMP JUMPDEST PUSH1 0x20 ADD ADD SWAP1 PUSH1 0x1 PUSH1 0x1 PUSH1 0xF8 SHL SUB NOT AND SWAP1 DUP2 PUSH1 0x0 BYTE SWAP1 MSTORE8 POP PUSH2 0x1131 PUSH1 0xA DUP7 PUSH2 0x1318 JUMP JUMPDEST SWAP5 POP PUSH2 0x10D1 JUMP JUMPDEST SWAP5 SWAP4 POP POP POP POP JUMP JUMPDEST POP DUP1 SLOAD PUSH1 0x0 DUP3 SSTORE SWAP1 PUSH1 0x0 MSTORE PUSH1 0x20 PUSH1 0x0 KECCAK256 SWAP1 DUP2 ADD SWAP1 PUSH2 0xFE7 SWAP2 SWAP1 JUMPDEST DUP1 DUP3 GT ISZERO PUSH2 0x116E JUMPI PUSH1 0x0 DUP2 SSTORE PUSH1 0x1 ADD PUSH2 0x115A JUMP JUMPDEST POP SWAP1 JUMP JUMPDEST PUSH1 0x1 PUSH1 0x1 PUSH1 0xA0 SHL SUB DUP2 AND DUP2 EQ PUSH2 0xFE7 JUMPI PUSH1 0x0 DUP1 REVERT JUMPDEST PUSH1 0x0 PUSH1 0x20 DUP3 DUP5 SUB SLT ISZERO PUSH2 0x1199 JUMPI PUSH1 0x0 DUP1 REVERT JUMPDEST DUP2 CALLDATALOAD PUSH2 0x11A4 DUP2 PUSH2 0x1172 JUMP JUMPDEST SWAP4 SWAP3 POP POP POP JUMP JUMPDEST PUSH1 0x0 PUSH1 0x20 DUP3 DUP5 SUB SLT ISZERO PUSH2 0x11BD JUMPI PUSH1 0x0 DUP1 REVERT JUMPDEST POP CALLDATALOAD SWAP2 SWAP1 POP JUMP JUMPDEST DUP1 ISZERO ISZERO DUP2 EQ PUSH2 0xFE7 JUMPI PUSH1 0x0 DUP1 REVERT JUMPDEST PUSH1 0x0 DUP1 PUSH1 0x40 DUP4 DUP6 SUB SLT ISZERO PUSH2 0x11E5 JUMPI PUSH1 0x0 DUP1 REVERT JUMPDEST DUP3 CALLDATALOAD SWAP2 POP PUSH1 0x20 DUP4 ADD CALLDATALOAD PUSH2 0x11F7 DUP2 PUSH2 0x11C4 JUMP JUMPDEST DUP1 SWAP2 POP POP SWAP3 POP SWAP3 SWAP1 POP JUMP JUMPDEST PUSH1 0x0 PUSH1 0x20 DUP3 DUP5 SUB SLT ISZERO PUSH2 0x1214 JUMPI PUSH1 0x0 DUP1 REVERT JUMPDEST DUP2 MLOAD PUSH2 0x11A4 DUP2 PUSH2 0x1172 JUMP JUMPDEST PUSH1 0x20 DUP1 DUP3 MSTORE DUP2 DUP2 ADD MSTORE PUSH32 0x4F776E61626C653A2063616C6C6572206973206E6F7420746865206F776E6572 PUSH1 0x40 DUP3 ADD MSTORE PUSH1 0x60 ADD SWAP1 JUMP JUMPDEST PUSH4 0x4E487B71 PUSH1 0xE0 SHL PUSH1 0x0 MSTORE PUSH1 0x11 PUSH1 0x4 MSTORE PUSH1 0x24 PUSH1 0x0 REVERT JUMPDEST PUSH1 0x0 DUP2 PUSH1 0x0 NOT DIV DUP4 GT DUP3 ISZERO ISZERO AND ISZERO PUSH2 0x1284 JUMPI PUSH2 0x1284 PUSH2 0x1254 JUMP JUMPDEST POP MUL SWAP1 JUMP JUMPDEST PUSH4 0x4E487B71 PUSH1 0xE0 SHL PUSH1 0x0 MSTORE PUSH1 0x32 PUSH1 0x4 MSTORE PUSH1 0x24 PUSH1 0x0 REVERT JUMPDEST PUSH1 0x0 PUSH1 0x0 NOT DUP3 EQ ISZERO PUSH2 0x12B3 JUMPI PUSH2 0x12B3 PUSH2 0x1254 JUMP JUMPDEST POP PUSH1 0x1 ADD SWAP1 JUMP JUMPDEST PUSH1 0x0 PUSH1 0x20 DUP3 DUP5 SUB SLT ISZERO PUSH2 0x12CC JUMPI PUSH1 0x0 DUP1 REVERT JUMPDEST POP MLOAD SWAP2 SWAP1 POP JUMP JUMPDEST PUSH1 0x0 DUP3 NOT DUP3 GT ISZERO PUSH2 0x12E6 JUMPI PUSH2 0x12E6 PUSH2 0x1254 JUMP JUMPDEST POP ADD SWAP1 JUMP JUMPDEST PUSH1 0x0 DUP3 DUP3 LT ISZERO PUSH2 0x12FD JUMPI PUSH2 0x12FD PUSH2 0x1254 JUMP JUMPDEST POP SUB SWAP1 JUMP JUMPDEST PUSH4 0x4E487B71 PUSH1 0xE0 SHL PUSH1 0x0 MSTORE PUSH1 0x12 PUSH1 0x4 MSTORE PUSH1 0x24 PUSH1 0x0 REVERT JUMPDEST PUSH1 0x0 DUP3 PUSH2 0x1327 JUMPI PUSH2 0x1327 PUSH2 0x1302 JUMP JUMPDEST POP DIV SWAP1 JUMP JUMPDEST PUSH1 0x0 JUMPDEST DUP4 DUP2 LT ISZERO PUSH2 0x1347 JUMPI DUP2 DUP2 ADD MLOAD DUP4 DUP3 ADD MSTORE PUSH1 0x20 ADD PUSH2 0x132F JUMP JUMPDEST DUP4 DUP2 GT ISZERO PUSH2 0x1356 JUMPI PUSH1 0x0 DUP5 DUP5 ADD MSTORE JUMPDEST POP POP POP POP JUMP JUMPDEST PUSH32 0x546F6F206D616E79206F6620796F757220726563656E7420696E766573746D65 DUP2 MSTORE PUSH32 0x6E74732077657265206D61646520746F20636C6F736520746F20746865206169 PUSH1 0x20 DUP3 ADD MSTORE PUSH32 0x722064726F702074696D652E20596F752063616E20636C61696D20796F757220 PUSH1 0x40 DUP3 ADD MSTORE PUSH11 0x3932BBB0B932399034B71 PUSH1 0xAD SHL PUSH1 0x60 DUP3 ADD MSTORE PUSH1 0x0 DUP3 MLOAD PUSH2 0x13F4 DUP2 PUSH1 0x6B DUP6 ADD PUSH1 0x20 DUP8 ADD PUSH2 0x132C JUMP JUMPDEST PUSH32 0x206461792873292E20546865206169722064726F702077696C6C207374696C6C PUSH1 0x6B SWAP4 SWAP1 SWAP2 ADD SWAP3 DUP4 ADD MSTORE POP PUSH14 0x1031329037B832B7103A3432B717 PUSH1 0x91 SHL PUSH1 0x8B DUP3 ADD MSTORE PUSH1 0x99 ADD SWAP2 SWAP1 POP JUMP JUMPDEST PUSH1 0x20 DUP2 MSTORE PUSH1 0x0 DUP3 MLOAD DUP1 PUSH1 0x20 DUP5 ADD MSTORE PUSH2 0x145E DUP2 PUSH1 0x40 DUP6 ADD PUSH1 0x20 DUP8 ADD PUSH2 0x132C JUMP JUMPDEST PUSH1 0x1F ADD PUSH1 0x1F NOT AND SWAP2 SWAP1 SWAP2 ADD PUSH1 0x40 ADD SWAP3 SWAP2 POP POP JUMP JUMPDEST PUSH1 0x0 PUSH1 0x20 DUP3 DUP5 SUB SLT ISZERO PUSH2 0x1484 JUMPI PUSH1 0x0 DUP1 REVERT JUMPDEST DUP2 MLOAD PUSH2 0x11A4 DUP2 PUSH2 0x11C4 JUMP JUMPDEST PUSH4 0x4E487B71 PUSH1 0xE0 SHL PUSH1 0x0 MSTORE PUSH1 0x41 PUSH1 0x4 MSTORE PUSH1 0x24 PUSH1 0x0 REVERT JUMPDEST PUSH1 0x0 DUP3 PUSH2 0x14B4 JUMPI PUSH2 0x14B4 PUSH2 0x1302 JUMP JUMPDEST POP MOD SWAP1 JUMP INVALID LOG2 PUSH5 0x6970667358 0x22 SLT KECCAK256 SLT PUSH29 0xAA553B904CA76C4A8D7F1AC60F73C3EFACE50D058EC53C9484A67E1D1C DUP3 PUSH5 0x736F6C6343 STOP ADDMOD SIGNEXTEND STOP CALLER ",
  "sha1": "252a8d6da1d36e8f9667df68a924147544327c26",
  "source": "// SPDX-License-Identifier: MIT\n \npragma solidity >=0.8.0 <0.9.0;\n \nimport \"@openzeppelin/contracts/access/Ownable.sol\";\nimport \"@openzeppelin/contracts/utils/Strings.sol\";\nimport './ChainEstateToken.sol';\n\n/**\n * @title Chain Estate Air Drop\n * @dev Contract responsible for the Chain Estate air drop mechanism\n */\ncontract ChainEstateAirDrop is Ownable {\n\n    // References the deployed Chain Estate token.\n    ChainEstateToken public CHES;\n\n    // Determines if the air drop is active for users to collect rewards.\n    bool public airDropActive = false;\n\n    // The minimum amount of CHES a user needs to have invested to receive air drop rewards.\n    uint256 public airDropMinimumToInvest = 10000 * 10 ** 18;\n\n    // Initial percentage gained from claiming air drop before invest time calculations.\n    uint256 public airDropInitialPercent = 10;\n\n    // How long users have to hold their CHES tokens before they can participate in airdrops.\n    uint256 public minimumInvestTime = 30 days;\n\n    // Mapping that determines if each user has already claimed their air drop rewards - resets every new air drop\n    mapping(address => bool) public userClaimedAirDrop;\n\n    // List of all users who participated in the air drop - resets every new air drop\n    address[] public airDropUsers;\n \n    /**\n    * @dev Once the CHES token contract is deployed, this function is used to set a reference to that token in this contract.\n    * @param CHESTokenAddress address of the ChainEstate token.\n     */\n    function setToken(address CHESTokenAddress) public onlyOwner {\n        CHES = ChainEstateToken(CHESTokenAddress);\n    }\n \n    /**\n    * @dev Gets the amount of CHES the sender owns.\n    * @return the CHES balance of the sender\n    */\n    function getUserBalance() public view returns (uint256) {\n        return CHES.balanceOf(msg.sender);\n    }\n \n     /**\n     * @dev Returns the contract address\n     * @return contract address\n     */\n    function getContractAddress() public view returns (address) {\n        return address(this);\n    }\n \n    /**\n     * @dev Returns the CHES token address\n     * @return CHES token contract address\n     */\n    function getTokenAddress() public view returns (address) {\n        return CHES.getContractAddress();\n    }\n \n    /**\n    * @dev Only owner function to change the minimum amount of CHES a user needs to have to participate in air drops.\n    * @param newMinimum the new minimum amount of CHES\n     */\n    function changeAirDropMinimumToInvest(uint256 newMinimum) public onlyOwner {\n        airDropMinimumToInvest = newMinimum;\n    }\n\n    /**\n    * @dev Only owner function to change the initial percentage gained from air drop rewards before invest time calculation.\n    * @param amount the new air drop initial percent reward (percent of user's current holdings).\n     */\n    function changeAirDropInitialPercent(uint256 amount) public onlyOwner {\n        airDropInitialPercent = amount;\n    }\n\n    /**\n    * @dev Only owner function to change how long users need to hold their CHES tokens before being able to claim airdrop rewards.\n    * @param newMinimumTime the new minimum amount of time users need to have held their CHES tokens for.\n    * @param convertToDays boolean to determine if the number provided should be treated as a number of days (true) or seconds (false).\n     */\n    function changeMinimumInvestTime(uint256 newMinimumTime, bool convertToDays) public onlyOwner {\n        if (convertToDays) {\n            minimumInvestTime = newMinimumTime * 24 * 60 * 60;\n        }\n        else {\n            minimumInvestTime = newMinimumTime;\n        }\n    }\n \n    /**\n    * @dev Only owner function to open the air drop so users can claim their rewards.\n     */\n    function openAirDrop() public onlyOwner {\n        airDropActive = true;\n \n        for (uint i=0; i< airDropUsers.length ; i++){\n            userClaimedAirDrop[airDropUsers[i]] = false;\n        }\n \n        delete airDropUsers;\n    }\n \n    /**\n    * @dev Only owner function to close the current airdrop.\n    * Airdrops by default are never closed, this is just here in case it's needed at some point.\n     */\n    function closeAirDrop() public onlyOwner {\n        require(airDropActive, \"There currently isn't an air drop to close.\");\n        airDropActive = false;\n    }\n\n    /**\n    * @dev Allows a user to claim their air drop rewards.\n    * Sends 10% of user's current balance + more depending how long they have been holding their CHES.\n     */\n    function claimAirDrop() public {\n        address claimAddress = msg.sender;\n        require(CHES.balanceOf(claimAddress) >= airDropMinimumToInvest, \"You need to have more invested to receive rewards from air drops!\");\n        require(airDropActive, \"The air drop is not currently active. You can claim your air drop rewards when an air drop is ongoing.\");\n        require(!userClaimedAirDrop[claimAddress], \"You've already claimed your rewards from this air drop!\");\n        require(CHES.airDropInvestTime(claimAddress) > 0, \"Your investing time needs to be greater than 0.\");\n        require(CHES.airDropInvestTime(claimAddress) > CHES.initialTimeStamp(), \"Your investing time needs to be greater than the timestamp of the contract deployment.\");\n \n        // The user's investments can't be too recent or people would be encouraged to buy CHES,\n        // claim the air drop, and then sell the CHES for quick profits.\n        uint256 currTimeStamp = block.timestamp;\n        uint256 userTimeStamp = CHES.airDropInvestTime(claimAddress);\n        string memory canClaimRewardsIn = \"1\";\n        if (userTimeStamp + minimumInvestTime >= currTimeStamp && (userTimeStamp + minimumInvestTime - currTimeStamp) / 60 / 60 / 24 > 0) {\n            canClaimRewardsIn = Strings.toString((userTimeStamp + minimumInvestTime - currTimeStamp) / 60 / 60 / 24);\n        }\n\n        require(userTimeStamp <= currTimeStamp - minimumInvestTime, string(abi.encodePacked(\"Too many of your recent investments were made to close to the air drop time. You can claim your rewards in \", canClaimRewardsIn, \" day(s). The air drop will still be open then.\")));\n\n        // Initial percentage gained from claiming air drop.\n        uint256 initialAmount = (CHES.balanceOf(claimAddress) / 100) * airDropInitialPercent;\n\n        // Determines how much is added on to initial percentage based length tokens were held.\n        // If you invest super early, your rewards approaches 2 * intial percent of your current holdings.\n        // If you invest super late (close to the current time), your rewards approaches the initial percent of your current holdings but will be slightly greater.\n        uint256 finalAmount = initialAmount + (initialAmount * (1 + (((currTimeStamp - userTimeStamp) * currTimeStamp) / (currTimeStamp - CHES.initialTimeStamp())))) / currTimeStamp;\n\n        // The airdrop needs to have the required funds to give to the user.\n        // The airdrop funds will be monitored heavily so this should never prevent airdrop reward claiming.\n        require(CHES.balanceOf(address(this)) >= finalAmount, \"Air drop doesn't have enough funds for this air drop claim.\");\n\n        // Add the user as one of the users who has claimed the air drop.\n        airDropUsers.push(claimAddress);\n        userClaimedAirDrop[claimAddress] = true;\n\n        // Transfers the CHES tokens to the user claiming them.\n        CHES.transfer(claimAddress, finalAmount);\n   }\n}",
  "sourcePath": "contracts/ChainEstateAirDrop.sol",
  "type": "contract"
}